{
  "address": "0xE5B7843A981060f87F9E4151391AC6D4F10e166e",
  "abi": [
    {
      "constant": true,
      "inputs": [
        {
          "internalType": "contract ComptrollerLensInterface",
          "name": "comptroller",
          "type": "address"
        },
        {
          "internalType": "address",
          "name": "account",
          "type": "address"
        }
      ],
      "name": "getAccountLimits",
      "outputs": [
        {
          "components": [
            {
              "internalType": "contract VToken[]",
              "name": "markets",
              "type": "address[]"
            },
            {
              "internalType": "uint256",
              "name": "liquidity",
              "type": "uint256"
            },
            {
              "internalType": "uint256",
              "name": "shortfall",
              "type": "uint256"
            }
          ],
          "internalType": "struct VenusLens.AccountLimits",
          "name": "",
          "type": "tuple"
        }
      ],
      "payable": false,
      "stateMutability": "view",
      "type": "function"
    },
    {
      "constant": true,
      "inputs": [
        {
          "internalType": "contract GovernorAlpha",
          "name": "governor",
          "type": "address"
        },
        {
          "internalType": "uint256[]",
          "name": "proposalIds",
          "type": "uint256[]"
        }
      ],
      "name": "getGovProposals",
      "outputs": [
        {
          "components": [
            {
              "internalType": "uint256",
              "name": "proposalId",
              "type": "uint256"
            },
            {
              "internalType": "address",
              "name": "proposer",
              "type": "address"
            },
            {
              "internalType": "uint256",
              "name": "eta",
              "type": "uint256"
            },
            {
              "internalType": "address[]",
              "name": "targets",
              "type": "address[]"
            },
            {
              "internalType": "uint256[]",
              "name": "values",
              "type": "uint256[]"
            },
            {
              "internalType": "string[]",
              "name": "signatures",
              "type": "string[]"
            },
            {
              "internalType": "bytes[]",
              "name": "calldatas",
              "type": "bytes[]"
            },
            {
              "internalType": "uint256",
              "name": "startBlock",
              "type": "uint256"
            },
            {
              "internalType": "uint256",
              "name": "endBlock",
              "type": "uint256"
            },
            {
              "internalType": "uint256",
              "name": "forVotes",
              "type": "uint256"
            },
            {
              "internalType": "uint256",
              "name": "againstVotes",
              "type": "uint256"
            },
            {
              "internalType": "bool",
              "name": "canceled",
              "type": "bool"
            },
            {
              "internalType": "bool",
              "name": "executed",
              "type": "bool"
            }
          ],
          "internalType": "struct VenusLens.GovProposal[]",
          "name": "",
          "type": "tuple[]"
        }
      ],
      "payable": false,
      "stateMutability": "view",
      "type": "function"
    },
    {
      "constant": true,
      "inputs": [
        {
          "internalType": "contract GovernorAlpha",
          "name": "governor",
          "type": "address"
        },
        {
          "internalType": "address",
          "name": "voter",
          "type": "address"
        },
        {
          "internalType": "uint256[]",
          "name": "proposalIds",
          "type": "uint256[]"
        }
      ],
      "name": "getGovReceipts",
      "outputs": [
        {
          "components": [
            {
              "internalType": "uint256",
              "name": "proposalId",
              "type": "uint256"
            },
            {
              "internalType": "bool",
              "name": "hasVoted",
              "type": "bool"
            },
            {
              "internalType": "bool",
              "name": "support",
              "type": "bool"
            },
            {
              "internalType": "uint96",
              "name": "votes",
              "type": "uint96"
            }
          ],
          "internalType": "struct VenusLens.GovReceipt[]",
          "name": "",
          "type": "tuple[]"
        }
      ],
      "payable": false,
      "stateMutability": "view",
      "type": "function"
    },
    {
      "constant": true,
      "inputs": [
        {
          "internalType": "contract XVS",
          "name": "xvs",
          "type": "address"
        },
        {
          "internalType": "address",
          "name": "account",
          "type": "address"
        },
        {
          "internalType": "uint32[]",
          "name": "blockNumbers",
          "type": "uint32[]"
        }
      ],
      "name": "getVenusVotes",
      "outputs": [
        {
          "components": [
            {
              "internalType": "uint256",
              "name": "blockNumber",
              "type": "uint256"
            },
            {
              "internalType": "uint256",
              "name": "votes",
              "type": "uint256"
            }
          ],
          "internalType": "struct VenusLens.VenusVotes[]",
          "name": "",
          "type": "tuple[]"
        }
      ],
      "payable": false,
      "stateMutability": "view",
      "type": "function"
    },
    {
      "constant": true,
      "inputs": [
        {
          "internalType": "contract XVS",
          "name": "xvs",
          "type": "address"
        },
        {
          "internalType": "address",
          "name": "account",
          "type": "address"
        }
      ],
      "name": "getXVSBalanceMetadata",
      "outputs": [
        {
          "components": [
            {
              "internalType": "uint256",
              "name": "balance",
              "type": "uint256"
            },
            {
              "internalType": "uint256",
              "name": "votes",
              "type": "uint256"
            },
            {
              "internalType": "address",
              "name": "delegate",
              "type": "address"
            }
          ],
          "internalType": "struct VenusLens.XVSBalanceMetadata",
          "name": "",
          "type": "tuple"
        }
      ],
      "payable": false,
      "stateMutability": "view",
      "type": "function"
    },
    {
      "constant": false,
      "inputs": [
        {
          "internalType": "contract XVS",
          "name": "xvs",
          "type": "address"
        },
        {
          "internalType": "contract ComptrollerLensInterface",
          "name": "comptroller",
          "type": "address"
        },
        {
          "internalType": "address",
          "name": "account",
          "type": "address"
        }
      ],
      "name": "getXVSBalanceMetadataExt",
      "outputs": [
        {
          "components": [
            {
              "internalType": "uint256",
              "name": "balance",
              "type": "uint256"
            },
            {
              "internalType": "uint256",
              "name": "votes",
              "type": "uint256"
            },
            {
              "internalType": "address",
              "name": "delegate",
              "type": "address"
            },
            {
              "internalType": "uint256",
              "name": "allocated",
              "type": "uint256"
            }
          ],
          "internalType": "struct VenusLens.XVSBalanceMetadataExt",
          "name": "",
          "type": "tuple"
        }
      ],
      "payable": false,
      "stateMutability": "nonpayable",
      "type": "function"
    },
    {
      "constant": false,
      "inputs": [
        {
          "internalType": "contract VToken",
          "name": "vToken",
          "type": "address"
        },
        {
          "internalType": "address payable",
          "name": "account",
          "type": "address"
        }
      ],
      "name": "vTokenBalances",
      "outputs": [
        {
          "components": [
            {
              "internalType": "address",
              "name": "vToken",
              "type": "address"
            },
            {
              "internalType": "uint256",
              "name": "balanceOf",
              "type": "uint256"
            },
            {
              "internalType": "uint256",
              "name": "borrowBalanceCurrent",
              "type": "uint256"
            },
            {
              "internalType": "uint256",
              "name": "balanceOfUnderlying",
              "type": "uint256"
            },
            {
              "internalType": "uint256",
              "name": "tokenBalance",
              "type": "uint256"
            },
            {
              "internalType": "uint256",
              "name": "tokenAllowance",
              "type": "uint256"
            }
          ],
          "internalType": "struct VenusLens.VTokenBalances",
          "name": "",
          "type": "tuple"
        }
      ],
      "payable": false,
      "stateMutability": "nonpayable",
      "type": "function"
    },
    {
      "constant": false,
      "inputs": [
        {
          "internalType": "contract VToken[]",
          "name": "vTokens",
          "type": "address[]"
        },
        {
          "internalType": "address payable",
          "name": "account",
          "type": "address"
        }
      ],
      "name": "vTokenBalancesAll",
      "outputs": [
        {
          "components": [
            {
              "internalType": "address",
              "name": "vToken",
              "type": "address"
            },
            {
              "internalType": "uint256",
              "name": "balanceOf",
              "type": "uint256"
            },
            {
              "internalType": "uint256",
              "name": "borrowBalanceCurrent",
              "type": "uint256"
            },
            {
              "internalType": "uint256",
              "name": "balanceOfUnderlying",
              "type": "uint256"
            },
            {
              "internalType": "uint256",
              "name": "tokenBalance",
              "type": "uint256"
            },
            {
              "internalType": "uint256",
              "name": "tokenAllowance",
              "type": "uint256"
            }
          ],
          "internalType": "struct VenusLens.VTokenBalances[]",
          "name": "",
          "type": "tuple[]"
        }
      ],
      "payable": false,
      "stateMutability": "nonpayable",
      "type": "function"
    },
    {
      "constant": false,
      "inputs": [
        {
          "internalType": "contract VToken",
          "name": "vToken",
          "type": "address"
        }
      ],
      "name": "vTokenMetadata",
      "outputs": [
        {
          "components": [
            {
              "internalType": "address",
              "name": "vToken",
              "type": "address"
            },
            {
              "internalType": "uint256",
              "name": "exchangeRateCurrent",
              "type": "uint256"
            },
            {
              "internalType": "uint256",
              "name": "supplyRatePerBlock",
              "type": "uint256"
            },
            {
              "internalType": "uint256",
              "name": "borrowRatePerBlock",
              "type": "uint256"
            },
            {
              "internalType": "uint256",
              "name": "reserveFactorMantissa",
              "type": "uint256"
            },
            {
              "internalType": "uint256",
              "name": "totalBorrows",
              "type": "uint256"
            },
            {
              "internalType": "uint256",
              "name": "totalReserves",
              "type": "uint256"
            },
            {
              "internalType": "uint256",
              "name": "totalSupply",
              "type": "uint256"
            },
            {
              "internalType": "uint256",
              "name": "totalCash",
              "type": "uint256"
            },
            {
              "internalType": "bool",
              "name": "isListed",
              "type": "bool"
            },
            {
              "internalType": "uint256",
              "name": "collateralFactorMantissa",
              "type": "uint256"
            },
            {
              "internalType": "address",
              "name": "underlyingAssetAddress",
              "type": "address"
            },
            {
              "internalType": "uint256",
              "name": "vTokenDecimals",
              "type": "uint256"
            },
            {
              "internalType": "uint256",
              "name": "underlyingDecimals",
              "type": "uint256"
            }
          ],
          "internalType": "struct VenusLens.VTokenMetadata",
          "name": "",
          "type": "tuple"
        }
      ],
      "payable": false,
      "stateMutability": "nonpayable",
      "type": "function"
    },
    {
      "constant": false,
      "inputs": [
        {
          "internalType": "contract VToken[]",
          "name": "vTokens",
          "type": "address[]"
        }
      ],
      "name": "vTokenMetadataAll",
      "outputs": [
        {
          "components": [
            {
              "internalType": "address",
              "name": "vToken",
              "type": "address"
            },
            {
              "internalType": "uint256",
              "name": "exchangeRateCurrent",
              "type": "uint256"
            },
            {
              "internalType": "uint256",
              "name": "supplyRatePerBlock",
              "type": "uint256"
            },
            {
              "internalType": "uint256",
              "name": "borrowRatePerBlock",
              "type": "uint256"
            },
            {
              "internalType": "uint256",
              "name": "reserveFactorMantissa",
              "type": "uint256"
            },
            {
              "internalType": "uint256",
              "name": "totalBorrows",
              "type": "uint256"
            },
            {
              "internalType": "uint256",
              "name": "totalReserves",
              "type": "uint256"
            },
            {
              "internalType": "uint256",
              "name": "totalSupply",
              "type": "uint256"
            },
            {
              "internalType": "uint256",
              "name": "totalCash",
              "type": "uint256"
            },
            {
              "internalType": "bool",
              "name": "isListed",
              "type": "bool"
            },
            {
              "internalType": "uint256",
              "name": "collateralFactorMantissa",
              "type": "uint256"
            },
            {
              "internalType": "address",
              "name": "underlyingAssetAddress",
              "type": "address"
            },
            {
              "internalType": "uint256",
              "name": "vTokenDecimals",
              "type": "uint256"
            },
            {
              "internalType": "uint256",
              "name": "underlyingDecimals",
              "type": "uint256"
            }
          ],
          "internalType": "struct VenusLens.VTokenMetadata[]",
          "name": "",
          "type": "tuple[]"
        }
      ],
      "payable": false,
      "stateMutability": "nonpayable",
      "type": "function"
    },
    {
      "constant": true,
      "inputs": [
        {
          "internalType": "contract VToken",
          "name": "vToken",
          "type": "address"
        }
      ],
      "name": "vTokenUnderlyingPrice",
      "outputs": [
        {
          "components": [
            {
              "internalType": "address",
              "name": "vToken",
              "type": "address"
            },
            {
              "internalType": "uint256",
              "name": "underlyingPrice",
              "type": "uint256"
            }
          ],
          "internalType": "struct VenusLens.VTokenUnderlyingPrice",
          "name": "",
          "type": "tuple"
        }
      ],
      "payable": false,
      "stateMutability": "view",
      "type": "function"
    },
    {
      "constant": true,
      "inputs": [
        {
          "internalType": "contract VToken[]",
          "name": "vTokens",
          "type": "address[]"
        }
      ],
      "name": "vTokenUnderlyingPriceAll",
      "outputs": [
        {
          "components": [
            {
              "internalType": "address",
              "name": "vToken",
              "type": "address"
            },
            {
              "internalType": "uint256",
              "name": "underlyingPrice",
              "type": "uint256"
            }
          ],
          "internalType": "struct VenusLens.VTokenUnderlyingPrice[]",
          "name": "",
          "type": "tuple[]"
        }
      ],
      "payable": false,
      "stateMutability": "view",
      "type": "function"
    }
  ],
  "transactionHash": "0xbac14d8e805af8f83e349929adbbb417685975b2c7f21bdbbc368c0417df6256",
  "args": [],
  "solcInputHash": "ea237d06ff00b9b2b07db6b4b3f92783",
  "bytecode": "0x608060405234801561001057600080fd5b5061354e806100206000396000f3fe608060405234801561001057600080fd5b50600436106100b45760003560e01c8063aa5dbd2311610071578063aa5dbd2314610182578063b3124239146101a2578063e09744c6146101c2578063e0a67f11146101e2578063f40c277714610202578063fbd88b4614610222576100b4565b80631f884fdf146100b95780637c51b642146100e25780637c84e3b3146101025780637dd8f6d9146101225780639699486914610142578063995ed99f14610162575b600080fd5b6100cc6100c7366004612485565b610242565b6040516100d991906132e3565b60405180910390f35b6100f56100f03660046124c6565b6102de565b6040516100d991906132c1565b610115610110366004612685565b610381565b6040516100d99190613362565b6101356101303660046125a6565b610513565b6040516100d99190613334565b610155610150366004612630565b61066b565b6040516100d9919061329f565b6101756101703660046125d6565b610827565b6040516100d991906132b0565b610195610190366004612685565b610981565b6040516100d99190613353565b6101b56101b03660046125a6565b611105565b6040516100d99190613345565b6101d56101d036600461270a565b6114a5565b6040516100d99190613370565b6101f56101f0366004612485565b61182b565b6040516100d991906132d2565b6102156102103660046125a6565b6118bc565b6040516100d9919061337e565b6102356102303660046126a3565b611a65565b6040516100d991906132f4565b6040805182815260208084028201019091526060908290829082801561028257816020015b61026f611d8f565b8152602001906001900390816102675790505b50905060005b828110156102d3576102b486868381811061029f57fe5b90506020020160206101109190810190612685565b8282815181106102c057fe5b6020908102919091010152600101610288565b509150505b92915050565b6040805183815260208085028201019091526060908390829082801561031e57816020015b61030b611da6565b8152602001906001900390816103035790505b50905060005b828110156103755761035687878381811061033b57fe5b90506020020160206103509190810190612685565b86611105565b82828151811061036257fe5b6020908102919091010152600101610324565b509150505b9392505050565b610389611d8f565b6000826001600160a01b0316635fe3b5676040518163ffffffff1660e01b815260040160206040518083038186803b1580156103c457600080fd5b505afa1580156103d8573d6000803e3d6000fd5b505050506040513d601f19601f820116820180604052506103fc9190810190612588565b90506000816001600160a01b0316637dc0d1d06040518163ffffffff1660e01b815260040160206040518083038186803b15801561043957600080fd5b505afa15801561044d573d6000803e3d6000fd5b505050506040513d601f19601f820116820180604052506104719190810190612588565b90506040518060400160405280856001600160a01b03168152602001826001600160a01b031663fc57d4df876040518263ffffffff1660e01b81526004016104b99190613305565b60206040518083038186803b1580156104d157600080fd5b505afa1580156104e5573d6000803e3d6000fd5b505050506040513d601f19601f82011682018060405250610509919081019061279f565b9052949350505050565b61051b611de5565b6000806000856001600160a01b0316635ec88c79866040518263ffffffff1660e01b815260040161054c919061324d565b60606040518083038186803b15801561056457600080fd5b505afa158015610578573d6000803e3d6000fd5b505050506040513d601f19601f8201168201806040525061059c9190810190612881565b925092509250826000146105cb5760405162461bcd60e51b81526004016105c290613324565b60405180910390fd5b604080516060810191829052632aff3bff60e21b909152806001600160a01b03881663abfceffc6105ff896064850161324d565b60006040518083038186803b15801561061757600080fd5b505afa15801561062b573d6000803e3d6000fd5b505050506040513d6000823e601f3d908101601f19168201604052610653919081019061251a565b81526020810193909352604090920152949350505050565b606080838390506040519080825280602002602001820160405280156106ab57816020015b610698611e06565b8152602001906001900390816106905790505b50905060005b8381101561081e57606080606080896001600160a01b031663328dd9828a8a888181106106da57fe5b905060200201356040518263ffffffff1660e01b81526004016106fd919061338c565b60006040518083038186803b15801561071557600080fd5b505afa158015610729573d6000803e3d6000fd5b505050506040513d6000823e601f3d908101601f1916820160405261075191908101906123c9565b9350935093509350604051806101a001604052806000815260200160006001600160a01b031681526020016000815260200185815260200184815260200183815260200182815260200160008152602001600081526020016000815260200160008152602001600015158152602001600015158152508686815181106107d357fe5b602002602001018190525061080e8686815181106107ed57fe5b60200260200101518b8b8b8981811061080257fe5b90506020020135611bbd565b5050600190920191506106b19050565b50949350505050565b606060008251905060608160405190808252806020026020018201604052801561086b57816020015b610858611e7b565b8152602001906001900390816108505790505b50905060005b8281101561037557610881611ea2565b876001600160a01b031663e23a9a5287848151811061089c57fe5b6020026020010151896040518363ffffffff1660e01b81526004016108c292919061339a565b60606040518083038186803b1580156108da57600080fd5b505afa1580156108ee573d6000803e3d6000fd5b505050506040513d601f19601f820116820180604052506109129190810190612781565b9050604051806080016040528087848151811061092b57fe5b6020026020010151815260200182600001511515815260200182602001511515815260200182604001516001600160601b031681525083838151811061096d57fe5b602090810291909101015250600101610871565b610989611ec2565b6000826001600160a01b031663bd6d894d6040518163ffffffff1660e01b8152600401602060405180830381600087803b1580156109c657600080fd5b505af11580156109da573d6000803e3d6000fd5b505050506040513d601f19601f820116820180604052506109fe919081019061279f565b90506000836001600160a01b0316635fe3b5676040518163ffffffff1660e01b815260040160206040518083038186803b158015610a3b57600080fd5b505afa158015610a4f573d6000803e3d6000fd5b505050506040513d601f19601f82011682018060405250610a739190810190612588565b9050600080826001600160a01b0316638e8f294b876040518263ffffffff1660e01b8152600401610aa4919061324d565b604080518083038186803b158015610abb57600080fd5b505afa158015610acf573d6000803e3d6000fd5b505050506040513d601f19601f82011682018060405250610af3919081019061254e565b91509150600080610b94886001600160a01b03166395d89b416040518163ffffffff1660e01b815260040160006040518083038186803b158015610b3657600080fd5b505afa158015610b4a573d6000803e3d6000fd5b505050506040513d6000823e601f3d908101601f19168201604052610b72919081019061274d565b604051806040016040528060048152602001633b21272160e11b815250611ce3565b15610ba55750600090506012610d05565b6000889050806001600160a01b0316636f307dc36040518163ffffffff1660e01b815260040160206040518083038186803b158015610be357600080fd5b505afa158015610bf7573d6000803e3d6000fd5b505050506040513d601f19601f82011682018060405250610c1b91908101906123a3565b9250806001600160a01b0316636f307dc36040518163ffffffff1660e01b815260040160206040518083038186803b158015610c5657600080fd5b505afa158015610c6a573d6000803e3d6000fd5b505050506040513d601f19601f82011682018060405250610c8e91908101906123a3565b6001600160a01b031663313ce5676040518163ffffffff1660e01b815260040160206040518083038186803b158015610cc657600080fd5b505afa158015610cda573d6000803e3d6000fd5b505050506040513d601f19601f82011682018060405250610cfe91908101906128e2565b60ff169150505b604051806101c00160405280896001600160a01b03168152602001878152602001896001600160a01b031663ae9d70b06040518163ffffffff1660e01b815260040160206040518083038186803b158015610d5f57600080fd5b505afa158015610d73573d6000803e3d6000fd5b505050506040513d601f19601f82011682018060405250610d97919081019061279f565b8152602001896001600160a01b031663f8f9da286040518163ffffffff1660e01b815260040160206040518083038186803b158015610dd557600080fd5b505afa158015610de9573d6000803e3d6000fd5b505050506040513d601f19601f82011682018060405250610e0d919081019061279f565b8152602001896001600160a01b031663173b99046040518163ffffffff1660e01b815260040160206040518083038186803b158015610e4b57600080fd5b505afa158015610e5f573d6000803e3d6000fd5b505050506040513d601f19601f82011682018060405250610e83919081019061279f565b8152602001896001600160a01b03166347bd37186040518163ffffffff1660e01b815260040160206040518083038186803b158015610ec157600080fd5b505afa158015610ed5573d6000803e3d6000fd5b505050506040513d601f19601f82011682018060405250610ef9919081019061279f565b8152602001896001600160a01b0316638f840ddd6040518163ffffffff1660e01b815260040160206040518083038186803b158015610f3757600080fd5b505afa158015610f4b573d6000803e3d6000fd5b505050506040513d601f19601f82011682018060405250610f6f919081019061279f565b8152602001896001600160a01b03166318160ddd6040518163ffffffff1660e01b815260040160206040518083038186803b158015610fad57600080fd5b505afa158015610fc1573d6000803e3d6000fd5b505050506040513d601f19601f82011682018060405250610fe5919081019061279f565b8152602001896001600160a01b0316633b1d21a26040518163ffffffff1660e01b815260040160206040518083038186803b15801561102357600080fd5b505afa158015611037573d6000803e3d6000fd5b505050506040513d601f19601f8201168201806040525061105b919081019061279f565b81526020018515158152602001848152602001836001600160a01b03168152602001896001600160a01b031663313ce5676040518163ffffffff1660e01b815260040160206040518083038186803b1580156110b657600080fd5b505afa1580156110ca573d6000803e3d6000fd5b505050506040513d601f19601f820116820180604052506110ee91908101906128e2565b60ff16815260200191909152979650505050505050565b61110d611da6565b6040516370a0823160e01b81526000906001600160a01b038516906370a082319061113c90869060040161325b565b60206040518083038186803b15801561115457600080fd5b505afa158015611168573d6000803e3d6000fd5b505050506040513d601f19601f8201168201806040525061118c919081019061279f565b90506000846001600160a01b03166317bfdfbc856040518263ffffffff1660e01b81526004016111bc919061325b565b602060405180830381600087803b1580156111d657600080fd5b505af11580156111ea573d6000803e3d6000fd5b505050506040513d601f19601f8201168201806040525061120e919081019061279f565b90506000856001600160a01b0316633af9e669866040518263ffffffff1660e01b815260040161123e919061325b565b602060405180830381600087803b15801561125857600080fd5b505af115801561126c573d6000803e3d6000fd5b505050506040513d601f19601f82011682018060405250611290919081019061279f565b90506000806112d1886001600160a01b03166395d89b416040518163ffffffff1660e01b815260040160006040518083038186803b158015610b3657600080fd5b156112eb5750506001600160a01b03851680319031611468565b60008890506000816001600160a01b0316636f307dc36040518163ffffffff1660e01b815260040160206040518083038186803b15801561132b57600080fd5b505afa15801561133f573d6000803e3d6000fd5b505050506040513d601f19601f8201168201806040525061136391908101906123a3565b6040516370a0823160e01b81529091506001600160a01b038216906370a0823190611392908c9060040161325b565b60206040518083038186803b1580156113aa57600080fd5b505afa1580156113be573d6000803e3d6000fd5b505050506040513d601f19601f820116820180604052506113e2919081019061279f565b604051636eb1769f60e11b81529094506001600160a01b0382169063dd62ed3e90611413908c908e90600401613269565b60206040518083038186803b15801561142b57600080fd5b505afa15801561143f573d6000803e3d6000fd5b505050506040513d601f19601f82011682018060405250611463919081019061279f565b925050505b6040805160c0810182526001600160a01b039990991689526020890195909552938701929092526060860152608085015260a08401525090919050565b6114ad611f45565b6040516370a0823160e01b81526000906001600160a01b038616906370a08231906114dc90869060040161324d565b60206040518083038186803b1580156114f457600080fd5b505afa158015611508573d6000803e3d6000fd5b505050506040513d601f19601f8201168201806040525061152c919081019061279f565b60405163adcd5fb960e01b81529091506001600160a01b0385169063adcd5fb99061155b90869060040161324d565b600060405180830381600087803b15801561157557600080fd5b505af1158015611589573d6000803e3d6000fd5b50506040516370a0823160e01b8152600092506001600160a01b03881691506370a08231906115bc90879060040161324d565b60206040518083038186803b1580156115d457600080fd5b505afa1580156115e8573d6000803e3d6000fd5b505050506040513d601f19601f8201168201806040525061160c919081019061279f565b90506000856001600160a01b0316638a7dc165866040518263ffffffff1660e01b815260040161163c919061324d565b60206040518083038186803b15801561165457600080fd5b505afa158015611668573d6000803e3d6000fd5b505050506040513d601f19601f8201168201806040525061168c919081019061279f565b905060006116c082846040518060400160405280600d81526020016c1cdd5b481e1d9cc81d1bdd185b609a1b815250611d3c565b905060006116f482866040518060400160405280600d81526020016c1cdd5888185b1b1bd8d85d1959609a1b815250611d63565b905060405180608001604052808681526020018a6001600160a01b031663b4b5ea578a6040518263ffffffff1660e01b8152600401611733919061324d565b60206040518083038186803b15801561174b57600080fd5b505afa15801561175f573d6000803e3d6000fd5b505050506040513d601f19601f820116820180604052506117839190810190612900565b6001600160601b031681526020018a6001600160a01b031663587cde1e8a6040518263ffffffff1660e01b81526004016117bd919061324d565b60206040518083038186803b1580156117d557600080fd5b505afa1580156117e9573d6000803e3d6000fd5b505050506040513d601f19601f8201168201806040525061180d91908101906123a3565b6001600160a01b031681526020019190915298975050505050505050565b6040805182815260208084028201019091526060908290829082801561186b57816020015b611858611ec2565b8152602001906001900390816118505790505b50905060005b828110156102d35761189d86868381811061188857fe5b90506020020160206101909190810190612685565b8282815181106118a957fe5b6020908102919091010152600101611871565b6118c4611f76565b6040805160608101918290526370a0823160e01b909152806001600160a01b0385166370a082316118f8866064850161324d565b60206040518083038186803b15801561191057600080fd5b505afa158015611924573d6000803e3d6000fd5b505050506040513d601f19601f82011682018060405250611948919081019061279f565b8152602001846001600160a01b031663b4b5ea57856040518263ffffffff1660e01b8152600401611979919061324d565b60206040518083038186803b15801561199157600080fd5b505afa1580156119a5573d6000803e3d6000fd5b505050506040513d601f19601f820116820180604052506119c99190810190612900565b6001600160601b03168152602001846001600160a01b031663587cde1e856040518263ffffffff1660e01b8152600401611a03919061324d565b60206040518083038186803b158015611a1b57600080fd5b505afa158015611a2f573d6000803e3d6000fd5b505050506040513d601f19601f82011682018060405250611a5391908101906123a3565b6001600160a01b031690529392505050565b60608083839050604051908082528060200260200182016040528015611aa557816020015b611a92611fa0565b815260200190600190039081611a8a5790505b50905060005b83811015611bb3576040518060400160405280868684818110611aca57fe5b9050602002016020611adf91908101906128c4565b63ffffffff168152602001886001600160a01b031663782d6fe189898987818110611b0657fe5b9050602002016020611b1b91908101906128c4565b6040518363ffffffff1660e01b8152600401611b38929190613284565b60206040518083038186803b158015611b5057600080fd5b505afa158015611b64573d6000803e3d6000fd5b505050506040513d601f19601f82011682018060405250611b889190810190612900565b6001600160601b0316815250828281518110611ba057fe5b6020908102919091010152600101611aab565b5095945050505050565b600080600080600080600080896001600160a01b031663013cf08b8a6040518263ffffffff1660e01b8152600401611bf5919061338c565b6101206040518083038186803b158015611c0e57600080fd5b505afa158015611c22573d6000803e3d6000fd5b505050506040513d601f19601f82011682018060405250611c4691908101906127bd565b9850985098509850985098509850985050888b6000018181525050878b602001906001600160a01b031690816001600160a01b031681525050868b6040018181525050858b60e0018181525050848b610100018181525050838b610120018181525050828b610140018181525050818b610160019015159081151581525050808b6101800190151590811515815250505050505050505050505050565b600081604051602001611cf69190613241565b6040516020818303038152906040528051906020012083604051602001611d1d9190613241565b6040516020818303038152906040528051906020012014905092915050565b6000838301828582101561081e5760405162461bcd60e51b81526004016105c29190613313565b60008184841115611d875760405162461bcd60e51b81526004016105c29190613313565b505050900390565b604080518082019091526000808252602082015290565b6040518060c0016040528060006001600160a01b0316815260200160008152602001600081526020016000815260200160008152602001600081525090565b60405180606001604052806060815260200160008152602001600081525090565b604051806101a001604052806000815260200160006001600160a01b031681526020016000815260200160608152602001606081526020016060815260200160608152602001600081526020016000815260200160008152602001600081526020016000151581526020016000151581525090565b60408051608081018252600080825260208201819052918101829052606081019190915290565b604080516060810182526000808252602082018190529181019190915290565b604051806101c0016040528060006001600160a01b0316815260200160008152602001600081526020016000815260200160008152602001600081526020016000815260200160008152602001600081526020016000151581526020016000815260200160006001600160a01b0316815260200160008152602001600081525090565b6040518060800160405280600081526020016000815260200160006001600160a01b03168152602001600081525090565b6040518060600160405280600081526020016000815260200160006001600160a01b031681525090565b604051806040016040528060008152602001600081525090565b80356102d8816134be565b80516102d8816134be565b600082601f830112611fe157600080fd5b8151611ff4611fef826133ce565b6133a8565b9150818183526020840193506020810190508385602084028201111561201957600080fd5b60005b83811015612045578161202f8882611fc5565b845250602092830192919091019060010161201c565b5050505092915050565b600082601f83011261206057600080fd5b815161206e611fef826133ce565b81815260209384019390925082018360005b83811015612045578151860161209688826122ac565b8452506020928301929190910190600101612080565b60008083601f8401126120be57600080fd5b5081356001600160401b038111156120d557600080fd5b6020830191508360208202830111156120ed57600080fd5b9250929050565b600082601f83011261210557600080fd5b8151612113611fef826133ce565b9150818183526020840193506020810190508385602084028201111561213857600080fd5b60005b83811015612045578161214e88826122fb565b845250602092830192919091019060010161213b565b600082601f83011261217557600080fd5b8151612183611fef826133ce565b81815260209384019390925082018360005b8381101561204557815186016121ab88826122ac565b8452506020928301929190910190600101612195565b600082601f8301126121d257600080fd5b81356121e0611fef826133ce565b9150818183526020840193506020810190508385602084028201111561220557600080fd5b60005b83811015612045578161221b888261236c565b8452506020928301929190910190600101612208565b600082601f83011261224257600080fd5b8151612250611fef826133ce565b9150818183526020840193506020810190508385602084028201111561227557600080fd5b60005b83811015612045578161228b8882612377565b8452506020928301929190910190600101612278565b80516102d8816134d5565b600082601f8301126122bd57600080fd5b81516122cb611fef826133ee565b915080825260208301602083018583830111156122e757600080fd5b6122f2838284613488565b50505092915050565b80516102d8816134de565b80356102d8816134de565b60006060828403121561232357600080fd5b61232d60606133a8565b9050600061233b84846122a1565b825250602061234c848483016122a1565b602083015250604061236084828501612398565b60408301525092915050565b80356102d8816134e7565b80516102d8816134e7565b80356102d8816134f0565b80516102d8816134f9565b80516102d881613502565b6000602082840312156123b557600080fd5b60006123c18484611fc5565b949350505050565b600080600080608085870312156123df57600080fd5b84516001600160401b038111156123f557600080fd5b61240187828801611fd0565b94505060208501516001600160401b0381111561241d57600080fd5b61242987828801612231565b93505060408501516001600160401b0381111561244557600080fd5b61245187828801612164565b92505060608501516001600160401b0381111561246d57600080fd5b6124798782880161204f565b91505092959194509250565b6000806020838503121561249857600080fd5b82356001600160401b038111156124ae57600080fd5b6124ba858286016120ac565b92509250509250929050565b6000806000604084860312156124db57600080fd5b83356001600160401b038111156124f157600080fd5b6124fd868287016120ac565b9350935050602061251086828701611fba565b9150509250925092565b60006020828403121561252c57600080fd5b81516001600160401b0381111561254257600080fd5b6123c1848285016120f4565b6000806040838503121561256157600080fd5b600061256d85856122a1565b925050602061257e85828601612377565b9150509250929050565b60006020828403121561259a57600080fd5b60006123c184846122fb565b600080604083850312156125b957600080fd5b60006125c58585612306565b925050602061257e85828601611fba565b6000806000606084860312156125eb57600080fd5b60006125f78686612306565b935050602061260886828701611fba565b92505060408401356001600160401b0381111561262457600080fd5b612510868287016121c1565b60008060006040848603121561264557600080fd5b60006126518686612306565b93505060208401356001600160401b0381111561266d57600080fd5b612679868287016120ac565b92509250509250925092565b60006020828403121561269757600080fd5b60006123c18484612306565b600080600080606085870312156126b957600080fd5b60006126c58787612306565b94505060206126d687828801611fba565b93505060408501356001600160401b038111156126f257600080fd5b6126fe878288016120ac565b95989497509550505050565b60008060006060848603121561271f57600080fd5b600061272b8686612306565b935050602061273c86828701612306565b925050604061251086828701611fba565b60006020828403121561275f57600080fd5b81516001600160401b0381111561277557600080fd5b6123c1848285016122ac565b60006060828403121561279357600080fd5b60006123c18484612311565b6000602082840312156127b157600080fd5b60006123c18484612377565b60008060008060008060008060006101208a8c0312156127dc57600080fd5b60006127e88c8c612377565b99505060206127f98c828d01611fc5565b985050604061280a8c828d01612377565b975050606061281b8c828d01612377565b965050608061282c8c828d01612377565b95505060a061283d8c828d01612377565b94505060c061284e8c828d01612377565b93505060e061285f8c828d016122a1565b9250506101006128718c828d016122a1565b9150509295985092959850929598565b60008060006060848603121561289657600080fd5b60006128a28686612377565b93505060206128b386828701612377565b925050604061251086828701612377565b6000602082840312156128d657600080fd5b60006123c18484612382565b6000602082840312156128f457600080fd5b60006123c1848461238d565b60006020828403121561291257600080fd5b60006123c18484612398565b600061292a83836129ce565b505060200190565b600061037a8383612d8b565b600061292a8383612dc3565b600061037a8383612e7c565b60006129628383612f9b565b505060800190565b60006129768383612feb565b505060c00190565b600061298a838361305b565b50506101c00190565b600061299f8383613170565b505060400190565b600061299f8383613194565b600061292a8383613226565b6129c881613472565b82525050565b6129c88161342d565b60006129e28261341b565b6129ec818561341f565b93506129f783613415565b8060005b83811015612a25578151612a0f888261291e565b9750612a1a83613415565b9250506001016129fb565b509495945050505050565b6000612a3b8261341b565b612a45818561341f565b935083602082028501612a5785613415565b8060005b85811015612a915784840389528151612a748582612932565b9450612a7f83613415565b60209a909a0199925050600101612a5b565b5091979650505050505050565b6000612aa98261341b565b612ab3818561341f565b9350612abe83613415565b8060005b83811015612a25578151612ad6888261293e565b9750612ae183613415565b925050600101612ac2565b6000612af78261341b565b612b01818561341f565b935083602082028501612b1385613415565b8060005b85811015612a915784840389528151612b308582612932565b9450612b3b83613415565b60209a909a0199925050600101612b17565b6000612b588261341b565b612b62818561341f565b935083602082028501612b7485613415565b8060005b85811015612a915784840389528151612b91858261294a565b9450612b9c83613415565b60209a909a0199925050600101612b78565b6000612bb98261341b565b612bc3818561341f565b9350612bce83613415565b8060005b83811015612a25578151612be68882612956565b9750612bf183613415565b925050600101612bd2565b6000612c078261341b565b612c11818561341f565b9350612c1c83613415565b8060005b83811015612a25578151612c34888261296a565b9750612c3f83613415565b925050600101612c20565b6000612c558261341b565b612c5f818561341f565b9350612c6a83613415565b8060005b83811015612a25578151612c82888261297e565b9750612c8d83613415565b925050600101612c6e565b6000612ca38261341b565b612cad818561341f565b9350612cb883613415565b8060005b83811015612a25578151612cd08882612993565b9750612cdb83613415565b925050600101612cbc565b6000612cf18261341b565b612cfb818561341f565b9350612d0683613415565b8060005b83811015612a25578151612d1e88826129a7565b9750612d2983613415565b925050600101612d0a565b6000612d3f8261341b565b612d49818561341f565b9350612d5483613415565b8060005b83811015612a25578151612d6c88826129b3565b9750612d7783613415565b925050600101612d58565b6129c881613438565b6000612d968261341b565b612da0818561341f565b9350612db0818560208601613488565b612db9816134b4565b9093019392505050565b6129c88161343d565b6000612dd78261341b565b612de18185613428565b9350612df1818560208601613488565b9290920192915050565b6000612e0860178361341f565b7f6163636f756e74206c6971756964697479206572726f72000000000000000000815260200192915050565b8051606080845260009190840190612e4c8282612a9e565b9150506020830151612e616020860182613226565b506040830151612e746040860182613226565b509392505050565b80516000906101a0840190612e918582613226565b506020830151612ea460208601826129ce565b506040830151612eb76040860182613226565b5060608301518482036060860152612ecf82826129d7565b91505060808301518482036080860152612ee98282612d34565b91505060a083015184820360a0860152612f038282612aec565b91505060c083015184820360c0860152612f1d8282612a30565b91505060e0830151612f3260e0860182613226565b50610100830151612f47610100860182613226565b50610120830151612f5c610120860182613226565b50610140830151612f71610140860182613226565b50610160830151612f86610160860182612d82565b50610180830151612e74610180860182612d82565b80516080830190612fac8482613226565b506020820151612fbf6020850182612d82565b506040820151612fd26040850182612d82565b506060820151612fe56060850182613238565b50505050565b805160c0830190612ffc84826129ce565b50602082015161300f6020850182613226565b5060408201516130226040850182613226565b5060608201516130356060850182613226565b5060808201516130486080850182613226565b5060a0820151612fe560a0850182613226565b80516101c083019061306d84826129ce565b5060208201516130806020850182613226565b5060408201516130936040850182613226565b5060608201516130a66060850182613226565b5060808201516130b96080850182613226565b5060a08201516130cc60a0850182613226565b5060c08201516130df60c0850182613226565b5060e08201516130f260e0850182613226565b50610100820151613107610100850182613226565b5061012082015161311c610120850182612d82565b50610140820151613131610140850182613226565b506101608201516131466101608501826129ce565b5061018082015161315b610180850182613226565b506101a0820151612fe56101a0850182613226565b8051604083019061318184826129ce565b506020820151612fe56020850182613226565b805160408301906131818482613226565b805160808301906131b68482613226565b5060208201516131c96020850182613226565b5060408201516131dc60408501826129ce565b506060820151612fe56060850182613226565b805160608301906132008482613226565b5060208201516132136020850182613226565b506040820151612fe560408501826129ce565b6129c881613454565b6129c88161347d565b6129c881613466565b600061037a8284612dcc565b602081016102d882846129ce565b602081016102d882846129bf565b6040810161327782856129bf565b61037a60208301846129ce565b6040810161329282856129ce565b61037a602083018461322f565b6020808252810161037a8184612b4d565b6020808252810161037a8184612bae565b6020808252810161037a8184612bfc565b6020808252810161037a8184612c4a565b6020808252810161037a8184612c98565b6020808252810161037a8184612ce6565b602081016102d88284612dc3565b6020808252810161037a8184612d8b565b602080825281016102d881612dfb565b6020808252810161037a8184612e34565b60c081016102d88284612feb565b6101c081016102d8828461305b565b604081016102d88284613170565b608081016102d882846131a5565b606081016102d882846131ef565b602081016102d88284613226565b604081016132778285613226565b6040518181016001600160401b03811182821017156133c657600080fd5b604052919050565b60006001600160401b038211156133e457600080fd5b5060209081020190565b60006001600160401b0382111561340457600080fd5b506020601f91909101601f19160190565b60200190565b5190565b90815260200190565b919050565b60006102d882613448565b151590565b60006102d88261342d565b6001600160a01b031690565b90565b63ffffffff1690565b60ff1690565b6001600160601b031690565b60006102d88261343d565b60006102d882613457565b60005b838110156134a357818101518382015260200161348b565b83811115612fe55750506000910152565b601f01601f191690565b6134c78161342d565b81146134d257600080fd5b50565b6134c781613438565b6134c78161343d565b6134c781613454565b6134c781613457565b6134c781613460565b6134c78161346656fea365627a7a723158202a7886d5958debcd856ec1e05a2597edd470daa38895460faecc9f5b6259cff56c6578706572696d656e74616cf564736f6c63430005100040",
  "devdoc": {
    "methods": {}
  },
  "userdoc": {
    "methods": {}
  },
  "storageLayout": {
    "storage": [],
    "types": null
  }
}