{
  "address": "0xC983018E6d5AaC8ddE82A9cBb5C887E39eb9869f",
  "abi": [
    {
      "inputs": [],
      "payable": false,
      "stateMutability": "nonpayable",
      "type": "constructor"
    },
    {
      "anonymous": false,
      "inputs": [
        {
          "indexed": false,
          "internalType": "string",
          "name": "action",
          "type": "string"
        },
        {
          "indexed": false,
          "internalType": "bool",
          "name": "pauseState",
          "type": "bool"
        }
      ],
      "name": "ActionPaused",
      "type": "event"
    },
    {
      "anonymous": false,
      "inputs": [
        {
          "indexed": false,
          "internalType": "contract VToken",
          "name": "vToken",
          "type": "address"
        },
        {
          "indexed": false,
          "internalType": "string",
          "name": "action",
          "type": "string"
        },
        {
          "indexed": false,
          "internalType": "bool",
          "name": "pauseState",
          "type": "bool"
        }
      ],
      "name": "ActionPaused",
      "type": "event"
    },
    {
      "anonymous": false,
      "inputs": [
        {
          "indexed": false,
          "internalType": "bool",
          "name": "state",
          "type": "bool"
        }
      ],
      "name": "ActionProtocolPaused",
      "type": "event"
    },
    {
      "anonymous": false,
      "inputs": [
        {
          "indexed": true,
          "internalType": "contract VToken",
          "name": "vToken",
          "type": "address"
        },
        {
          "indexed": true,
          "internalType": "address",
          "name": "borrower",
          "type": "address"
        },
        {
          "indexed": false,
          "internalType": "uint256",
          "name": "venusDelta",
          "type": "uint256"
        },
        {
          "indexed": false,
          "internalType": "uint256",
          "name": "venusBorrowIndex",
          "type": "uint256"
        }
      ],
      "name": "DistributedBorrowerVenus",
      "type": "event"
    },
    {
      "anonymous": false,
      "inputs": [
        {
          "indexed": true,
          "internalType": "contract VToken",
          "name": "vToken",
          "type": "address"
        },
        {
          "indexed": true,
          "internalType": "address",
          "name": "supplier",
          "type": "address"
        },
        {
          "indexed": false,
          "internalType": "uint256",
          "name": "venusDelta",
          "type": "uint256"
        },
        {
          "indexed": false,
          "internalType": "uint256",
          "name": "venusSupplyIndex",
          "type": "uint256"
        }
      ],
      "name": "DistributedSupplierVenus",
      "type": "event"
    },
    {
      "anonymous": false,
      "inputs": [
        {
          "indexed": true,
          "internalType": "address",
          "name": "vaiMinter",
          "type": "address"
        },
        {
          "indexed": false,
          "internalType": "uint256",
          "name": "venusDelta",
          "type": "uint256"
        },
        {
          "indexed": false,
          "internalType": "uint256",
          "name": "venusVAIMintIndex",
          "type": "uint256"
        }
      ],
      "name": "DistributedVAIMinterVenus",
      "type": "event"
    },
    {
      "anonymous": false,
      "inputs": [
        {
          "indexed": false,
          "internalType": "uint256",
          "name": "amount",
          "type": "uint256"
        }
      ],
      "name": "DistributedVAIVaultVenus",
      "type": "event"
    },
    {
      "anonymous": false,
      "inputs": [
        {
          "indexed": false,
          "internalType": "uint256",
          "name": "error",
          "type": "uint256"
        },
        {
          "indexed": false,
          "internalType": "uint256",
          "name": "info",
          "type": "uint256"
        },
        {
          "indexed": false,
          "internalType": "uint256",
          "name": "detail",
          "type": "uint256"
        }
      ],
      "name": "Failure",
      "type": "event"
    },
    {
      "anonymous": false,
      "inputs": [
        {
          "indexed": false,
          "internalType": "contract VToken",
          "name": "vToken",
          "type": "address"
        },
        {
          "indexed": false,
          "internalType": "address",
          "name": "account",
          "type": "address"
        }
      ],
      "name": "MarketEntered",
      "type": "event"
    },
    {
      "anonymous": false,
      "inputs": [
        {
          "indexed": false,
          "internalType": "contract VToken",
          "name": "vToken",
          "type": "address"
        },
        {
          "indexed": false,
          "internalType": "address",
          "name": "account",
          "type": "address"
        }
      ],
      "name": "MarketExited",
      "type": "event"
    },
    {
      "anonymous": false,
      "inputs": [
        {
          "indexed": false,
          "internalType": "contract VToken",
          "name": "vToken",
          "type": "address"
        }
      ],
      "name": "MarketListed",
      "type": "event"
    },
    {
      "anonymous": false,
      "inputs": [
        {
          "indexed": true,
          "internalType": "contract VToken",
          "name": "vToken",
          "type": "address"
        },
        {
          "indexed": false,
          "internalType": "uint256",
          "name": "newBorrowCap",
          "type": "uint256"
        }
      ],
      "name": "NewBorrowCap",
      "type": "event"
    },
    {
      "anonymous": false,
      "inputs": [
        {
          "indexed": false,
          "internalType": "address",
          "name": "oldBorrowCapGuardian",
          "type": "address"
        },
        {
          "indexed": false,
          "internalType": "address",
          "name": "newBorrowCapGuardian",
          "type": "address"
        }
      ],
      "name": "NewBorrowCapGuardian",
      "type": "event"
    },
    {
      "anonymous": false,
      "inputs": [
        {
          "indexed": false,
          "internalType": "uint256",
          "name": "oldCloseFactorMantissa",
          "type": "uint256"
        },
        {
          "indexed": false,
          "internalType": "uint256",
          "name": "newCloseFactorMantissa",
          "type": "uint256"
        }
      ],
      "name": "NewCloseFactor",
      "type": "event"
    },
    {
      "anonymous": false,
      "inputs": [
        {
          "indexed": false,
          "internalType": "contract VToken",
          "name": "vToken",
          "type": "address"
        },
        {
          "indexed": false,
          "internalType": "uint256",
          "name": "oldCollateralFactorMantissa",
          "type": "uint256"
        },
        {
          "indexed": false,
          "internalType": "uint256",
          "name": "newCollateralFactorMantissa",
          "type": "uint256"
        }
      ],
      "name": "NewCollateralFactor",
      "type": "event"
    },
    {
      "anonymous": false,
      "inputs": [
        {
          "indexed": false,
          "internalType": "uint256",
          "name": "oldLiquidationIncentiveMantissa",
          "type": "uint256"
        },
        {
          "indexed": false,
          "internalType": "uint256",
          "name": "newLiquidationIncentiveMantissa",
          "type": "uint256"
        }
      ],
      "name": "NewLiquidationIncentive",
      "type": "event"
    },
    {
      "anonymous": false,
      "inputs": [
        {
          "indexed": false,
          "internalType": "address",
          "name": "oldPauseGuardian",
          "type": "address"
        },
        {
          "indexed": false,
          "internalType": "address",
          "name": "newPauseGuardian",
          "type": "address"
        }
      ],
      "name": "NewPauseGuardian",
      "type": "event"
    },
    {
      "anonymous": false,
      "inputs": [
        {
          "indexed": false,
          "internalType": "contract PriceOracle",
          "name": "oldPriceOracle",
          "type": "address"
        },
        {
          "indexed": false,
          "internalType": "contract PriceOracle",
          "name": "newPriceOracle",
          "type": "address"
        }
      ],
      "name": "NewPriceOracle",
      "type": "event"
    },
    {
      "anonymous": false,
      "inputs": [
        {
          "indexed": false,
          "internalType": "address",
          "name": "oldTreasuryAddress",
          "type": "address"
        },
        {
          "indexed": false,
          "internalType": "address",
          "name": "newTreasuryAddress",
          "type": "address"
        }
      ],
      "name": "NewTreasuryAddress",
      "type": "event"
    },
    {
      "anonymous": false,
      "inputs": [
        {
          "indexed": false,
          "internalType": "address",
          "name": "oldTreasuryGuardian",
          "type": "address"
        },
        {
          "indexed": false,
          "internalType": "address",
          "name": "newTreasuryGuardian",
          "type": "address"
        }
      ],
      "name": "NewTreasuryGuardian",
      "type": "event"
    },
    {
      "anonymous": false,
      "inputs": [
        {
          "indexed": false,
          "internalType": "uint256",
          "name": "oldTreasuryPercent",
          "type": "uint256"
        },
        {
          "indexed": false,
          "internalType": "uint256",
          "name": "newTreasuryPercent",
          "type": "uint256"
        }
      ],
      "name": "NewTreasuryPercent",
      "type": "event"
    },
    {
      "anonymous": false,
      "inputs": [
        {
          "indexed": false,
          "internalType": "contract VAIControllerInterface",
          "name": "oldVAIController",
          "type": "address"
        },
        {
          "indexed": false,
          "internalType": "contract VAIControllerInterface",
          "name": "newVAIController",
          "type": "address"
        }
      ],
      "name": "NewVAIController",
      "type": "event"
    },
    {
      "anonymous": false,
      "inputs": [
        {
          "indexed": false,
          "internalType": "uint256",
          "name": "oldVAIMintRate",
          "type": "uint256"
        },
        {
          "indexed": false,
          "internalType": "uint256",
          "name": "newVAIMintRate",
          "type": "uint256"
        }
      ],
      "name": "NewVAIMintRate",
      "type": "event"
    },
    {
      "anonymous": false,
      "inputs": [
        {
          "indexed": false,
          "internalType": "address",
          "name": "vault_",
          "type": "address"
        },
        {
          "indexed": false,
          "internalType": "uint256",
          "name": "releaseStartBlock_",
          "type": "uint256"
        },
        {
          "indexed": false,
          "internalType": "uint256",
          "name": "releaseInterval_",
          "type": "uint256"
        }
      ],
      "name": "NewVAIVaultInfo",
      "type": "event"
    },
    {
      "anonymous": false,
      "inputs": [
        {
          "indexed": false,
          "internalType": "uint256",
          "name": "oldVenusVAIRate",
          "type": "uint256"
        },
        {
          "indexed": false,
          "internalType": "uint256",
          "name": "newVenusVAIRate",
          "type": "uint256"
        }
      ],
      "name": "NewVenusVAIRate",
      "type": "event"
    },
    {
      "anonymous": false,
      "inputs": [
        {
          "indexed": false,
          "internalType": "uint256",
          "name": "oldVenusVAIVaultRate",
          "type": "uint256"
        },
        {
          "indexed": false,
          "internalType": "uint256",
          "name": "newVenusVAIVaultRate",
          "type": "uint256"
        }
      ],
      "name": "NewVenusVAIVaultRate",
      "type": "event"
    },
    {
      "anonymous": false,
      "inputs": [
        {
          "indexed": false,
          "internalType": "address",
          "name": "recipient",
          "type": "address"
        },
        {
          "indexed": false,
          "internalType": "uint256",
          "name": "amount",
          "type": "uint256"
        }
      ],
      "name": "VenusGranted",
      "type": "event"
    },
    {
      "anonymous": false,
      "inputs": [
        {
          "indexed": true,
          "internalType": "contract VToken",
          "name": "vToken",
          "type": "address"
        },
        {
          "indexed": false,
          "internalType": "uint256",
          "name": "newSpeed",
          "type": "uint256"
        }
      ],
      "name": "VenusSpeedUpdated",
      "type": "event"
    },
    {
      "constant": false,
      "inputs": [
        {
          "internalType": "contract Unitroller",
          "name": "unitroller",
          "type": "address"
        }
      ],
      "name": "_become",
      "outputs": [],
      "payable": false,
      "stateMutability": "nonpayable",
      "type": "function"
    },
    {
      "constant": true,
      "inputs": [],
      "name": "_borrowGuardianPaused",
      "outputs": [
        {
          "internalType": "bool",
          "name": "",
          "type": "bool"
        }
      ],
      "payable": false,
      "stateMutability": "view",
      "type": "function"
    },
    {
      "constant": false,
      "inputs": [
        {
          "internalType": "address",
          "name": "recipient",
          "type": "address"
        },
        {
          "internalType": "uint256",
          "name": "amount",
          "type": "uint256"
        }
      ],
      "name": "_grantXVS",
      "outputs": [],
      "payable": false,
      "stateMutability": "nonpayable",
      "type": "function"
    },
    {
      "constant": true,
      "inputs": [],
      "name": "_mintGuardianPaused",
      "outputs": [
        {
          "internalType": "bool",
          "name": "",
          "type": "bool"
        }
      ],
      "payable": false,
      "stateMutability": "view",
      "type": "function"
    },
    {
      "constant": false,
      "inputs": [
        {
          "internalType": "address",
          "name": "newBorrowCapGuardian",
          "type": "address"
        }
      ],
      "name": "_setBorrowCapGuardian",
      "outputs": [],
      "payable": false,
      "stateMutability": "nonpayable",
      "type": "function"
    },
    {
      "constant": false,
      "inputs": [
        {
          "internalType": "uint256",
          "name": "newCloseFactorMantissa",
          "type": "uint256"
        }
      ],
      "name": "_setCloseFactor",
      "outputs": [
        {
          "internalType": "uint256",
          "name": "",
          "type": "uint256"
        }
      ],
      "payable": false,
      "stateMutability": "nonpayable",
      "type": "function"
    },
    {
      "constant": false,
      "inputs": [
        {
          "internalType": "contract VToken",
          "name": "vToken",
          "type": "address"
        },
        {
          "internalType": "uint256",
          "name": "newCollateralFactorMantissa",
          "type": "uint256"
        }
      ],
      "name": "_setCollateralFactor",
      "outputs": [
        {
          "internalType": "uint256",
          "name": "",
          "type": "uint256"
        }
      ],
      "payable": false,
      "stateMutability": "nonpayable",
      "type": "function"
    },
    {
      "constant": false,
      "inputs": [
        {
          "internalType": "uint256",
          "name": "newLiquidationIncentiveMantissa",
          "type": "uint256"
        }
      ],
      "name": "_setLiquidationIncentive",
      "outputs": [
        {
          "internalType": "uint256",
          "name": "",
          "type": "uint256"
        }
      ],
      "payable": false,
      "stateMutability": "nonpayable",
      "type": "function"
    },
    {
      "constant": false,
      "inputs": [
        {
          "internalType": "contract VToken[]",
          "name": "vTokens",
          "type": "address[]"
        },
        {
          "internalType": "uint256[]",
          "name": "newBorrowCaps",
          "type": "uint256[]"
        }
      ],
      "name": "_setMarketBorrowCaps",
      "outputs": [],
      "payable": false,
      "stateMutability": "nonpayable",
      "type": "function"
    },
    {
      "constant": false,
      "inputs": [
        {
          "internalType": "address",
          "name": "newPauseGuardian",
          "type": "address"
        }
      ],
      "name": "_setPauseGuardian",
      "outputs": [
        {
          "internalType": "uint256",
          "name": "",
          "type": "uint256"
        }
      ],
      "payable": false,
      "stateMutability": "nonpayable",
      "type": "function"
    },
    {
      "constant": false,
      "inputs": [
        {
          "internalType": "contract PriceOracle",
          "name": "newOracle",
          "type": "address"
        }
      ],
      "name": "_setPriceOracle",
      "outputs": [
        {
          "internalType": "uint256",
          "name": "",
          "type": "uint256"
        }
      ],
      "payable": false,
      "stateMutability": "nonpayable",
      "type": "function"
    },
    {
      "constant": false,
      "inputs": [
        {
          "internalType": "bool",
          "name": "state",
          "type": "bool"
        }
      ],
      "name": "_setProtocolPaused",
      "outputs": [
        {
          "internalType": "bool",
          "name": "",
          "type": "bool"
        }
      ],
      "payable": false,
      "stateMutability": "nonpayable",
      "type": "function"
    },
    {
      "constant": false,
      "inputs": [
        {
          "internalType": "address",
          "name": "newTreasuryGuardian",
          "type": "address"
        },
        {
          "internalType": "address",
          "name": "newTreasuryAddress",
          "type": "address"
        },
        {
          "internalType": "uint256",
          "name": "newTreasuryPercent",
          "type": "uint256"
        }
      ],
      "name": "_setTreasuryData",
      "outputs": [
        {
          "internalType": "uint256",
          "name": "",
          "type": "uint256"
        }
      ],
      "payable": false,
      "stateMutability": "nonpayable",
      "type": "function"
    },
    {
      "constant": false,
      "inputs": [
        {
          "internalType": "contract VAIControllerInterface",
          "name": "vaiController_",
          "type": "address"
        }
      ],
      "name": "_setVAIController",
      "outputs": [
        {
          "internalType": "uint256",
          "name": "",
          "type": "uint256"
        }
      ],
      "payable": false,
      "stateMutability": "nonpayable",
      "type": "function"
    },
    {
      "constant": false,
      "inputs": [
        {
          "internalType": "uint256",
          "name": "newVAIMintRate",
          "type": "uint256"
        }
      ],
      "name": "_setVAIMintRate",
      "outputs": [
        {
          "internalType": "uint256",
          "name": "",
          "type": "uint256"
        }
      ],
      "payable": false,
      "stateMutability": "nonpayable",
      "type": "function"
    },
    {
      "constant": false,
      "inputs": [
        {
          "internalType": "address",
          "name": "vault_",
          "type": "address"
        },
        {
          "internalType": "uint256",
          "name": "releaseStartBlock_",
          "type": "uint256"
        },
        {
          "internalType": "uint256",
          "name": "minReleaseAmount_",
          "type": "uint256"
        }
      ],
      "name": "_setVAIVaultInfo",
      "outputs": [],
      "payable": false,
      "stateMutability": "nonpayable",
      "type": "function"
    },
    {
      "constant": false,
      "inputs": [
        {
          "internalType": "contract VToken",
          "name": "vToken",
          "type": "address"
        },
        {
          "internalType": "uint256",
          "name": "venusSpeed",
          "type": "uint256"
        }
      ],
      "name": "_setVenusSpeed",
      "outputs": [],
      "payable": false,
      "stateMutability": "nonpayable",
      "type": "function"
    },
    {
      "constant": false,
      "inputs": [
        {
          "internalType": "uint256",
          "name": "venusVAIRate_",
          "type": "uint256"
        }
      ],
      "name": "_setVenusVAIRate",
      "outputs": [],
      "payable": false,
      "stateMutability": "nonpayable",
      "type": "function"
    },
    {
      "constant": false,
      "inputs": [
        {
          "internalType": "uint256",
          "name": "venusVAIVaultRate_",
          "type": "uint256"
        }
      ],
      "name": "_setVenusVAIVaultRate",
      "outputs": [],
      "payable": false,
      "stateMutability": "nonpayable",
      "type": "function"
    },
    {
      "constant": false,
      "inputs": [
        {
          "internalType": "contract VToken",
          "name": "vToken",
          "type": "address"
        }
      ],
      "name": "_supportMarket",
      "outputs": [
        {
          "internalType": "uint256",
          "name": "",
          "type": "uint256"
        }
      ],
      "payable": false,
      "stateMutability": "nonpayable",
      "type": "function"
    },
    {
      "constant": true,
      "inputs": [
        {
          "internalType": "address",
          "name": "",
          "type": "address"
        },
        {
          "internalType": "uint256",
          "name": "",
          "type": "uint256"
        }
      ],
      "name": "accountAssets",
      "outputs": [
        {
          "internalType": "contract VToken",
          "name": "",
          "type": "address"
        }
      ],
      "payable": false,
      "stateMutability": "view",
      "type": "function"
    },
    {
      "constant": true,
      "inputs": [],
      "name": "admin",
      "outputs": [
        {
          "internalType": "address",
          "name": "",
          "type": "address"
        }
      ],
      "payable": false,
      "stateMutability": "view",
      "type": "function"
    },
    {
      "constant": true,
      "inputs": [
        {
          "internalType": "uint256",
          "name": "",
          "type": "uint256"
        }
      ],
      "name": "allMarkets",
      "outputs": [
        {
          "internalType": "contract VToken",
          "name": "",
          "type": "address"
        }
      ],
      "payable": false,
      "stateMutability": "view",
      "type": "function"
    },
    {
      "constant": false,
      "inputs": [
        {
          "internalType": "address",
          "name": "vToken",
          "type": "address"
        },
        {
          "internalType": "address",
          "name": "borrower",
          "type": "address"
        },
        {
          "internalType": "uint256",
          "name": "borrowAmount",
          "type": "uint256"
        }
      ],
      "name": "borrowAllowed",
      "outputs": [
        {
          "internalType": "uint256",
          "name": "",
          "type": "uint256"
        }
      ],
      "payable": false,
      "stateMutability": "nonpayable",
      "type": "function"
    },
    {
      "constant": true,
      "inputs": [],
      "name": "borrowCapGuardian",
      "outputs": [
        {
          "internalType": "address",
          "name": "",
          "type": "address"
        }
      ],
      "payable": false,
      "stateMutability": "view",
      "type": "function"
    },
    {
      "constant": true,
      "inputs": [
        {
          "internalType": "address",
          "name": "",
          "type": "address"
        }
      ],
      "name": "borrowCaps",
      "outputs": [
        {
          "internalType": "uint256",
          "name": "",
          "type": "uint256"
        }
      ],
      "payable": false,
      "stateMutability": "view",
      "type": "function"
    },
    {
      "constant": true,
      "inputs": [
        {
          "internalType": "address",
          "name": "",
          "type": "address"
        }
      ],
      "name": "borrowGuardianPaused",
      "outputs": [
        {
          "internalType": "bool",
          "name": "",
          "type": "bool"
        }
      ],
      "payable": false,
      "stateMutability": "view",
      "type": "function"
    },
    {
      "constant": false,
      "inputs": [
        {
          "internalType": "address",
          "name": "vToken",
          "type": "address"
        },
        {
          "internalType": "address",
          "name": "borrower",
          "type": "address"
        },
        {
          "internalType": "uint256",
          "name": "borrowAmount",
          "type": "uint256"
        }
      ],
      "name": "borrowVerify",
      "outputs": [],
      "payable": false,
      "stateMutability": "nonpayable",
      "type": "function"
    },
    {
      "constant": true,
      "inputs": [
        {
          "internalType": "address",
          "name": "account",
          "type": "address"
        },
        {
          "internalType": "contract VToken",
          "name": "vToken",
          "type": "address"
        }
      ],
      "name": "checkMembership",
      "outputs": [
        {
          "internalType": "bool",
          "name": "",
          "type": "bool"
        }
      ],
      "payable": false,
      "stateMutability": "view",
      "type": "function"
    },
    {
      "constant": false,
      "inputs": [
        {
          "internalType": "address",
          "name": "holder",
          "type": "address"
        },
        {
          "internalType": "contract VToken[]",
          "name": "vTokens",
          "type": "address[]"
        }
      ],
      "name": "claimVenus",
      "outputs": [],
      "payable": false,
      "stateMutability": "nonpayable",
      "type": "function"
    },
    {
      "constant": false,
      "inputs": [
        {
          "internalType": "address",
          "name": "holder",
          "type": "address"
        }
      ],
      "name": "claimVenus",
      "outputs": [],
      "payable": false,
      "stateMutability": "nonpayable",
      "type": "function"
    },
    {
      "constant": false,
      "inputs": [
        {
          "internalType": "address[]",
          "name": "holders",
          "type": "address[]"
        },
        {
          "internalType": "contract VToken[]",
          "name": "vTokens",
          "type": "address[]"
        },
        {
          "internalType": "bool",
          "name": "borrowers",
          "type": "bool"
        },
        {
          "internalType": "bool",
          "name": "suppliers",
          "type": "bool"
        }
      ],
      "name": "claimVenus",
      "outputs": [],
      "payable": false,
      "stateMutability": "nonpayable",
      "type": "function"
    },
    {
      "constant": true,
      "inputs": [],
      "name": "closeFactorMantissa",
      "outputs": [
        {
          "internalType": "uint256",
          "name": "",
          "type": "uint256"
        }
      ],
      "payable": false,
      "stateMutability": "view",
      "type": "function"
    },
    {
      "constant": true,
      "inputs": [],
      "name": "comptrollerImplementation",
      "outputs": [
        {
          "internalType": "address",
          "name": "",
          "type": "address"
        }
      ],
      "payable": false,
      "stateMutability": "view",
      "type": "function"
    },
    {
      "constant": false,
      "inputs": [
        {
          "internalType": "address",
          "name": "vaiMinter",
          "type": "address"
        }
      ],
      "name": "distributeVAIMinterVenus",
      "outputs": [],
      "payable": false,
      "stateMutability": "nonpayable",
      "type": "function"
    },
    {
      "constant": false,
      "inputs": [
        {
          "internalType": "address[]",
          "name": "vTokens",
          "type": "address[]"
        }
      ],
      "name": "enterMarkets",
      "outputs": [
        {
          "internalType": "uint256[]",
          "name": "",
          "type": "uint256[]"
        }
      ],
      "payable": false,
      "stateMutability": "nonpayable",
      "type": "function"
    },
    {
      "constant": false,
      "inputs": [
        {
          "internalType": "address",
          "name": "vTokenAddress",
          "type": "address"
        }
      ],
      "name": "exitMarket",
      "outputs": [
        {
          "internalType": "uint256",
          "name": "",
          "type": "uint256"
        }
      ],
      "payable": false,
      "stateMutability": "nonpayable",
      "type": "function"
    },
    {
      "constant": true,
      "inputs": [
        {
          "internalType": "address",
          "name": "account",
          "type": "address"
        }
      ],
      "name": "getAccountLiquidity",
      "outputs": [
        {
          "internalType": "uint256",
          "name": "",
          "type": "uint256"
        },
        {
          "internalType": "uint256",
          "name": "",
          "type": "uint256"
        },
        {
          "internalType": "uint256",
          "name": "",
          "type": "uint256"
        }
      ],
      "payable": false,
      "stateMutability": "view",
      "type": "function"
    },
    {
      "constant": true,
      "inputs": [],
      "name": "getAllMarkets",
      "outputs": [
        {
          "internalType": "contract VToken[]",
          "name": "",
          "type": "address[]"
        }
      ],
      "payable": false,
      "stateMutability": "view",
      "type": "function"
    },
    {
      "constant": true,
      "inputs": [
        {
          "internalType": "address",
          "name": "account",
          "type": "address"
        }
      ],
      "name": "getAssetsIn",
      "outputs": [
        {
          "internalType": "contract VToken[]",
          "name": "",
          "type": "address[]"
        }
      ],
      "payable": false,
      "stateMutability": "view",
      "type": "function"
    },
    {
      "constant": true,
      "inputs": [],
      "name": "getBlockNumber",
      "outputs": [
        {
          "internalType": "uint256",
          "name": "",
          "type": "uint256"
        }
      ],
      "payable": false,
      "stateMutability": "view",
      "type": "function"
    },
    {
      "constant": true,
      "inputs": [
        {
          "internalType": "address",
          "name": "account",
          "type": "address"
        },
        {
          "internalType": "address",
          "name": "vTokenModify",
          "type": "address"
        },
        {
          "internalType": "uint256",
          "name": "redeemTokens",
          "type": "uint256"
        },
        {
          "internalType": "uint256",
          "name": "borrowAmount",
          "type": "uint256"
        }
      ],
      "name": "getHypotheticalAccountLiquidity",
      "outputs": [
        {
          "internalType": "uint256",
          "name": "",
          "type": "uint256"
        },
        {
          "internalType": "uint256",
          "name": "",
          "type": "uint256"
        },
        {
          "internalType": "uint256",
          "name": "",
          "type": "uint256"
        }
      ],
      "payable": false,
      "stateMutability": "view",
      "type": "function"
    },
    {
      "constant": true,
      "inputs": [],
      "name": "getXVSAddress",
      "outputs": [
        {
          "internalType": "address",
          "name": "",
          "type": "address"
        }
      ],
      "payable": false,
      "stateMutability": "view",
      "type": "function"
    },
    {
      "constant": true,
      "inputs": [],
      "name": "isComptroller",
      "outputs": [
        {
          "internalType": "bool",
          "name": "",
          "type": "bool"
        }
      ],
      "payable": false,
      "stateMutability": "view",
      "type": "function"
    },
    {
      "constant": true,
      "inputs": [
        {
          "internalType": "address",
          "name": "",
          "type": "address"
        }
      ],
      "name": "lastContributorBlock",
      "outputs": [
        {
          "internalType": "uint256",
          "name": "",
          "type": "uint256"
        }
      ],
      "payable": false,
      "stateMutability": "view",
      "type": "function"
    },
    {
      "constant": false,
      "inputs": [
        {
          "internalType": "address",
          "name": "vTokenBorrowed",
          "type": "address"
        },
        {
          "internalType": "address",
          "name": "vTokenCollateral",
          "type": "address"
        },
        {
          "internalType": "address",
          "name": "liquidator",
          "type": "address"
        },
        {
          "internalType": "address",
          "name": "borrower",
          "type": "address"
        },
        {
          "internalType": "uint256",
          "name": "repayAmount",
          "type": "uint256"
        }
      ],
      "name": "liquidateBorrowAllowed",
      "outputs": [
        {
          "internalType": "uint256",
          "name": "",
          "type": "uint256"
        }
      ],
      "payable": false,
      "stateMutability": "nonpayable",
      "type": "function"
    },
    {
      "constant": false,
      "inputs": [
        {
          "internalType": "address",
          "name": "vTokenBorrowed",
          "type": "address"
        },
        {
          "internalType": "address",
          "name": "vTokenCollateral",
          "type": "address"
        },
        {
          "internalType": "address",
          "name": "liquidator",
          "type": "address"
        },
        {
          "internalType": "address",
          "name": "borrower",
          "type": "address"
        },
        {
          "internalType": "uint256",
          "name": "actualRepayAmount",
          "type": "uint256"
        },
        {
          "internalType": "uint256",
          "name": "seizeTokens",
          "type": "uint256"
        }
      ],
      "name": "liquidateBorrowVerify",
      "outputs": [],
      "payable": false,
      "stateMutability": "nonpayable",
      "type": "function"
    },
    {
      "constant": true,
      "inputs": [
        {
          "internalType": "address",
          "name": "vTokenBorrowed",
          "type": "address"
        },
        {
          "internalType": "address",
          "name": "vTokenCollateral",
          "type": "address"
        },
        {
          "internalType": "uint256",
          "name": "actualRepayAmount",
          "type": "uint256"
        }
      ],
      "name": "liquidateCalculateSeizeTokens",
      "outputs": [
        {
          "internalType": "uint256",
          "name": "",
          "type": "uint256"
        },
        {
          "internalType": "uint256",
          "name": "",
          "type": "uint256"
        }
      ],
      "payable": false,
      "stateMutability": "view",
      "type": "function"
    },
    {
      "constant": true,
      "inputs": [
        {
          "internalType": "address",
          "name": "vTokenCollateral",
          "type": "address"
        },
        {
          "internalType": "uint256",
          "name": "actualRepayAmount",
          "type": "uint256"
        }
      ],
      "name": "liquidateVAICalculateSeizeTokens",
      "outputs": [
        {
          "internalType": "uint256",
          "name": "",
          "type": "uint256"
        },
        {
          "internalType": "uint256",
          "name": "",
          "type": "uint256"
        }
      ],
      "payable": false,
      "stateMutability": "view",
      "type": "function"
    },
    {
      "constant": true,
      "inputs": [],
      "name": "liquidationIncentiveMantissa",
      "outputs": [
        {
          "internalType": "uint256",
          "name": "",
          "type": "uint256"
        }
      ],
      "payable": false,
      "stateMutability": "view",
      "type": "function"
    },
    {
      "constant": true,
      "inputs": [
        {
          "internalType": "address",
          "name": "",
          "type": "address"
        }
      ],
      "name": "markets",
      "outputs": [
        {
          "internalType": "bool",
          "name": "isListed",
          "type": "bool"
        },
        {
          "internalType": "uint256",
          "name": "collateralFactorMantissa",
          "type": "uint256"
        },
        {
          "internalType": "bool",
          "name": "isVenus",
          "type": "bool"
        }
      ],
      "payable": false,
      "stateMutability": "view",
      "type": "function"
    },
    {
      "constant": true,
      "inputs": [],
      "name": "maxAssets",
      "outputs": [
        {
          "internalType": "uint256",
          "name": "",
          "type": "uint256"
        }
      ],
      "payable": false,
      "stateMutability": "view",
      "type": "function"
    },
    {
      "constant": true,
      "inputs": [],
      "name": "minReleaseAmount",
      "outputs": [
        {
          "internalType": "uint256",
          "name": "",
          "type": "uint256"
        }
      ],
      "payable": false,
      "stateMutability": "view",
      "type": "function"
    },
    {
      "constant": false,
      "inputs": [
        {
          "internalType": "address",
          "name": "vToken",
          "type": "address"
        },
        {
          "internalType": "address",
          "name": "minter",
          "type": "address"
        },
        {
          "internalType": "uint256",
          "name": "mintAmount",
          "type": "uint256"
        }
      ],
      "name": "mintAllowed",
      "outputs": [
        {
          "internalType": "uint256",
          "name": "",
          "type": "uint256"
        }
      ],
      "payable": false,
      "stateMutability": "nonpayable",
      "type": "function"
    },
    {
      "constant": true,
      "inputs": [
        {
          "internalType": "address",
          "name": "",
          "type": "address"
        }
      ],
      "name": "mintGuardianPaused",
      "outputs": [
        {
          "internalType": "bool",
          "name": "",
          "type": "bool"
        }
      ],
      "payable": false,
      "stateMutability": "view",
      "type": "function"
    },
    {
      "constant": true,
      "inputs": [],
      "name": "mintVAIGuardianPaused",
      "outputs": [
        {
          "internalType": "bool",
          "name": "",
          "type": "bool"
        }
      ],
      "payable": false,
      "stateMutability": "view",
      "type": "function"
    },
    {
      "constant": false,
      "inputs": [
        {
          "internalType": "address",
          "name": "vToken",
          "type": "address"
        },
        {
          "internalType": "address",
          "name": "minter",
          "type": "address"
        },
        {
          "internalType": "uint256",
          "name": "actualMintAmount",
          "type": "uint256"
        },
        {
          "internalType": "uint256",
          "name": "mintTokens",
          "type": "uint256"
        }
      ],
      "name": "mintVerify",
      "outputs": [],
      "payable": false,
      "stateMutability": "nonpayable",
      "type": "function"
    },
    {
      "constant": true,
      "inputs": [
        {
          "internalType": "address",
          "name": "",
          "type": "address"
        }
      ],
      "name": "mintedVAIs",
      "outputs": [
        {
          "internalType": "uint256",
          "name": "",
          "type": "uint256"
        }
      ],
      "payable": false,
      "stateMutability": "view",
      "type": "function"
    },
    {
      "constant": true,
      "inputs": [],
      "name": "oracle",
      "outputs": [
        {
          "internalType": "contract PriceOracle",
          "name": "",
          "type": "address"
        }
      ],
      "payable": false,
      "stateMutability": "view",
      "type": "function"
    },
    {
      "constant": true,
      "inputs": [],
      "name": "pauseGuardian",
      "outputs": [
        {
          "internalType": "address",
          "name": "",
          "type": "address"
        }
      ],
      "payable": false,
      "stateMutability": "view",
      "type": "function"
    },
    {
      "constant": true,
      "inputs": [],
      "name": "pendingAdmin",
      "outputs": [
        {
          "internalType": "address",
          "name": "",
          "type": "address"
        }
      ],
      "payable": false,
      "stateMutability": "view",
      "type": "function"
    },
    {
      "constant": true,
      "inputs": [],
      "name": "pendingComptrollerImplementation",
      "outputs": [
        {
          "internalType": "address",
          "name": "",
          "type": "address"
        }
      ],
      "payable": false,
      "stateMutability": "view",
      "type": "function"
    },
    {
      "constant": true,
      "inputs": [],
      "name": "protocolPaused",
      "outputs": [
        {
          "internalType": "bool",
          "name": "",
          "type": "bool"
        }
      ],
      "payable": false,
      "stateMutability": "view",
      "type": "function"
    },
    {
      "constant": false,
      "inputs": [
        {
          "internalType": "address",
          "name": "vToken",
          "type": "address"
        },
        {
          "internalType": "address",
          "name": "redeemer",
          "type": "address"
        },
        {
          "internalType": "uint256",
          "name": "redeemTokens",
          "type": "uint256"
        }
      ],
      "name": "redeemAllowed",
      "outputs": [
        {
          "internalType": "uint256",
          "name": "",
          "type": "uint256"
        }
      ],
      "payable": false,
      "stateMutability": "nonpayable",
      "type": "function"
    },
    {
      "constant": false,
      "inputs": [
        {
          "internalType": "address",
          "name": "vToken",
          "type": "address"
        },
        {
          "internalType": "address",
          "name": "redeemer",
          "type": "address"
        },
        {
          "internalType": "uint256",
          "name": "redeemAmount",
          "type": "uint256"
        },
        {
          "internalType": "uint256",
          "name": "redeemTokens",
          "type": "uint256"
        }
      ],
      "name": "redeemVerify",
      "outputs": [],
      "payable": false,
      "stateMutability": "nonpayable",
      "type": "function"
    },
    {
      "constant": true,
      "inputs": [],
      "name": "releaseStartBlock",
      "outputs": [
        {
          "internalType": "uint256",
          "name": "",
          "type": "uint256"
        }
      ],
      "payable": false,
      "stateMutability": "view",
      "type": "function"
    },
    {
      "constant": false,
      "inputs": [],
      "name": "releaseToVault",
      "outputs": [],
      "payable": false,
      "stateMutability": "nonpayable",
      "type": "function"
    },
    {
      "constant": false,
      "inputs": [
        {
          "internalType": "address",
          "name": "vToken",
          "type": "address"
        },
        {
          "internalType": "address",
          "name": "payer",
          "type": "address"
        },
        {
          "internalType": "address",
          "name": "borrower",
          "type": "address"
        },
        {
          "internalType": "uint256",
          "name": "repayAmount",
          "type": "uint256"
        }
      ],
      "name": "repayBorrowAllowed",
      "outputs": [
        {
          "internalType": "uint256",
          "name": "",
          "type": "uint256"
        }
      ],
      "payable": false,
      "stateMutability": "nonpayable",
      "type": "function"
    },
    {
      "constant": false,
      "inputs": [
        {
          "internalType": "address",
          "name": "vToken",
          "type": "address"
        },
        {
          "internalType": "address",
          "name": "payer",
          "type": "address"
        },
        {
          "internalType": "address",
          "name": "borrower",
          "type": "address"
        },
        {
          "internalType": "uint256",
          "name": "actualRepayAmount",
          "type": "uint256"
        },
        {
          "internalType": "uint256",
          "name": "borrowerIndex",
          "type": "uint256"
        }
      ],
      "name": "repayBorrowVerify",
      "outputs": [],
      "payable": false,
      "stateMutability": "nonpayable",
      "type": "function"
    },
    {
      "constant": true,
      "inputs": [],
      "name": "repayVAIGuardianPaused",
      "outputs": [
        {
          "internalType": "bool",
          "name": "",
          "type": "bool"
        }
      ],
      "payable": false,
      "stateMutability": "view",
      "type": "function"
    },
    {
      "constant": false,
      "inputs": [
        {
          "internalType": "address",
          "name": "vTokenCollateral",
          "type": "address"
        },
        {
          "internalType": "address",
          "name": "vTokenBorrowed",
          "type": "address"
        },
        {
          "internalType": "address",
          "name": "liquidator",
          "type": "address"
        },
        {
          "internalType": "address",
          "name": "borrower",
          "type": "address"
        },
        {
          "internalType": "uint256",
          "name": "seizeTokens",
          "type": "uint256"
        }
      ],
      "name": "seizeAllowed",
      "outputs": [
        {
          "internalType": "uint256",
          "name": "",
          "type": "uint256"
        }
      ],
      "payable": false,
      "stateMutability": "nonpayable",
      "type": "function"
    },
    {
      "constant": true,
      "inputs": [],
      "name": "seizeGuardianPaused",
      "outputs": [
        {
          "internalType": "bool",
          "name": "",
          "type": "bool"
        }
      ],
      "payable": false,
      "stateMutability": "view",
      "type": "function"
    },
    {
      "constant": false,
      "inputs": [
        {
          "internalType": "address",
          "name": "vTokenCollateral",
          "type": "address"
        },
        {
          "internalType": "address",
          "name": "vTokenBorrowed",
          "type": "address"
        },
        {
          "internalType": "address",
          "name": "liquidator",
          "type": "address"
        },
        {
          "internalType": "address",
          "name": "borrower",
          "type": "address"
        },
        {
          "internalType": "uint256",
          "name": "seizeTokens",
          "type": "uint256"
        }
      ],
      "name": "seizeVerify",
      "outputs": [],
      "payable": false,
      "stateMutability": "nonpayable",
      "type": "function"
    },
    {
      "constant": false,
      "inputs": [
        {
          "internalType": "address",
          "name": "owner",
          "type": "address"
        },
        {
          "internalType": "uint256",
          "name": "amount",
          "type": "uint256"
        }
      ],
      "name": "setMintedVAIOf",
      "outputs": [
        {
          "internalType": "uint256",
          "name": "",
          "type": "uint256"
        }
      ],
      "payable": false,
      "stateMutability": "nonpayable",
      "type": "function"
    },
    {
      "constant": false,
      "inputs": [
        {
          "internalType": "address",
          "name": "vToken",
          "type": "address"
        },
        {
          "internalType": "address",
          "name": "src",
          "type": "address"
        },
        {
          "internalType": "address",
          "name": "dst",
          "type": "address"
        },
        {
          "internalType": "uint256",
          "name": "transferTokens",
          "type": "uint256"
        }
      ],
      "name": "transferAllowed",
      "outputs": [
        {
          "internalType": "uint256",
          "name": "",
          "type": "uint256"
        }
      ],
      "payable": false,
      "stateMutability": "nonpayable",
      "type": "function"
    },
    {
      "constant": true,
      "inputs": [],
      "name": "transferGuardianPaused",
      "outputs": [
        {
          "internalType": "bool",
          "name": "",
          "type": "bool"
        }
      ],
      "payable": false,
      "stateMutability": "view",
      "type": "function"
    },
    {
      "constant": false,
      "inputs": [
        {
          "internalType": "address",
          "name": "vToken",
          "type": "address"
        },
        {
          "internalType": "address",
          "name": "src",
          "type": "address"
        },
        {
          "internalType": "address",
          "name": "dst",
          "type": "address"
        },
        {
          "internalType": "uint256",
          "name": "transferTokens",
          "type": "uint256"
        }
      ],
      "name": "transferVerify",
      "outputs": [],
      "payable": false,
      "stateMutability": "nonpayable",
      "type": "function"
    },
    {
      "constant": true,
      "inputs": [],
      "name": "treasuryAddress",
      "outputs": [
        {
          "internalType": "address",
          "name": "",
          "type": "address"
        }
      ],
      "payable": false,
      "stateMutability": "view",
      "type": "function"
    },
    {
      "constant": true,
      "inputs": [],
      "name": "treasuryGuardian",
      "outputs": [
        {
          "internalType": "address",
          "name": "",
          "type": "address"
        }
      ],
      "payable": false,
      "stateMutability": "view",
      "type": "function"
    },
    {
      "constant": true,
      "inputs": [],
      "name": "treasuryPercent",
      "outputs": [
        {
          "internalType": "uint256",
          "name": "",
          "type": "uint256"
        }
      ],
      "payable": false,
      "stateMutability": "view",
      "type": "function"
    },
    {
      "constant": true,
      "inputs": [],
      "name": "vaiController",
      "outputs": [
        {
          "internalType": "contract VAIControllerInterface",
          "name": "",
          "type": "address"
        }
      ],
      "payable": false,
      "stateMutability": "view",
      "type": "function"
    },
    {
      "constant": true,
      "inputs": [],
      "name": "vaiMintRate",
      "outputs": [
        {
          "internalType": "uint256",
          "name": "",
          "type": "uint256"
        }
      ],
      "payable": false,
      "stateMutability": "view",
      "type": "function"
    },
    {
      "constant": true,
      "inputs": [],
      "name": "vaiVaultAddress",
      "outputs": [
        {
          "internalType": "address",
          "name": "",
          "type": "address"
        }
      ],
      "payable": false,
      "stateMutability": "view",
      "type": "function"
    },
    {
      "constant": true,
      "inputs": [
        {
          "internalType": "address",
          "name": "",
          "type": "address"
        }
      ],
      "name": "venusAccrued",
      "outputs": [
        {
          "internalType": "uint256",
          "name": "",
          "type": "uint256"
        }
      ],
      "payable": false,
      "stateMutability": "view",
      "type": "function"
    },
    {
      "constant": true,
      "inputs": [
        {
          "internalType": "address",
          "name": "",
          "type": "address"
        }
      ],
      "name": "venusBorrowState",
      "outputs": [
        {
          "internalType": "uint224",
          "name": "index",
          "type": "uint224"
        },
        {
          "internalType": "uint32",
          "name": "block",
          "type": "uint32"
        }
      ],
      "payable": false,
      "stateMutability": "view",
      "type": "function"
    },
    {
      "constant": true,
      "inputs": [
        {
          "internalType": "address",
          "name": "",
          "type": "address"
        },
        {
          "internalType": "address",
          "name": "",
          "type": "address"
        }
      ],
      "name": "venusBorrowerIndex",
      "outputs": [
        {
          "internalType": "uint256",
          "name": "",
          "type": "uint256"
        }
      ],
      "payable": false,
      "stateMutability": "view",
      "type": "function"
    },
    {
      "constant": true,
      "inputs": [
        {
          "internalType": "address",
          "name": "",
          "type": "address"
        }
      ],
      "name": "venusContributorSpeeds",
      "outputs": [
        {
          "internalType": "uint256",
          "name": "",
          "type": "uint256"
        }
      ],
      "payable": false,
      "stateMutability": "view",
      "type": "function"
    },
    {
      "constant": true,
      "inputs": [],
      "name": "venusInitialIndex",
      "outputs": [
        {
          "internalType": "uint224",
          "name": "",
          "type": "uint224"
        }
      ],
      "payable": false,
      "stateMutability": "view",
      "type": "function"
    },
    {
      "constant": true,
      "inputs": [],
      "name": "venusRate",
      "outputs": [
        {
          "internalType": "uint256",
          "name": "",
          "type": "uint256"
        }
      ],
      "payable": false,
      "stateMutability": "view",
      "type": "function"
    },
    {
      "constant": true,
      "inputs": [
        {
          "internalType": "address",
          "name": "",
          "type": "address"
        }
      ],
      "name": "venusSpeeds",
      "outputs": [
        {
          "internalType": "uint256",
          "name": "",
          "type": "uint256"
        }
      ],
      "payable": false,
      "stateMutability": "view",
      "type": "function"
    },
    {
      "constant": true,
      "inputs": [
        {
          "internalType": "address",
          "name": "",
          "type": "address"
        },
        {
          "internalType": "address",
          "name": "",
          "type": "address"
        }
      ],
      "name": "venusSupplierIndex",
      "outputs": [
        {
          "internalType": "uint256",
          "name": "",
          "type": "uint256"
        }
      ],
      "payable": false,
      "stateMutability": "view",
      "type": "function"
    },
    {
      "constant": true,
      "inputs": [
        {
          "internalType": "address",
          "name": "",
          "type": "address"
        }
      ],
      "name": "venusSupplyState",
      "outputs": [
        {
          "internalType": "uint224",
          "name": "index",
          "type": "uint224"
        },
        {
          "internalType": "uint32",
          "name": "block",
          "type": "uint32"
        }
      ],
      "payable": false,
      "stateMutability": "view",
      "type": "function"
    },
    {
      "constant": true,
      "inputs": [],
      "name": "venusVAIRate",
      "outputs": [
        {
          "internalType": "uint256",
          "name": "",
          "type": "uint256"
        }
      ],
      "payable": false,
      "stateMutability": "view",
      "type": "function"
    },
    {
      "constant": true,
      "inputs": [],
      "name": "venusVAIVaultRate",
      "outputs": [
        {
          "internalType": "uint256",
          "name": "",
          "type": "uint256"
        }
      ],
      "payable": false,
      "stateMutability": "view",
      "type": "function"
    }
  ],
  "transactionHash": "0x3f12df1359840112c0d7425dec9e8cf79f8c43a22140f4ddfe1c5ca46284a14f",
  "args": [],
  "solcInputHash": "b37497c5b1f763df37ae9c22af67abad",
  "bytecode": "0x608060405234801561001057600080fd5b50600080546001600160a01b03191633179055615f8e80620000336000396000f3fe608060405234801561001057600080fd5b50600436106105195760003560e01c806386df31ee116102a4578063bec04f7211610172578063ddfd287e116100d9578063eabe7d9111610092578063eabe7d911461138b578063ede4edd0146113c1578063f4b8d5fe146113e7578063f851a4401461140d578063fa6331d814611415578063fd51a3ad1461141d57610519565b8063ddfd287e14611304578063e37d4b791461130c578063e4028eee14611332578063e6653f3d1461135e578063e6de652814611366578063e87554461461138357610519565b8063d02f73511161012b578063d02f7351146110f2578063d09c54ba14611138578063d24febad14611264578063da3d454c1461129a578063dce15449146112d0578063dcfbc0c7146112fc57610519565b8063bec04f7214611012578063bf32442d1461101a578063c299823814611022578063c488847b14611090578063c5b4db55146110c6578063c5f956af146110ea57610519565b8063a76b3fda11610216578063b0772d0b116101cf578063b0772d0b14610f4a578063b2eafc3914610f52578063b8324c7c14610f5a578063bb82aa5e14610fa8578063bdcdc25814610fb0578063bea6b8b814610fec57610519565b8063a76b3fda14610e15578063a78dc77514610e3b578063a904613414610e80578063abfceffc14610ea6578063ac0b0bb714610f1c578063adcd5fb914610f2457610519565b80639254f5e5116102685780639254f5e514610d59578063929fe9a114610d6157806394b2294b14610d8f5780639cfdd9e614610d97578063a06a87f114610dbd578063a7604b4114610de957610519565b806386df31ee14610c2a578063879c2e1d14610cdb57806387f7630314610ce35780638a7dc16514610ceb5780638e8f294b14610d1157610519565b806347ef3b3b116103ec5780635f5af1aa116103535780636d35bf911161030c5780636d35bf9114610b9e578063719f701b14610be4578063731f0c2b14610bec5780637655138314610c125780637d172bd514610c1a5780637dc0d1d014610c2257610519565b80635f5af1aa146109f55780635fc7e71e14610a1b578063607ef6c114610a615780636662c7c914610b1f5780636a56947e14610b3c5780636d154ea514610b7857610519565b80634fd42e17116103a55780634fd42e17146108fd57806351dff9891461091a57806352d84d1e1461095657806355ee1fe1146109735780635c778605146109995780635ec88c79146109cf57610519565b806347ef3b3b146107c15780634a5844321461080d5780634ada90af146108335780634e0853db1461083b5780634e79238f1461086d5780634ef4c3e1146108c757610519565b80632a6a6065116104905780633c94786f116104495780633c94786f146107375780634088c73e1461073f57806341a18d2c1461074757806341c728b914610775578063425fad58146107b157806342cbb15c146107b957610519565b80632a6a60651461068a5780632bc7e29e146106a95780632ec04124146106cf578063317b0b77146106ec578063391957d714610709578063399cc80c1461072f57610519565b80631d504dc6116104e25780631d504dc6146105b05780631ededc91146105d857806321af45691461061a57806324008a621461063e57806324a3d6221461067a578063267822471461068257610519565b80627e3dd21461051e57806304ef9d581461053a57806308e0225c146105545780630db4b4e5146105825780631abcaa771461058a575b600080fd5b610526611449565b604080519115158252519081900360200190f35b61054261144e565b60408051918252519081900360200190f35b6105426004803603604081101561056a57600080fd5b506001600160a01b0381358116916020013516611454565b610542611471565b610542600480360360208110156105a057600080fd5b50356001600160a01b0316611477565b6105d6600480360360208110156105c657600080fd5b50356001600160a01b0316611489565b005b6105d6600480360360a08110156105ee57600080fd5b506001600160a01b038135811691602081013582169160408201351690606081013590608001356115f7565b6106226115fe565b604080516001600160a01b039092168252519081900360200190f35b6105426004803603608081101561065457600080fd5b506001600160a01b0381358116916020810135821691604082013516906060013561160d565b61062261172a565b610622611739565b610526600480360360208110156106a057600080fd5b50351515611748565b610542600480360360208110156106bf57600080fd5b50356001600160a01b0316611865565b610542600480360360208110156106e557600080fd5b5035611877565b6105426004803603602081101561070257600080fd5b50356118ec565b6105d66004803603602081101561071f57600080fd5b50356001600160a01b0316611996565b610542611a49565b610526611a4f565b610526611a5f565b6105426004803603604081101561075d57600080fd5b506001600160a01b0381358116916020013516611a68565b6105d66004803603608081101561078b57600080fd5b506001600160a01b03813581169160208101359091169060408101359060600135611a85565b610526611a8b565b610542611a9a565b6105d6600480360360c08110156107d757600080fd5b506001600160a01b0381358116916020810135821691604082013581169160608101359091169060808101359060a00135611a9f565b6105426004803603602081101561082357600080fd5b50356001600160a01b0316611aa7565b610542611ab9565b6105d66004803603606081101561085157600080fd5b506001600160a01b038135169060208101359060400135611abf565b6108a96004803603608081101561088357600080fd5b506001600160a01b03813581169160208101359091169060408101359060600135611b7c565b60408051938452602084019290925282820152519081900360600190f35b610542600480360360608110156108dd57600080fd5b506001600160a01b03813581169160208101359091169060400135611bb6565b6105426004803603602081101561091357600080fd5b5035611cb5565b6105d66004803603608081101561093057600080fd5b506001600160a01b03813581169160208101359091169060408101359060600135611d1e565b6106226004803603602081101561096c57600080fd5b5035611d6f565b6105426004803603602081101561098957600080fd5b50356001600160a01b0316611d96565b6105d6600480360360608110156109af57600080fd5b506001600160a01b03813581169160208101359091169060400135611e1b565b6108a9600480360360208110156109e557600080fd5b50356001600160a01b0316611e20565b61054260048036036020811015610a0b57600080fd5b50356001600160a01b0316611e55565b610542600480360360a0811015610a3157600080fd5b506001600160a01b0381358116916020810135821691604082013581169160608101359091169060800135611eda565b6105d660048036036040811015610a7757600080fd5b810190602081018135600160201b811115610a9157600080fd5b820183602082011115610aa357600080fd5b803590602001918460208302840111600160201b83111715610ac457600080fd5b919390929091602081019035600160201b811115610ae157600080fd5b820183602082011115610af357600080fd5b803590602001918460208302840111600160201b83111715610b1457600080fd5b5090925090506120e6565b6105d660048036036020811015610b3557600080fd5b5035612276565b6105d660048036036080811015610b5257600080fd5b506001600160a01b0381358116916020810135821691604082013516906060013561230d565b61052660048036036020811015610b8e57600080fd5b50356001600160a01b0316612312565b6105d6600480360360a0811015610bb457600080fd5b506001600160a01b03813581169160208101358216916040820135811691606081013590911690608001356115f7565b610542612327565b61052660048036036020811015610c0257600080fd5b50356001600160a01b031661232d565b610526612342565b610622612350565b61062261235f565b6105d660048036036040811015610c4057600080fd5b6001600160a01b038235169190810190604081016020820135600160201b811115610c6a57600080fd5b820183602082011115610c7c57600080fd5b803590602001918460208302840111600160201b83111715610c9d57600080fd5b91908080602002602001604051908101604052809392919081815260200183836020028082843760009201919091525092955061236e945050505050565b6105426123cb565b6105266123d1565b61054260048036036020811015610d0157600080fd5b50356001600160a01b03166123e1565b610d3760048036036020811015610d2757600080fd5b50356001600160a01b03166123f3565b6040805193151584526020840192909252151582820152519081900360600190f35b610622612419565b61052660048036036040811015610d7757600080fd5b506001600160a01b0381358116916020013516612428565b61054261245c565b61054260048036036020811015610dad57600080fd5b50356001600160a01b0316612462565b6105d660048036036040811015610dd357600080fd5b506001600160a01b0381351690602001356124e6565b6105d660048036036040811015610dff57600080fd5b506001600160a01b03813516906020013561254d565b61054260048036036020811015610e2b57600080fd5b50356001600160a01b0316612650565b610e6760048036036040811015610e5157600080fd5b506001600160a01b0381351690602001356127ad565b6040805192835260208301919091528051918290030190f35b61054260048036036020811015610e9657600080fd5b50356001600160a01b0316612952565b610ecc60048036036020811015610ebc57600080fd5b50356001600160a01b0316612964565b60408051602080825283518183015283519192839290830191858101910280838360005b83811015610f08578181015183820152602001610ef0565b505050509050019250505060405180910390f35b6105266129da565b6105d660048036036020811015610f3a57600080fd5b50356001600160a01b03166129ea565b610ecc612a4e565b610622612ab0565b610f8060048036036020811015610f7057600080fd5b50356001600160a01b0316612abf565b604080516001600160e01b03909316835263ffffffff90911660208301528051918290030190f35b610622612ae9565b61054260048036036080811015610fc657600080fd5b506001600160a01b03813581169160208101358216916040820135169060600135612af8565b6105426004803603602081101561100257600080fd5b50356001600160a01b0316612bdb565b610542612bed565b610622612bf3565b610ecc6004803603602081101561103857600080fd5b810190602081018135600160201b81111561105257600080fd5b82018360208201111561106457600080fd5b803590602001918460208302840111600160201b8311171561108557600080fd5b509092509050612c0b565b610e67600480360360608110156110a657600080fd5b506001600160a01b03813581169160208101359091169060400135612ca1565b6110ce612ec9565b604080516001600160e01b039092168252519081900360200190f35b610622612edc565b610542600480360360a081101561110857600080fd5b506001600160a01b0381358116916020810135821691604082013581169160608101359091169060800135612eeb565b6105d66004803603608081101561114e57600080fd5b810190602081018135600160201b81111561116857600080fd5b82018360208201111561117a57600080fd5b803590602001918460208302840111600160201b8311171561119b57600080fd5b9190808060200260200160405190810160405280939291908181526020018383602002808284376000920191909152509295949360208101935035915050600160201b8111156111ea57600080fd5b8201836020820111156111fc57600080fd5b803590602001918460208302840111600160201b8311171561121d57600080fd5b91908080602002602001604051908101604052809392919081815260200183836020028082843760009201919091525092955050505080351515915060200135151561310a565b6105426004803603606081101561127a57600080fd5b506001600160a01b038135811691602081013590911690604001356134a9565b610542600480360360608110156112b057600080fd5b506001600160a01b0381358116916020810135909116906040013561363e565b610622600480360360408110156112e657600080fd5b506001600160a01b038135169060200135613a3b565b610622613a70565b6105d6613a7f565b610f806004803603602081101561132257600080fd5b50356001600160a01b0316613caf565b6105426004803603604081101561134857600080fd5b506001600160a01b038135169060200135613cd9565b610526613e89565b6105d66004803603602081101561137c57600080fd5b5035613e99565b610542613f30565b610542600480360360608110156113a157600080fd5b506001600160a01b03813581169160208101359091169060400135613f36565b610542600480360360208110156113d757600080fd5b50356001600160a01b0316613fc6565b6105d6600480360360208110156113fd57600080fd5b50356001600160a01b0316614282565b6106226143ae565b6105426143bd565b6105426004803603604081101561143357600080fd5b506001600160a01b0381351690602001356143c3565b600181565b60225481565b601360209081526000928352604080842090915290825290205481565b601d5481565b600f6020526000908152604090205481565b806001600160a01b031663f851a4406040518163ffffffff1660e01b815260040160206040518083038186803b1580156114c257600080fd5b505afa1580156114d6573d6000803e3d6000fd5b505050506040513d60208110156114ec57600080fd5b50516001600160a01b0316331461154a576040805162461bcd60e51b815260206004820152601960248201527f6f6e6c7920756e6974726f6c6c65722061646d696e2063616e00000000000000604482015290519081900360640190fd5b806001600160a01b031663c1e803346040518163ffffffff1660e01b8152600401602060405180830381600087803b15801561158557600080fd5b505af1158015611599573d6000803e3d6000fd5b505050506040513d60208110156115af57600080fd5b5051156115f4576040805162461bcd60e51b815260206004820152600e60248201526d1b9bdd08185d5d1a1bdc9a5e995960921b604482015290519081900360640190fd5b50565b5050505050565b601e546001600160a01b031681565b60185460009062010000900460ff1615611663576040805162461bcd60e51b81526020600482015260126024820152711c1c9bdd1bd8dbdb081a5cc81c185d5cd95960721b604482015290519081900360640190fd5b6001600160a01b03851660009081526009602052604090205460ff1661168b57506009611722565b611693615e44565b6040518060200160405280876001600160a01b031663aa5af0fd6040518163ffffffff1660e01b815260040160206040518083038186803b1580156116d757600080fd5b505afa1580156116eb573d6000803e3d6000fd5b505050506040513d602081101561170157600080fd5b50519052905061171186826144b5565b61171c868583614749565b60009150505b949350505050565b600a546001600160a01b031681565b6001546001600160a01b031681565b600a5460009082906001600160a01b031633148061177057506000546001600160a01b031633145b6117ab5760405162461bcd60e51b8152600401808060200182810382526021815260200180615f046021913960400191505060405180910390fd5b6000546001600160a01b03163314806117c657506001811515145b611810576040805162461bcd60e51b81526020600482015260166024820152756f6e6c792061646d696e2063616e20756e706175736560501b604482015290519081900360640190fd5b6018805484151562010000810262ff0000199092169190911790915560408051918252517fd7500633dd3ddd74daa7af62f8c8404c7fe4a81da179998db851696bed004b389181900360200190a15090919050565b60166020526000908152604090205481565b600080546001600160a01b0316331461189d57611896600160146148f9565b90506118e7565b6017805490839055604080518281526020810185905281517f73747d68b346dce1e932bcd238282e7ac84c01569e1f8d0469c222fdc6e9d5a4929181900390910190a160005b9150505b919050565b600080546001600160a01b0316331461194c576040805162461bcd60e51b815260206004820152601f60248201527f6f6e6c792061646d696e2063616e2073657420636c6f736520666163746f7200604482015290519081900360640190fd5b6005805490839055604080518281526020810185905281517f3b9670cf975d26958e754b57098eaa2ac914d8d2a31b83257997b9f346110fd9929181900390910190a160006118e3565b6000546001600160a01b031633146119e6576040805162461bcd60e51b815260206004820152600e60248201526d37b7363c9030b236b4b71031b0b760911b604482015290519081900360640190fd5b601e80546001600160a01b038381166001600160a01b0319831681179093556040805191909216808252602082019390935281517feda98690e518e9a05f8ec6837663e188211b2da8f4906648b323f2c1d4434e29929181900390910190a15050565b60195481565b600a54600160a01b900460ff1681565b60185460ff1681565b601260209081526000928352604080842090915290825290205481565b50505050565b60185462010000900460ff1681565b435b90565b505050505050565b601f6020526000908152604090205481565b60065481565b6000546001600160a01b03163314611b0f576040805162461bcd60e51b815260206004820152600e60248201526d37b7363c9030b236b4b71031b0b760911b604482015290519081900360640190fd5b601b80546001600160a01b0385166001600160a01b03199091168117909155601c839055601d8290556040805191825260208201849052818101839052517f7059037d74ee16b0fb06a4a30f3348dd2635f301f92e373c92899a25a522ef6e9181900360600190a1505050565b600080600080600080611b918a8a8a8a61495f565b925092509250826012811115611ba357fe5b95509093509150505b9450945094915050565b60185460009062010000900460ff1615611c0c576040805162461bcd60e51b81526020600482015260126024820152711c1c9bdd1bd8dbdb081a5cc81c185d5cd95960721b604482015290519081900360640190fd5b6001600160a01b0384166000908152600b602052604090205460ff1615611c6b576040805162461bcd60e51b815260206004820152600e60248201526d1b5a5b9d081a5cc81c185d5cd95960921b604482015290519081900360640190fd5b6001600160a01b03841660009081526009602052604090205460ff16611c955760095b9050611cae565b611c9e84614ccc565b611ca88484614f56565b60005b90505b9392505050565b600080546001600160a01b03163314611cd4576118966001600b6148f9565b6006805490839055604080518281526020810185905281517faeba5a6c40a8ac138134bff1aaa65debf25971188a58804bad717f82f0ec1316929181900390910190a160006118e3565b80151580611d2a575081155b611a85576040805162461bcd60e51b815260206004820152601160248201527072656465656d546f6b656e73207a65726f60781b604482015290519081900360640190fd5b600d8181548110611d7c57fe5b6000918252602090912001546001600160a01b0316905081565b600080546001600160a01b03163314611db557611896600160106148f9565b600480546001600160a01b038481166001600160a01b0319831681179093556040805191909216808252602082019390935281517fd52b2b9b7e9ee655fcb95d2e5b9e0c9f69e7ef2b8e9d2d0ea78402d576d22e22929181900390910190a160006118e3565b505050565b600080600080600080611e3787600080600061495f565b925092509250826012811115611e4957fe5b97919650945092505050565b600080546001600160a01b03163314611e7457611896600160136148f9565b600a80546001600160a01b038481166001600160a01b0319831681179093556040805191909216808252602082019390935281517f0613b6ee6a04f0d09f390e4d9318894b9f6ac7fd83897cd8d18896ba579c401e929181900390910190a160006118e3565b60185460009062010000900460ff1615611f30576040805162461bcd60e51b81526020600482015260126024820152711c1c9bdd1bd8dbdb081a5cc81c185d5cd95960721b604482015290519081900360640190fd5b6001600160a01b03861660009081526009602052604090205460ff1680611f6457506015546001600160a01b038781169116145b1580611f8957506001600160a01b03851660009081526009602052604090205460ff16155b15611f985760095b90506120dd565b600080611fa985600080600061495f565b91935090915060009050826012811115611fbf57fe5b14611fd957816012811115611fd057fe5b925050506120dd565b80611fe5576003611fd0565b6015546000906001600160a01b038a811691161461208657886001600160a01b03166395dd9193876040518263ffffffff1660e01b815260040180826001600160a01b03166001600160a01b0316815260200191505060206040518083038186803b15801561205357600080fd5b505afa158015612067573d6000803e3d6000fd5b505050506040513d602081101561207d57600080fd5b505190506120a1565b506001600160a01b0385166000908152601660205260409020545b60006120bd60405180602001604052806005548152508361514e565b9050808611156120d45760119450505050506120dd565b60009450505050505b95945050505050565b6000546001600160a01b03163314806121095750601e546001600160a01b031633145b6121445760405162461bcd60e51b8152600401808060200182810382526035815260200180615f256035913960400191505060405180910390fd5b8281811580159061215457508082145b612195576040805162461bcd60e51b815260206004820152600d60248201526c1a5b9d985b1a59081a5b9c1d5d609a1b604482015290519081900360640190fd5b60005b8281101561226d578484828181106121ac57fe5b90506020020135601f60008989858181106121c357fe5b905060200201356001600160a01b03166001600160a01b03166001600160a01b031681526020019081526020016000208190555086868281811061220357fe5b905060200201356001600160a01b03166001600160a01b03167f6f1951b2aad10f3fc81b86d91105b413a5b3f847a34bbc5ce1904201b14438f686868481811061224957fe5b905060200201356040518082815260200191505060405180910390a2600101612198565b50505050505050565b6000546001600160a01b031633146122c6576040805162461bcd60e51b815260206004820152600e60248201526d37b7363c9030b236b4b71031b0b760911b604482015290519081900360640190fd5b601a805490829055604080518281526020810184905281517fe81d4ac15e5afa1e708e66664eddc697177423d950d133bda8262d8885e6da3b929181900390910190a15050565b611a85565b600c6020526000908152604090205460ff1681565b601c5481565b600b6020526000908152604090205460ff1681565b601854610100900460ff1681565b601b546001600160a01b031681565b6004546001600160a01b031681565b60408051600180825281830190925260609160208083019080388339019050509050828160008151811061239e57fe5b60200260200101906001600160a01b031690816001600160a01b031681525050611e1b818360018061310a565b600e5481565b600a54600160b01b900460ff1681565b60146020526000908152604090205481565b60096020526000908152604090208054600182015460039092015460ff91821692911683565b6015546001600160a01b031681565b6001600160a01b038082166000908152600960209081526040808320938616835260029093019052205460ff165b92915050565b60075481565b600080546001600160a01b0316331461248157611896600160156148f9565b601580546001600160a01b038481166001600160a01b0319831681179093556040805191909216808252602082019390935281517fe1ddcb2dab8e5b03cfc8c67a0d5861d91d16f7bd2612fd381faf4541d212c9b2929181900390910190a150919050565b6124ee61516d565b61253f576040805162461bcd60e51b815260206004820152601e60248201527f6f6e6c792061646d696e2063616e207365742076656e75732073706565640000604482015290519081900360640190fd5b6125498282615196565b5050565b61255561516d565b6125a6576040805162461bcd60e51b815260206004820152601860248201527f6f6e6c792061646d696e2063616e206772616e74207876730000000000000000604482015290519081900360640190fd5b60006125b28383615528565b90508015612607576040805162461bcd60e51b815260206004820152601a60248201527f696e73756666696369656e742078767320666f72206772616e74000000000000604482015290519081900360640190fd5b604080516001600160a01b03851681526020810184905281517fd7fe674cac9eee3998fe3cbd7a6f93c3bc70509d97ec1550a59364be6438147e929181900390910190a1505050565b600080546001600160a01b0316331461266f57611896600160126148f9565b6001600160a01b03821660009081526009602052604090205460ff161561269c57611896600a60116148f9565b816001600160a01b0316633d9ea3a16040518163ffffffff1660e01b815260040160206040518083038186803b1580156126d557600080fd5b505afa1580156126e9573d6000803e3d6000fd5b505050506040513d60208110156126ff57600080fd5b5050604080516060810182526001808252600060208381018281528486018381526001600160a01b03891684526009909252949091209251835490151560ff1991821617845593519183019190915551600390910180549115159190921617905561276982615662565b604080516001600160a01b038416815290517fcf583bb0c569eb967f806b11601c4cb93c10310485c67add5f8362c2f212321f9181900360200190a1600092915050565b600480546040805163fc57d4df60e01b81526001600160a01b038681169482019490945290516000938493670de0b6b3a7640000938593929091169163fc57d4df91602480820192602092909190829003018186803b15801561280f57600080fd5b505afa158015612823573d6000803e3d6000fd5b505050506040513d602081101561283957600080fd5b505190508061285257600d93506000925061294b915050565b6000866001600160a01b031663182df0f56040518163ffffffff1660e01b815260040160206040518083038186803b15801561288d57600080fd5b505afa1580156128a1573d6000803e3d6000fd5b505050506040513d60208110156128b757600080fd5b5051905060006128c5615e44565b6128cd615e44565b6128d5615e44565b6128fd604051806020016040528060065481525060405180602001604052808a815250615740565b9250612925604051806020016040528088815250604051806020016040528088815250615740565b9150612931838361577f565b905061293d818b61514e565b600099509750505050505050505b9250929050565b60236020526000908152604090205481565b6001600160a01b0381166000908152600860209081526040918290208054835181840281018401909452808452606093928301828280156129ce57602002820191906000526020600020905b81546001600160a01b031681526001909101906020018083116129b0575b50505050509050919050565b600a54600160b81b900460ff1681565b6115f481600d805480602002602001604051908101604052809291908181526020018280548015612a4457602002820191906000526020600020905b81546001600160a01b03168152600190910190602001808311612a26575b505050505061236e565b6060600d805480602002602001604051908101604052809291908181526020018280548015612aa657602002820191906000526020600020905b81546001600160a01b03168152600190910190602001808311612a88575b5050505050905090565b6020546001600160a01b031681565b6010602052600090815260409020546001600160e01b03811690600160e01b900463ffffffff1682565b6002546001600160a01b031681565b60185460009062010000900460ff1615612b4e576040805162461bcd60e51b81526020600482015260126024820152711c1c9bdd1bd8dbdb081a5cc81c185d5cd95960721b604482015290519081900360640190fd5b600a54600160b01b900460ff1615612ba2576040805162461bcd60e51b81526020600482015260126024820152711d1c985b9cd9995c881a5cc81c185d5cd95960721b604482015290519081900360640190fd5b6000612baf8686856157bb565b90508015612bbe579050611722565b612bc786614ccc565b612bd18686614f56565b61171c8685614f56565b60246020526000908152604090205481565b60175481565b7321291b52862588b4660d0cf47284a9419896dd6390565b60408051828152602080840282010190915260609082908290828015612c3b578160200160208202803883390190505b50905060005b82811015612c9857612c6e868683818110612c5857fe5b905060200201356001600160a01b031633615867565b6012811115612c7957fe5b828281518110612c8557fe5b6020908102919091010152600101612c41565b50949350505050565b600480546040805163fc57d4df60e01b81526001600160a01b038781169482019490945290516000938493849391169163fc57d4df91602480820192602092909190829003018186803b158015612cf757600080fd5b505afa158015612d0b573d6000803e3d6000fd5b505050506040513d6020811015612d2157600080fd5b5051600480546040805163fc57d4df60e01b81526001600160a01b038a8116948201949094529051939450600093929091169163fc57d4df91602480820192602092909190829003018186803b158015612d7a57600080fd5b505afa158015612d8e573d6000803e3d6000fd5b505050506040513d6020811015612da457600080fd5b50519050811580612db3575080155b15612dc857600d935060009250612ec1915050565b6000866001600160a01b031663182df0f56040518163ffffffff1660e01b815260040160206040518083038186803b158015612e0357600080fd5b505afa158015612e17573d6000803e3d6000fd5b505050506040513d6020811015612e2d57600080fd5b505190506000612e3b615e44565b612e43615e44565b612e4b615e44565b612e73604051806020016040528060065481525060405180602001604052808a815250615740565b9250612e9b604051806020016040528088815250604051806020016040528088815250615740565b9150612ea7838361577f565b9050612eb3818b61514e565b600099509750505050505050505b935093915050565b6ec097ce7bc90715b34b9f100000000081565b6021546001600160a01b031681565b60185460009062010000900460ff1615612f41576040805162461bcd60e51b81526020600482015260126024820152711c1c9bdd1bd8dbdb081a5cc81c185d5cd95960721b604482015290519081900360640190fd5b600a54600160b81b900460ff1615612f92576040805162461bcd60e51b815260206004820152600f60248201526e1cd95a5e99481a5cc81c185d5cd959608a1b604482015290519081900360640190fd5b6001600160a01b03861660009081526009602052604090205460ff161580612feb57506001600160a01b03851660009081526009602052604090205460ff1680612fe957506015546001600160a01b038681169116145b155b15612ff7576009611f91565b846001600160a01b0316635fe3b5676040518163ffffffff1660e01b815260040160206040518083038186803b15801561303057600080fd5b505afa158015613044573d6000803e3d6000fd5b505050506040513d602081101561305a57600080fd5b505160408051635fe3b56760e01b815290516001600160a01b0392831692891691635fe3b567916004808301926020929190829003018186803b1580156130a057600080fd5b505afa1580156130b4573d6000803e3d6000fd5b505050506040513d60208110156130ca57600080fd5b50516001600160a01b0316146130e1576002611f91565b6130ea86614ccc565b6130f48684614f56565b6130fe8685614f56565b60009695505050505050565b6015546000906001600160a01b03161561319b57601560009054906101000a90046001600160a01b03166001600160a01b031663d244b0816040518163ffffffff1660e01b8152600401602060405180830381600087803b15801561316e57600080fd5b505af1158015613182573d6000803e3d6000fd5b505050506040513d602081101561319857600080fd5b50505b5060005b8451811015613255576131c48582815181106131b757fe5b6020026020010151614282565b6132198582815181106131d357fe5b6020026020010151601460008885815181106131eb57fe5b60200260200101516001600160a01b03166001600160a01b0316815260200190815260200160002054615528565b6014600087848151811061322957fe5b6020908102919091018101516001600160a01b031682528101919091526040016000205560010161319f565b60005b8451811015611a9f57600085828151811061326f57fe5b6020908102919091018101516001600160a01b0381166000908152600990925260409091205490915060ff166132e0576040805162461bcd60e51b81526020600482015260116024820152701b9bdd081b1a5cdd1959081b585c9ad95d607a1b604482015290519081900360640190fd5b8415613400576132ee615e44565b6040518060200160405280836001600160a01b031663aa5af0fd6040518163ffffffff1660e01b815260040160206040518083038186803b15801561333257600080fd5b505afa158015613346573d6000803e3d6000fd5b505050506040513d602081101561335c57600080fd5b50519052905061336c82826144b5565b600093505b87518410156133fe576133988289868151811061338a57fe5b602002602001015183614749565b6133bf8885815181106133a757fe5b6020026020010151601460008b88815181106131eb57fe5b601460008a87815181106133cf57fe5b6020908102919091018101516001600160a01b0316825281019190915260400160002055600190930192613371565b505b83156134a05761340f81614ccc565b600092505b86518310156134a05761343a8188858151811061342d57fe5b6020026020010151614f56565b61346187848151811061344957fe5b6020026020010151601460008a87815181106131eb57fe5b6014600089868151811061347157fe5b6020908102919091018101516001600160a01b0316825281019190915260400160002055600190920191613414565b50600101613258565b600080546001600160a01b03163314806134cd57506020546001600160a01b031633145b6134dd57611c8e600160176148f9565b670de0b6b3a76400008210613539576040805162461bcd60e51b815260206004820152601d60248201527f74726561737572792070657263656e7420636170206f766572666c6f77000000604482015290519081900360640190fd5b6020805460218054602280546001600160a01b038a81166001600160a01b0319808816821789558b8316908616179095559188905560408051958316808752968601949094528351929091169390927f29f06ea15931797ebaed313d81d100963dc22cb213cb4ce2737b5a62b1a8b1e892918290030190a1604080516001600160a01b0380851682528816602082015281517f8de763046d7b8f08b6c3d03543de1d615309417842bb5d2d62f110f65809ddac929181900390910190a1604080518281526020810187905281517f0893f8f4101baaabbeb513f96761e7a36eb837403c82cc651c292a4abdc94ed7929181900390910190a16000979650505050505050565b60185460009062010000900460ff1615613694576040805162461bcd60e51b81526020600482015260126024820152711c1c9bdd1bd8dbdb081a5cc81c185d5cd95960721b604482015290519081900360640190fd5b6001600160a01b0384166000908152600c602052604090205460ff16156136f5576040805162461bcd60e51b815260206004820152601060248201526f189bdc9c9bddc81a5cc81c185d5cd95960821b604482015290519081900360640190fd5b6001600160a01b03841660009081526009602052604090205460ff1661371c576009611c8e565b6001600160a01b038085166000908152600960209081526040808320938716835260029093019052205460ff166137d957336001600160a01b038516146137a2576040805162461bcd60e51b815260206004820152601560248201527439b2b73232b91036bab9ba103132903b2a37b5b2b760591b604482015290519081900360640190fd5b60006137ae8585615867565b905060008160128111156137be57fe5b146137d7578060128111156137cf57fe5b915050611cae565b505b600480546040805163fc57d4df60e01b81526001600160a01b03888116948201949094529051929091169163fc57d4df91602480820192602092909190829003018186803b15801561382a57600080fd5b505afa15801561383e573d6000803e3d6000fd5b505050506040513d602081101561385457600080fd5b505161386157600d611c8e565b6001600160a01b0384166000908152601f6020526040902054801561394e576000856001600160a01b03166347bd37186040518163ffffffff1660e01b815260040160206040518083038186803b1580156138bb57600080fd5b505afa1580156138cf573d6000803e3d6000fd5b505050506040513d60208110156138e557600080fd5b5051905060006138f58286615958565b905082811061394b576040805162461bcd60e51b815260206004820152601960248201527f6d61726b657420626f72726f7720636170207265616368656400000000000000604482015290519081900360640190fd5b50505b60008061395e868860008861495f565b9193509091506000905082601281111561397457fe5b1461398f5781601281111561398557fe5b9350505050611cae565b801561399c576004613985565b6139a4615e44565b6040518060200160405280896001600160a01b031663aa5af0fd6040518163ffffffff1660e01b815260040160206040518083038186803b1580156139e857600080fd5b505afa1580156139fc573d6000803e3d6000fd5b505050506040513d6020811015613a1257600080fd5b505190529050613a2288826144b5565b613a2d888883614749565b600098975050505050505050565b60086020528160005260406000208181548110613a5457fe5b6000918252602090912001546001600160a01b03169150829050565b6003546001600160a01b031681565b601c541580613a965750601c54613a94611a9a565b105b15613aa057613cad565b6000613aaa612bf3565b604080516370a0823160e01b815230600482015290519192506000916001600160a01b038416916370a08231916024808301926020929190829003018186803b158015613af657600080fd5b505afa158015613b0a573d6000803e3d6000fd5b505050506040513d6020811015613b2057600080fd5b5051905080613b30575050613cad565b600080613b46613b3e611a9a565b601c5461598e565b90506000613b56601a54836159c8565b9050601d54811015613b6c575050505050613cad565b808410613b7b57809250613b7f565b8392505b613b87611a9a565b601c55601b546040805163a9059cbb60e01b81526001600160a01b0392831660048201526024810186905290519187169163a9059cbb916044808201926020929091908290030181600087803b158015613be057600080fd5b505af1158015613bf4573d6000803e3d6000fd5b505050506040513d6020811015613c0a57600080fd5b50506040805184815290517ff6d4b8f74d85a6e2d7a50225957b8a6cfec69ad92f5905627260541aa0a5565d9181900360200190a1601b60009054906101000a90046001600160a01b03166001600160a01b031663faa1809e6040518163ffffffff1660e01b8152600401600060405180830381600087803b158015613c8f57600080fd5b505af1158015613ca3573d6000803e3d6000fd5b5050505050505050505b565b6011602052600090815260409020546001600160e01b03811690600160e01b900463ffffffff1682565b600080546001600160a01b03163314613cff57613cf8600160066148f9565b9050612456565b6001600160a01b0383166000908152600960205260409020805460ff16613d3457613d2c600960076148f9565b915050612456565b613d3c615e44565b506040805160208101909152838152613d53615e44565b506040805160208101909152670c7d713b49da00008152613d748183615a0a565b15613d8f57613d85600660086148f9565b9350505050612456565b8415801590613e185750600480546040805163fc57d4df60e01b81526001600160a01b038a8116948201949094529051929091169163fc57d4df91602480820192602092909190829003018186803b158015613dea57600080fd5b505afa158015613dfe573d6000803e3d6000fd5b505050506040513d6020811015613e1457600080fd5b5051155b15613e2957613d85600d60096148f9565b60018301805490869055604080516001600160a01b03891681526020810183905280820188905290517f70483e6592cd5182d45ac970e05bc62cdcc90e9d8ef2c2dbe686cf383bcd7fc59181900360600190a16000979650505050505050565b600a54600160a81b900460ff1681565b6000546001600160a01b03163314613ee9576040805162461bcd60e51b815260206004820152600e60248201526d37b7363c9030b236b4b71031b0b760911b604482015290519081900360640190fd5b6019805490829055604080518281526020810184905281517f75c84862cb29e997a2ed3ab3c3db0f5af24a181e6bf58897c5ea676668511c19929181900390910190a15050565b60055481565b60185460009062010000900460ff1615613f8c576040805162461bcd60e51b81526020600482015260126024820152711c1c9bdd1bd8dbdb081a5cc81c185d5cd95960721b604482015290519081900360640190fd5b6000613f998585856157bb565b90508015613fa8579050611cae565b613fb185614ccc565b613fbb8585614f56565b600095945050505050565b6000808290506000806000836001600160a01b031663c37f68e2336040518263ffffffff1660e01b815260040180826001600160a01b03166001600160a01b0316815260200191505060806040518083038186803b15801561402757600080fd5b505afa15801561403b573d6000803e3d6000fd5b505050506040513d608081101561405157600080fd5b5080516020820151604090920151909450909250905082156140ba576040805162461bcd60e51b815260206004820152601960248201527f6765744163636f756e74536e617073686f74206661696c656400000000000000604482015290519081900360640190fd5b80156140d7576140cc600c60026148f9565b9450505050506118e7565b60006140e48733856157bb565b90508015614105576140f9600e600383615a11565b955050505050506118e7565b6001600160a01b0385166000908152600960209081526040808320338452600281019092529091205460ff1661414457600096505050505050506118e7565b3360009081526002820160209081526040808320805460ff1916905560089091528120805490915b8181101561422557886001600160a01b031683828154811061418a57fe5b6000918252602090912001546001600160a01b0316141561421d578260018303815481106141b457fe5b9060005260206000200160009054906101000a90046001600160a01b03168382815481106141de57fe5b600091825260209091200180546001600160a01b0319166001600160a01b03929092169190911790558254614217846000198301615e57565b50614225565b60010161416c565b81811061422e57fe5b604080516001600160a01b038b16815233602082015281517fe699a64c18b07ac5b7301aa273f36a2287239eb9501d81950672794afba29a0d929181900390910190a160009b9a5050505050505050505050565b601b546001600160a01b03161561429b5761429b613a7f565b6015546001600160a01b0316156115f4576015546040805163d178273b60e01b81526001600160a01b0384811660048301529151600093849384938493919092169163d178273b91602480830192608092919082900301818787803b15801561430357600080fd5b505af1158015614317573d6000803e3d6000fd5b505050506040513d608081101561432d57600080fd5b508051602082015160408301516060909301519096509194509092509050806115f7576001600160a01b038516600081815260146020908152604091829020879055815186815290810185905281517f2fb3baf25f3d9fc9f9eb9dfd7da8567731a91413437d91bc1b8a839d0a1ba88f929181900390910190a25050505050565b6000546001600160a01b031681565b601a5481565b60185460009062010000900460ff1615614419576040805162461bcd60e51b81526020600482015260126024820152711c1c9bdd1bd8dbdb081a5cc81c185d5cd95960721b604482015290519081900360640190fd5b60185460ff161580156144345750601854610100900460ff16155b614475576040805162461bcd60e51b815260206004820152600d60248201526c159052481a5cc81c185d5cd959609a1b604482015290519081900360640190fd5b6015546001600160a01b0316331461449357613cf8600e60166148f9565b6001600160a01b03831660009081526016602052604081208390559392505050565b6001600160a01b0382166000908152601160209081526040808320600f90925282205490916144e2611a9a565b8354909150600090614502908390600160e01b900463ffffffff1661598e565b90506000811180156145145750600083115b156146e4576000614589876001600160a01b03166347bd37186040518163ffffffff1660e01b815260040160206040518083038186803b15801561455757600080fd5b505afa15801561456b573d6000803e3d6000fd5b505050506040513d602081101561458157600080fd5b505187615a77565b9050600061459783866159c8565b90506145a1615e44565b600083116145be57604051806020016040528060008152506145c8565b6145c88284615a95565b90506145d2615e44565b604080516020810190915288546001600160e01b031681526145f49083615aca565b9050604051806040016040528061463a8360000151604051806040016040528060138152602001726e657720696e646578206f766572666c6f777360681b815250615aef565b6001600160e01b031681526020016146808860405180604001604052806016815260200175626c6f636b206e756d626572206f766572666c6f777360501b815250615b89565b63ffffffff9081169091526001600160a01b038c166000908152601160209081526040909120835181549490920151909216600160e01b026001600160e01b039182166001600160e01b0319909416939093171691909117905550611a9f92505050565b8015611a9f576147228260405180604001604052806016815260200175626c6f636b206e756d626572206f766572666c6f777360501b815250615b89565b845463ffffffff91909116600160e01b026001600160e01b03909116178455505050505050565b601b546001600160a01b03161561476257614762613a7f565b6001600160a01b0383166000908152601160205260409020614782615e44565b50604080516020810190915281546001600160e01b031681526147a3615e44565b5060408051602080820183526001600160a01b0380891660009081526013835284812091891680825282845294812080548552865195909152915291909155805115611a9f576147f1615e44565b6147fb8383615bde565b90506000614858886001600160a01b03166395dd9193896040518263ffffffff1660e01b815260040180826001600160a01b03166001600160a01b0316815260200191505060206040518083038186803b15801561455757600080fd5b905060006148668284615c03565b6001600160a01b0389166000908152601460205260408120549192509061488d9083615958565b6001600160a01b03808b166000818152601460209081526040918290208590558a5182518881529182015281519495509193928e16927f837bdc11fca9f17ce44167944475225a205279b17e88c791c3b1f66f354668fb9281900390910190a350505050505050505050565b60007f45b96fe442630264581b197e84bbada861235052c5a1aadfff9ea4e40a969aa083601281111561492857fe5b83601781111561493457fe5b604080519283526020830191909152600082820152519081900360600190a1826012811115611cae57fe5b600080600061496c615e7b565b6001600160a01b038816600090815260086020908152604080832080548251818502810185019093528083526060938301828280156149d457602002820191906000526020600020905b81546001600160a01b031681526001909101906020018083116149b6575b50939450600093505050505b8151811015614c585760008282815181106149f757fe5b60200260200101519050806001600160a01b031663c37f68e28d6040518263ffffffff1660e01b815260040180826001600160a01b03166001600160a01b0316815260200191505060806040518083038186803b158015614a5757600080fd5b505afa158015614a6b573d6000803e3d6000fd5b505050506040513d6080811015614a8157600080fd5b508051602082015160408084015160609485015160808b0152938901939093529187019190915293508315614ac65750600f965060009550859450611bac9350505050565b60408051602080820183526001600160a01b0380851660008181526009845285902060010154845260c08a01939093528351808301855260808a0151815260e08a015260048054855163fc57d4df60e01b815291820194909452935192169263fc57d4df9260248083019392829003018186803b158015614b4657600080fd5b505afa158015614b5a573d6000803e3d6000fd5b505050506040513d6020811015614b7057600080fd5b505160a08601819052614b935750600d965060009550859450611bac9350505050565b604080516020810190915260a0860151815261010086015260c085015160e0860151614bcd91614bc291615740565b866101000151615740565b610120860181905260408601518651614be7929190615c32565b855261010085015160608601516020870151614c04929190615c32565b60208601526001600160a01b03818116908c161415614c4f57614c318561012001518b8760200151615c32565b60208601819052610100860151614c49918b90615c32565b60208601525b506001016149e0565b50614c8c8360200151601660008d6001600160a01b03166001600160a01b0316815260200190815260200160002054615958565b6020840181905283511115614cb35750506020810151905160009450039150829050611bac565b5050805160209091015160009450849350039050611bac565b6001600160a01b0381166000908152601060209081526040808320600f9092528220549091614cf9611a9a565b8354909150600090614d19908390600160e01b900463ffffffff1661598e565b9050600081118015614d2b5750600083115b15614ef2576000856001600160a01b03166318160ddd6040518163ffffffff1660e01b815260040160206040518083038186803b158015614d6b57600080fd5b505afa158015614d7f573d6000803e3d6000fd5b505050506040513d6020811015614d9557600080fd5b505190506000614da583866159c8565b9050614daf615e44565b60008311614dcc5760405180602001604052806000815250614dd6565b614dd68284615a95565b9050614de0615e44565b604080516020810190915288546001600160e01b03168152614e029083615aca565b90506040518060400160405280614e488360000151604051806040016040528060138152602001726e657720696e646578206f766572666c6f777360681b815250615aef565b6001600160e01b03168152602001614e8e8860405180604001604052806016815260200175626c6f636b206e756d626572206f766572666c6f777360501b815250615b89565b63ffffffff9081169091526001600160a01b038b166000908152601060209081526040909120835181549490920151909216600160e01b026001600160e01b039182166001600160e01b03199094169390931716919091179055506115f792505050565b80156115f757614f308260405180604001604052806016815260200175626c6f636b206e756d626572206f766572666c6f777360501b815250615b89565b845463ffffffff91909116600160e01b026001600160e01b039091161784555050505050565b601b546001600160a01b031615614f6f57614f6f613a7f565b6001600160a01b0382166000908152601060205260409020614f8f615e44565b50604080516020810190915281546001600160e01b03168152614fb0615e44565b5060408051602080820183526001600160a01b03808816600090815260128352848120918816808252828452948120805485528651959091529152919091558051158015614ffe5750815115155b15615016576ec097ce7bc90715b34b9f100000000081525b61501e615e44565b6150288383615bde565b90506000866001600160a01b03166370a08231876040518263ffffffff1660e01b815260040180826001600160a01b03166001600160a01b0316815260200191505060206040518083038186803b15801561508257600080fd5b505afa158015615096573d6000803e3d6000fd5b505050506040513d60208110156150ac57600080fd5b5051905060006150bc8284615c03565b6001600160a01b038816600090815260146020526040812054919250906150e39083615958565b6001600160a01b03808a166000818152601460209081526040918290208590558a5182518881529182015281519495509193928d16927ffa9d964d891991c113b49e3db1932abd6c67263d387119707aafdd6c4010a3a99281900390910190a3505050505050505050565b6000615158615e44565b6151628484615c5a565b905061172281615c7b565b600080546001600160a01b031633148061519157506002546001600160a01b031633145b905090565b6001600160a01b0382166000908152600f6020526040902054801561524a576151bd615e44565b6040518060200160405280856001600160a01b031663aa5af0fd6040518163ffffffff1660e01b815260040160206040518083038186803b15801561520157600080fd5b505afa158015615215573d6000803e3d6000fd5b505050506040513d602081101561522b57600080fd5b50519052905061523a84614ccc565b61524484826144b5565b506154cc565b81156154cc576001600160a01b0383166000908152600960205260409020805460ff1615156001146152c3576040805162461bcd60e51b815260206004820152601a60248201527f76656e7573206d61726b6574206973206e6f74206c6973746564000000000000604482015290519081900360640190fd5b6001600160a01b0384166000908152601060205260409020546001600160e01b031615801561531557506001600160a01b038416600090815260106020526040902054600160e01b900463ffffffff16155b156153e45760405180604001604052806ec097ce7bc90715b34b9f10000000006001600160e01b0316815260200161538961534e611a9a565b6040518060400160405280601c81526020017f626c6f636b206e756d6265722065786365656473203332206269747300000000815250615b89565b63ffffffff9081169091526001600160a01b0386166000908152601060209081526040909120835181549490920151909216600160e01b026001600160e01b039182166001600160e01b031990941693909317169190911790555b6001600160a01b0384166000908152601160205260409020546001600160e01b031615801561543657506001600160a01b038416600090815260116020526040902054600160e01b900463ffffffff16155b156154ca5760405180604001604052806ec097ce7bc90715b34b9f10000000006001600160e01b0316815260200161546f61534e611a9a565b63ffffffff9081169091526001600160a01b0386166000908152601160209081526040909120835181549490920151909216600160e01b026001600160e01b039182166001600160e01b031990941693909317169190911790555b505b818114611e1b576001600160a01b0383166000818152600f6020908152604091829020859055815185815291517f2a0ce45ba05a83e75ba21e1a10d6b48a8395028cc6e1ae66f6c313648379d5489281900390910190a2505050565b600080615533612bf3565b604080516370a0823160e01b815230600482015290519192506000916001600160a01b038416916370a08231916024808301926020929190829003018186803b15801561557f57600080fd5b505afa158015615593573d6000803e3d6000fd5b505050506040513d60208110156155a957600080fd5b5051905083158015906155bc5750808411155b1561565957816001600160a01b031663a9059cbb86866040518363ffffffff1660e01b815260040180836001600160a01b03166001600160a01b0316815260200182815260200192505050602060405180830381600087803b15801561562157600080fd5b505af1158015615635573d6000803e3d6000fd5b505050506040513d602081101561564b57600080fd5b506000935061245692505050565b50919392505050565b60005b600d548110156156ed57816001600160a01b0316600d828154811061568657fe5b6000918252602090912001546001600160a01b031614156156e5576040805162461bcd60e51b81526020600482015260146024820152731b585c9ad95d08185b1c9958591e48185919195960621b604482015290519081900360640190fd5b600101615665565b50600d80546001810182556000919091527fd7b6990105719101dabeb77144f2a3385c8033acd3af97e9423a695e81ad1eb50180546001600160a01b0319166001600160a01b0392909216919091179055565b615748615e44565b6040518060200160405280670de0b6b3a764000061576e866000015186600001516159c8565b8161577557fe5b0490529392505050565b615787615e44565b60405180602001604052806157b26157ab8660000151670de0b6b3a76400006159c8565b8551615c8a565b90529392505050565b6001600160a01b03831660009081526009602052604081205460ff166157e2576009611c8e565b6001600160a01b038085166000908152600960209081526040808320938716835260029093019052205460ff1661581a576000611c8e565b60008061582a858786600061495f565b9193509091506000905082601281111561584057fe5b1461585a5781601281111561585157fe5b92505050611cae565b80156130fe576004615851565b6001600160a01b0382166000908152600960205260408120805460ff16615892576009915050612456565b6001600160a01b038316600090815260028201602052604090205460ff16156158bf576000915050612456565b6001600160a01b0380841660008181526002840160209081526040808320805460ff19166001908117909155600883528184208054918201815584529282902090920180549489166001600160a01b031990951685179055815193845283019190915280517f3ab23ab0d51cccc0c3085aec51f99228625aa1a922b3a8ca89a26b0f2027a1a59281900390910190a15060009392505050565b6000611cae8383604051806040016040528060118152602001706164646974696f6e206f766572666c6f7760781b815250615cbd565b6000611cae8383604051806040016040528060158152602001747375627472616374696f6e20756e646572666c6f7760581b815250615d12565b6000611cae83836040518060400160405280601781526020017f6d756c7469706c69636174696f6e206f766572666c6f77000000000000000000815250615d6c565b5190511090565b60007f45b96fe442630264581b197e84bbada861235052c5a1aadfff9ea4e40a969aa0846012811115615a4057fe5b846017811115615a4c57fe5b604080519283526020830191909152818101859052519081900360600190a1836012811115611cab57fe5b6000611cae615a8e84670de0b6b3a76400006159c8565b8351615c8a565b615a9d615e44565b60405180602001604052806157b2615ac4866ec097ce7bc90715b34b9f10000000006159c8565b85615c8a565b615ad2615e44565b60405180602001604052806157b285600001518560000151615958565b600081600160e01b8410615b815760405162461bcd60e51b81526004018080602001828103825283818151815260200191508051906020019080838360005b83811015615b46578181015183820152602001615b2e565b50505050905090810190601f168015615b735780820380516001836020036101000a031916815260200191505b509250505060405180910390fd5b509192915050565b600081600160201b8410615b815760405162461bcd60e51b8152602060048201818152835160248401528351909283926044909101919085019080838360008315615b46578181015183820152602001615b2e565b615be6615e44565b60405180602001604052806157b28560000151856000015161598e565b60006ec097ce7bc90715b34b9f1000000000615c238484600001516159c8565b81615c2a57fe5b049392505050565b6000615c3c615e44565b615c468585615c5a565b90506120dd615c5482615c7b565b84615958565b615c62615e44565b60405180602001604052806157b28560000151856159c8565b51670de0b6b3a7640000900490565b6000611cae83836040518060400160405280600e81526020016d646976696465206279207a65726f60901b815250615de2565b60008383018285821015612c985760405162461bcd60e51b8152602060048201818152835160248401528351909283926044909101919085019080838360008315615b46578181015183820152602001615b2e565b60008184841115615d645760405162461bcd60e51b8152602060048201818152835160248401528351909283926044909101919085019080838360008315615b46578181015183820152602001615b2e565b505050900390565b6000831580615d79575082155b15615d8657506000611cae565b83830283858281615d9357fe5b04148390612c985760405162461bcd60e51b8152602060048201818152835160248401528351909283926044909101919085019080838360008315615b46578181015183820152602001615b2e565b60008183615e315760405162461bcd60e51b8152602060048201818152835160248401528351909283926044909101919085019080838360008315615b46578181015183820152602001615b2e565b50828481615e3b57fe5b04949350505050565b6040518060200160405280600081525090565b815481835581811115611e1b57600083815260209020611e1b918101908301615ee5565b604051806101400160405280600081526020016000815260200160008152602001600081526020016000815260200160008152602001615eb9615e44565b8152602001615ec6615e44565b8152602001615ed3615e44565b8152602001615ee0615e44565b905290565b611a9c91905b80821115615eff5760008155600101615eeb565b509056fe6f6e6c7920706175736520677561726469616e20616e642061646d696e2063616e6f6e6c792061646d696e206f7220626f72726f772063617020677561726469616e2063616e2073657420626f72726f772063617073a265627a7a72315820ce1e630627c629f2b9847ccf61124a78011ec1bcfa61ce039f643d97cbf12bb664736f6c63430005100032",
  "devdoc": {
    "author": "Venus",
    "methods": {
      "_grantXVS(address,uint256)": {
        "details": "Note: If there is not enough XVS, we do not perform the transfer all.",
        "params": {
          "amount": "The amount of XVS to (possibly) transfer",
          "recipient": "The address of the recipient to transfer XVS to"
        }
      },
      "_setBorrowCapGuardian(address)": {
        "params": {
          "newBorrowCapGuardian": "The address of the new Borrow Cap Guardian"
        }
      },
      "_setCloseFactor(uint256)": {
        "details": "Admin function to set closeFactor",
        "params": {
          "newCloseFactorMantissa": "New close factor, scaled by 1e18"
        },
        "return": "uint 0=success, otherwise a failure"
      },
      "_setCollateralFactor(address,uint256)": {
        "details": "Admin function to set per-market collateralFactor",
        "params": {
          "newCollateralFactorMantissa": "The new collateral factor, scaled by 1e18",
          "vToken": "The market to set the factor on"
        },
        "return": "uint 0=success, otherwise a failure. (See ErrorReporter for details)"
      },
      "_setLiquidationIncentive(uint256)": {
        "details": "Admin function to set liquidationIncentive",
        "params": {
          "newLiquidationIncentiveMantissa": "New liquidationIncentive scaled by 1e18"
        },
        "return": "uint 0=success, otherwise a failure. (See ErrorReporter for details)"
      },
      "_setMarketBorrowCaps(address[],uint256[])": {
        "details": "Admin or borrowCapGuardian function to set the borrow caps. A borrow cap of 0 corresponds to unlimited borrowing.",
        "params": {
          "newBorrowCaps": "The new borrow cap values in underlying to be set. A value of 0 corresponds to unlimited borrowing.",
          "vTokens": "The addresses of the markets (tokens) to change the borrow caps for"
        }
      },
      "_setPauseGuardian(address)": {
        "params": {
          "newPauseGuardian": "The address of the new Pause Guardian"
        },
        "return": "uint 0=success, otherwise a failure. (See enum Error for details)"
      },
      "_setPriceOracle(address)": {
        "details": "Admin function to set a new price oracle",
        "return": "uint 0=success, otherwise a failure (see ErrorReporter.sol for details)"
      },
      "_setVAIController(address)": {
        "details": "Admin function to set a new VAI controller",
        "return": "uint 0=success, otherwise a failure (see ErrorReporter.sol for details)"
      },
      "_setVAIVaultInfo(address,uint256,uint256)": {
        "params": {
          "minReleaseAmount_": "The minimum release amount to VAI Vault",
          "releaseStartBlock_": "The start block of release to VAI Vault",
          "vault_": "The address of the VAI Vault"
        }
      },
      "_setVenusSpeed(address,uint256)": {
        "params": {
          "vToken": "The market whose XVS speed to update",
          "venusSpeed": "New XVS speed for market"
        }
      },
      "_setVenusVAIRate(uint256)": {
        "params": {
          "venusVAIRate_": "The amount of XVS wei per block to distribute to VAI Mint"
        }
      },
      "_setVenusVAIVaultRate(uint256)": {
        "params": {
          "venusVAIVaultRate_": "The amount of XVS wei per block to distribute to VAI Vault"
        }
      },
      "_supportMarket(address)": {
        "details": "Admin function to set isListed and add support for the market",
        "params": {
          "vToken": "The address of the market (token) to list"
        },
        "return": "uint 0=success, otherwise a failure. (See enum Error for details)"
      },
      "borrowAllowed(address,address,uint256)": {
        "params": {
          "borrowAmount": "The amount of underlying the account would borrow",
          "borrower": "The account which would borrow the asset",
          "vToken": "The market to verify the borrow against"
        },
        "return": "0 if the borrow is allowed, otherwise a semi-opaque error code (See ErrorReporter.sol)"
      },
      "borrowVerify(address,address,uint256)": {
        "params": {
          "borrowAmount": "The amount of the underlying asset requested to borrow",
          "borrower": "The address borrowing the underlying",
          "vToken": "Asset whose underlying is being borrowed"
        }
      },
      "checkMembership(address,address)": {
        "params": {
          "account": "The address of the account to check",
          "vToken": "The vToken to check"
        },
        "return": "True if the account is in the asset, otherwise false."
      },
      "claimVenus(address)": {
        "params": {
          "holder": "The address to claim XVS for"
        }
      },
      "claimVenus(address,address[])": {
        "params": {
          "holder": "The address to claim XVS for",
          "vTokens": "The list of markets to claim XVS in"
        }
      },
      "claimVenus(address[],address[],bool,bool)": {
        "params": {
          "borrowers": "Whether or not to claim XVS earned by borrowing",
          "holders": "The addresses to claim XVS for",
          "suppliers": "Whether or not to claim XVS earned by supplying",
          "vTokens": "The list of markets to claim XVS in"
        }
      },
      "distributeVAIMinterVenus(address)": {
        "details": "VAI minters will not begin to accrue until after the first interaction with the protocol.",
        "params": {
          "vaiMinter": "The address of the VAI minter to distribute XVS to"
        }
      },
      "enterMarkets(address[])": {
        "params": {
          "vTokens": "The list of addresses of the vToken markets to be enabled"
        },
        "return": "Success indicator for whether each corresponding market was entered"
      },
      "exitMarket(address)": {
        "details": "Sender must not have an outstanding borrow balance in the asset, or be providing necessary collateral for an outstanding borrow.",
        "params": {
          "vTokenAddress": "The address of the asset to be removed"
        },
        "return": "Whether or not the account successfully exited the market"
      },
      "getAccountLiquidity(address)": {
        "return": "(possible error code (semi-opaque), account liquidity in excess of collateral requirements,         account shortfall below collateral requirements)"
      },
      "getAllMarkets()": {
        "details": "The automatic getter may be used to access an individual market.",
        "return": "The list of market addresses"
      },
      "getAssetsIn(address)": {
        "params": {
          "account": "The address of the account to pull assets for"
        },
        "return": "A dynamic list with the assets the account has entered"
      },
      "getHypotheticalAccountLiquidity(address,address,uint256,uint256)": {
        "params": {
          "account": "The account to determine liquidity for",
          "borrowAmount": "The amount of underlying to hypothetically borrow",
          "redeemTokens": "The number of tokens to hypothetically redeem",
          "vTokenModify": "The market to hypothetically redeem/borrow in"
        },
        "return": "(possible error code (semi-opaque), hypothetical account liquidity in excess of collateral requirements,         hypothetical account shortfall below collateral requirements)"
      },
      "getXVSAddress()": {
        "return": "The address of XVS"
      },
      "liquidateBorrowAllowed(address,address,address,address,uint256)": {
        "params": {
          "borrower": "The address of the borrower",
          "liquidator": "The address repaying the borrow and seizing the collateral",
          "repayAmount": "The amount of underlying being repaid",
          "vTokenBorrowed": "Asset which was borrowed by the borrower",
          "vTokenCollateral": "Asset which was used as collateral and will be seized"
        }
      },
      "liquidateBorrowVerify(address,address,address,address,uint256,uint256)": {
        "params": {
          "actualRepayAmount": "The amount of underlying being repaid",
          "borrower": "The address of the borrower",
          "liquidator": "The address repaying the borrow and seizing the collateral",
          "vTokenBorrowed": "Asset which was borrowed by the borrower",
          "vTokenCollateral": "Asset which was used as collateral and will be seized"
        }
      },
      "liquidateCalculateSeizeTokens(address,address,uint256)": {
        "details": "Used in liquidation (called in vToken.liquidateBorrowFresh)",
        "params": {
          "actualRepayAmount": "The amount of vTokenBorrowed underlying to convert into vTokenCollateral tokens",
          "vTokenBorrowed": "The address of the borrowed vToken",
          "vTokenCollateral": "The address of the collateral vToken"
        },
        "return": "(errorCode, number of vTokenCollateral tokens to be seized in a liquidation)"
      },
      "liquidateVAICalculateSeizeTokens(address,uint256)": {
        "details": "Used in liquidation (called in vToken.liquidateBorrowFresh)",
        "params": {
          "actualRepayAmount": "The amount of vTokenBorrowed underlying to convert into vTokenCollateral tokens",
          "vTokenCollateral": "The address of the collateral vToken"
        },
        "return": "(errorCode, number of vTokenCollateral tokens to be seized in a liquidation)"
      },
      "mintAllowed(address,address,uint256)": {
        "params": {
          "mintAmount": "The amount of underlying being supplied to the market in exchange for tokens",
          "minter": "The account which would get the minted tokens",
          "vToken": "The market to verify the mint against"
        },
        "return": "0 if the mint is allowed, otherwise a semi-opaque error code (See ErrorReporter.sol)"
      },
      "mintVerify(address,address,uint256,uint256)": {
        "params": {
          "actualMintAmount": "The amount of the underlying asset being minted",
          "mintTokens": "The number of tokens being minted",
          "minter": "The address minting the tokens",
          "vToken": "Asset being minted"
        }
      },
      "redeemAllowed(address,address,uint256)": {
        "params": {
          "redeemTokens": "The number of vTokens to exchange for the underlying asset in the market",
          "redeemer": "The account which would redeem the tokens",
          "vToken": "The market to verify the redeem against"
        },
        "return": "0 if the redeem is allowed, otherwise a semi-opaque error code (See ErrorReporter.sol)"
      },
      "redeemVerify(address,address,uint256,uint256)": {
        "params": {
          "redeemAmount": "The amount of the underlying asset being redeemed",
          "redeemTokens": "The number of tokens being redeemed",
          "redeemer": "The address redeeming the tokens",
          "vToken": "Asset being redeemed"
        }
      },
      "repayBorrowAllowed(address,address,address,uint256)": {
        "params": {
          "borrower": "The account which would repay the asset",
          "payer": "The account which would repay the asset",
          "repayAmount": "The amount of the underlying asset the account would repay",
          "vToken": "The market to verify the repay against"
        },
        "return": "0 if the repay is allowed, otherwise a semi-opaque error code (See ErrorReporter.sol)"
      },
      "repayBorrowVerify(address,address,address,uint256,uint256)": {
        "params": {
          "actualRepayAmount": "The amount of underlying being repaid",
          "borrower": "The address of the borrower",
          "payer": "The address repaying the borrow",
          "vToken": "Asset being repaid"
        }
      },
      "seizeAllowed(address,address,address,address,uint256)": {
        "params": {
          "borrower": "The address of the borrower",
          "liquidator": "The address repaying the borrow and seizing the collateral",
          "seizeTokens": "The number of collateral tokens to seize",
          "vTokenBorrowed": "Asset which was borrowed by the borrower",
          "vTokenCollateral": "Asset which was used as collateral and will be seized"
        }
      },
      "seizeVerify(address,address,address,address,uint256)": {
        "params": {
          "borrower": "The address of the borrower",
          "liquidator": "The address repaying the borrow and seizing the collateral",
          "seizeTokens": "The number of collateral tokens to seize",
          "vTokenBorrowed": "Asset which was borrowed by the borrower",
          "vTokenCollateral": "Asset which was used as collateral and will be seized"
        }
      },
      "setMintedVAIOf(address,uint256)": {
        "params": {
          "amount": "The amount of VAI to set to the account",
          "owner": "The address of the account to set"
        },
        "return": "The number of minted VAI by `owner`"
      },
      "transferAllowed(address,address,address,uint256)": {
        "params": {
          "dst": "The account which receives the tokens",
          "src": "The account which sources the tokens",
          "transferTokens": "The number of vTokens to transfer",
          "vToken": "The market to verify the transfer against"
        },
        "return": "0 if the transfer is allowed, otherwise a semi-opaque error code (See ErrorReporter.sol)"
      },
      "transferVerify(address,address,address,uint256)": {
        "params": {
          "dst": "The account which receives the tokens",
          "src": "The account which sources the tokens",
          "transferTokens": "The number of vTokens to transfer",
          "vToken": "Asset being transferred"
        }
      }
    },
    "title": "Venus's Comptroller Contract"
  },
  "userdoc": {
    "methods": {
      "_grantXVS(address,uint256)": {
        "notice": "Transfer XVS to the recipient"
      },
      "_setBorrowCapGuardian(address)": {
        "notice": "Admin function to change the Borrow Cap Guardian"
      },
      "_setCloseFactor(uint256)": {
        "notice": "Sets the closeFactor used when liquidating borrows"
      },
      "_setCollateralFactor(address,uint256)": {
        "notice": "Sets the collateralFactor for a market"
      },
      "_setLiquidationIncentive(uint256)": {
        "notice": "Sets liquidationIncentive"
      },
      "_setMarketBorrowCaps(address[],uint256[])": {
        "notice": "Set the given borrow caps for the given vToken markets. Borrowing that brings total borrows to or above borrow cap will revert."
      },
      "_setPauseGuardian(address)": {
        "notice": "Admin function to change the Pause Guardian"
      },
      "_setPriceOracle(address)": {
        "notice": "Sets a new price oracle for the comptroller"
      },
      "_setProtocolPaused(bool)": {
        "notice": "Set whole protocol pause/unpause state"
      },
      "_setVAIController(address)": {
        "notice": "Sets a new VAI controller"
      },
      "_setVAIVaultInfo(address,uint256,uint256)": {
        "notice": "Set the VAI Vault infos"
      },
      "_setVenusSpeed(address,uint256)": {
        "notice": "Set XVS speed for a single market"
      },
      "_setVenusVAIRate(uint256)": {
        "notice": "Set the amount of XVS distributed per block to VAI Mint"
      },
      "_setVenusVAIVaultRate(uint256)": {
        "notice": "Set the amount of XVS distributed per block to VAI Vault"
      },
      "_supportMarket(address)": {
        "notice": "Add the market to the markets mapping and set it as listed"
      },
      "borrowAllowed(address,address,uint256)": {
        "notice": "Checks if the account should be allowed to borrow the underlying asset of the given market"
      },
      "borrowVerify(address,address,uint256)": {
        "notice": "Validates borrow and reverts on rejection. May emit logs."
      },
      "checkMembership(address,address)": {
        "notice": "Returns whether the given account is entered in the given asset"
      },
      "claimVenus(address)": {
        "notice": "Claim all the xvs accrued by holder in all markets and VAI"
      },
      "claimVenus(address,address[])": {
        "notice": "Claim all the xvs accrued by holder in the specified markets"
      },
      "claimVenus(address[],address[],bool,bool)": {
        "notice": "Claim all xvs accrued by the holders"
      },
      "distributeVAIMinterVenus(address)": {
        "notice": "Calculate XVS accrued by a VAI minter and possibly transfer it to them"
      },
      "enterMarkets(address[])": {
        "notice": "Add assets to be included in account liquidity calculation"
      },
      "exitMarket(address)": {
        "notice": "Removes asset from sender's account liquidity calculation"
      },
      "getAccountLiquidity(address)": {
        "notice": "Determine the current account liquidity wrt collateral requirements"
      },
      "getAllMarkets()": {
        "notice": "Return all of the markets"
      },
      "getAssetsIn(address)": {
        "notice": "Returns the assets an account has entered"
      },
      "getHypotheticalAccountLiquidity(address,address,uint256,uint256)": {
        "notice": "Determine what the account liquidity would be if the given amounts were redeemed/borrowed"
      },
      "getXVSAddress()": {
        "notice": "Return the address of the XVS token"
      },
      "liquidateBorrowAllowed(address,address,address,address,uint256)": {
        "notice": "Checks if the liquidation should be allowed to occur"
      },
      "liquidateBorrowVerify(address,address,address,address,uint256,uint256)": {
        "notice": "Validates liquidateBorrow and reverts on rejection. May emit logs."
      },
      "liquidateCalculateSeizeTokens(address,address,uint256)": {
        "notice": "Calculate number of tokens of collateral asset to seize given an underlying amount"
      },
      "liquidateVAICalculateSeizeTokens(address,uint256)": {
        "notice": "Calculate number of tokens of collateral asset to seize given an underlying amount"
      },
      "mintAllowed(address,address,uint256)": {
        "notice": "Checks if the account should be allowed to mint tokens in the given market"
      },
      "mintVerify(address,address,uint256,uint256)": {
        "notice": "Validates mint and reverts on rejection. May emit logs."
      },
      "redeemAllowed(address,address,uint256)": {
        "notice": "Checks if the account should be allowed to redeem tokens in the given market"
      },
      "redeemVerify(address,address,uint256,uint256)": {
        "notice": "Validates redeem and reverts on rejection. May emit logs."
      },
      "releaseToVault()": {
        "notice": "Transfer XVS to VAI Vault"
      },
      "repayBorrowAllowed(address,address,address,uint256)": {
        "notice": "Checks if the account should be allowed to repay a borrow in the given market"
      },
      "repayBorrowVerify(address,address,address,uint256,uint256)": {
        "notice": "Validates repayBorrow and reverts on rejection. May emit logs."
      },
      "seizeAllowed(address,address,address,address,uint256)": {
        "notice": "Checks if the seizing of assets should be allowed to occur"
      },
      "seizeVerify(address,address,address,address,uint256)": {
        "notice": "Validates seize and reverts on rejection. May emit logs."
      },
      "setMintedVAIOf(address,uint256)": {
        "notice": "Set the minted VAI amount of the `owner`"
      },
      "transferAllowed(address,address,address,uint256)": {
        "notice": "Checks if the account should be allowed to transfer tokens in the given market"
      },
      "transferVerify(address,address,address,uint256)": {
        "notice": "Validates transfer and reverts on rejection. May emit logs."
      }
    }
  },
  "storageLayout": {
    "storage": [
      {
        "astId": 24532,
        "contract": "contracts/ComptrollerG5.sol:ComptrollerG5",
        "label": "admin",
        "offset": 0,
        "slot": "0",
        "type": "t_address"
      },
      {
        "astId": 24534,
        "contract": "contracts/ComptrollerG5.sol:ComptrollerG5",
        "label": "pendingAdmin",
        "offset": 0,
        "slot": "1",
        "type": "t_address"
      },
      {
        "astId": 24536,
        "contract": "contracts/ComptrollerG5.sol:ComptrollerG5",
        "label": "comptrollerImplementation",
        "offset": 0,
        "slot": "2",
        "type": "t_address"
      },
      {
        "astId": 24538,
        "contract": "contracts/ComptrollerG5.sol:ComptrollerG5",
        "label": "pendingComptrollerImplementation",
        "offset": 0,
        "slot": "3",
        "type": "t_address"
      },
      {
        "astId": 24543,
        "contract": "contracts/ComptrollerG5.sol:ComptrollerG5",
        "label": "oracle",
        "offset": 0,
        "slot": "4",
        "type": "t_contract(PriceOracle)32486"
      },
      {
        "astId": 24545,
        "contract": "contracts/ComptrollerG5.sol:ComptrollerG5",
        "label": "closeFactorMantissa",
        "offset": 0,
        "slot": "5",
        "type": "t_uint256"
      },
      {
        "astId": 24547,
        "contract": "contracts/ComptrollerG5.sol:ComptrollerG5",
        "label": "liquidationIncentiveMantissa",
        "offset": 0,
        "slot": "6",
        "type": "t_uint256"
      },
      {
        "astId": 24549,
        "contract": "contracts/ComptrollerG5.sol:ComptrollerG5",
        "label": "maxAssets",
        "offset": 0,
        "slot": "7",
        "type": "t_uint256"
      },
      {
        "astId": 24554,
        "contract": "contracts/ComptrollerG5.sol:ComptrollerG5",
        "label": "accountAssets",
        "offset": 0,
        "slot": "8",
        "type": "t_mapping(t_address,t_array(t_contract(VToken)46145)dyn_storage)"
      },
      {
        "astId": 24569,
        "contract": "contracts/ComptrollerG5.sol:ComptrollerG5",
        "label": "markets",
        "offset": 0,
        "slot": "9",
        "type": "t_mapping(t_address,t_struct(Market)24565_storage)"
      },
      {
        "astId": 24571,
        "contract": "contracts/ComptrollerG5.sol:ComptrollerG5",
        "label": "pauseGuardian",
        "offset": 0,
        "slot": "10",
        "type": "t_address"
      },
      {
        "astId": 24573,
        "contract": "contracts/ComptrollerG5.sol:ComptrollerG5",
        "label": "_mintGuardianPaused",
        "offset": 20,
        "slot": "10",
        "type": "t_bool"
      },
      {
        "astId": 24575,
        "contract": "contracts/ComptrollerG5.sol:ComptrollerG5",
        "label": "_borrowGuardianPaused",
        "offset": 21,
        "slot": "10",
        "type": "t_bool"
      },
      {
        "astId": 24577,
        "contract": "contracts/ComptrollerG5.sol:ComptrollerG5",
        "label": "transferGuardianPaused",
        "offset": 22,
        "slot": "10",
        "type": "t_bool"
      },
      {
        "astId": 24579,
        "contract": "contracts/ComptrollerG5.sol:ComptrollerG5",
        "label": "seizeGuardianPaused",
        "offset": 23,
        "slot": "10",
        "type": "t_bool"
      },
      {
        "astId": 24583,
        "contract": "contracts/ComptrollerG5.sol:ComptrollerG5",
        "label": "mintGuardianPaused",
        "offset": 0,
        "slot": "11",
        "type": "t_mapping(t_address,t_bool)"
      },
      {
        "astId": 24587,
        "contract": "contracts/ComptrollerG5.sol:ComptrollerG5",
        "label": "borrowGuardianPaused",
        "offset": 0,
        "slot": "12",
        "type": "t_mapping(t_address,t_bool)"
      },
      {
        "astId": 24595,
        "contract": "contracts/ComptrollerG5.sol:ComptrollerG5",
        "label": "allMarkets",
        "offset": 0,
        "slot": "13",
        "type": "t_array(t_contract(VToken)46145)dyn_storage"
      },
      {
        "astId": 24597,
        "contract": "contracts/ComptrollerG5.sol:ComptrollerG5",
        "label": "venusRate",
        "offset": 0,
        "slot": "14",
        "type": "t_uint256"
      },
      {
        "astId": 24601,
        "contract": "contracts/ComptrollerG5.sol:ComptrollerG5",
        "label": "venusSpeeds",
        "offset": 0,
        "slot": "15",
        "type": "t_mapping(t_address,t_uint256)"
      },
      {
        "astId": 24605,
        "contract": "contracts/ComptrollerG5.sol:ComptrollerG5",
        "label": "venusSupplyState",
        "offset": 0,
        "slot": "16",
        "type": "t_mapping(t_address,t_struct(VenusMarketState)24592_storage)"
      },
      {
        "astId": 24609,
        "contract": "contracts/ComptrollerG5.sol:ComptrollerG5",
        "label": "venusBorrowState",
        "offset": 0,
        "slot": "17",
        "type": "t_mapping(t_address,t_struct(VenusMarketState)24592_storage)"
      },
      {
        "astId": 24615,
        "contract": "contracts/ComptrollerG5.sol:ComptrollerG5",
        "label": "venusSupplierIndex",
        "offset": 0,
        "slot": "18",
        "type": "t_mapping(t_address,t_mapping(t_address,t_uint256))"
      },
      {
        "astId": 24621,
        "contract": "contracts/ComptrollerG5.sol:ComptrollerG5",
        "label": "venusBorrowerIndex",
        "offset": 0,
        "slot": "19",
        "type": "t_mapping(t_address,t_mapping(t_address,t_uint256))"
      },
      {
        "astId": 24625,
        "contract": "contracts/ComptrollerG5.sol:ComptrollerG5",
        "label": "venusAccrued",
        "offset": 0,
        "slot": "20",
        "type": "t_mapping(t_address,t_uint256)"
      },
      {
        "astId": 24627,
        "contract": "contracts/ComptrollerG5.sol:ComptrollerG5",
        "label": "vaiController",
        "offset": 0,
        "slot": "21",
        "type": "t_contract(VAIControllerInterface)36931"
      },
      {
        "astId": 24631,
        "contract": "contracts/ComptrollerG5.sol:ComptrollerG5",
        "label": "mintedVAIs",
        "offset": 0,
        "slot": "22",
        "type": "t_mapping(t_address,t_uint256)"
      },
      {
        "astId": 24633,
        "contract": "contracts/ComptrollerG5.sol:ComptrollerG5",
        "label": "vaiMintRate",
        "offset": 0,
        "slot": "23",
        "type": "t_uint256"
      },
      {
        "astId": 24635,
        "contract": "contracts/ComptrollerG5.sol:ComptrollerG5",
        "label": "mintVAIGuardianPaused",
        "offset": 0,
        "slot": "24",
        "type": "t_bool"
      },
      {
        "astId": 24637,
        "contract": "contracts/ComptrollerG5.sol:ComptrollerG5",
        "label": "repayVAIGuardianPaused",
        "offset": 1,
        "slot": "24",
        "type": "t_bool"
      },
      {
        "astId": 24639,
        "contract": "contracts/ComptrollerG5.sol:ComptrollerG5",
        "label": "protocolPaused",
        "offset": 2,
        "slot": "24",
        "type": "t_bool"
      },
      {
        "astId": 24641,
        "contract": "contracts/ComptrollerG5.sol:ComptrollerG5",
        "label": "venusVAIRate",
        "offset": 0,
        "slot": "25",
        "type": "t_uint256"
      },
      {
        "astId": 24646,
        "contract": "contracts/ComptrollerG5.sol:ComptrollerG5",
        "label": "venusVAIVaultRate",
        "offset": 0,
        "slot": "26",
        "type": "t_uint256"
      },
      {
        "astId": 24648,
        "contract": "contracts/ComptrollerG5.sol:ComptrollerG5",
        "label": "vaiVaultAddress",
        "offset": 0,
        "slot": "27",
        "type": "t_address"
      },
      {
        "astId": 24650,
        "contract": "contracts/ComptrollerG5.sol:ComptrollerG5",
        "label": "releaseStartBlock",
        "offset": 0,
        "slot": "28",
        "type": "t_uint256"
      },
      {
        "astId": 24652,
        "contract": "contracts/ComptrollerG5.sol:ComptrollerG5",
        "label": "minReleaseAmount",
        "offset": 0,
        "slot": "29",
        "type": "t_uint256"
      },
      {
        "astId": 24657,
        "contract": "contracts/ComptrollerG5.sol:ComptrollerG5",
        "label": "borrowCapGuardian",
        "offset": 0,
        "slot": "30",
        "type": "t_address"
      },
      {
        "astId": 24661,
        "contract": "contracts/ComptrollerG5.sol:ComptrollerG5",
        "label": "borrowCaps",
        "offset": 0,
        "slot": "31",
        "type": "t_mapping(t_address,t_uint256)"
      },
      {
        "astId": 24666,
        "contract": "contracts/ComptrollerG5.sol:ComptrollerG5",
        "label": "treasuryGuardian",
        "offset": 0,
        "slot": "32",
        "type": "t_address"
      },
      {
        "astId": 24668,
        "contract": "contracts/ComptrollerG5.sol:ComptrollerG5",
        "label": "treasuryAddress",
        "offset": 0,
        "slot": "33",
        "type": "t_address"
      },
      {
        "astId": 24670,
        "contract": "contracts/ComptrollerG5.sol:ComptrollerG5",
        "label": "treasuryPercent",
        "offset": 0,
        "slot": "34",
        "type": "t_uint256"
      },
      {
        "astId": 24677,
        "contract": "contracts/ComptrollerG5.sol:ComptrollerG5",
        "label": "venusContributorSpeeds",
        "offset": 0,
        "slot": "35",
        "type": "t_mapping(t_address,t_uint256)"
      },
      {
        "astId": 24681,
        "contract": "contracts/ComptrollerG5.sol:ComptrollerG5",
        "label": "lastContributorBlock",
        "offset": 0,
        "slot": "36",
        "type": "t_mapping(t_address,t_uint256)"
      }
    ],
    "types": {
      "t_address": {
        "encoding": "inplace",
        "label": "address",
        "numberOfBytes": "20"
      },
      "t_array(t_contract(VToken)46145)dyn_storage": {
        "base": "t_contract(VToken)46145",
        "encoding": "dynamic_array",
        "label": "contract VToken[]",
        "numberOfBytes": "32"
      },
      "t_bool": {
        "encoding": "inplace",
        "label": "bool",
        "numberOfBytes": "1"
      },
      "t_contract(PriceOracle)32486": {
        "encoding": "inplace",
        "label": "contract PriceOracle",
        "numberOfBytes": "20"
      },
      "t_contract(VAIControllerInterface)36931": {
        "encoding": "inplace",
        "label": "contract VAIControllerInterface",
        "numberOfBytes": "20"
      },
      "t_contract(VToken)46145": {
        "encoding": "inplace",
        "label": "contract VToken",
        "numberOfBytes": "20"
      },
      "t_mapping(t_address,t_array(t_contract(VToken)46145)dyn_storage)": {
        "encoding": "mapping",
        "key": "t_address",
        "label": "mapping(address => contract VToken[])",
        "numberOfBytes": "32",
        "value": "t_array(t_contract(VToken)46145)dyn_storage"
      },
      "t_mapping(t_address,t_bool)": {
        "encoding": "mapping",
        "key": "t_address",
        "label": "mapping(address => bool)",
        "numberOfBytes": "32",
        "value": "t_bool"
      },
      "t_mapping(t_address,t_mapping(t_address,t_uint256))": {
        "encoding": "mapping",
        "key": "t_address",
        "label": "mapping(address => mapping(address => uint256))",
        "numberOfBytes": "32",
        "value": "t_mapping(t_address,t_uint256)"
      },
      "t_mapping(t_address,t_struct(Market)24565_storage)": {
        "encoding": "mapping",
        "key": "t_address",
        "label": "mapping(address => struct ComptrollerV1Storage.Market)",
        "numberOfBytes": "32",
        "value": "t_struct(Market)24565_storage"
      },
      "t_mapping(t_address,t_struct(VenusMarketState)24592_storage)": {
        "encoding": "mapping",
        "key": "t_address",
        "label": "mapping(address => struct ComptrollerV1Storage.VenusMarketState)",
        "numberOfBytes": "32",
        "value": "t_struct(VenusMarketState)24592_storage"
      },
      "t_mapping(t_address,t_uint256)": {
        "encoding": "mapping",
        "key": "t_address",
        "label": "mapping(address => uint256)",
        "numberOfBytes": "32",
        "value": "t_uint256"
      },
      "t_struct(Market)24565_storage": {
        "encoding": "inplace",
        "label": "struct ComptrollerV1Storage.Market",
        "members": [
          {
            "astId": 24556,
            "contract": "contracts/ComptrollerG5.sol:ComptrollerG5",
            "label": "isListed",
            "offset": 0,
            "slot": "0",
            "type": "t_bool"
          },
          {
            "astId": 24558,
            "contract": "contracts/ComptrollerG5.sol:ComptrollerG5",
            "label": "collateralFactorMantissa",
            "offset": 0,
            "slot": "1",
            "type": "t_uint256"
          },
          {
            "astId": 24562,
            "contract": "contracts/ComptrollerG5.sol:ComptrollerG5",
            "label": "accountMembership",
            "offset": 0,
            "slot": "2",
            "type": "t_mapping(t_address,t_bool)"
          },
          {
            "astId": 24564,
            "contract": "contracts/ComptrollerG5.sol:ComptrollerG5",
            "label": "isVenus",
            "offset": 0,
            "slot": "3",
            "type": "t_bool"
          }
        ],
        "numberOfBytes": "128"
      },
      "t_struct(VenusMarketState)24592_storage": {
        "encoding": "inplace",
        "label": "struct ComptrollerV1Storage.VenusMarketState",
        "members": [
          {
            "astId": 24589,
            "contract": "contracts/ComptrollerG5.sol:ComptrollerG5",
            "label": "index",
            "offset": 0,
            "slot": "0",
            "type": "t_uint224"
          },
          {
            "astId": 24591,
            "contract": "contracts/ComptrollerG5.sol:ComptrollerG5",
            "label": "block",
            "offset": 28,
            "slot": "0",
            "type": "t_uint32"
          }
        ],
        "numberOfBytes": "32"
      },
      "t_uint224": {
        "encoding": "inplace",
        "label": "uint224",
        "numberOfBytes": "28"
      },
      "t_uint256": {
        "encoding": "inplace",
        "label": "uint256",
        "numberOfBytes": "32"
      },
      "t_uint32": {
        "encoding": "inplace",
        "label": "uint32",
        "numberOfBytes": "4"
      }
    }
  }
}