{
  "address": "0xd2454E6A97953a6DC657c42857E7a938f3de6c11",
  "abi": [
    {
      "anonymous": false,
      "inputs": [
        {
          "indexed": false,
          "internalType": "uint256",
          "name": "error",
          "type": "uint256"
        },
        {
          "indexed": false,
          "internalType": "uint256",
          "name": "info",
          "type": "uint256"
        },
        {
          "indexed": false,
          "internalType": "uint256",
          "name": "detail",
          "type": "uint256"
        }
      ],
      "name": "Failure",
      "type": "event"
    },
    {
      "anonymous": false,
      "inputs": [
        {
          "indexed": false,
          "internalType": "address",
          "name": "liquidator",
          "type": "address"
        },
        {
          "indexed": false,
          "internalType": "address",
          "name": "borrower",
          "type": "address"
        },
        {
          "indexed": false,
          "internalType": "uint256",
          "name": "repayAmount",
          "type": "uint256"
        },
        {
          "indexed": false,
          "internalType": "address",
          "name": "vTokenCollateral",
          "type": "address"
        },
        {
          "indexed": false,
          "internalType": "uint256",
          "name": "seizeTokens",
          "type": "uint256"
        }
      ],
      "name": "LiquidateVAI",
      "type": "event"
    },
    {
      "anonymous": false,
      "inputs": [
        {
          "indexed": false,
          "internalType": "address",
          "name": "minter",
          "type": "address"
        },
        {
          "indexed": false,
          "internalType": "uint256",
          "name": "feeAmount",
          "type": "uint256"
        }
      ],
      "name": "MintFee",
      "type": "event"
    },
    {
      "anonymous": false,
      "inputs": [
        {
          "indexed": false,
          "internalType": "address",
          "name": "minter",
          "type": "address"
        },
        {
          "indexed": false,
          "internalType": "uint256",
          "name": "mintVAIAmount",
          "type": "uint256"
        }
      ],
      "name": "MintVAI",
      "type": "event"
    },
    {
      "anonymous": false,
      "inputs": [
        {
          "indexed": false,
          "internalType": "contract ComptrollerInterface",
          "name": "oldComptroller",
          "type": "address"
        },
        {
          "indexed": false,
          "internalType": "contract ComptrollerInterface",
          "name": "newComptroller",
          "type": "address"
        }
      ],
      "name": "NewComptroller",
      "type": "event"
    },
    {
      "anonymous": false,
      "inputs": [
        {
          "indexed": false,
          "internalType": "address",
          "name": "oldTreasuryAddress",
          "type": "address"
        },
        {
          "indexed": false,
          "internalType": "address",
          "name": "newTreasuryAddress",
          "type": "address"
        }
      ],
      "name": "NewTreasuryAddress",
      "type": "event"
    },
    {
      "anonymous": false,
      "inputs": [
        {
          "indexed": false,
          "internalType": "address",
          "name": "oldTreasuryGuardian",
          "type": "address"
        },
        {
          "indexed": false,
          "internalType": "address",
          "name": "newTreasuryGuardian",
          "type": "address"
        }
      ],
      "name": "NewTreasuryGuardian",
      "type": "event"
    },
    {
      "anonymous": false,
      "inputs": [
        {
          "indexed": false,
          "internalType": "uint256",
          "name": "oldTreasuryPercent",
          "type": "uint256"
        },
        {
          "indexed": false,
          "internalType": "uint256",
          "name": "newTreasuryPercent",
          "type": "uint256"
        }
      ],
      "name": "NewTreasuryPercent",
      "type": "event"
    },
    {
      "anonymous": false,
      "inputs": [
        {
          "indexed": false,
          "internalType": "address",
          "name": "payer",
          "type": "address"
        },
        {
          "indexed": false,
          "internalType": "address",
          "name": "borrower",
          "type": "address"
        },
        {
          "indexed": false,
          "internalType": "uint256",
          "name": "repayVAIAmount",
          "type": "uint256"
        }
      ],
      "name": "RepayVAI",
      "type": "event"
    },
    {
      "constant": false,
      "inputs": [
        {
          "internalType": "contract VAIUnitroller",
          "name": "unitroller",
          "type": "address"
        }
      ],
      "name": "_become",
      "outputs": [],
      "payable": false,
      "stateMutability": "nonpayable",
      "type": "function"
    },
    {
      "constant": false,
      "inputs": [
        {
          "internalType": "contract ComptrollerInterface",
          "name": "comptroller_",
          "type": "address"
        }
      ],
      "name": "_setComptroller",
      "outputs": [
        {
          "internalType": "uint256",
          "name": "",
          "type": "uint256"
        }
      ],
      "payable": false,
      "stateMutability": "nonpayable",
      "type": "function"
    },
    {
      "constant": false,
      "inputs": [
        {
          "internalType": "address",
          "name": "newTreasuryGuardian",
          "type": "address"
        },
        {
          "internalType": "address",
          "name": "newTreasuryAddress",
          "type": "address"
        },
        {
          "internalType": "uint256",
          "name": "newTreasuryPercent",
          "type": "uint256"
        }
      ],
      "name": "_setTreasuryData",
      "outputs": [
        {
          "internalType": "uint256",
          "name": "",
          "type": "uint256"
        }
      ],
      "payable": false,
      "stateMutability": "nonpayable",
      "type": "function"
    },
    {
      "constant": true,
      "inputs": [],
      "name": "admin",
      "outputs": [
        {
          "internalType": "address",
          "name": "",
          "type": "address"
        }
      ],
      "payable": false,
      "stateMutability": "view",
      "type": "function"
    },
    {
      "constant": true,
      "inputs": [],
      "name": "comptroller",
      "outputs": [
        {
          "internalType": "contract ComptrollerInterface",
          "name": "",
          "type": "address"
        }
      ],
      "payable": false,
      "stateMutability": "view",
      "type": "function"
    },
    {
      "constant": true,
      "inputs": [],
      "name": "getBlockNumber",
      "outputs": [
        {
          "internalType": "uint256",
          "name": "",
          "type": "uint256"
        }
      ],
      "payable": false,
      "stateMutability": "view",
      "type": "function"
    },
    {
      "constant": true,
      "inputs": [
        {
          "internalType": "address",
          "name": "minter",
          "type": "address"
        }
      ],
      "name": "getMintableVAI",
      "outputs": [
        {
          "internalType": "uint256",
          "name": "",
          "type": "uint256"
        },
        {
          "internalType": "uint256",
          "name": "",
          "type": "uint256"
        }
      ],
      "payable": false,
      "stateMutability": "view",
      "type": "function"
    },
    {
      "constant": true,
      "inputs": [],
      "name": "getVAIAddress",
      "outputs": [
        {
          "internalType": "address",
          "name": "",
          "type": "address"
        }
      ],
      "payable": false,
      "stateMutability": "view",
      "type": "function"
    },
    {
      "constant": false,
      "inputs": [],
      "name": "initialize",
      "outputs": [],
      "payable": false,
      "stateMutability": "nonpayable",
      "type": "function"
    },
    {
      "constant": true,
      "inputs": [],
      "name": "isVenusVAIInitialized",
      "outputs": [
        {
          "internalType": "bool",
          "name": "",
          "type": "bool"
        }
      ],
      "payable": false,
      "stateMutability": "view",
      "type": "function"
    },
    {
      "constant": false,
      "inputs": [
        {
          "internalType": "address",
          "name": "borrower",
          "type": "address"
        },
        {
          "internalType": "uint256",
          "name": "repayAmount",
          "type": "uint256"
        },
        {
          "internalType": "contract VTokenInterface",
          "name": "vTokenCollateral",
          "type": "address"
        }
      ],
      "name": "liquidateVAI",
      "outputs": [
        {
          "internalType": "uint256",
          "name": "",
          "type": "uint256"
        },
        {
          "internalType": "uint256",
          "name": "",
          "type": "uint256"
        }
      ],
      "payable": false,
      "stateMutability": "nonpayable",
      "type": "function"
    },
    {
      "constant": false,
      "inputs": [
        {
          "internalType": "uint256",
          "name": "mintVAIAmount",
          "type": "uint256"
        }
      ],
      "name": "mintVAI",
      "outputs": [
        {
          "internalType": "uint256",
          "name": "",
          "type": "uint256"
        }
      ],
      "payable": false,
      "stateMutability": "nonpayable",
      "type": "function"
    },
    {
      "constant": true,
      "inputs": [],
      "name": "pendingAdmin",
      "outputs": [
        {
          "internalType": "address",
          "name": "",
          "type": "address"
        }
      ],
      "payable": false,
      "stateMutability": "view",
      "type": "function"
    },
    {
      "constant": true,
      "inputs": [],
      "name": "pendingVAIControllerImplementation",
      "outputs": [
        {
          "internalType": "address",
          "name": "",
          "type": "address"
        }
      ],
      "payable": false,
      "stateMutability": "view",
      "type": "function"
    },
    {
      "constant": false,
      "inputs": [
        {
          "internalType": "uint256",
          "name": "repayVAIAmount",
          "type": "uint256"
        }
      ],
      "name": "repayVAI",
      "outputs": [
        {
          "internalType": "uint256",
          "name": "",
          "type": "uint256"
        },
        {
          "internalType": "uint256",
          "name": "",
          "type": "uint256"
        }
      ],
      "payable": false,
      "stateMutability": "nonpayable",
      "type": "function"
    },
    {
      "constant": true,
      "inputs": [],
      "name": "treasuryAddress",
      "outputs": [
        {
          "internalType": "address",
          "name": "",
          "type": "address"
        }
      ],
      "payable": false,
      "stateMutability": "view",
      "type": "function"
    },
    {
      "constant": true,
      "inputs": [],
      "name": "treasuryGuardian",
      "outputs": [
        {
          "internalType": "address",
          "name": "",
          "type": "address"
        }
      ],
      "payable": false,
      "stateMutability": "view",
      "type": "function"
    },
    {
      "constant": true,
      "inputs": [],
      "name": "treasuryPercent",
      "outputs": [
        {
          "internalType": "uint256",
          "name": "",
          "type": "uint256"
        }
      ],
      "payable": false,
      "stateMutability": "view",
      "type": "function"
    },
    {
      "constant": true,
      "inputs": [],
      "name": "vaiControllerImplementation",
      "outputs": [
        {
          "internalType": "address",
          "name": "",
          "type": "address"
        }
      ],
      "payable": false,
      "stateMutability": "view",
      "type": "function"
    },
    {
      "constant": true,
      "inputs": [],
      "name": "venusInitialIndex",
      "outputs": [
        {
          "internalType": "uint224",
          "name": "",
          "type": "uint224"
        }
      ],
      "payable": false,
      "stateMutability": "view",
      "type": "function"
    },
    {
      "constant": true,
      "inputs": [
        {
          "internalType": "address",
          "name": "",
          "type": "address"
        }
      ],
      "name": "venusVAIMinterIndex",
      "outputs": [
        {
          "internalType": "uint256",
          "name": "",
          "type": "uint256"
        }
      ],
      "payable": false,
      "stateMutability": "view",
      "type": "function"
    },
    {
      "constant": true,
      "inputs": [],
      "name": "venusVAIState",
      "outputs": [
        {
          "internalType": "uint224",
          "name": "index",
          "type": "uint224"
        },
        {
          "internalType": "uint32",
          "name": "block",
          "type": "uint32"
        }
      ],
      "payable": false,
      "stateMutability": "view",
      "type": "function"
    }
  ],
  "transactionHash": "0xd9e107bd2256f6c5dca7da5cbd508e231601caf2463ff0b3ebedfe23781ada09",
  "args": [],
  "solcInputHash": "9b0a38bf08aa574391e1d613a16ef48f",
  "bytecode": "0x608060405234801561001057600080fd5b506125b3806100206000396000f3fe608060405234801561001057600080fd5b50600436106101415760003560e01c806360c954ef116100b8578063c5b4db551161007c578063c5b4db55146102f3578063c5f956af14610317578063cbeb2b281461031f578063d24febad14610327578063e44e61681461035d578063f851a4401461038d57610141565b806360c954ef146102a25780636fe74a21146102be5780638129fc1c146102db578063b06bb426146102e3578063b2eafc39146102eb57610141565b8063267822471161010a57806326782247146102215780633785d1d61461022957806342cbb15c1461024f5780634576b5db146102575780634712ee7d1461027d5780635fe3b5671461029a57610141565b80623b58841461014657806304ef9d581461016a57806311b3d5e7146101845780631d504dc6146101d357806324650602146101fb575b600080fd5b61014e610395565b604080516001600160a01b039092168252519081900360200190f35b6101726103a4565b60408051918252519081900360200190f35b6101ba6004803603606081101561019a57600080fd5b506001600160a01b038135811691602081013591604090910135166103aa565b6040805192835260208301919091528051918290030190f35b6101f9600480360360208110156101e957600080fd5b50356001600160a01b031661056f565b005b6101726004803603602081101561021157600080fd5b50356001600160a01b03166106ce565b61014e6106e0565b6101ba6004803603602081101561023f57600080fd5b50356001600160a01b03166106ef565b610172610e14565b6101726004803603602081101561026d57600080fd5b50356001600160a01b0316610e18565b6101726004803603602081101561029357600080fd5b5035610ea8565b61014e6114d9565b6102aa6114e8565b604080519115158252519081900360200190f35b6101ba600480360360208110156102d457600080fd5b50356114f1565b6101f9611685565b61014e6116e4565b61014e6116f3565b6102fb611702565b604080516001600160e01b039092168252519081900360200190f35b61014e611715565b61014e611724565b6101726004803603606081101561033d57600080fd5b506001600160a01b0381358116916020810135909116906040013561173c565b6103656118df565b604080516001600160e01b03909316835263ffffffff90911660208301528051918290030190f35b61014e6118fd565b6002546001600160a01b031681565b600a5481565b600b54600090819060ff166103f3576040805162461bcd60e51b815260206004820152600a6024820152691c994b595b9d195c995960b21b604482015290519081900360640190fd5b600b805460ff19169055600480546040805163084bf5ab60e31b815290516001600160a01b039092169263425fad58928282019260209290829003018186803b15801561043f57600080fd5b505afa158015610453573d6000803e3d6000fd5b505050506040513d602081101561046957600080fd5b5051156104b2576040805162461bcd60e51b81526020600482015260126024820152711c1c9bdd1bd8dbdb081a5cc81c185d5cd95960721b604482015290519081900360640190fd5b6000836001600160a01b031663a6afed956040518163ffffffff1660e01b8152600401602060405180830381600087803b1580156104ef57600080fd5b505af1158015610503573d6000803e3d6000fd5b505050506040513d602081101561051957600080fd5b5051905080156105465761053981600681111561053257fe5b600861190c565b9250600091506105589050565b61055233878787611972565b92509250505b600b805460ff191660011790559094909350915050565b806001600160a01b031663f851a4406040518163ffffffff1660e01b815260040160206040518083038186803b1580156105a857600080fd5b505afa1580156105bc573d6000803e3d6000fd5b505050506040513d60208110156105d257600080fd5b50516001600160a01b0316331461061a5760405162461bcd60e51b81526004018080602001828103825260278152602001806125586027913960400191505060405180910390fd5b806001600160a01b031663c1e803346040518163ffffffff1660e01b8152600401602060405180830381600087803b15801561065557600080fd5b505af1158015610669573d6000803e3d6000fd5b505050506040513d602081101561067f57600080fd5b5051156106cb576040805162461bcd60e51b815260206004820152601560248201527418da185b99d9481b9bdd08185d5d1a1bdc9a5e9959605a1b604482015290519081900360640190fd5b50565b60076020526000908152604090205481565b6001546001600160a01b031681565b6000806000600460009054906101000a90046001600160a01b03166001600160a01b0316637dc0d1d06040518163ffffffff1660e01b815260040160206040518083038186803b15801561074257600080fd5b505afa158015610756573d6000803e3d6000fd5b505050506040513d602081101561076c57600080fd5b50516004805460408051632aff3bff60e21b81526001600160a01b03898116948201949094529051939450606093929091169163abfceffc91602480820192600092909190829003018186803b1580156107c557600080fd5b505afa1580156107d9573d6000803e3d6000fd5b505050506040513d6000823e601f3d908101601f19168201604052602081101561080257600080fd5b810190808051604051939291908464010000000082111561082257600080fd5b90830190602082018581111561083757600080fd5b825186602082028301116401000000008211171561085457600080fd5b82525081516020918201928201910280838360005b83811015610881578181015183820152602001610869565b50505050905001604052505050905061089861242d565b6000805b8351811015610b70578381815181106108b157fe5b60200260200101516001600160a01b031663c37f68e2896040518263ffffffff1660e01b815260040180826001600160a01b03166001600160a01b0316815260200191505060806040518083038186803b15801561090e57600080fd5b505afa158015610922573d6000803e3d6000fd5b505050506040513d608081101561093857600080fd5b5080516020820151604083015160609093015160c087015260a086019290925260808501919091528084521561097c5760035b965060009550610e0f945050505050565b60405180602001604052808460c00151815250836101000181905250846001600160a01b031663fc57d4df8583815181106109b357fe5b60200260200101516040518263ffffffff1660e01b815260040180826001600160a01b03166001600160a01b0316815260200191505060206040518083038186803b158015610a0157600080fd5b505afa158015610a15573d6000803e3d6000fd5b505050506040513d6020811015610a2b57600080fd5b505160e08401819052610a3f57600461096b565b604080516020810190915260e084015181526101208401819052610100840151610a6891611ec5565b610140850181905260208501826003811115610a8057fe5b6003811115610a8b57fe5b9052506000905083602001516003811115610aa257fe5b14610aae57600561096b565b610ac683610140015184608001518560400151611fb0565b6040850181905260208501826003811115610add57fe5b6003811115610ae857fe5b9052506000905083602001516003811115610aff57fe5b14610b0b57600561096b565b610b238361012001518460a001518560600151611fb0565b6060850181905260208501826003811115610b3a57fe5b6003811115610b4557fe5b9052506000905083602001516003811115610b5c57fe5b14610b6857600561096b565b60010161089c565b606083015160048054604080516315e3f14f60e11b81526001600160a01b038d8116948201949094529051610bfb949390921691632bc7e29e91602480820192602092909190829003018186803b158015610bca57600080fd5b505afa158015610bde573d6000803e3d6000fd5b505050506040513d6020811015610bf457600080fd5b505161200c565b6060850181905260208501826003811115610c1257fe5b6003811115610c1d57fe5b9052506000905083602001516003811115610c3457fe5b14610c4057600561096b565b610cc78360400151600460009054906101000a90046001600160a01b03166001600160a01b031663bec04f726040518163ffffffff1660e01b815260040160206040518083038186803b158015610c9657600080fd5b505afa158015610caa573d6000803e3d6000fd5b505050506040513d6020811015610cc057600080fd5b5051612032565b84602001819450826003811115610cda57fe5b6003811115610ce557fe5b9052506000905083602001516003811115610cfc57fe5b14610d385760405162461bcd60e51b81526004018080602001828103825260228152602001806124dd6022913960400191505060405180910390fd5b610d4482612710612071565b84602001819450826003811115610d5757fe5b6003811115610d6257fe5b9052506000905083602001516003811115610d7957fe5b14610db55760405162461bcd60e51b81526004018080602001828103825260228152602001806124dd6022913960400191505060405180910390fd5b610dc382846060015161209c565b84602001819450826003811115610dd657fe5b6003811115610de157fe5b9052506000905083602001516003811115610df857fe5b14610e0457600261096b565b506000955093505050505b915091565b4390565b600080546001600160a01b03163314610e3e57610e376001600261190c565b9050610ea3565b600480546001600160a01b038481166001600160a01b0319831681179093556040805191909216808252602082019390935281517f7ac369dbd14fa5ea3f473ed67cc9d598964a77501540ba6751eb0b3decf5870d929181900390910190a160009150505b919050565b600b5460009060ff16610eef576040805162461bcd60e51b815260206004820152600a6024820152691c994b595b9d195c995960b21b604482015290519081900360640190fd5b600b805460ff191690556004546001600160a01b0316156114c75760008211610f5f576040805162461bcd60e51b815260206004820152601b60248201527f6d696e74564149416d6f756e742063616e6e74206265207a65726f0000000000604482015290519081900360640190fd5b600480546040805163084bf5ab60e31b815290516001600160a01b039092169263425fad58928282019260209290829003018186803b158015610fa157600080fd5b505afa158015610fb5573d6000803e3d6000fd5b505050506040513d6020811015610fcb57600080fd5b505115611014576040805162461bcd60e51b81526020600482015260126024820152711c1c9bdd1bd8dbdb081a5cc81c185d5cd95960721b604482015290519081900360640190fd5b61101c612499565b33611026816106ef565b60808401528083521561103f5760025b925050506114c7565b8160800151841115611057576110366002600561190c565b60048054604080516315e3f14f60e11b81526001600160a01b038581169482019490945290516110dd9390921691632bc7e29e91602480820192602092909190829003018186803b1580156110ab57600080fd5b505afa1580156110bf573d6000803e3d6000fd5b505050506040513d60208110156110d557600080fd5b50518561200c565b60608401819052602084018260038111156110f457fe5b60038111156110ff57fe5b905250600090508260200151600381111561111657fe5b146111525760405162461bcd60e51b81526004018080602001828103825260228152602001806124dd6022913960400191505060405180910390fd5b6004805460608401516040805163fd51a3ad60e01b81526001600160a01b03868116958201959095526024810192909252516000939092169163fd51a3ad9160448082019260209290919082900301818787803b1580156111b257600080fd5b505af11580156111c6573d6000803e3d6000fd5b505050506040513d60208110156111dc57600080fd5b5051905080156111f05792506114c7915050565b60408301859052600a546000908190156113f7576112148560400151600a54612032565b8660200181945082600381111561122757fe5b600381111561123257fe5b905250600090508560200151600381111561124957fe5b146112765761126a600560168760200151600381111561126557fe5b6120bf565b955050505050506114c7565b61128882670de0b6b3a7640000612071565b8660200181945082600381111561129b57fe5b60038111156112a657fe5b90525060009050856020015160038111156112bd57fe5b146112d95761126a600560168760200151600381111561126557fe5b6112e785604001518361209c565b866020018193508260038111156112fa57fe5b600381111561130557fe5b905250600090508560200151600381111561131c57fe5b146113385761126a600560168760200151600381111561126557fe5b611340611724565b600954604080516340c10f1960e01b81526001600160a01b03928316600482015260248101869052905192909116916340c10f199160448082019260009290919082900301818387803b15801561139657600080fd5b505af11580156113aa573d6000803e3d6000fd5b5050604080516001600160a01b03881681526020810186905281517fb0715a6d41a37c1b0672c22c09a31a0642c1fb3f9efa2d5fd5c6d2d891ee78c69450908190039091019150a16113fe565b5060408401515b611406611724565b6001600160a01b03166340c10f1985836040518363ffffffff1660e01b815260040180836001600160a01b03166001600160a01b0316815260200182815260200192505050600060405180830381600087803b15801561146557600080fd5b505af1158015611479573d6000803e3d6000fd5b5050604080516001600160a01b03881681526020810185905281517e2e68ab1600fc5e7290e2ceaa79e2f86b4dbaca84a48421e167e0b40409218a9450908190039091019150a1600061126a565b600b805460ff19166001179055919050565b6004546001600160a01b031681565b60065460ff1681565b600b54600090819060ff1661153a576040805162461bcd60e51b815260206004820152600a6024820152691c994b595b9d195c995960b21b604482015290519081900360640190fd5b600b805460ff191690556004546001600160a01b03161561167157600083116115aa576040805162461bcd60e51b815260206004820152601c60248201527f7265706179564149416d6f756e742063616e6e74206265207a65726f00000000604482015290519081900360640190fd5b600480546040805163084bf5ab60e31b815290516001600160a01b039092169263425fad58928282019260209290829003018186803b1580156115ec57600080fd5b505afa158015611600573d6000803e3d6000fd5b505050506040513d602081101561161657600080fd5b50511561165f576040805162461bcd60e51b81526020600482015260126024820152711c1c9bdd1bd8dbdb081a5cc81c185d5cd95960721b604482015290519081900360640190fd5b3361166b81808661212d565b92509250505b600b805460ff191660011790559092909150565b6000546001600160a01b031633146116d5576040805162461bcd60e51b815260206004820152600e60248201526d37b7363c9030b236b4b71031b0b760911b604482015290519081900360640190fd5b600b805460ff19166001179055565b6003546001600160a01b031681565b6008546001600160a01b031681565b6ec097ce7bc90715b34b9f100000000081565b6009546001600160a01b031681565b739787ef11b1e5746f5de560e982426e6cf9f6fdd690565b600080546001600160a01b031633148061176057506008546001600160a01b031633145b611777576117706001601761190c565b90506118d8565b670de0b6b3a764000082106117d3576040805162461bcd60e51b815260206004820152601d60248201527f74726561737572792070657263656e7420636170206f766572666c6f77000000604482015290519081900360640190fd5b6008805460098054600a80546001600160a01b038a81166001600160a01b031980881682179098558a821697851697909717909455908790556040805194841680865260208601969096528051929093169390927f29f06ea15931797ebaed313d81d100963dc22cb213cb4ce2737b5a62b1a8b1e892918290030190a1604080516001600160a01b0380851682528816602082015281517f8de763046d7b8f08b6c3d03543de1d615309417842bb5d2d62f110f65809ddac929181900390910190a1604080518281526020810187905281517f0893f8f4101baaabbeb513f96761e7a36eb837403c82cc651c292a4abdc94ed7929181900390910190a1600093505050505b9392505050565b6005546001600160e01b03811690600160e01b900463ffffffff1682565b6000546001600160a01b031681565b60007f45b96fe442630264581b197e84bbada861235052c5a1aadfff9ea4e40a969aa083600681111561193b57fe5b83601781111561194757fe5b604080519283526020830191909152600082820152519081900360600190a18260068111156118d857fe5b60045460009081906001600160a01b031615611ebc576004805460408051632fe3f38f60e11b815230938101939093526001600160a01b038681166024850152898116604485015288811660648501526084840188905290516000939190921691635fc7e71e9160a48082019260209290919082900301818787803b1580156119fa57600080fd5b505af1158015611a0e573d6000803e3d6000fd5b505050506040513d6020811015611a2457600080fd5b505190508015611a4857611a3b6002600a836120bf565b925060009150611ebc9050565b611a50610e14565b846001600160a01b0316636c540baf6040518163ffffffff1660e01b815260040160206040518083038186803b158015611a8957600080fd5b505afa158015611a9d573d6000803e3d6000fd5b505050506040513d6020811015611ab357600080fd5b505114611ac657611a3b6002600961190c565b866001600160a01b0316866001600160a01b03161415611aec57611a3b6002600f61190c565b84611afd57611a3b6002600d61190c565b600019851415611b1357611a3b6002600c61190c565b600080611b2189898961212d565b90925090508115611b5157611b42826006811115611b3b57fe5b601061190c565b945060009350611ebc92505050565b600480546040805163a78dc77560e01b81526001600160a01b038a8116948201949094526024810185905281516000948594169263a78dc7759260448082019391829003018186803b158015611ba657600080fd5b505afa158015611bba573d6000803e3d6000fd5b505050506040513d6040811015611bd057600080fd5b50805160209091015190925090508115611c1b5760405162461bcd60e51b81526004018080602001828103825260378152602001806125216037913960400191505060405180910390fd5b80886001600160a01b03166370a082318c6040518263ffffffff1660e01b815260040180826001600160a01b03166001600160a01b0316815260200191505060206040518083038186803b158015611c7257600080fd5b505afa158015611c86573d6000803e3d6000fd5b505050506040513d6020811015611c9c57600080fd5b50511015611cf1576040805162461bcd60e51b815260206004820152601c60248201527f5641495f4c49515549444154455f5345495a455f544f4f5f4d55434800000000604482015290519081900360640190fd5b6040805163b2a02ff160e01b81526001600160a01b038d811660048301528c811660248301526044820184905291516000928b169163b2a02ff191606480830192602092919082900301818787803b158015611d4c57600080fd5b505af1158015611d60573d6000803e3d6000fd5b505050506040513d6020811015611d7657600080fd5b505190508015611dc4576040805162461bcd60e51b81526020600482015260146024820152731d1bdad95b881cd95a5e9d5c994819985a5b195960621b604482015290519081900360640190fd5b604080516001600160a01b03808f168252808e1660208301528183018790528b1660608201526080810184905290517f42d401f96718a0c42e5cea8108973f0022677b7e2e5f4ee19851b2de7a0394e79181900360a00190a160048054604080516347ef3b3b60e01b815230938101939093526001600160a01b038c811660248501528f811660448501528e811660648501526084840188905260a4840186905290519116916347ef3b3b9160c480830192600092919082900301818387803b158015611e9057600080fd5b505af1158015611ea4573d6000803e3d6000fd5b5060009250611eb1915050565b975092955050505050505b94509492505050565b6000611ecf6124c9565b600080611ee486600001518660000151612032565b90925090506000826003811115611ef757fe5b14611f1657506040805160208101909152600081529092509050611fa9565b600080611f2b6706f05b59d3b200008461200c565b90925090506000826003811115611f3e57fe5b14611f6057506040805160208101909152600081529094509250611fa9915050565b600080611f7583670de0b6b3a7640000612071565b90925090506000826003811115611f8857fe5b14611f8f57fe5b604080516020810190915290815260009750955050505050505b9250929050565b6000806000611fbd6124c9565b611fc787876123b6565b90925090506000826003811115611fda57fe5b14611feb5750915060009050612004565b611ffd611ff78261241e565b8661200c565b9350935050505b935093915050565b60008083830184811061202457600092509050611fa9565b506002915060009050611fa9565b6000808361204557506000905080611fa9565b8383028385828161205257fe5b041461206657506002915060009050611fa9565b600092509050611fa9565b600080826120855750600190506000611fa9565b600083858161209057fe5b04915091509250929050565b6000808383116120b3575060009050818303611fa9565b50600390506000611fa9565b60007f45b96fe442630264581b197e84bbada861235052c5a1aadfff9ea4e40a969aa08460068111156120ee57fe5b8460178111156120fa57fe5b604080519283526020830191909152818101859052519081900360600190a183600681111561212557fe5b949350505050565b600080600080600460009054906101000a90046001600160a01b03166001600160a01b0316632bc7e29e876040518263ffffffff1660e01b815260040180826001600160a01b03166001600160a01b0316815260200191505060206040518083038186803b15801561219e57600080fd5b505afa1580156121b2573d6000803e3d6000fd5b505050506040513d60208110156121c857600080fd5b50519050848111156121dc578491506121e0565b8091505b6000806121eb611724565b6001600160a01b0316639dc29fac8a866040518363ffffffff1660e01b815260040180836001600160a01b03166001600160a01b0316815260200182815260200192505050600060405180830381600087803b15801561224a57600080fd5b505af115801561225e573d6000803e3d6000fd5b5050505061226c838561209c565b9092509050600082600381111561227f57fe5b146122bb5760405162461bcd60e51b81526004018080602001828103825260228152602001806124ff6022913960400191505060405180910390fd5b600480546040805163fd51a3ad60e01b81526001600160a01b038c8116948201949094526024810185905290516000939092169163fd51a3ad9160448082019260209290919082900301818787803b15801561231657600080fd5b505af115801561232a573d6000803e3d6000fd5b505050506040513d602081101561234057600080fd5b50519050801561235a579550600094506120049350505050565b604080516001600160a01b03808d1682528b16602082015280820187905290517f1db858e6f7e1a0d5e92c10c6507d42b3dabfe0a4867fe90c5a14d9963662ef7e9181900360600190a160009a94995093975050505050505050565b60006123c06124c9565b6000806123d1866000015186612032565b909250905060008260038111156123e457fe5b1461240357506040805160208101909152600081529092509050611fa9565b60408051602081019091529081526000969095509350505050565b51670de0b6b3a7640000900490565b60408051610160810190915260008082526020820190815260200160008152602001600081526020016000815260200160008152602001600081526020016000815260200161247a6124c9565b81526020016124876124c9565b81526020016124946124c9565b905290565b6040805160a081019091526000808252602082019081526020016000815260200160008152602001600081525090565b604051806020016040528060008152509056fe5641495f4d494e545f414d4f554e545f43414c43554c4154494f4e5f4641494c45445641495f4255524e5f414d4f554e545f43414c43554c4154494f4e5f4641494c45445641495f4c49515549444154455f434f4d5054524f4c4c45525f43414c43554c4154455f414d4f554e545f5345495a455f4641494c45446f6e6c7920756e6974726f6c6c65722061646d696e2063616e206368616e676520627261696e73a265627a7a723158205a56510430762a4fb6d5a19c34b097b7cb1cf4dcb0c339a2efe7c96de20725f864736f6c63430005100032",
  "devdoc": {
    "author": "Venus",
    "methods": {
      "_setComptroller(address)": {
        "details": "Admin function to set a new comptroller",
        "return": "uint 0=success, otherwise a failure (see ErrorReporter.sol for details)"
      },
      "getVAIAddress()": {
        "return": "The address of VAI"
      },
      "liquidateVAI(address,uint256,address)": {
        "params": {
          "borrower": "The borrower of vai to be liquidated",
          "repayAmount": "The amount of the underlying borrowed asset to repay",
          "vTokenCollateral": "The market in which to seize collateral from the borrower"
        },
        "return": "(uint, uint) An error code (0=success, otherwise a failure, see ErrorReporter.sol), and the actual repayment amount."
      }
    },
    "title": "Venus's VAI Comptroller Contract"
  },
  "userdoc": {
    "methods": {
      "_setComptroller(address)": {
        "notice": "Sets a new comptroller"
      },
      "getVAIAddress()": {
        "notice": "Return the address of the VAI token"
      },
      "liquidateVAI(address,uint256,address)": {
        "notice": "The sender liquidates the vai minters collateral. The collateral seized is transferred to the liquidator."
      },
      "repayVAI(uint256)": {
        "notice": "Repay VAI"
      }
    }
  },
  "storageLayout": {
    "storage": [
      {
        "astId": 36936,
        "contract": "contracts/VAIController.sol:VAIController",
        "label": "admin",
        "offset": 0,
        "slot": "0",
        "type": "t_address"
      },
      {
        "astId": 36938,
        "contract": "contracts/VAIController.sol:VAIController",
        "label": "pendingAdmin",
        "offset": 0,
        "slot": "1",
        "type": "t_address"
      },
      {
        "astId": 36940,
        "contract": "contracts/VAIController.sol:VAIController",
        "label": "vaiControllerImplementation",
        "offset": 0,
        "slot": "2",
        "type": "t_address"
      },
      {
        "astId": 36942,
        "contract": "contracts/VAIController.sol:VAIController",
        "label": "pendingVAIControllerImplementation",
        "offset": 0,
        "slot": "3",
        "type": "t_address"
      },
      {
        "astId": 36947,
        "contract": "contracts/VAIController.sol:VAIController",
        "label": "comptroller",
        "offset": 0,
        "slot": "4",
        "type": "t_contract(ComptrollerInterface)24505"
      },
      {
        "astId": 36954,
        "contract": "contracts/VAIController.sol:VAIController",
        "label": "venusVAIState",
        "offset": 0,
        "slot": "5",
        "type": "t_struct(VenusVAIState)36952_storage"
      },
      {
        "astId": 36956,
        "contract": "contracts/VAIController.sol:VAIController",
        "label": "isVenusVAIInitialized",
        "offset": 0,
        "slot": "6",
        "type": "t_bool"
      },
      {
        "astId": 36960,
        "contract": "contracts/VAIController.sol:VAIController",
        "label": "venusVAIMinterIndex",
        "offset": 0,
        "slot": "7",
        "type": "t_mapping(t_address,t_uint256)"
      },
      {
        "astId": 36965,
        "contract": "contracts/VAIController.sol:VAIController",
        "label": "treasuryGuardian",
        "offset": 0,
        "slot": "8",
        "type": "t_address"
      },
      {
        "astId": 36967,
        "contract": "contracts/VAIController.sol:VAIController",
        "label": "treasuryAddress",
        "offset": 0,
        "slot": "9",
        "type": "t_address"
      },
      {
        "astId": 36969,
        "contract": "contracts/VAIController.sol:VAIController",
        "label": "treasuryPercent",
        "offset": 0,
        "slot": "10",
        "type": "t_uint256"
      },
      {
        "astId": 36971,
        "contract": "contracts/VAIController.sol:VAIController",
        "label": "_notEntered",
        "offset": 0,
        "slot": "11",
        "type": "t_bool"
      }
    ],
    "types": {
      "t_address": {
        "encoding": "inplace",
        "label": "address",
        "numberOfBytes": "20"
      },
      "t_bool": {
        "encoding": "inplace",
        "label": "bool",
        "numberOfBytes": "1"
      },
      "t_contract(ComptrollerInterface)24505": {
        "encoding": "inplace",
        "label": "contract ComptrollerInterface",
        "numberOfBytes": "20"
      },
      "t_mapping(t_address,t_uint256)": {
        "encoding": "mapping",
        "key": "t_address",
        "label": "mapping(address => uint256)",
        "numberOfBytes": "32",
        "value": "t_uint256"
      },
      "t_struct(VenusVAIState)36952_storage": {
        "encoding": "inplace",
        "label": "struct VAIControllerStorageG1.VenusVAIState",
        "members": [
          {
            "astId": 36949,
            "contract": "contracts/VAIController.sol:VAIController",
            "label": "index",
            "offset": 0,
            "slot": "0",
            "type": "t_uint224"
          },
          {
            "astId": 36951,
            "contract": "contracts/VAIController.sol:VAIController",
            "label": "block",
            "offset": 28,
            "slot": "0",
            "type": "t_uint32"
          }
        ],
        "numberOfBytes": "32"
      },
      "t_uint224": {
        "encoding": "inplace",
        "label": "uint224",
        "numberOfBytes": "28"
      },
      "t_uint256": {
        "encoding": "inplace",
        "label": "uint256",
        "numberOfBytes": "32"
      },
      "t_uint32": {
        "encoding": "inplace",
        "label": "uint32",
        "numberOfBytes": "4"
      }
    }
  }
}