{
  "address": "0xa9FB656a6A9868c49a41234913c98B6c0581f080",
  "abi": [
    {
      "inputs": [],
      "payable": false,
      "stateMutability": "nonpayable",
      "type": "constructor"
    },
    {
      "anonymous": false,
      "inputs": [
        {
          "indexed": true,
          "internalType": "address",
          "name": "oldAdmin",
          "type": "address"
        },
        {
          "indexed": true,
          "internalType": "address",
          "name": "newAdmin",
          "type": "address"
        }
      ],
      "name": "AdminTransfered",
      "type": "event"
    },
    {
      "anonymous": false,
      "inputs": [
        {
          "indexed": true,
          "internalType": "address",
          "name": "user",
          "type": "address"
        },
        {
          "indexed": false,
          "internalType": "uint256",
          "name": "amount",
          "type": "uint256"
        }
      ],
      "name": "Deposit",
      "type": "event"
    },
    {
      "anonymous": false,
      "inputs": [
        {
          "indexed": true,
          "internalType": "address",
          "name": "user",
          "type": "address"
        },
        {
          "indexed": false,
          "internalType": "uint256",
          "name": "amount",
          "type": "uint256"
        }
      ],
      "name": "Withdraw",
      "type": "event"
    },
    {
      "constant": false,
      "inputs": [
        {
          "internalType": "contract VAIVaultProxy",
          "name": "vaiVaultProxy",
          "type": "address"
        }
      ],
      "name": "_become",
      "outputs": [],
      "payable": false,
      "stateMutability": "nonpayable",
      "type": "function"
    },
    {
      "constant": true,
      "inputs": [],
      "name": "accXVSPerShare",
      "outputs": [
        {
          "internalType": "uint256",
          "name": "",
          "type": "uint256"
        }
      ],
      "payable": false,
      "stateMutability": "view",
      "type": "function"
    },
    {
      "constant": true,
      "inputs": [],
      "name": "admin",
      "outputs": [
        {
          "internalType": "address",
          "name": "",
          "type": "address"
        }
      ],
      "payable": false,
      "stateMutability": "view",
      "type": "function"
    },
    {
      "constant": false,
      "inputs": [],
      "name": "burnAdmin",
      "outputs": [],
      "payable": false,
      "stateMutability": "nonpayable",
      "type": "function"
    },
    {
      "constant": false,
      "inputs": [],
      "name": "claim",
      "outputs": [],
      "payable": false,
      "stateMutability": "nonpayable",
      "type": "function"
    },
    {
      "constant": false,
      "inputs": [
        {
          "internalType": "uint256",
          "name": "_amount",
          "type": "uint256"
        }
      ],
      "name": "deposit",
      "outputs": [],
      "payable": false,
      "stateMutability": "nonpayable",
      "type": "function"
    },
    {
      "constant": true,
      "inputs": [],
      "name": "getAdmin",
      "outputs": [
        {
          "internalType": "address",
          "name": "",
          "type": "address"
        }
      ],
      "payable": false,
      "stateMutability": "view",
      "type": "function"
    },
    {
      "constant": true,
      "inputs": [],
      "name": "pendingAdmin",
      "outputs": [
        {
          "internalType": "address",
          "name": "",
          "type": "address"
        }
      ],
      "payable": false,
      "stateMutability": "view",
      "type": "function"
    },
    {
      "constant": true,
      "inputs": [],
      "name": "pendingRewards",
      "outputs": [
        {
          "internalType": "uint256",
          "name": "",
          "type": "uint256"
        }
      ],
      "payable": false,
      "stateMutability": "view",
      "type": "function"
    },
    {
      "constant": true,
      "inputs": [],
      "name": "pendingVAIVaultImplementation",
      "outputs": [
        {
          "internalType": "address",
          "name": "",
          "type": "address"
        }
      ],
      "payable": false,
      "stateMutability": "view",
      "type": "function"
    },
    {
      "constant": true,
      "inputs": [
        {
          "internalType": "address",
          "name": "_user",
          "type": "address"
        }
      ],
      "name": "pendingXVS",
      "outputs": [
        {
          "internalType": "uint256",
          "name": "",
          "type": "uint256"
        }
      ],
      "payable": false,
      "stateMutability": "view",
      "type": "function"
    },
    {
      "constant": false,
      "inputs": [
        {
          "internalType": "address",
          "name": "newAdmin",
          "type": "address"
        }
      ],
      "name": "setNewAdmin",
      "outputs": [],
      "payable": false,
      "stateMutability": "nonpayable",
      "type": "function"
    },
    {
      "constant": false,
      "inputs": [
        {
          "internalType": "address",
          "name": "_xvs",
          "type": "address"
        },
        {
          "internalType": "address",
          "name": "_vai",
          "type": "address"
        }
      ],
      "name": "setVenusInfo",
      "outputs": [],
      "payable": false,
      "stateMutability": "nonpayable",
      "type": "function"
    },
    {
      "constant": false,
      "inputs": [],
      "name": "updatePendingRewards",
      "outputs": [],
      "payable": false,
      "stateMutability": "nonpayable",
      "type": "function"
    },
    {
      "constant": true,
      "inputs": [
        {
          "internalType": "address",
          "name": "",
          "type": "address"
        }
      ],
      "name": "userInfo",
      "outputs": [
        {
          "internalType": "uint256",
          "name": "amount",
          "type": "uint256"
        },
        {
          "internalType": "uint256",
          "name": "rewardDebt",
          "type": "uint256"
        }
      ],
      "payable": false,
      "stateMutability": "view",
      "type": "function"
    },
    {
      "constant": true,
      "inputs": [],
      "name": "vai",
      "outputs": [
        {
          "internalType": "contract IBEP20",
          "name": "",
          "type": "address"
        }
      ],
      "payable": false,
      "stateMutability": "view",
      "type": "function"
    },
    {
      "constant": true,
      "inputs": [],
      "name": "vaiVaultImplementation",
      "outputs": [
        {
          "internalType": "address",
          "name": "",
          "type": "address"
        }
      ],
      "payable": false,
      "stateMutability": "view",
      "type": "function"
    },
    {
      "constant": false,
      "inputs": [
        {
          "internalType": "uint256",
          "name": "_amount",
          "type": "uint256"
        }
      ],
      "name": "withdraw",
      "outputs": [],
      "payable": false,
      "stateMutability": "nonpayable",
      "type": "function"
    },
    {
      "constant": true,
      "inputs": [],
      "name": "xvs",
      "outputs": [
        {
          "internalType": "contract IBEP20",
          "name": "",
          "type": "address"
        }
      ],
      "payable": false,
      "stateMutability": "view",
      "type": "function"
    },
    {
      "constant": true,
      "inputs": [],
      "name": "xvsBalance",
      "outputs": [
        {
          "internalType": "uint256",
          "name": "",
          "type": "uint256"
        }
      ],
      "payable": false,
      "stateMutability": "view",
      "type": "function"
    }
  ],
  "transactionHash": "0x0dbe3527b67b898849c557e83e669bbfc78d701a3ec2512b0ed4af43334a9d8b",
  "args": [],
  "solcInputHash": "b37497c5b1f763df37ae9c22af67abad",
  "bytecode": "0x608060405234801561001057600080fd5b50600080546001600160a01b031916331790556114bb806100326000396000f3fe608060405234801561001057600080fd5b506004361061012c5760003560e01c806379c3b944116100ad578063b6b55f2511610071578063b6b55f25146102a5578063eded3fda146102c2578063f661bb86146102ca578063f851a440146102d2578063faa1809e146102da5761012c565b806379c3b9441461024157806381bdf98c146102675780638eec99c81461026f57806391cc3da114610295578063b62e4c921461029d5761012c565b806344c0e8ee116100f457806344c0e8ee146101e15780634e71d92d1461020f5780634e79ed3c146102175780636e9960c31461021f578063761692ba146102275761012c565b80631959a002146101315780631d504dc614610170578063211de6b61461019857806326782247146101bc5780632e1a7d4d146101c4575b600080fd5b6101576004803603602081101561014757600080fd5b50356001600160a01b03166102e2565b6040805192835260208301919091528051918290030190f35b6101966004803603602081101561018657600080fd5b50356001600160a01b03166102fb565b005b6101a061045a565b604080516001600160a01b039092168252519081900360200190f35b6101a0610469565b610196600480360360208110156101da57600080fd5b5035610478565b610196600480360360408110156101f757600080fd5b506001600160a01b03813581169160200135166104f0565b61019661057e565b6101a06105f6565b6101a0610605565b61022f610614565b60408051918252519081900360200190f35b61022f6004803603602081101561025757600080fd5b50356001600160a01b031661061a565b61019661067e565b6101966004803603602081101561028557600080fd5b50356001600160a01b0316610718565b61022f61081e565b6101a0610824565b610196600480360360208110156102bb57600080fd5b5035610833565b61022f610958565b6101a061095e565b6101a061096d565b61019661097c565b6009602052600090815260409020805460019091015482565b806001600160a01b031663f851a4406040518163ffffffff1660e01b815260040160206040518083038186803b15801561033457600080fd5b505afa158015610348573d6000803e3d6000fd5b505050506040513d602081101561035e57600080fd5b50516001600160a01b031633146103a65760405162461bcd60e51b81526004018080602001828103825260228152602001806114656022913960400191505060405180910390fd5b806001600160a01b031663c1e803346040518163ffffffff1660e01b8152600401602060405180830381600087803b1580156103e157600080fd5b505af11580156103f5573d6000803e3d6000fd5b505050506040513d602081101561040b57600080fd5b505115610457576040805162461bcd60e51b815260206004820152601560248201527418da185b99d9481b9bdd08185d5d1a1bdc9a5e9959605a1b604482015290519081900360640190fd5b50565b6003546001600160a01b031681565b6001546001600160a01b031681565b600554600160a01b900460ff166104c3576040805162461bcd60e51b815260206004820152600a6024820152691c994b595b9d195c995960b21b604482015290519081900360640190fd5b6005805460ff60a01b191690556104da3382610aa7565b506005805460ff60a01b1916600160a01b179055565b6000546001600160a01b03163314610540576040805162461bcd60e51b815260206004820152600e60248201526d37b7363c9030b236b4b71031b0b760911b604482015290519081900360640190fd5b600480546001600160a01b03199081166001600160a01b039485161790915560058054600160a01b9216929093169190911760ff60a01b1916179055565b600554600160a01b900460ff166105c9576040805162461bcd60e51b815260206004820152600a6024820152691c994b595b9d195c995960b21b604482015290519081900360640190fd5b6005805460ff60a01b191690556105e1336000610aa7565b6005805460ff60a01b1916600160a01b179055565b6004546001600160a01b031681565b6000546001600160a01b031690565b60065481565b6001600160a01b038116600090815260096020526040812060018101546007548254610677929161066b91670de0b6b3a76400009161065f919063ffffffff610bbd16565b9063ffffffff610c1f16565b9063ffffffff610c6116565b9392505050565b6000546001600160a01b031633146106ce576040805162461bcd60e51b815260206004820152600e60248201526d37b7363c9030b236b4b71031b0b760911b604482015290519081900360640190fd5b600080546040516001600160a01b03909116907f173de3514d8508f36ce8c81d509adcd8c8c76098400f685d3042b36f9a4160c3908390a3600080546001600160a01b0319169055565b6000546001600160a01b03163314610768576040805162461bcd60e51b815260206004820152600e60248201526d37b7363c9030b236b4b71031b0b760911b604482015290519081900360640190fd5b6001600160a01b0381166107c3576040805162461bcd60e51b815260206004820152601d60248201527f6e6577206f776e657220697320746865207a65726f2061646472657373000000604482015290519081900360640190fd5b600080546040516001600160a01b03808516939216917f173de3514d8508f36ce8c81d509adcd8c8c76098400f685d3042b36f9a4160c391a3600080546001600160a01b0319166001600160a01b0392909216919091179055565b60075481565b6005546001600160a01b031681565b600554600160a01b900460ff1661087e576040805162461bcd60e51b815260206004820152600a6024820152691c994b595b9d195c995960b21b604482015290519081900360640190fd5b6005805460ff60a01b191690553360009081526009602052604090206108a2610ca3565b6108ab33610d66565b81156108e4576005546108cf906001600160a01b031633308563ffffffff610d8716565b80546108e1908363ffffffff610de716565b81555b600754815461090691670de0b6b3a76400009161065f9163ffffffff610bbd16565b600182015560408051838152905133917fe1fffcc4923d04b559f4d29a8bfc6cda04eb5b0d3c460751c2402c5c5cc9109c919081900360200190a250506005805460ff60a01b1916600160a01b179055565b60085481565b6002546001600160a01b031681565b6000546001600160a01b031681565b60065460048054604080516370a0823160e01b8152309381019390935251600093610a0b9390926001600160a01b0316916370a0823191602480820192602092909190829003018186803b1580156109d357600080fd5b505afa1580156109e7573d6000803e3d6000fd5b505050506040513d60208110156109fd57600080fd5b50519063ffffffff610c6116565b905080156104575760048054604080516370a0823160e01b81523093810193909352516001600160a01b03909116916370a08231916024808301926020929190829003018186803b158015610a5f57600080fd5b505afa158015610a73573d6000803e3d6000fd5b505050506040513d6020811015610a8957600080fd5b5051600655600854610aa1908263ffffffff610de716565b60085550565b6001600160a01b03821660009081526009602052604090208054821115610b0a576040805162461bcd60e51b81526020600482015260126024820152711dda5d1a191c985dce881b9bdd0819dbdbd960721b604482015290519081900360640190fd5b610b12610ca3565b610b1b83610d66565b8115610b52578054610b33908363ffffffff610c6116565b8155600554610b52906001600160a01b0316848463ffffffff610e4116565b6007548154610b7491670de0b6b3a76400009161065f9163ffffffff610bbd16565b60018201556040805183815290516001600160a01b038516917f884edad9ce6fa2440d8a54cc123490eb96d2768479d49ff9c7366125a9424364919081900360200190a2505050565b600082610bcc57506000610c19565b82820282848281610bd957fe5b0414610c165760405162461bcd60e51b81526004018080602001828103825260218152602001806114446021913960400191505060405180910390fd5b90505b92915050565b6000610c1683836040518060400160405280601a81526020017f536166654d6174683a206469766973696f6e206279207a65726f000000000000815250610e98565b6000610c1683836040518060400160405280601e81526020017f536166654d6174683a207375627472616374696f6e206f766572666c6f770000815250610f3a565b600554604080516370a0823160e01b815230600482015290516000926001600160a01b0316916370a08231916024808301926020929190829003018186803b158015610cee57600080fd5b505afa158015610d02573d6000803e3d6000fd5b505050506040513d6020811015610d1857600080fd5b5051905080610d275750610d64565b610d5a610d4b8261065f670de0b6b3a7640000600854610bbd90919063ffffffff16565b6007549063ffffffff610de716565b6007555060006008555b565b6000610d718261061a565b90508015610d8357610d838282610f94565b5050565b604080516001600160a01b0385811660248301528416604482015260648082018490528251808303909101815260849091019091526020810180516001600160e01b03166323b872dd60e01b179052610de1908590611225565b50505050565b600082820183811015610c16576040805162461bcd60e51b815260206004820152601b60248201527f536166654d6174683a206164646974696f6e206f766572666c6f770000000000604482015290519081900360640190fd5b604080516001600160a01b038416602482015260448082018490528251808303909101815260649091019091526020810180516001600160e01b031663a9059cbb60e01b179052610e93908490611225565b505050565b60008183610f245760405162461bcd60e51b81526004018080602001828103825283818151815260200191508051906020019080838360005b83811015610ee9578181015183820152602001610ed1565b50505050905090810190601f168015610f165780820380516001836020036101000a031916815260200191505b509250505060405180910390fd5b506000838581610f3057fe5b0495945050505050565b60008184841115610f8c5760405162461bcd60e51b8152602060048201818152835160248401528351909283926044909101919085019080838360008315610ee9578181015183820152602001610ed1565b505050900390565b60048054604080516370a0823160e01b81523093810193909352516000926001600160a01b03909216916370a08231916024808301926020929190829003018186803b158015610fe357600080fd5b505afa158015610ff7573d6000803e3d6000fd5b505050506040513d602081101561100d57600080fd5b505190508082111561111f57600480546040805163a9059cbb60e01b81526001600160a01b0387811694820194909452602481018590529051929091169163a9059cbb916044808201926020929091908290030181600087803b15801561107357600080fd5b505af1158015611087573d6000803e3d6000fd5b505050506040513d602081101561109d57600080fd5b505060048054604080516370a0823160e01b81523093810193909352516001600160a01b03909116916370a08231916024808301926020929190829003018186803b1580156110eb57600080fd5b505afa1580156110ff573d6000803e3d6000fd5b505050506040513d602081101561111557600080fd5b5051600655610e93565b600480546040805163a9059cbb60e01b81526001600160a01b0387811694820194909452602481018690529051929091169163a9059cbb916044808201926020929091908290030181600087803b15801561117957600080fd5b505af115801561118d573d6000803e3d6000fd5b505050506040513d60208110156111a357600080fd5b505060048054604080516370a0823160e01b81523093810193909352516001600160a01b03909116916370a08231916024808301926020929190829003018186803b1580156111f157600080fd5b505afa158015611205573d6000803e3d6000fd5b505050506040513d602081101561121b57600080fd5b5051600655505050565b611237826001600160a01b03166113dd565b611288576040805162461bcd60e51b815260206004820152601f60248201527f5361666542455032303a2063616c6c20746f206e6f6e2d636f6e747261637400604482015290519081900360640190fd5b60006060836001600160a01b0316836040518082805190602001908083835b602083106112c65780518252601f1990920191602091820191016112a7565b6001836020036101000a0380198251168184511680821785525050505050509050019150506000604051808303816000865af19150503d8060008114611328576040519150601f19603f3d011682016040523d82523d6000602084013e61132d565b606091505b509150915081611384576040805162461bcd60e51b815260206004820181905260248201527f5361666542455032303a206c6f772d6c6576656c2063616c6c206661696c6564604482015290519081900360640190fd5b805115610de1578080602001905160208110156113a057600080fd5b5051610de15760405162461bcd60e51b815260040180806020018281038252602a81526020018061141a602a913960400191505060405180910390fd5b6000813f7fc5d2460186f7233c927e7db2dcc703c0e500b653ca82273b7bfad8045d85a47081811480159061141157508115155b94935050505056fe5361666542455032303a204245503230206f7065726174696f6e20646964206e6f742073756363656564536166654d6174683a206d756c7469706c69636174696f6e206f766572666c6f776f6e6c792070726f78792061646d696e2063616e206368616e676520627261696e73a265627a7a72315820eefe753da8803543a0dddc7699559a941ce894ba215355c50f05f122abef57fd64736f6c63430005100032",
  "devdoc": {
    "methods": {
      "burnAdmin()": {
        "details": "Burn the current admin"
      },
      "deposit(uint256)": {
        "params": {
          "_amount": "The amount to deposit to vault"
        }
      },
      "getAdmin()": {
        "details": "Returns the address of the current admin"
      },
      "pendingXVS(address)": {
        "params": {
          "_user": "The user to see pending XVS"
        }
      },
      "setNewAdmin(address)": {
        "details": "Set the current admin to new address"
      },
      "withdraw(uint256)": {
        "params": {
          "_amount": "The amount to withdraw from vault"
        }
      }
    }
  },
  "userdoc": {
    "methods": {
      "_become(address)": {
        "notice": "* Admin Functions **"
      },
      "claim()": {
        "notice": "Claim XVS from VAIVault"
      },
      "deposit(uint256)": {
        "notice": "Deposit VAI to VAIVault for XVS allocation"
      },
      "pendingXVS(address)": {
        "notice": "View function to see pending XVS on frontend"
      },
      "updatePendingRewards()": {
        "notice": "Function that updates pending rewards"
      },
      "withdraw(uint256)": {
        "notice": "Withdraw VAI from VAIVault"
      }
    }
  },
  "storageLayout": {
    "storage": [
      {
        "astId": 47618,
        "contract": "contracts/Vault/VAIVault.sol:VAIVault",
        "label": "admin",
        "offset": 0,
        "slot": "0",
        "type": "t_address"
      },
      {
        "astId": 47620,
        "contract": "contracts/Vault/VAIVault.sol:VAIVault",
        "label": "pendingAdmin",
        "offset": 0,
        "slot": "1",
        "type": "t_address"
      },
      {
        "astId": 47622,
        "contract": "contracts/Vault/VAIVault.sol:VAIVault",
        "label": "vaiVaultImplementation",
        "offset": 0,
        "slot": "2",
        "type": "t_address"
      },
      {
        "astId": 47624,
        "contract": "contracts/Vault/VAIVault.sol:VAIVault",
        "label": "pendingVAIVaultImplementation",
        "offset": 0,
        "slot": "3",
        "type": "t_address"
      },
      {
        "astId": 47629,
        "contract": "contracts/Vault/VAIVault.sol:VAIVault",
        "label": "xvs",
        "offset": 0,
        "slot": "4",
        "type": "t_contract(IBEP20)34287"
      },
      {
        "astId": 47631,
        "contract": "contracts/Vault/VAIVault.sol:VAIVault",
        "label": "vai",
        "offset": 0,
        "slot": "5",
        "type": "t_contract(IBEP20)34287"
      },
      {
        "astId": 47633,
        "contract": "contracts/Vault/VAIVault.sol:VAIVault",
        "label": "_notEntered",
        "offset": 20,
        "slot": "5",
        "type": "t_bool"
      },
      {
        "astId": 47635,
        "contract": "contracts/Vault/VAIVault.sol:VAIVault",
        "label": "xvsBalance",
        "offset": 0,
        "slot": "6",
        "type": "t_uint256"
      },
      {
        "astId": 47637,
        "contract": "contracts/Vault/VAIVault.sol:VAIVault",
        "label": "accXVSPerShare",
        "offset": 0,
        "slot": "7",
        "type": "t_uint256"
      },
      {
        "astId": 47639,
        "contract": "contracts/Vault/VAIVault.sol:VAIVault",
        "label": "pendingRewards",
        "offset": 0,
        "slot": "8",
        "type": "t_uint256"
      },
      {
        "astId": 47648,
        "contract": "contracts/Vault/VAIVault.sol:VAIVault",
        "label": "userInfo",
        "offset": 0,
        "slot": "9",
        "type": "t_mapping(t_address,t_struct(UserInfo)47644_storage)"
      }
    ],
    "types": {
      "t_address": {
        "encoding": "inplace",
        "label": "address",
        "numberOfBytes": "20"
      },
      "t_bool": {
        "encoding": "inplace",
        "label": "bool",
        "numberOfBytes": "1"
      },
      "t_contract(IBEP20)34287": {
        "encoding": "inplace",
        "label": "contract IBEP20",
        "numberOfBytes": "20"
      },
      "t_mapping(t_address,t_struct(UserInfo)47644_storage)": {
        "encoding": "mapping",
        "key": "t_address",
        "label": "mapping(address => struct VAIVaultStorage.UserInfo)",
        "numberOfBytes": "32",
        "value": "t_struct(UserInfo)47644_storage"
      },
      "t_struct(UserInfo)47644_storage": {
        "encoding": "inplace",
        "label": "struct VAIVaultStorage.UserInfo",
        "members": [
          {
            "astId": 47641,
            "contract": "contracts/Vault/VAIVault.sol:VAIVault",
            "label": "amount",
            "offset": 0,
            "slot": "0",
            "type": "t_uint256"
          },
          {
            "astId": 47643,
            "contract": "contracts/Vault/VAIVault.sol:VAIVault",
            "label": "rewardDebt",
            "offset": 0,
            "slot": "1",
            "type": "t_uint256"
          }
        ],
        "numberOfBytes": "64"
      },
      "t_uint256": {
        "encoding": "inplace",
        "label": "uint256",
        "numberOfBytes": "32"
      }
    }
  }
}