{
  "address": "0x64aa1cD85DC61924D6bF05590149FaF28E76701A",
  "abi": [
    {
      "inputs": [],
      "payable": false,
      "stateMutability": "nonpayable",
      "type": "constructor"
    },
    {
      "anonymous": false,
      "inputs": [
        {
          "indexed": false,
          "internalType": "uint256",
          "name": "conversionRatio",
          "type": "uint256"
        },
        {
          "indexed": false,
          "internalType": "uint256",
          "name": "conversionStartTime",
          "type": "uint256"
        },
        {
          "indexed": false,
          "internalType": "uint256",
          "name": "conversionPeriod",
          "type": "uint256"
        },
        {
          "indexed": false,
          "internalType": "uint256",
          "name": "conversionEndTime",
          "type": "uint256"
        }
      ],
      "name": "ConversionInfoSet",
      "type": "event"
    },
    {
      "anonymous": false,
      "inputs": [
        {
          "indexed": false,
          "internalType": "address",
          "name": "reedeemer",
          "type": "address"
        },
        {
          "indexed": false,
          "internalType": "address",
          "name": "vrtAddress",
          "type": "address"
        },
        {
          "indexed": false,
          "internalType": "uint256",
          "name": "vrtAmount",
          "type": "uint256"
        },
        {
          "indexed": false,
          "internalType": "address",
          "name": "xvsAddress",
          "type": "address"
        },
        {
          "indexed": false,
          "internalType": "uint256",
          "name": "xvsAmount",
          "type": "uint256"
        }
      ],
      "name": "TokenConverted",
      "type": "event"
    },
    {
      "anonymous": false,
      "inputs": [
        {
          "indexed": false,
          "internalType": "address",
          "name": "token",
          "type": "address"
        },
        {
          "indexed": false,
          "internalType": "address",
          "name": "to",
          "type": "address"
        },
        {
          "indexed": false,
          "internalType": "uint256",
          "name": "amount",
          "type": "uint256"
        }
      ],
      "name": "TokenWithdraw",
      "type": "event"
    },
    {
      "anonymous": false,
      "inputs": [
        {
          "indexed": false,
          "internalType": "address",
          "name": "xvsVestingAddress",
          "type": "address"
        }
      ],
      "name": "XVSVestingSet",
      "type": "event"
    },
    {
      "constant": true,
      "inputs": [],
      "name": "DEAD_ADDRESS",
      "outputs": [
        {
          "internalType": "address",
          "name": "",
          "type": "address"
        }
      ],
      "payable": false,
      "stateMutability": "view",
      "type": "function"
    },
    {
      "constant": false,
      "inputs": [
        {
          "internalType": "contract VRTConverterProxy",
          "name": "vrtConverterProxy",
          "type": "address"
        }
      ],
      "name": "_become",
      "outputs": [],
      "payable": false,
      "stateMutability": "nonpayable",
      "type": "function"
    },
    {
      "constant": true,
      "inputs": [],
      "name": "_notEntered",
      "outputs": [
        {
          "internalType": "bool",
          "name": "",
          "type": "bool"
        }
      ],
      "payable": false,
      "stateMutability": "view",
      "type": "function"
    },
    {
      "constant": true,
      "inputs": [],
      "name": "admin",
      "outputs": [
        {
          "internalType": "address",
          "name": "",
          "type": "address"
        }
      ],
      "payable": false,
      "stateMutability": "view",
      "type": "function"
    },
    {
      "constant": true,
      "inputs": [],
      "name": "conversionEndTime",
      "outputs": [
        {
          "internalType": "uint256",
          "name": "",
          "type": "uint256"
        }
      ],
      "payable": false,
      "stateMutability": "view",
      "type": "function"
    },
    {
      "constant": true,
      "inputs": [],
      "name": "conversionPeriod",
      "outputs": [
        {
          "internalType": "uint256",
          "name": "",
          "type": "uint256"
        }
      ],
      "payable": false,
      "stateMutability": "view",
      "type": "function"
    },
    {
      "constant": true,
      "inputs": [],
      "name": "conversionRatio",
      "outputs": [
        {
          "internalType": "uint256",
          "name": "",
          "type": "uint256"
        }
      ],
      "payable": false,
      "stateMutability": "view",
      "type": "function"
    },
    {
      "constant": true,
      "inputs": [],
      "name": "conversionStartTime",
      "outputs": [
        {
          "internalType": "uint256",
          "name": "",
          "type": "uint256"
        }
      ],
      "payable": false,
      "stateMutability": "view",
      "type": "function"
    },
    {
      "constant": false,
      "inputs": [
        {
          "internalType": "uint256",
          "name": "vrtAmount",
          "type": "uint256"
        }
      ],
      "name": "convert",
      "outputs": [],
      "payable": false,
      "stateMutability": "nonpayable",
      "type": "function"
    },
    {
      "constant": true,
      "inputs": [],
      "name": "implementation",
      "outputs": [
        {
          "internalType": "address",
          "name": "",
          "type": "address"
        }
      ],
      "payable": false,
      "stateMutability": "view",
      "type": "function"
    },
    {
      "constant": false,
      "inputs": [
        {
          "internalType": "address",
          "name": "_vrtAddress",
          "type": "address"
        },
        {
          "internalType": "address",
          "name": "_xvsAddress",
          "type": "address"
        },
        {
          "internalType": "uint256",
          "name": "_conversionRatio",
          "type": "uint256"
        },
        {
          "internalType": "uint256",
          "name": "_conversionStartTime",
          "type": "uint256"
        },
        {
          "internalType": "uint256",
          "name": "_conversionPeriod",
          "type": "uint256"
        }
      ],
      "name": "initialize",
      "outputs": [],
      "payable": false,
      "stateMutability": "nonpayable",
      "type": "function"
    },
    {
      "constant": true,
      "inputs": [],
      "name": "initialized",
      "outputs": [
        {
          "internalType": "bool",
          "name": "",
          "type": "bool"
        }
      ],
      "payable": false,
      "stateMutability": "view",
      "type": "function"
    },
    {
      "constant": true,
      "inputs": [],
      "name": "isConversionActive",
      "outputs": [
        {
          "internalType": "bool",
          "name": "",
          "type": "bool"
        }
      ],
      "payable": false,
      "stateMutability": "view",
      "type": "function"
    },
    {
      "constant": true,
      "inputs": [],
      "name": "pendingAdmin",
      "outputs": [
        {
          "internalType": "address",
          "name": "",
          "type": "address"
        }
      ],
      "payable": false,
      "stateMutability": "view",
      "type": "function"
    },
    {
      "constant": true,
      "inputs": [],
      "name": "pendingImplementation",
      "outputs": [
        {
          "internalType": "address",
          "name": "",
          "type": "address"
        }
      ],
      "payable": false,
      "stateMutability": "view",
      "type": "function"
    },
    {
      "constant": false,
      "inputs": [
        {
          "internalType": "address",
          "name": "_xvsVestingAddress",
          "type": "address"
        }
      ],
      "name": "setXVSVesting",
      "outputs": [],
      "payable": false,
      "stateMutability": "nonpayable",
      "type": "function"
    },
    {
      "constant": true,
      "inputs": [],
      "name": "totalVrtConverted",
      "outputs": [
        {
          "internalType": "uint256",
          "name": "",
          "type": "uint256"
        }
      ],
      "payable": false,
      "stateMutability": "view",
      "type": "function"
    },
    {
      "constant": true,
      "inputs": [],
      "name": "vrt",
      "outputs": [
        {
          "internalType": "contract IBEP20",
          "name": "",
          "type": "address"
        }
      ],
      "payable": false,
      "stateMutability": "view",
      "type": "function"
    },
    {
      "constant": true,
      "inputs": [],
      "name": "vrtDecimalsMultiplier",
      "outputs": [
        {
          "internalType": "uint256",
          "name": "",
          "type": "uint256"
        }
      ],
      "payable": false,
      "stateMutability": "view",
      "type": "function"
    },
    {
      "constant": true,
      "inputs": [],
      "name": "xvs",
      "outputs": [
        {
          "internalType": "contract IBEP20",
          "name": "",
          "type": "address"
        }
      ],
      "payable": false,
      "stateMutability": "view",
      "type": "function"
    },
    {
      "constant": true,
      "inputs": [],
      "name": "xvsDecimalsMultiplier",
      "outputs": [
        {
          "internalType": "uint256",
          "name": "",
          "type": "uint256"
        }
      ],
      "payable": false,
      "stateMutability": "view",
      "type": "function"
    },
    {
      "constant": true,
      "inputs": [],
      "name": "xvsVesting",
      "outputs": [
        {
          "internalType": "contract IXVSVesting",
          "name": "",
          "type": "address"
        }
      ],
      "payable": false,
      "stateMutability": "view",
      "type": "function"
    }
  ],
  "transactionHash": "0xec94f15daeedcfe2f1c9d58cf3aab119279ca360d212cd554cf768924fc3ef4a",
  "args": [],
  "solcInputHash": "b37497c5b1f763df37ae9c22af67abad",
  "bytecode": "0x608060405234801561001057600080fd5b50611182806100206000396000f3fe608060405234801561001057600080fd5b50600436106101425760003560e01c80636a1a4d36116100b8578063b8f1d1971161007c578063b8f1d1971461025c578063bcab369b1461025c578063d13f90b414610264578063d8438ae8146102a6578063e775f6ce146102ae578063f851a440146102b657610142565b80636a1a4d36146102015780636ebdd31c14610209578063a3908e1b1461022f578063a9ffd6b21461024c578063acc8c92b1461025457610142565b8063396f7b231161010a578063396f7b23146101d15780634bcf2ed9146101d95780634e6fd6c4146101e15780634e79ed3c146101e957806358859916146101f15780635c60da1b146101f957610142565b8063158ef93e146101475780631888927a146101635780631d504dc61461017d57806326782247146101a557806333fca8b1146101c9575b600080fd5b61014f6102be565b604080519115158252519081900360200190f35b61016b6102ce565b60408051918252519081900360200190f35b6101a36004803603602081101561019357600080fd5b50356001600160a01b03166102d4565b005b6101ad6103d5565b604080516001600160a01b039092168252519081900360200190f35b61016b6103e4565b6101ad6103ea565b61014f6103f9565b6101ad61042a565b6101ad610430565b6101ad61043f565b6101ad61044e565b61016b61045d565b6101a36004803603602081101561021f57600080fd5b50356001600160a01b0316610463565b6101a36004803603602081101561024557600080fd5b503561055b565b6101ad610905565b61016b610914565b61016b61091a565b6101a3600480360360a081101561027a57600080fd5b506001600160a01b03813581169160208101359091169060408101359060608101359060800135610926565b61014f610c29565b61016b610c39565b6101ad610c3f565b600354600160a81b900460ff1681565b60095481565b806001600160a01b031663f851a4406040518163ffffffff1660e01b815260040160206040518083038186803b15801561030d57600080fd5b505afa158015610321573d6000803e3d6000fd5b505050506040513d602081101561033757600080fd5b50516001600160a01b0316331461037f5760405162461bcd60e51b815260040180806020018281038252602281526020018061112c6022913960400191505060405180910390fd5b806001600160a01b031663c1e803346040518163ffffffff1660e01b8152600401600060405180830381600087803b1580156103ba57600080fd5b505af11580156103ce573d6000803e3d6000fd5b5050505050565b6001546001600160a01b031681565b60075481565b6003546001600160a01b031681565b600954600090429081108015906104125750600b548111155b15610421576001915050610427565b60009150505b90565b61dead81565b6005546001600160a01b031681565b6006546001600160a01b031681565b6002546001600160a01b031681565b600b5481565b6000546001600160a01b031633146104ac5760405162461bcd60e51b81526004018080602001828103825260238152602001806110ba6023913960400191505060405180910390fd5b6001600160a01b038116610507576040805162461bcd60e51b815260206004820181905260248201527f78767356657374696e67416464726573732063616e6e6f74206265205a65726f604482015290519081900360640190fd5b600680546001600160a01b0383166001600160a01b0319909116811790915560408051918252517fb3849bf00f7a1ef27db5b5740efa1d9e032be4db8cfbe8fc84f01599616dd59f9181900360200190a150565b600354600160a81b900460ff1615156001146105be576040805162461bcd60e51b815260206004820152601f60248201527f565254436f6e766572746572206973206e6f7420696e697469616c697a656400604482015290519081900360640190fd5b6009544290811015610617576040805162461bcd60e51b815260206004820152601c60248201527f436f6e76657273696f6e20646964206e6f742073746172742079657400000000604482015290519081900360640190fd5b600b5481111561066e576040805162461bcd60e51b815260206004820152601760248201527f436f6e76657273696f6e20506572696f6420456e646564000000000000000000604482015290519081900360640190fd5b600354600160a01b900460ff166106b9576040805162461bcd60e51b815260206004820152600a6024820152691c994b595b9d195c995960b21b604482015290519081900360640190fd5b6003805460ff60a01b191690556006546001600160a01b0316158015906106ed57506006546001600160a01b031661dead14155b61073e576040805162461bcd60e51b815260206004820152601e60248201527f5856532d56657374696e672041646472657373206973206e6f74207365740000604482015290519081900360640190fd5b60008211610793576040805162461bcd60e51b815260206004820152601b60248201527f56525420616d6f756e74206d757374206265206e6f6e2d7a65726f0000000000604482015290519081900360640190fd5b6008546107a6908363ffffffff610c4e16565b60088190555060006107ff670de0b6b3a76400006107f3670de0b6b3a76400006107f3670de0b6b3a76400006107e76007548a610cb190919063ffffffff16565b9063ffffffff610cb116565b9063ffffffff610d0a16565b600454600554604080513381526001600160a01b0393841660208201528082018890529190921660608201526080810183905290519192507fe0aebc0b49a57880fff1a14cdb8f71331347f88fedf9f4a251ff97b31061d828919081900360a00190a1600454610882906001600160a01b03163361dead8663ffffffff610d4c16565b600654604080516311f9fbc960e21b81523360048201526024810184905290516001600160a01b03909216916347e7ef249160448082019260009290919082900301818387803b1580156108d557600080fd5b505af11580156108e9573d6000803e3d6000fd5b50506003805460ff60a01b1916600160a01b1790555050505050565b6004546001600160a01b031681565b60085481565b670de0b6b3a764000081565b6000546001600160a01b0316331461096f5760405162461bcd60e51b815260040180806020018281038252602a815260200180611090602a913960400191505060405180910390fd5b600354600160a81b900460ff16156109b85760405162461bcd60e51b815260040180806020018281038252602381526020018061106d6023913960400191505060405180910390fd5b6001600160a01b038516610a13576040805162461bcd60e51b815260206004820152601960248201527f767274416464726573732063616e6e6f74206265205a65726f00000000000000604482015290519081900360640190fd5b600480546001600160a01b0319166001600160a01b03878116919091179091558416610a86576040805162461bcd60e51b815260206004820152601960248201527f787673416464726573732063616e6e6f74206265205a65726f00000000000000604482015290519081900360640190fd5b600580546001600160a01b0319166001600160a01b03861617905582610af3576040805162461bcd60e51b815260206004820152601e60248201527f636f6e76657273696f6e526174696f2063616e6e6f74206265205a65726f0000604482015290519081900360640190fd5b600783905542821015610b375760405162461bcd60e51b815260040180806020018281038252602e8152602001806110dd602e913960400191505060405180910390fd5b60008111610b8c576040805162461bcd60e51b815260206004820152601c60248201527f5f636f6e76657273696f6e506572696f6420697320696e76616c696400000000604482015290519081900360640190fd5b6009829055600a819055610ba6828263ffffffff610c4e16565b600b819055600754600954600a5460408051938452602084019290925282820152606082019290925290517fd1a8ac984a8430f21edede61cef5f001917ac908c13ff7d1c7bfd9e0eca6e7b69181900360800190a15050600060085550506003805460ff60a81b1960ff60a01b19909116600160a01b1716600160a81b17905550565b600354600160a01b900460ff1681565b600a5481565b6000546001600160a01b031681565b600082820183811015610ca8576040805162461bcd60e51b815260206004820152601b60248201527f536166654d6174683a206164646974696f6e206f766572666c6f770000000000604482015290519081900360640190fd5b90505b92915050565b600082610cc057506000610cab565b82820282848281610ccd57fe5b0414610ca85760405162461bcd60e51b815260040180806020018281038252602181526020018061110b6021913960400191505060405180910390fd5b6000610ca883836040518060400160405280601a81526020017f536166654d6174683a206469766973696f6e206279207a65726f000000000000815250610dac565b604080516001600160a01b0385811660248301528416604482015260648082018490528251808303909101815260849091019091526020810180516001600160e01b03166323b872dd60e01b179052610da6908590610e4e565b50505050565b60008183610e385760405162461bcd60e51b81526004018080602001828103825283818151815260200191508051906020019080838360005b83811015610dfd578181015183820152602001610de5565b50505050905090810190601f168015610e2a5780820380516001836020036101000a031916815260200191505b509250505060405180910390fd5b506000838581610e4457fe5b0495945050505050565b610e60826001600160a01b0316611006565b610eb1576040805162461bcd60e51b815260206004820152601f60248201527f5361666542455032303a2063616c6c20746f206e6f6e2d636f6e747261637400604482015290519081900360640190fd5b60006060836001600160a01b0316836040518082805190602001908083835b60208310610eef5780518252601f199092019160209182019101610ed0565b6001836020036101000a0380198251168184511680821785525050505050509050019150506000604051808303816000865af19150503d8060008114610f51576040519150601f19603f3d011682016040523d82523d6000602084013e610f56565b606091505b509150915081610fad576040805162461bcd60e51b815260206004820181905260248201527f5361666542455032303a206c6f772d6c6576656c2063616c6c206661696c6564604482015290519081900360640190fd5b805115610da657808060200190516020811015610fc957600080fd5b5051610da65760405162461bcd60e51b815260040180806020018281038252602a815260200180611043602a913960400191505060405180910390fd5b6000813f7fc5d2460186f7233c927e7db2dcc703c0e500b653ca82273b7bfad8045d85a47081811480159061103a57508115155b94935050505056fe5361666542455032303a204245503230206f7065726174696f6e20646964206e6f742073756363656564565254436f6e76657274657220697320616c726561647920696e697469616c697a65646f6e6c792061646d696e206d617920696e697469616c697a652074686520565254436f6e7665727465726f6e6c792061646d696e206d617920696e697469616c697a6520746865205661756c74636f6e76657273696f6e537461727454696d65206d7573742062652074696d6520696e2074686520667574757265536166654d6174683a206d756c7469706c69636174696f6e206f766572666c6f776f6e6c792070726f78792061646d696e2063616e206368616e676520627261696e73a265627a7a72315820e027d5c511fdfca75b15573a1a9bc5677e0e3f272ccb242614d8c1ea79bd7dfc64736f6c63430005100032",
  "devdoc": {
    "author": "Venus",
    "methods": {
      "convert(uint256)": {
        "details": "Note: If there is not enough XVS, we do not perform the conversion.",
        "params": {
          "vrtAmount": "The amount of VRT"
        }
      },
      "setXVSVesting(address)": {
        "details": "Note: If XVSVestingProxy is not set, then Conversion is not allowed",
        "params": {
          "_xvsVestingAddress": "The XVSVestingProxy Address"
        }
      }
    },
    "title": "Venus's VRTConversion Contract"
  },
  "userdoc": {
    "methods": {
      "_become(address)": {
        "notice": "* Admin Functions **"
      },
      "convert(uint256)": {
        "notice": "Transfer VRT and redeem XVS"
      },
      "setXVSVesting(address)": {
        "notice": "sets XVSVestingProxy Address"
      }
    }
  },
  "storageLayout": {
    "storage": [
      {
        "astId": 40301,
        "contract": "contracts/VRT/VRTConverter.sol:VRTConverter",
        "label": "admin",
        "offset": 0,
        "slot": "0",
        "type": "t_address"
      },
      {
        "astId": 40303,
        "contract": "contracts/VRT/VRTConverter.sol:VRTConverter",
        "label": "pendingAdmin",
        "offset": 0,
        "slot": "1",
        "type": "t_address"
      },
      {
        "astId": 40305,
        "contract": "contracts/VRT/VRTConverter.sol:VRTConverter",
        "label": "implementation",
        "offset": 0,
        "slot": "2",
        "type": "t_address"
      },
      {
        "astId": 40307,
        "contract": "contracts/VRT/VRTConverter.sol:VRTConverter",
        "label": "pendingImplementation",
        "offset": 0,
        "slot": "3",
        "type": "t_address"
      },
      {
        "astId": 40312,
        "contract": "contracts/VRT/VRTConverter.sol:VRTConverter",
        "label": "_notEntered",
        "offset": 20,
        "slot": "3",
        "type": "t_bool"
      },
      {
        "astId": 40314,
        "contract": "contracts/VRT/VRTConverter.sol:VRTConverter",
        "label": "initialized",
        "offset": 21,
        "slot": "3",
        "type": "t_bool"
      },
      {
        "astId": 40316,
        "contract": "contracts/VRT/VRTConverter.sol:VRTConverter",
        "label": "vrt",
        "offset": 0,
        "slot": "4",
        "type": "t_contract(IBEP20)34287"
      },
      {
        "astId": 40318,
        "contract": "contracts/VRT/VRTConverter.sol:VRTConverter",
        "label": "xvs",
        "offset": 0,
        "slot": "5",
        "type": "t_contract(IBEP20)34287"
      },
      {
        "astId": 40320,
        "contract": "contracts/VRT/VRTConverter.sol:VRTConverter",
        "label": "xvsVesting",
        "offset": 0,
        "slot": "6",
        "type": "t_contract(IXVSVesting)39554"
      },
      {
        "astId": 40322,
        "contract": "contracts/VRT/VRTConverter.sol:VRTConverter",
        "label": "conversionRatio",
        "offset": 0,
        "slot": "7",
        "type": "t_uint256"
      },
      {
        "astId": 40324,
        "contract": "contracts/VRT/VRTConverter.sol:VRTConverter",
        "label": "totalVrtConverted",
        "offset": 0,
        "slot": "8",
        "type": "t_uint256"
      },
      {
        "astId": 40326,
        "contract": "contracts/VRT/VRTConverter.sol:VRTConverter",
        "label": "conversionStartTime",
        "offset": 0,
        "slot": "9",
        "type": "t_uint256"
      },
      {
        "astId": 40328,
        "contract": "contracts/VRT/VRTConverter.sol:VRTConverter",
        "label": "conversionPeriod",
        "offset": 0,
        "slot": "10",
        "type": "t_uint256"
      },
      {
        "astId": 40330,
        "contract": "contracts/VRT/VRTConverter.sol:VRTConverter",
        "label": "conversionEndTime",
        "offset": 0,
        "slot": "11",
        "type": "t_uint256"
      }
    ],
    "types": {
      "t_address": {
        "encoding": "inplace",
        "label": "address",
        "numberOfBytes": "20"
      },
      "t_bool": {
        "encoding": "inplace",
        "label": "bool",
        "numberOfBytes": "1"
      },
      "t_contract(IBEP20)34287": {
        "encoding": "inplace",
        "label": "contract IBEP20",
        "numberOfBytes": "20"
      },
      "t_contract(IXVSVesting)39554": {
        "encoding": "inplace",
        "label": "contract IXVSVesting",
        "numberOfBytes": "20"
      },
      "t_uint256": {
        "encoding": "inplace",
        "label": "uint256",
        "numberOfBytes": "32"
      }
    }
  }
}