{
  "address": "0x128A603E20F7dE7555d8C888E96CAc4213a42422",
  "abi": [
    {
      "inputs": [
        {
          "internalType": "address",
          "name": "implementation_",
          "type": "address"
        },
        {
          "internalType": "address",
          "name": "_xvsAddress",
          "type": "address"
        }
      ],
      "payable": false,
      "stateMutability": "nonpayable",
      "type": "constructor"
    },
    {
      "anonymous": false,
      "inputs": [
        {
          "indexed": false,
          "internalType": "address",
          "name": "oldAdmin",
          "type": "address"
        },
        {
          "indexed": false,
          "internalType": "address",
          "name": "newAdmin",
          "type": "address"
        }
      ],
      "name": "NewAdmin",
      "type": "event"
    },
    {
      "anonymous": false,
      "inputs": [
        {
          "indexed": false,
          "internalType": "address",
          "name": "oldImplementation",
          "type": "address"
        },
        {
          "indexed": false,
          "internalType": "address",
          "name": "newImplementation",
          "type": "address"
        }
      ],
      "name": "NewImplementation",
      "type": "event"
    },
    {
      "anonymous": false,
      "inputs": [
        {
          "indexed": false,
          "internalType": "address",
          "name": "oldPendingAdmin",
          "type": "address"
        },
        {
          "indexed": false,
          "internalType": "address",
          "name": "newPendingAdmin",
          "type": "address"
        }
      ],
      "name": "NewPendingAdmin",
      "type": "event"
    },
    {
      "anonymous": false,
      "inputs": [
        {
          "indexed": false,
          "internalType": "address",
          "name": "oldPendingImplementation",
          "type": "address"
        },
        {
          "indexed": false,
          "internalType": "address",
          "name": "newPendingImplementation",
          "type": "address"
        }
      ],
      "name": "NewPendingImplementation",
      "type": "event"
    },
    {
      "payable": true,
      "stateMutability": "payable",
      "type": "fallback"
    },
    {
      "constant": false,
      "inputs": [],
      "name": "_acceptAdmin",
      "outputs": [],
      "payable": false,
      "stateMutability": "nonpayable",
      "type": "function"
    },
    {
      "constant": false,
      "inputs": [],
      "name": "_acceptImplementation",
      "outputs": [],
      "payable": false,
      "stateMutability": "nonpayable",
      "type": "function"
    },
    {
      "constant": false,
      "inputs": [
        {
          "internalType": "address",
          "name": "implementation_",
          "type": "address"
        }
      ],
      "name": "_setImplementation",
      "outputs": [],
      "payable": false,
      "stateMutability": "nonpayable",
      "type": "function"
    },
    {
      "constant": false,
      "inputs": [
        {
          "internalType": "address",
          "name": "newPendingAdmin",
          "type": "address"
        }
      ],
      "name": "_setPendingAdmin",
      "outputs": [],
      "payable": false,
      "stateMutability": "nonpayable",
      "type": "function"
    },
    {
      "constant": false,
      "inputs": [
        {
          "internalType": "address",
          "name": "newPendingImplementation",
          "type": "address"
        }
      ],
      "name": "_setPendingImplementation",
      "outputs": [],
      "payable": false,
      "stateMutability": "nonpayable",
      "type": "function"
    },
    {
      "constant": true,
      "inputs": [],
      "name": "admin",
      "outputs": [
        {
          "internalType": "address",
          "name": "",
          "type": "address"
        }
      ],
      "payable": false,
      "stateMutability": "view",
      "type": "function"
    },
    {
      "constant": true,
      "inputs": [],
      "name": "implementation",
      "outputs": [
        {
          "internalType": "address",
          "name": "",
          "type": "address"
        }
      ],
      "payable": false,
      "stateMutability": "view",
      "type": "function"
    },
    {
      "constant": true,
      "inputs": [],
      "name": "pendingAdmin",
      "outputs": [
        {
          "internalType": "address",
          "name": "",
          "type": "address"
        }
      ],
      "payable": false,
      "stateMutability": "view",
      "type": "function"
    },
    {
      "constant": true,
      "inputs": [],
      "name": "pendingImplementation",
      "outputs": [
        {
          "internalType": "address",
          "name": "",
          "type": "address"
        }
      ],
      "payable": false,
      "stateMutability": "view",
      "type": "function"
    }
  ],
  "transactionHash": "0xf6867237295a24b296ad224fc7e5281d0ea684e7f3a209226a64e6550ff64fcd",
  "args": [
    "0x18924F3D113E3072e45B0a186b1845B17496d0E4",
    "0x21291b52862588B4660D0Cf47284A9419896dD63"
  ],
  "solcInputHash": "b37497c5b1f763df37ae9c22af67abad",
  "bytecode": "0x608060405234801561001057600080fd5b50604051610d3f380380610d3f8339818101604052604081101561003357600080fd5b508051602090910151816001600160a01b038116610086576040805162461bcd60e51b81526020600482015260166024820152600080516020610cf0833981519152604482015290519081900360640190fd5b816001600160a01b0381166100d0576040805162461bcd60e51b81526020600482015260166024820152600080516020610cf0833981519152604482015290519081900360640190fd5b600080546001600160a01b031916331790556100f4846001600160e01b0361015016565b604080516001600160a01b0385166024808301919091528251808303909101815260449091019091526020810180516001600160e01b0390811663189acdbd60e31b1790915261014691869161024016565b505050505061034d565b6000546001600160a01b031633146101995760405162461bcd60e51b815260040180806020018281038252602f815260200180610d10602f913960400191505060405180910390fd5b6001600160a01b0381166101de5760405162461bcd60e51b8152600401808060200182810382526043815260200180610cad6043913960600191505060405180910390fd5b600280546001600160a01b038381166001600160a01b0319831617928390556040805192821680845293909116602083015280517fd604de94d45953f9138079ec1b82d533cb2160c906d1076d1f7ed54befbca97a9281900390910190a15050565b6060826001600160a01b03811661028c576040805162461bcd60e51b81526020600482015260166024820152600080516020610cf0833981519152604482015290519081900360640190fd5b60006060856001600160a01b0316856040518082805190602001908083835b602083106102ca5780518252601f1990920191602091820191016102ab565b6001836020036101000a038019825116818451168082178552505050505050905001915050600060405180830381855af49150503d806000811461032a576040519150601f19603f3d011682016040523d82523d6000602084013e61032f565b606091505b50915091506000821415610344573d60208201fd5b95945050505050565b6109518061035c6000396000f3fe6080604052600436106100865760003560e01c8063bb913f4111610059578063bb913f4114610199578063c1e80334146101cc578063e992a041146101e1578063e9c714f214610214578063f851a4401461022957610086565b80632678224714610109578063396f7b231461013a5780635c60da1b1461014f578063b71d1a0c14610164575b6002546040516000916001600160a01b031690829036908083838082843760405192019450600093509091505080830381855af49150503d80600081146100e9576040519150601f19603f3d011682016040523d82523d6000602084013e6100ee565b606091505b505090506040513d6000823e818015610105573d82f35b3d82fd5b34801561011557600080fd5b5061011e61023e565b604080516001600160a01b039092168252519081900360200190f35b34801561014657600080fd5b5061011e61024d565b34801561015b57600080fd5b5061011e61025c565b34801561017057600080fd5b506101976004803603602081101561018757600080fd5b50356001600160a01b031661026b565b005b3480156101a557600080fd5b50610197600480360360208110156101bc57600080fd5b50356001600160a01b03166103d0565b3480156101d857600080fd5b506101976104c0565b3480156101ed57600080fd5b506101976004803603602081101561020457600080fd5b50356001600160a01b03166105c0565b34801561022057600080fd5b506101976106c1565b34801561023557600080fd5b5061011e6107c1565b6001546001600160a01b031681565b6003546001600160a01b031681565b6002546001600160a01b031681565b806001600160a01b0381166102c0576040805162461bcd60e51b8152602060048201526016602482015275416464726573732063616e6e6f74206265205a65726f60501b604482015290519081900360640190fd5b6000546001600160a01b0316331461031f576040805162461bcd60e51b815260206004820181905260248201527f6f6e6c792061646d696e2063616e207365742070656e64696e672061646d696e604482015290519081900360640190fd5b6001546001600160a01b038381169116141561036c5760405162461bcd60e51b81526004018080602001828103825260348152602001806108ba6034913960400191505060405180910390fd5b600180546001600160a01b038481166001600160a01b0319831681179093556040805191909216808252602082019390935281517fca4f2f25d0898edd99413412fb94012f9e54ec8142f9b093e7720646a95b16a9929181900390910190a1505050565b6000546001600160a01b031633146104195760405162461bcd60e51b815260040180806020018281038252602f8152602001806108ee602f913960400191505060405180910390fd5b6001600160a01b03811661045e5760405162461bcd60e51b81526004018080602001828103825260438152602001806108316043913960600191505060405180910390fd5b600280546001600160a01b038381166001600160a01b0319831617928390556040805192821680845293909116602083015280517fd604de94d45953f9138079ec1b82d533cb2160c906d1076d1f7ed54befbca97a9281900390910190a15050565b6003546001600160a01b031633146105095760405162461bcd60e51b81526004018080602001828103825260468152602001806108746046913960600191505060405180910390fd5b60028054600380546001600160a01b038082166001600160a01b031980861682179687905590921690925560408051938316808552949092166020840152815190927fd604de94d45953f9138079ec1b82d533cb2160c906d1076d1f7ed54befbca97a92908290030190a1600354604080516001600160a01b038085168252909216602083015280517fe945ccee5d701fc83f9b8aa8ca94ea4219ec1fcbd4f4cab4f0ea57c5c3e1d8159281900390910190a15050565b806001600160a01b038116610615576040805162461bcd60e51b8152602060048201526016602482015275416464726573732063616e6e6f74206265205a65726f60501b604482015290519081900360640190fd5b6000546001600160a01b0316331461065e5760405162461bcd60e51b81526004018080602001828103825260298152602001806108086029913960400191505060405180910390fd5b600380546001600160a01b038481166001600160a01b0319831617928390556040805192821680845293909116602083015280517fe945ccee5d701fc83f9b8aa8ca94ea4219ec1fcbd4f4cab4f0ea57c5c3e1d8159281900390910190a1505050565b6001546001600160a01b0316331461070a5760405162461bcd60e51b81526004018080602001828103825260378152602001806107d16037913960400191505060405180910390fd5b60008054600180546001600160a01b038082166001600160a01b031980861682179687905590921690925560408051938316808552949092166020840152815190927ff9ffabca9c8276e99321725bcb43fb076a6c66a54b7f21c4e8146d8519b417dc92908290030190a1600154604080516001600160a01b038085168252909216602083015280517fca4f2f25d0898edd99413412fb94012f9e54ec8142f9b093e7720646a95b16a99281900390910190a15050565b6000546001600160a01b03168156fe6f6e6c792061646472657373206d61726b65642061732070656e64696e6741646d696e2063616e206163636570742061732041646d696e4f6e6c792061646d696e2063616e207365742050656e64696e6720496d706c656d656e746174696f6e58565356657374696e6750726f78793a3a5f736574496d706c656d656e746174696f6e3a20696e76616c696420696d706c656d656e746174696f6e20616464726573736f6e6c792061646472657373206d61726b65642061732070656e64696e67496d706c656d656e746174696f6e2063616e2061636365707420496d706c656d656e746174696f6e4e65772070656e64696e6741646d696e2063616e206e6f742062652073616d65206173207468652070726576696f7573206f6e6558565356657374696e6750726f78793a3a5f736574496d706c656d656e746174696f6e3a2061646d696e206f6e6c79a265627a7a723158201c7143e8349933f051c2177f3643ec91747a935e52fc9159912fa0af4254974d64736f6c6343000510003258565356657374696e6750726f78793a3a5f736574496d706c656d656e746174696f6e3a20696e76616c696420696d706c656d656e746174696f6e2061646472657373416464726573732063616e6e6f74206265205a65726f0000000000000000000058565356657374696e6750726f78793a3a5f736574496d706c656d656e746174696f6e3a2061646d696e206f6e6c79",
  "devdoc": {
    "methods": {
      "_acceptAdmin()": {
        "details": "Admin function for pending admin to accept role and update admin",
        "return": "uint 0=success, otherwise a failure (see ErrorReporter.sol for details)"
      },
      "_acceptImplementation()": {
        "details": "Admin function for new implementation to accept it's role as implementation",
        "return": "uint 0=success, otherwise a failure (see ErrorReporter.sol for details)"
      },
      "_setImplementation(address)": {
        "params": {
          "implementation_": "The address of the new implementation for delegation"
        }
      },
      "_setPendingAdmin(address)": {
        "details": "Admin function to begin change of admin. The newPendingAdmin must call `_acceptAdmin` to finalize the transfer.",
        "params": {
          "newPendingAdmin": "New pending admin."
        },
        "return": "uint 0=success, otherwise a failure (see ErrorReporter.sol for details)"
      }
    }
  },
  "userdoc": {
    "methods": {
      "_acceptAdmin()": {
        "notice": "Accepts transfer of admin rights. msg.sender must be pendingAdmin"
      },
      "_acceptImplementation()": {
        "notice": "Accepts new implementation of VRT Vault. msg.sender must be pendingImplementation"
      },
      "_setImplementation(address)": {
        "notice": "Called by the admin to update the implementation of the delegator"
      },
      "_setPendingAdmin(address)": {
        "notice": "Begins transfer of admin rights. The newPendingAdmin must call `_acceptAdmin` to finalize the transfer."
      },
      "_setPendingImplementation(address)": {
        "notice": "* Admin Functions **"
      }
    }
  },
  "storageLayout": {
    "storage": [
      {
        "astId": 41204,
        "contract": "contracts/VRT/XVSVestingProxy.sol:XVSVestingProxy",
        "label": "admin",
        "offset": 0,
        "slot": "0",
        "type": "t_address"
      },
      {
        "astId": 41206,
        "contract": "contracts/VRT/XVSVestingProxy.sol:XVSVestingProxy",
        "label": "pendingAdmin",
        "offset": 0,
        "slot": "1",
        "type": "t_address"
      },
      {
        "astId": 41208,
        "contract": "contracts/VRT/XVSVestingProxy.sol:XVSVestingProxy",
        "label": "implementation",
        "offset": 0,
        "slot": "2",
        "type": "t_address"
      },
      {
        "astId": 41210,
        "contract": "contracts/VRT/XVSVestingProxy.sol:XVSVestingProxy",
        "label": "pendingImplementation",
        "offset": 0,
        "slot": "3",
        "type": "t_address"
      }
    ],
    "types": {
      "t_address": {
        "encoding": "inplace",
        "label": "address",
        "numberOfBytes": "20"
      }
    }
  }
}