{
  "address": "0x9e52E46B9EA5381f36EF77240C0b9273d79794eD",
  "abi": [
    {
      "anonymous": false,
      "inputs": [
        {
          "indexed": false,
          "internalType": "address",
          "name": "oldAdmin",
          "type": "address"
        },
        {
          "indexed": false,
          "internalType": "address",
          "name": "newAdmin",
          "type": "address"
        }
      ],
      "name": "NewAdmin",
      "type": "event"
    },
    {
      "anonymous": false,
      "inputs": [
        {
          "indexed": false,
          "internalType": "address",
          "name": "oldGuardian",
          "type": "address"
        },
        {
          "indexed": false,
          "internalType": "address",
          "name": "newGuardian",
          "type": "address"
        }
      ],
      "name": "NewGuardian",
      "type": "event"
    },
    {
      "anonymous": false,
      "inputs": [
        {
          "indexed": false,
          "internalType": "address",
          "name": "oldImplementation",
          "type": "address"
        },
        {
          "indexed": false,
          "internalType": "address",
          "name": "newImplementation",
          "type": "address"
        }
      ],
      "name": "NewImplementation",
      "type": "event"
    },
    {
      "anonymous": false,
      "inputs": [
        {
          "indexed": false,
          "internalType": "address",
          "name": "oldPendingAdmin",
          "type": "address"
        },
        {
          "indexed": false,
          "internalType": "address",
          "name": "newPendingAdmin",
          "type": "address"
        }
      ],
      "name": "NewPendingAdmin",
      "type": "event"
    },
    {
      "anonymous": false,
      "inputs": [
        {
          "indexed": false,
          "internalType": "uint256",
          "name": "id",
          "type": "uint256"
        }
      ],
      "name": "ProposalCanceled",
      "type": "event"
    },
    {
      "anonymous": false,
      "inputs": [
        {
          "indexed": false,
          "internalType": "uint256",
          "name": "id",
          "type": "uint256"
        },
        {
          "indexed": false,
          "internalType": "address",
          "name": "proposer",
          "type": "address"
        },
        {
          "indexed": false,
          "internalType": "address[]",
          "name": "targets",
          "type": "address[]"
        },
        {
          "indexed": false,
          "internalType": "uint256[]",
          "name": "values",
          "type": "uint256[]"
        },
        {
          "indexed": false,
          "internalType": "string[]",
          "name": "signatures",
          "type": "string[]"
        },
        {
          "indexed": false,
          "internalType": "bytes[]",
          "name": "calldatas",
          "type": "bytes[]"
        },
        {
          "indexed": false,
          "internalType": "uint256",
          "name": "startBlock",
          "type": "uint256"
        },
        {
          "indexed": false,
          "internalType": "uint256",
          "name": "endBlock",
          "type": "uint256"
        },
        {
          "indexed": false,
          "internalType": "string",
          "name": "description",
          "type": "string"
        }
      ],
      "name": "ProposalCreated",
      "type": "event"
    },
    {
      "anonymous": false,
      "inputs": [
        {
          "indexed": false,
          "internalType": "uint256",
          "name": "id",
          "type": "uint256"
        }
      ],
      "name": "ProposalExecuted",
      "type": "event"
    },
    {
      "anonymous": false,
      "inputs": [
        {
          "indexed": false,
          "internalType": "uint256",
          "name": "oldMaxOperations",
          "type": "uint256"
        },
        {
          "indexed": false,
          "internalType": "uint256",
          "name": "newMaxOperations",
          "type": "uint256"
        }
      ],
      "name": "ProposalMaxOperationsUpdated",
      "type": "event"
    },
    {
      "anonymous": false,
      "inputs": [
        {
          "indexed": false,
          "internalType": "uint256",
          "name": "id",
          "type": "uint256"
        },
        {
          "indexed": false,
          "internalType": "uint256",
          "name": "eta",
          "type": "uint256"
        }
      ],
      "name": "ProposalQueued",
      "type": "event"
    },
    {
      "anonymous": false,
      "inputs": [
        {
          "indexed": false,
          "internalType": "uint256",
          "name": "oldProposalThreshold",
          "type": "uint256"
        },
        {
          "indexed": false,
          "internalType": "uint256",
          "name": "newProposalThreshold",
          "type": "uint256"
        }
      ],
      "name": "ProposalThresholdSet",
      "type": "event"
    },
    {
      "anonymous": false,
      "inputs": [
        {
          "indexed": true,
          "internalType": "address",
          "name": "voter",
          "type": "address"
        },
        {
          "indexed": false,
          "internalType": "uint256",
          "name": "proposalId",
          "type": "uint256"
        },
        {
          "indexed": false,
          "internalType": "uint8",
          "name": "support",
          "type": "uint8"
        },
        {
          "indexed": false,
          "internalType": "uint256",
          "name": "votes",
          "type": "uint256"
        },
        {
          "indexed": false,
          "internalType": "string",
          "name": "reason",
          "type": "string"
        }
      ],
      "name": "VoteCast",
      "type": "event"
    },
    {
      "anonymous": false,
      "inputs": [
        {
          "indexed": false,
          "internalType": "uint256",
          "name": "oldVotingDelay",
          "type": "uint256"
        },
        {
          "indexed": false,
          "internalType": "uint256",
          "name": "newVotingDelay",
          "type": "uint256"
        }
      ],
      "name": "VotingDelaySet",
      "type": "event"
    },
    {
      "anonymous": false,
      "inputs": [
        {
          "indexed": false,
          "internalType": "uint256",
          "name": "oldVotingPeriod",
          "type": "uint256"
        },
        {
          "indexed": false,
          "internalType": "uint256",
          "name": "newVotingPeriod",
          "type": "uint256"
        }
      ],
      "name": "VotingPeriodSet",
      "type": "event"
    },
    {
      "constant": true,
      "inputs": [],
      "name": "BALLOT_TYPEHASH",
      "outputs": [
        {
          "internalType": "bytes32",
          "name": "",
          "type": "bytes32"
        }
      ],
      "payable": false,
      "stateMutability": "view",
      "type": "function"
    },
    {
      "constant": true,
      "inputs": [],
      "name": "DOMAIN_TYPEHASH",
      "outputs": [
        {
          "internalType": "bytes32",
          "name": "",
          "type": "bytes32"
        }
      ],
      "payable": false,
      "stateMutability": "view",
      "type": "function"
    },
    {
      "constant": true,
      "inputs": [],
      "name": "MAX_PROPOSAL_THRESHOLD",
      "outputs": [
        {
          "internalType": "uint256",
          "name": "",
          "type": "uint256"
        }
      ],
      "payable": false,
      "stateMutability": "view",
      "type": "function"
    },
    {
      "constant": true,
      "inputs": [],
      "name": "MAX_VOTING_DELAY",
      "outputs": [
        {
          "internalType": "uint256",
          "name": "",
          "type": "uint256"
        }
      ],
      "payable": false,
      "stateMutability": "view",
      "type": "function"
    },
    {
      "constant": true,
      "inputs": [],
      "name": "MAX_VOTING_PERIOD",
      "outputs": [
        {
          "internalType": "uint256",
          "name": "",
          "type": "uint256"
        }
      ],
      "payable": false,
      "stateMutability": "view",
      "type": "function"
    },
    {
      "constant": true,
      "inputs": [],
      "name": "MIN_PROPOSAL_THRESHOLD",
      "outputs": [
        {
          "internalType": "uint256",
          "name": "",
          "type": "uint256"
        }
      ],
      "payable": false,
      "stateMutability": "view",
      "type": "function"
    },
    {
      "constant": true,
      "inputs": [],
      "name": "MIN_VOTING_DELAY",
      "outputs": [
        {
          "internalType": "uint256",
          "name": "",
          "type": "uint256"
        }
      ],
      "payable": false,
      "stateMutability": "view",
      "type": "function"
    },
    {
      "constant": true,
      "inputs": [],
      "name": "MIN_VOTING_PERIOD",
      "outputs": [
        {
          "internalType": "uint256",
          "name": "",
          "type": "uint256"
        }
      ],
      "payable": false,
      "stateMutability": "view",
      "type": "function"
    },
    {
      "constant": false,
      "inputs": [],
      "name": "_acceptAdmin",
      "outputs": [],
      "payable": false,
      "stateMutability": "nonpayable",
      "type": "function"
    },
    {
      "constant": false,
      "inputs": [
        {
          "internalType": "address",
          "name": "governorAlpha",
          "type": "address"
        }
      ],
      "name": "_initiate",
      "outputs": [],
      "payable": false,
      "stateMutability": "nonpayable",
      "type": "function"
    },
    {
      "constant": false,
      "inputs": [
        {
          "internalType": "address",
          "name": "newGuardian",
          "type": "address"
        }
      ],
      "name": "_setGuardian",
      "outputs": [],
      "payable": false,
      "stateMutability": "nonpayable",
      "type": "function"
    },
    {
      "constant": false,
      "inputs": [
        {
          "internalType": "address",
          "name": "newPendingAdmin",
          "type": "address"
        }
      ],
      "name": "_setPendingAdmin",
      "outputs": [],
      "payable": false,
      "stateMutability": "nonpayable",
      "type": "function"
    },
    {
      "constant": false,
      "inputs": [
        {
          "internalType": "uint256",
          "name": "proposalMaxOperations_",
          "type": "uint256"
        }
      ],
      "name": "_setProposalMaxOperations",
      "outputs": [],
      "payable": false,
      "stateMutability": "nonpayable",
      "type": "function"
    },
    {
      "constant": false,
      "inputs": [
        {
          "internalType": "uint256",
          "name": "newProposalThreshold",
          "type": "uint256"
        }
      ],
      "name": "_setProposalThreshold",
      "outputs": [],
      "payable": false,
      "stateMutability": "nonpayable",
      "type": "function"
    },
    {
      "constant": false,
      "inputs": [
        {
          "internalType": "uint256",
          "name": "newVotingDelay",
          "type": "uint256"
        }
      ],
      "name": "_setVotingDelay",
      "outputs": [],
      "payable": false,
      "stateMutability": "nonpayable",
      "type": "function"
    },
    {
      "constant": false,
      "inputs": [
        {
          "internalType": "uint256",
          "name": "newVotingPeriod",
          "type": "uint256"
        }
      ],
      "name": "_setVotingPeriod",
      "outputs": [],
      "payable": false,
      "stateMutability": "nonpayable",
      "type": "function"
    },
    {
      "constant": true,
      "inputs": [],
      "name": "admin",
      "outputs": [
        {
          "internalType": "address",
          "name": "",
          "type": "address"
        }
      ],
      "payable": false,
      "stateMutability": "view",
      "type": "function"
    },
    {
      "constant": false,
      "inputs": [
        {
          "internalType": "uint256",
          "name": "proposalId",
          "type": "uint256"
        }
      ],
      "name": "cancel",
      "outputs": [],
      "payable": false,
      "stateMutability": "nonpayable",
      "type": "function"
    },
    {
      "constant": false,
      "inputs": [
        {
          "internalType": "uint256",
          "name": "proposalId",
          "type": "uint256"
        },
        {
          "internalType": "uint8",
          "name": "support",
          "type": "uint8"
        }
      ],
      "name": "castVote",
      "outputs": [],
      "payable": false,
      "stateMutability": "nonpayable",
      "type": "function"
    },
    {
      "constant": false,
      "inputs": [
        {
          "internalType": "uint256",
          "name": "proposalId",
          "type": "uint256"
        },
        {
          "internalType": "uint8",
          "name": "support",
          "type": "uint8"
        },
        {
          "internalType": "uint8",
          "name": "v",
          "type": "uint8"
        },
        {
          "internalType": "bytes32",
          "name": "r",
          "type": "bytes32"
        },
        {
          "internalType": "bytes32",
          "name": "s",
          "type": "bytes32"
        }
      ],
      "name": "castVoteBySig",
      "outputs": [],
      "payable": false,
      "stateMutability": "nonpayable",
      "type": "function"
    },
    {
      "constant": false,
      "inputs": [
        {
          "internalType": "uint256",
          "name": "proposalId",
          "type": "uint256"
        },
        {
          "internalType": "uint8",
          "name": "support",
          "type": "uint8"
        },
        {
          "internalType": "string",
          "name": "reason",
          "type": "string"
        }
      ],
      "name": "castVoteWithReason",
      "outputs": [],
      "payable": false,
      "stateMutability": "nonpayable",
      "type": "function"
    },
    {
      "constant": false,
      "inputs": [
        {
          "internalType": "uint256",
          "name": "proposalId",
          "type": "uint256"
        }
      ],
      "name": "execute",
      "outputs": [],
      "payable": true,
      "stateMutability": "payable",
      "type": "function"
    },
    {
      "constant": true,
      "inputs": [
        {
          "internalType": "uint256",
          "name": "proposalId",
          "type": "uint256"
        }
      ],
      "name": "getActions",
      "outputs": [
        {
          "internalType": "address[]",
          "name": "targets",
          "type": "address[]"
        },
        {
          "internalType": "uint256[]",
          "name": "values",
          "type": "uint256[]"
        },
        {
          "internalType": "string[]",
          "name": "signatures",
          "type": "string[]"
        },
        {
          "internalType": "bytes[]",
          "name": "calldatas",
          "type": "bytes[]"
        }
      ],
      "payable": false,
      "stateMutability": "view",
      "type": "function"
    },
    {
      "constant": true,
      "inputs": [
        {
          "internalType": "uint256",
          "name": "proposalId",
          "type": "uint256"
        },
        {
          "internalType": "address",
          "name": "voter",
          "type": "address"
        }
      ],
      "name": "getReceipt",
      "outputs": [
        {
          "components": [
            {
              "internalType": "bool",
              "name": "hasVoted",
              "type": "bool"
            },
            {
              "internalType": "uint8",
              "name": "support",
              "type": "uint8"
            },
            {
              "internalType": "uint96",
              "name": "votes",
              "type": "uint96"
            }
          ],
          "internalType": "struct GovernorBravoDelegateStorageV1.Receipt",
          "name": "",
          "type": "tuple"
        }
      ],
      "payable": false,
      "stateMutability": "view",
      "type": "function"
    },
    {
      "constant": true,
      "inputs": [],
      "name": "guardian",
      "outputs": [
        {
          "internalType": "address",
          "name": "",
          "type": "address"
        }
      ],
      "payable": false,
      "stateMutability": "view",
      "type": "function"
    },
    {
      "constant": true,
      "inputs": [],
      "name": "implementation",
      "outputs": [
        {
          "internalType": "address",
          "name": "",
          "type": "address"
        }
      ],
      "payable": false,
      "stateMutability": "view",
      "type": "function"
    },
    {
      "constant": true,
      "inputs": [],
      "name": "initialProposalId",
      "outputs": [
        {
          "internalType": "uint256",
          "name": "",
          "type": "uint256"
        }
      ],
      "payable": false,
      "stateMutability": "view",
      "type": "function"
    },
    {
      "constant": false,
      "inputs": [
        {
          "internalType": "address",
          "name": "timelock_",
          "type": "address"
        },
        {
          "internalType": "address",
          "name": "xvsVault_",
          "type": "address"
        },
        {
          "internalType": "uint256",
          "name": "votingPeriod_",
          "type": "uint256"
        },
        {
          "internalType": "uint256",
          "name": "votingDelay_",
          "type": "uint256"
        },
        {
          "internalType": "uint256",
          "name": "proposalThreshold_",
          "type": "uint256"
        },
        {
          "internalType": "address",
          "name": "guardian_",
          "type": "address"
        }
      ],
      "name": "initialize",
      "outputs": [],
      "payable": false,
      "stateMutability": "nonpayable",
      "type": "function"
    },
    {
      "constant": true,
      "inputs": [
        {
          "internalType": "address",
          "name": "",
          "type": "address"
        }
      ],
      "name": "latestProposalIds",
      "outputs": [
        {
          "internalType": "uint256",
          "name": "",
          "type": "uint256"
        }
      ],
      "payable": false,
      "stateMutability": "view",
      "type": "function"
    },
    {
      "constant": true,
      "inputs": [],
      "name": "name",
      "outputs": [
        {
          "internalType": "string",
          "name": "",
          "type": "string"
        }
      ],
      "payable": false,
      "stateMutability": "view",
      "type": "function"
    },
    {
      "constant": true,
      "inputs": [],
      "name": "pendingAdmin",
      "outputs": [
        {
          "internalType": "address",
          "name": "",
          "type": "address"
        }
      ],
      "payable": false,
      "stateMutability": "view",
      "type": "function"
    },
    {
      "constant": true,
      "inputs": [],
      "name": "proposalCount",
      "outputs": [
        {
          "internalType": "uint256",
          "name": "",
          "type": "uint256"
        }
      ],
      "payable": false,
      "stateMutability": "view",
      "type": "function"
    },
    {
      "constant": true,
      "inputs": [],
      "name": "proposalMaxOperations",
      "outputs": [
        {
          "internalType": "uint256",
          "name": "",
          "type": "uint256"
        }
      ],
      "payable": false,
      "stateMutability": "view",
      "type": "function"
    },
    {
      "constant": true,
      "inputs": [],
      "name": "proposalThreshold",
      "outputs": [
        {
          "internalType": "uint256",
          "name": "",
          "type": "uint256"
        }
      ],
      "payable": false,
      "stateMutability": "view",
      "type": "function"
    },
    {
      "constant": true,
      "inputs": [
        {
          "internalType": "uint256",
          "name": "",
          "type": "uint256"
        }
      ],
      "name": "proposals",
      "outputs": [
        {
          "internalType": "uint256",
          "name": "id",
          "type": "uint256"
        },
        {
          "internalType": "address",
          "name": "proposer",
          "type": "address"
        },
        {
          "internalType": "uint256",
          "name": "eta",
          "type": "uint256"
        },
        {
          "internalType": "uint256",
          "name": "startBlock",
          "type": "uint256"
        },
        {
          "internalType": "uint256",
          "name": "endBlock",
          "type": "uint256"
        },
        {
          "internalType": "uint256",
          "name": "forVotes",
          "type": "uint256"
        },
        {
          "internalType": "uint256",
          "name": "againstVotes",
          "type": "uint256"
        },
        {
          "internalType": "uint256",
          "name": "abstainVotes",
          "type": "uint256"
        },
        {
          "internalType": "bool",
          "name": "canceled",
          "type": "bool"
        },
        {
          "internalType": "bool",
          "name": "executed",
          "type": "bool"
        }
      ],
      "payable": false,
      "stateMutability": "view",
      "type": "function"
    },
    {
      "constant": false,
      "inputs": [
        {
          "internalType": "address[]",
          "name": "targets",
          "type": "address[]"
        },
        {
          "internalType": "uint256[]",
          "name": "values",
          "type": "uint256[]"
        },
        {
          "internalType": "string[]",
          "name": "signatures",
          "type": "string[]"
        },
        {
          "internalType": "bytes[]",
          "name": "calldatas",
          "type": "bytes[]"
        },
        {
          "internalType": "string",
          "name": "description",
          "type": "string"
        }
      ],
      "name": "propose",
      "outputs": [
        {
          "internalType": "uint256",
          "name": "",
          "type": "uint256"
        }
      ],
      "payable": false,
      "stateMutability": "nonpayable",
      "type": "function"
    },
    {
      "constant": false,
      "inputs": [
        {
          "internalType": "uint256",
          "name": "proposalId",
          "type": "uint256"
        }
      ],
      "name": "queue",
      "outputs": [],
      "payable": false,
      "stateMutability": "nonpayable",
      "type": "function"
    },
    {
      "constant": true,
      "inputs": [],
      "name": "quorumVotes",
      "outputs": [
        {
          "internalType": "uint256",
          "name": "",
          "type": "uint256"
        }
      ],
      "payable": false,
      "stateMutability": "view",
      "type": "function"
    },
    {
      "constant": true,
      "inputs": [
        {
          "internalType": "uint256",
          "name": "proposalId",
          "type": "uint256"
        }
      ],
      "name": "state",
      "outputs": [
        {
          "internalType": "enum GovernorBravoDelegateStorageV1.ProposalState",
          "name": "",
          "type": "uint8"
        }
      ],
      "payable": false,
      "stateMutability": "view",
      "type": "function"
    },
    {
      "constant": true,
      "inputs": [],
      "name": "timelock",
      "outputs": [
        {
          "internalType": "contract TimelockInterface",
          "name": "",
          "type": "address"
        }
      ],
      "payable": false,
      "stateMutability": "view",
      "type": "function"
    },
    {
      "constant": true,
      "inputs": [],
      "name": "votingDelay",
      "outputs": [
        {
          "internalType": "uint256",
          "name": "",
          "type": "uint256"
        }
      ],
      "payable": false,
      "stateMutability": "view",
      "type": "function"
    },
    {
      "constant": true,
      "inputs": [],
      "name": "votingPeriod",
      "outputs": [
        {
          "internalType": "uint256",
          "name": "",
          "type": "uint256"
        }
      ],
      "payable": false,
      "stateMutability": "view",
      "type": "function"
    },
    {
      "constant": true,
      "inputs": [],
      "name": "xvsVault",
      "outputs": [
        {
          "internalType": "contract XvsVaultInterface",
          "name": "",
          "type": "address"
        }
      ],
      "payable": false,
      "stateMutability": "view",
      "type": "function"
    }
  ],
  "transactionHash": "0xf3a6a8bfc3fbaf42826e6949b5f201d24795ba04e3b6ac27240fbe7e67a3a60d",
  "args": [],
  "solcInputHash": "56dc1f35cfb06e624526ce5e3cf221d6",
  "bytecode": "0x608060405234801561001057600080fd5b5061486f806100206000396000f3fe60806040526004361061025c5760003560e01c80635c60da1b11610144578063da95691a116100b6578063e48083fe1161007a578063e48083fe146106af578063e9c714f2146106c4578063f851a440146106d9578063f9d28b80146106ee578063fc4eee421461070e578063fe0d94c1146107235761025c565b8063da95691a1461060d578063ddf0b0091461062d578063deaaa7cc1461064d578063e23a9a5214610662578063e38e8c0f1461068f5761025c565b8063b112626311610108578063b112626314610579578063b1a5d12d1461058e578063b58131b0146105ae578063b71d1a0c146105c3578063d33219b4146105e3578063da35c664146105f85761025c565b80635c60da1b14610505578063791f5d231461051a5780637b3c71d31461052f5780637bdbe4d01461054f578063a64e024a146105645761025c565b8063215809ca116101dd5780633932abb1116101a15780633932abb11461044e5780633bccf4fd146104635780633e4f49e61461048357806340e58ee5146104b0578063452a9320146104d057806356781388146104e55761025c565b8063215809ca146103bd57806324bc1a64146103d257806325fd935a146103e757806326782247146103fc578063328dd9821461041e5761025c565b806317ba1b8b1161022457806317ba1b8b146103265780631b9ce575146103465780631dfb1b5a146103685780631ebcfefd1461038857806320606b70146103a85761025c565b8063013cf08b1461026157806302a251a3146102a057806306fdde03146102c25780630ea2d98c146102e457806317977c6114610306575b600080fd5b34801561026d57600080fd5b5061028161027c366004612d79565b610736565b6040516102979a99989796959493929190614586565b60405180910390f35b3480156102ac57600080fd5b506102b5610799565b6040516102979190614183565b3480156102ce57600080fd5b506102d761079f565b604051610297919061423f565b3480156102f057600080fd5b506103046102ff366004612d79565b6107cf565b005b34801561031257600080fd5b506102b5610321366004612b6f565b610879565b34801561033257600080fd5b50610304610341366004612d79565b61088b565b34801561035257600080fd5b5061035b61092f565b6040516102979190614223565b34801561037457600080fd5b50610304610383366004612d79565b61093e565b34801561039457600080fd5b506103046103a3366004612d79565b6109d2565b3480156103b457600080fd5b506102b5610a36565b3480156103c957600080fd5b506102b5610a4d565b3480156103de57600080fd5b506102b5610a53565b3480156103f357600080fd5b506102b5610a61565b34801561040857600080fd5b50610411610a6f565b6040516102979190614049565b34801561042a57600080fd5b5061043e610439366004612d79565b610a7e565b6040516102979493929190614136565b34801561045a57600080fd5b506102b5610d0d565b34801561046f57600080fd5b5061030461047e366004612e69565b610d13565b34801561048f57600080fd5b506104a361049e366004612d79565b610eeb565b6040516102979190614231565b3480156104bc57600080fd5b506103046104cb366004612d79565b611071565b3480156104dc57600080fd5b506104116112da565b3480156104f157600080fd5b50610304610500366004612dd1565b6112e9565b34801561051157600080fd5b50610411611333565b34801561052657600080fd5b506102b5611342565b34801561053b57600080fd5b5061030461054a366004612e01565b611350565b34801561055b57600080fd5b506102b56113a0565b34801561057057600080fd5b506102b56113a6565b34801561058557600080fd5b506102b56113ad565b34801561059a57600080fd5b506103046105a9366004612b95565b6113b4565b3480156105ba57600080fd5b506102b561156d565b3480156105cf57600080fd5b506103046105de366004612b6f565b611573565b3480156105ef57600080fd5b5061035b6115f0565b34801561060457600080fd5b506102b56115ff565b34801561061957600080fd5b506102b5610628366004612c1c565b611605565b34801561063957600080fd5b50610304610648366004612d79565b611a4e565b34801561065957600080fd5b506102b5611cca565b34801561066e57600080fd5b5061068261067d366004612d97565b611cd6565b60405161029791906144d0565b34801561069b57600080fd5b506103046106aa366004612b6f565b611d43565b3480156106bb57600080fd5b506102b5611dfb565b3480156106d057600080fd5b50610304611e00565b3480156106e557600080fd5b50610411611ede565b3480156106fa57600080fd5b50610304610709366004612b6f565b611eed565b34801561071a57600080fd5b506102b5612013565b610304610731366004612d79565b612019565b600a60208190526000918252604090912080546001820154600283015460078401546008850154600986015496860154600b870154600c9097015495976001600160a01b0390951696939592949193919290919060ff808216916101009004168a565b60045481565b6040518060400160405280601481526020017356656e757320476f7665726e6f7220427261766f60601b81525081565b6000546001600160a01b031633146108025760405162461bcd60e51b81526004016107f990614290565b60405180910390fd5b61708081101580156108175750620627008111155b6108335760405162461bcd60e51b81526004016107f9906142d0565b60048054908290556040517f7e3f7f0708a84de9203036abaa450dccc85ad5ff52f78c170f3edb55cf5e88289061086d908390859061460c565b60405180910390a15050565b600b6020526000908152604090205481565b6000546001600160a01b031633146108b55760405162461bcd60e51b81526004016107f990614470565b691fc3842bd1f071c0000081101580156108d95750693f870857a3e0e38000008111155b6108f55760405162461bcd60e51b81526004016107f990614380565b60058054908290556040517fccb45da8d5717e6c4544694297c4ba5cf151d455c9bb0ed4fc7a38411bc054619061086d908390859061460c565b6009546001600160a01b031681565b6000546001600160a01b031633146109685760405162461bcd60e51b81526004016107f9906142b0565b6001811015801561097c5750620313808111155b6109985760405162461bcd60e51b81526004016107f990614310565b60038054908290556040517fc565b045403dc03c2eea82b81a0465edad9e2e7fc4d97e11421c209da93d7a939061086d908390859061460c565b6000546001600160a01b031633146109fc5760405162461bcd60e51b81526004016107f990614420565b600c8054908290556040517fd03b3c3c5c1446bcdd31423061041c94ca3bc5450fe7ccfb0f636f4c420de87e9061086d908390859061460c565b604051610a429061403e565b604051809103902081565b61708081565b697f0e10af47c1c700000081565b693f870857a3e0e380000081565b6001546001600160a01b031681565b6060806060806000600a600087815260200190815260200160002090508060030181600401826005018360060183805480602002602001604051908101604052809291908181526020018280548015610b0057602002820191906000526020600020905b81546001600160a01b03168152600190910190602001808311610ae2575b5050505050935082805480602002602001604051908101604052809291908181526020018280548015610b5257602002820191906000526020600020905b815481526020019060010190808311610b3e575b5050505050925081805480602002602001604051908101604052809291908181526020016000905b82821015610c255760008481526020908190208301805460408051601f6002600019610100600187161502019094169390930492830185900485028101850190915281815292830182828015610c115780601f10610be657610100808354040283529160200191610c11565b820191906000526020600020905b815481529060010190602001808311610bf457829003601f168201915b505050505081526020019060010190610b7a565b50505050915080805480602002602001604051908101604052809291908181526020016000905b82821015610cf75760008481526020908190208301805460408051601f6002600019610100600187161502019094169390930492830185900485028101850190915281815292830182828015610ce35780601f10610cb857610100808354040283529160200191610ce3565b820191906000526020600020905b815481529060010190602001808311610cc657829003601f168201915b505050505081526020019060010190610c4c565b5050505090509450945094509450509193509193565b60035481565b6000604051610d219061403e565b60408051918290038220828201909152601482527356656e757320476f7665726e6f7220427261766f60601b6020909201919091527f157d76627a3b71c0167806f5879f7a61d3e301322f3a3b9f900315f15937671a610d7f6121d2565b30604051602001610d939493929190614191565b6040516020818303038152906040528051906020012090506000604051610db990614002565b604051908190038120610dd291899089906020016141c6565b60405160208183030381529060405280519060200120905060008282604051602001610dff92919061400d565b604051602081830303815290604052805190602001209050600060018288888860405160008152602001604052604051610e3c94939291906141ee565b6020604051602081039080840390855afa158015610e5e573d6000803e3d6000fd5b5050604051601f1901519150506001600160a01b038116610e915760405162461bcd60e51b81526004016107f990614340565b806001600160a01b03167fb8e138887d0aa13bab447e82de9d5c1777041ecd21ca36ba824ff1e6c07ddda48a8a610ec9858e8e6121d7565b604051610ed893929190614660565b60405180910390a2505050505050505050565b60008160075410158015610f00575060065482115b610f1c5760405162461bcd60e51b81526004016107f990614480565b6000828152600a60205260409020600c81015460ff1615610f4157600291505061106c565b80600701544311610f5657600091505061106c565b80600801544311610f6b57600191505061106c565b80600a01548160090154111580610f8f5750697f0e10af47c1c70000008160090154105b15610f9e57600391505061106c565b6002810154610fb157600491505061106c565b600c810154610100900460ff1615610fcd57600791505061106c565b6002810154600854604080516360d143f160e11b8152905161105693926001600160a01b03169163c1a287e2916004808301926020929190829003018186803b15801561101957600080fd5b505afa15801561102d573d6000803e3d6000fd5b505050506040513d601f19601f820116820180604052506110519190810190612d26565b6123c8565b421061106657600691505061106c565b60059150505b919050565b600761107c82610eeb565b600781111561108757fe5b14156110a55760405162461bcd60e51b81526004016107f990614460565b6000818152600a60205260409020600d546001600160a01b03163314806110d8575060018101546001600160a01b031633145b8061118257506005546009546001838101546001600160a01b039283169263782d6fe19291169061110a9043906123ed565b6040518363ffffffff1660e01b815260040161112792919061408d565b60206040518083038186803b15801561113f57600080fd5b505afa158015611153573d6000803e3d6000fd5b505050506040513d601f19601f820116820180604052506111779190810190612ed1565b6001600160601b0316105b61119e5760405162461bcd60e51b81526004016107f9906143e0565b600c8101805460ff1916600117905560005b60038201548110156112aa576008546003830180546001600160a01b039092169163591fcdfe9190849081106111e257fe5b6000918252602090912001546004850180546001600160a01b03909216918590811061120a57fe5b906000526020600020015485600501858154811061122457fe5b9060005260206000200186600601868154811061123d57fe5b9060005260206000200187600201546040518663ffffffff1660e01b815260040161126c9594939291906140f5565b600060405180830381600087803b15801561128657600080fd5b505af115801561129a573d6000803e3d6000fd5b5050600190920191506111b09050565b507f789cf55be980739dad1d0699b93b58e806b51c9d96619bfa8fe0a28abaa7b30c8260405161086d9190614183565b600d546001600160a01b031681565b337fb8e138887d0aa13bab447e82de9d5c1777041ecd21ca36ba824ff1e6c07ddda483836113188483836121d7565b60405161132793929190614660565b60405180910390a25050565b6002546001600160a01b031681565b691fc3842bd1f071c0000081565b337fb8e138887d0aa13bab447e82de9d5c1777041ecd21ca36ba824ff1e6c07ddda4858561137f8483836121d7565b868660405161139295949392919061461a565b60405180910390a250505050565b600c5481565b6206270081565b6203138081565b6008546001600160a01b0316156113dd5760405162461bcd60e51b81526004016107f990614260565b6000546001600160a01b031633146114075760405162461bcd60e51b81526004016107f990614370565b6001600160a01b03861661142d5760405162461bcd60e51b81526004016107f9906142a0565b6001600160a01b0385166114535760405162461bcd60e51b81526004016107f990614300565b61708084101580156114685750620627008411155b6114845760405162461bcd60e51b81526004016107f990614490565b600183101580156114985750620313808311155b6114b45760405162461bcd60e51b81526004016107f990614350565b691fc3842bd1f071c0000082101580156114d85750693f870857a3e0e38000008211155b6114f45760405162461bcd60e51b81526004016107f990614320565b6001600160a01b03811661151a5760405162461bcd60e51b81526004016107f9906143f0565b600880546001600160a01b039788166001600160a01b0319918216179091556009805496881696821696909617909555600493909355600391909155600555600a600c55600d8054919093169116179055565b60055481565b6000546001600160a01b0316331461159d5760405162461bcd60e51b81526004016107f990614270565b600180546001600160a01b038381166001600160a01b03198316179092556040519116907fca4f2f25d0898edd99413412fb94012f9e54ec8142f9b093e7720646a95b16a99061086d9083908590614072565b6008546001600160a01b031681565b60075481565b60006006546000141561162a5760405162461bcd60e51b81526004016107f9906142c0565b6005546009546001600160a01b031663782d6fe13361164a4360016123ed565b6040518363ffffffff1660e01b8152600401611667929190614057565b60206040518083038186803b15801561167f57600080fd5b505afa158015611693573d6000803e3d6000fd5b505050506040513d601f19601f820116820180604052506116b79190810190612ed1565b6001600160601b0316116116dd5760405162461bcd60e51b81526004016107f990614450565b845186511480156116ef575083518651145b80156116fc575082518651145b6117185760405162461bcd60e51b81526004016107f990614360565b85516117365760405162461bcd60e51b81526004016107f9906143c0565b600c54865111156117595760405162461bcd60e51b81526004016107f990614400565b336000908152600b602052604090205480156117d657600061177a82610eeb565b9050600181600781111561178a57fe5b14156117a85760405162461bcd60e51b81526004016107f990614430565b60008160078111156117b657fe5b14156117d45760405162461bcd60e51b81526004016107f990614410565b505b60006117e4436003546123c8565b905060006117f4826004546123c8565b6007805460010190559050611807612574565b604051806101c001604052806007548152602001336001600160a01b03168152602001600081526020018b81526020018a815260200189815260200188815260200184815260200183815260200160008152602001600081526020016000815260200160001515815260200160001515815250905080600a6000836000015181526020019081526020016000206000820151816000015560208201518160010160006101000a8154816001600160a01b0302191690836001600160a01b031602179055506040820151816002015560608201518160030190805190602001906118f19291906125f0565b506080820151805161190d916004840191602090910190612655565b5060a0820151805161192991600584019160209091019061269c565b5060c082015180516119459160068401916020909101906126f5565b5060e082015181600701556101008201518160080155610120820151816009015561014082015181600a015561016082015181600b015561018082015181600c0160006101000a81548160ff0219169083151502179055506101a082015181600c0160016101000a81548160ff0219169083151502179055509050508060000151600b600083602001516001600160a01b03166001600160a01b03168152602001908152602001600020819055507f7d84a6263ae0d98d3329bd7b46bb4e8d6f98cd35a7adb45c274c8b7fd5ebd5e08160000151338c8c8c8c89898e604051611a36999897969594939291906144de565b60405180910390a15193505050505b95945050505050565b6004611a5982610eeb565b6007811115611a6457fe5b14611a815760405162461bcd60e51b81526004016107f990614390565b6000818152600a602090815260408083206008548251630d48571f60e31b81529251919493611adb9342936001600160a01b0390931692636a42b8f892600480840193919291829003018186803b15801561101957600080fd5b905060005b6003830154811015611c8357611c7b836003018281548110611afe57fe5b6000918252602090912001546004850180546001600160a01b039092169184908110611b2657fe5b9060005260206000200154856005018481548110611b4057fe5b600091825260209182902001805460408051601f6002600019610100600187161502019094169390930492830185900485028101850190915281815292830182828015611bce5780601f10611ba357610100808354040283529160200191611bce565b820191906000526020600020905b815481529060010190602001808311611bb157829003601f168201915b5050505050866006018581548110611be257fe5b600091825260209182902001805460408051601f6002600019610100600187161502019094169390930492830185900485028101850190915281815292830182828015611c705780601f10611c4557610100808354040283529160200191611c70565b820191906000526020600020905b815481529060010190602001808311611c5357829003601f168201915b505050505086612415565b600101611ae0565b50600282018190556040517f9a2e42fd6722813d69113e7d0079d3d940171428df7373df9c7f7617cfda289290611cbd908590849061460c565b60405180910390a1505050565b604051610a4290614002565b611cde61274e565b506000828152600a602090815260408083206001600160a01b0385168452600d018252918290208251606081018452905460ff8082161515835261010082041692820192909252620100009091046001600160601b0316918101919091525b92915050565b600d546001600160a01b0316331480611d6657506000546001600160a01b031633145b611d825760405162461bcd60e51b81526004016107f9906144b0565b6001600160a01b038116611da85760405162461bcd60e51b81526004016107f9906144a0565b600d80546001600160a01b038381166001600160a01b03198316179092556040519116907f08fdaf06427a2010e5958f4329b566993472d14ce81d3f16ce7f2a2660da98e39061086d9083908590614072565b600181565b6001546001600160a01b031633148015611e1957503315155b611e355760405162461bcd60e51b81526004016107f9906143d0565b60008054600180546001600160a01b038082166001600160a01b03198086168217968790559092169092556040519282169390927ff9ffabca9c8276e99321725bcb43fb076a6c66a54b7f21c4e8146d8519b417dc92611e99928692911690614072565b60405180910390a16001546040517fca4f2f25d0898edd99413412fb94012f9e54ec8142f9b093e7720646a95b16a99161086d9184916001600160a01b031690614072565b6000546001600160a01b031681565b6000546001600160a01b03163314611f175760405162461bcd60e51b81526004016107f990614440565b60065415611f375760405162461bcd60e51b81526004016107f9906143b0565b806001600160a01b031663da35c6646040518163ffffffff1660e01b8152600401602060405180830381600087803b158015611f7257600080fd5b505af1158015611f86573d6000803e3d6000fd5b505050506040513d601f19601f82011682018060405250611faa9190810190612d26565b600781905560065560085460408051630e18b68160e01b815290516001600160a01b0390921691630e18b6819160048082019260009290919082900301818387803b158015611ff857600080fd5b505af115801561200c573d6000803e3d6000fd5b5050505050565b60065481565b600561202482610eeb565b600781111561202f57fe5b1461204c5760405162461bcd60e51b81526004016107f990614330565b6000818152600a60205260408120600c8101805461ff001916610100179055905b60038201548110156121a2576008546004830180546001600160a01b0390921691630825f38f91908490811061209f57fe5b90600052602060002001548460030184815481106120b957fe5b6000918252602090912001546004860180546001600160a01b0390921691869081106120e157fe5b90600052602060002001548660050186815481106120fb57fe5b9060005260206000200187600601878154811061211457fe5b9060005260206000200188600201546040518763ffffffff1660e01b81526004016121439594939291906140f5565b6000604051808303818588803b15801561215c57600080fd5b505af1158015612170573d6000803e3d6000fd5b50505050506040513d6000823e601f3d908101601f191682016040526121999190810190612d44565b5060010161206d565b507f712ae1383f79ac853f8d882153778e0260ef8f03b504e2866e0593e04d2b291f8260405161086d9190614183565b465b90565b600060016121e484610eeb565b60078111156121ef57fe5b1461220c5760405162461bcd60e51b81526004016107f9906142e0565b60028260ff1611156122305760405162461bcd60e51b81526004016107f990614250565b6000838152600a602090815260408083206001600160a01b0388168452600d8101909252909120805460ff16156122795760405162461bcd60e51b81526004016107f9906142f0565b600954600783015460405163782d6fe160e01b81526000926001600160a01b03169163782d6fe1916122af918b9160040161408d565b60206040518083038186803b1580156122c757600080fd5b505afa1580156122db573d6000803e3d6000fd5b505050506040513d601f19601f820116820180604052506122ff9190810190612ed1565b905060ff851661232a5761232083600a0154826001600160601b03166123c8565b600a840155612380565b8460ff16600114156123575761234d8360090154826001600160601b03166123c8565b6009840155612380565b8460ff16600214156123805761237a83600b0154826001600160601b03166123c8565b600b8401555b8154600160ff199091161761ff00191661010060ff871602176dffffffffffffffffffffffff00001916620100006001600160601b03831602179091559150505b9392505050565b6000828201838110156123c15760405162461bcd60e51b81526004016107f9906143a0565b60008282111561240f5760405162461bcd60e51b81526004016107f9906144c0565b50900390565b6008546040516001600160a01b039091169063f2b0653790612443908890889088908890889060200161409b565b604051602081830303815290604052805190602001206040518263ffffffff1660e01b81526004016124759190614183565b60206040518083038186803b15801561248d57600080fd5b505afa1580156124a1573d6000803e3d6000fd5b505050506040513d601f19601f820116820180604052506124c59190810190612d08565b156124e25760405162461bcd60e51b81526004016107f990614280565b600854604051633a66f90160e01b81526001600160a01b0390911690633a66f9019061251a908890889088908890889060040161409b565b602060405180830381600087803b15801561253457600080fd5b505af1158015612548573d6000803e3d6000fd5b505050506040513d601f19601f8201168201806040525061256c9190810190612d26565b505050505050565b604051806101c001604052806000815260200160006001600160a01b03168152602001600081526020016060815260200160608152602001606081526020016060815260200160008152602001600081526020016000815260200160008152602001600081526020016000151581526020016000151581525090565b828054828255906000526020600020908101928215612645579160200282015b8281111561264557825182546001600160a01b0319166001600160a01b03909116178255602090920191600190910190612610565b5061265192915061276e565b5090565b828054828255906000526020600020908101928215612690579160200282015b82811115612690578251825591602001919060010190612675565b50612651929150612792565b8280548282559060005260206000209081019282156126e9579160200282015b828111156126e957825180516126d99184916020909101906127ac565b50916020019190600101906126bc565b50612651929150612819565b828054828255906000526020600020908101928215612742579160200282015b8281111561274257825180516127329184916020909101906127ac565b5091602001919060010190612715565b5061265192915061283c565b604080516060810182526000808252602082018190529181019190915290565b6121d491905b808211156126515780546001600160a01b0319168155600101612774565b6121d491905b808211156126515760008155600101612798565b828054600181600116156101000203166002900490600052602060002090601f016020900481019282601f106127ed57805160ff1916838001178555612690565b828001600101855582156126905791820182811115612690578251825591602001919060010190612675565b6121d491905b80821115612651576000612833828261285f565b5060010161281f565b6121d491905b80821115612651576000612856828261285f565b50600101612842565b50805460018160011615610100020316600290046000825580601f1061288557506128a3565b601f0160209004906000526020600020908101906128a39190612792565b50565b8035611d3d816147d4565b600082601f8301126128c257600080fd5b81356128d56128d0826146c0565b614699565b915081818352602084019350602081019050838560208402820111156128fa57600080fd5b60005b83811015612926578161291088826128a6565b84525060209283019291909101906001016128fd565b5050505092915050565b600082601f83011261294157600080fd5b813561294f6128d0826146c0565b81815260209384019390925082018360005b8381101561292657813586016129778882612a7b565b8452506020928301929190910190600101612961565b600082601f83011261299e57600080fd5b81356129ac6128d0826146c0565b81815260209384019390925082018360005b8381101561292657813586016129d48882612a7b565b84525060209283019291909101906001016129be565b600082601f8301126129fb57600080fd5b8135612a096128d0826146c0565b91508181835260208401935060208101905083856020840282011115612a2e57600080fd5b60005b838110156129265781612a448882612a65565b8452506020928301929190910190600101612a31565b8051611d3d816147e8565b8035611d3d816147f1565b8051611d3d816147f1565b600082601f830112612a8c57600080fd5b8135612a9a6128d0826146e1565b91508082526020830160208301858383011115612ab657600080fd5b612ac1838284614788565b50505092915050565b600082601f830112612adb57600080fd5b8151612ae96128d0826146e1565b91508082526020830160208301858383011115612b0557600080fd5b612ac1838284614794565b60008083601f840112612b2257600080fd5b50813567ffffffffffffffff811115612b3a57600080fd5b602083019150836001820283011115612b5257600080fd5b9250929050565b8035611d3d816147fa565b8051611d3d81614803565b600060208284031215612b8157600080fd5b6000612b8d84846128a6565b949350505050565b60008060008060008060c08789031215612bae57600080fd5b6000612bba89896128a6565b9650506020612bcb89828a016128a6565b9550506040612bdc89828a01612a65565b9450506060612bed89828a01612a65565b9350506080612bfe89828a01612a65565b92505060a0612c0f89828a016128a6565b9150509295509295509295565b600080600080600060a08688031215612c3457600080fd5b853567ffffffffffffffff811115612c4b57600080fd5b612c57888289016128b1565b955050602086013567ffffffffffffffff811115612c7457600080fd5b612c80888289016129ea565b945050604086013567ffffffffffffffff811115612c9d57600080fd5b612ca98882890161298d565b935050606086013567ffffffffffffffff811115612cc657600080fd5b612cd288828901612930565b925050608086013567ffffffffffffffff811115612cef57600080fd5b612cfb88828901612a7b565b9150509295509295909350565b600060208284031215612d1a57600080fd5b6000612b8d8484612a5a565b600060208284031215612d3857600080fd5b6000612b8d8484612a70565b600060208284031215612d5657600080fd5b815167ffffffffffffffff811115612d6d57600080fd5b612b8d84828501612aca565b600060208284031215612d8b57600080fd5b6000612b8d8484612a65565b60008060408385031215612daa57600080fd5b6000612db68585612a65565b9250506020612dc7858286016128a6565b9150509250929050565b60008060408385031215612de457600080fd5b6000612df08585612a65565b9250506020612dc785828601612b59565b60008060008060608587031215612e1757600080fd5b6000612e238787612a65565b9450506020612e3487828801612b59565b935050604085013567ffffffffffffffff811115612e5157600080fd5b612e5d87828801612b10565b95989497509550505050565b600080600080600060a08688031215612e8157600080fd5b6000612e8d8888612a65565b9550506020612e9e88828901612b59565b9450506040612eaf88828901612b59565b9350506060612ec088828901612a65565b9250506080612cfb88828901612a65565b600060208284031215612ee357600080fd5b6000612b8d8484612b64565b6000612efb8383612f2a565b505060200190565b60006123c183836130cc565b6000612efb83836130b2565b612f2481614760565b82525050565b612f2481614728565b6000612f3e8261471b565b612f48818561471f565b9350612f5383614709565b8060005b83811015612f81578151612f6b8882612eef565b9750612f7683614709565b925050600101612f57565b509495945050505050565b6000612f978261471b565b612fa1818561471f565b935083602082028501612fb385614709565b8060005b85811015612fed5784840389528151612fd08582612f03565b9450612fdb83614709565b60209a909a0199925050600101612fb7565b5091979650505050505050565b60006130058261471b565b61300f818561471f565b93508360208202850161302185614709565b8060005b85811015612fed578484038952815161303e8582612f03565b945061304983614709565b60209a909a0199925050600101613025565b60006130668261471b565b613070818561471f565b935061307b83614709565b8060005b83811015612f815781516130938882612f0f565b975061309e83614709565b92505060010161307f565b612f2481614733565b612f24816121d4565b612f246130c7826121d4565b6121d4565b60006130d78261471b565b6130e1818561471f565b93506130f1818560208601614794565b6130fa816147c0565b9093019392505050565b600081546001811660008114613121576001811461314757613186565b607f6002830416613132818761471f565b60ff1984168152955050602085019250613186565b60028204613155818761471f565b95506131608561470f565b60005b8281101561317f57815488820152600190910190602001613163565b8701945050505b505092915050565b612f2481614767565b612f2481614772565b60006131ac838561471f565b93506131b9838584614788565b6130fa836147c0565b60006131cf60328361471f565b7f476f7665726e6f72427261766f3a3a63617374566f7465496e7465726e616c3a81527120696e76616c696420766f7465207479706560701b602082015260400192915050565b600061322360288361106c565b7f42616c6c6f742875696e743235362070726f706f73616c49642c75696e743820815267737570706f72742960c01b602082015260280192915050565b600061326d60338361471f565b7f476f7665726e6f72427261766f3a3a696e697469616c697a653a2063616e206f8152726e6c7920696e697469616c697a65206f6e636560681b602082015260400192915050565b60006132c2602a8361471f565b7f476f7665726e6f72427261766f3a5f73657450656e64696e6741646d696e3a2081526961646d696e206f6e6c7960b01b602082015260400192915050565b600061330e60558361471f565b7f476f7665726e6f72427261766f3a3a71756575654f72526576657274496e746581527f726e616c3a206964656e746963616c2070726f706f73616c20616374696f6e20602082015274616c7265616479207175657565642061742065746160581b604082015260600192915050565b600061338b602b8361471f565b7f476f7665726e6f72427261766f3a3a5f736574566f74696e67506572696f643a81526a2061646d696e206f6e6c7960a81b602082015260400192915050565b60006133d860338361471f565b60008051602061480d83398151915281527269642074696d656c6f636b206164647265737360681b602082015260400192915050565b600061341b602a8361471f565b7f476f7665726e6f72427261766f3a3a5f736574566f74696e6744656c61793a2081526961646d696e206f6e6c7960b01b602082015260400192915050565b600061346760318361471f565b7f476f7665726e6f72427261766f3a3a70726f706f73653a20476f7665726e6f7281527020427261766f206e6f742061637469766560781b602082015260400192915050565b60006134ba60028361106c565b61190160f01b815260020192915050565b60006134d860368361471f565b7f476f7665726e6f72427261766f3a3a5f736574566f74696e67506572696f643a815275081a5b9d985b1a59081d9bdd1a5b99c81c195c9a5bd960521b602082015260400192915050565b600061353060318361471f565b7f476f7665726e6f72427261766f3a3a63617374566f7465496e7465726e616c3a815270081d9bdd1a5b99c81a5cc818db1bdcd959607a1b602082015260400192915050565b600061358360348361471f565b7f476f7665726e6f72427261766f3a3a63617374566f7465496e7465726e616c3a815273081d9bdd195c88185b1c9958591e481d9bdd195960621b602082015260400192915050565b60006135d9602e8361471f565b60008051602061480d83398151915281526d696420787673206164647265737360901b602082015260400192915050565b600061361760348361471f565b7f476f7665726e6f72427261766f3a3a5f736574566f74696e6744656c61793a20815273696e76616c696420766f74696e672064656c617960601b602082015260400192915050565b600061366d60358361471f565b60008051602061480d8339815191528152741a59081c1c9bdc1bdcd85b081d1a1c995cda1bdb19605a1b602082015260400192915050565b60006136b260458361471f565b7f476f7665726e6f72427261766f3a3a657865637574653a2070726f706f73616c81527f2063616e206f6e6c7920626520657865637574656420696620697420697320716020820152641d595d595960da1b604082015260600192915050565b600061371f602f8361471f565b7f476f7665726e6f72427261766f3a3a63617374566f746542795369673a20696e81526e76616c6964207369676e617475726560881b602082015260400192915050565b6000613770602f8361471f565b60008051602061480d83398151915281526e696420766f74696e672064656c617960881b602082015260400192915050565b60006137af60448361471f565b7f476f7665726e6f72427261766f3a3a70726f706f73653a2070726f706f73616c81527f2066756e6374696f6e20696e666f726d6174696f6e206172697479206d69736d6020820152630c2e8c6d60e31b604082015260600192915050565b600061381b60258361471f565b7f476f7665726e6f72427261766f3a3a696e697469616c697a653a2061646d696e815264206f6e6c7960d81b602082015260400192915050565b600061386260408361471f565b7f476f7665726e6f72427261766f3a3a5f73657450726f706f73616c546872657381527f686f6c643a20696e76616c69642070726f706f73616c207468726573686f6c64602082015260400192915050565b60006138c160448361471f565b7f476f7665726e6f72427261766f3a3a71756575653a2070726f706f73616c206381527f616e206f6e6c79206265207175657565642069662069742069732073756363656020820152631959195960e21b604082015260600192915050565b600061392d60118361471f565b706164646974696f6e206f766572666c6f7760781b815260200192915050565b600061395a60438361106c565b7f454950373132446f6d61696e28737472696e67206e616d652c75696e7432353681527f20636861696e49642c6164647265737320766572696679696e67436f6e74726160208201526263742960e81b604082015260430192915050565b60006139c560308361471f565b7f476f7665726e6f72427261766f3a3a5f696e6974696174653a2063616e206f6e81526f6c7920696e697469617465206f6e636560801b602082015260400192915050565b6000613a17602c8361471f565b7f476f7665726e6f72427261766f3a3a70726f706f73653a206d7573742070726f81526b7669646520616374696f6e7360a01b602082015260400192915050565b6000613a65602e8361471f565b7f476f7665726e6f72427261766f3a5f61636365707441646d696e3a2070656e6481526d696e672061646d696e206f6e6c7960901b602082015260400192915050565b6000613ab5602f8361471f565b7f476f7665726e6f72427261766f3a3a63616e63656c3a2070726f706f7365722081526e18589bdd99481d1a1c995cda1bdb19608a1b602082015260400192915050565b6000613b06602b8361471f565b60008051602061480d83398151915281526a34b21033bab0b93234b0b760a91b602082015260400192915050565b6000613b4160288361471f565b7f476f7665726e6f72427261766f3a3a70726f706f73653a20746f6f206d616e7981526720616374696f6e7360c01b602082015260400192915050565b6000613b8b60598361471f565b7f476f7665726e6f72427261766f3a3a70726f706f73653a206f6e65206c69766581527f2070726f706f73616c207065722070726f706f7365722c20666f756e6420616e60208201527f20616c72656164792070656e64696e672070726f706f73616c00000000000000604082015260600192915050565b6000613c1060348361471f565b7f476f7665726e6f72427261766f3a3a5f73657450726f706f73616c4d61784f7081527365726174696f6e733a2061646d696e206f6e6c7960601b602082015260400192915050565b6000613c6660588361471f565b7f476f7665726e6f72427261766f3a3a70726f706f73653a206f6e65206c69766581527f2070726f706f73616c207065722070726f706f7365722c20666f756e6420616e60208201527f20616c7265616479206163746976652070726f706f73616c0000000000000000604082015260600192915050565b6000611d3d60008361471f565b6000613cf860248361471f565b7f476f7665726e6f72427261766f3a3a5f696e6974696174653a2061646d696e208152636f6e6c7960e01b602082015260400192915050565b6000613d3e603f8361471f565b7f476f7665726e6f72427261766f3a3a70726f706f73653a2070726f706f73657281527f20766f7465732062656c6f772070726f706f73616c207468726573686f6c6400602082015260400192915050565b6000613d9d60368361471f565b7f476f7665726e6f72427261766f3a3a63616e63656c3a2063616e6e6f742063618152751b98d95b08195e1958dd5d1959081c1c9bdc1bdcd85b60521b602082015260400192915050565b6000613df560308361471f565b7f476f7665726e6f72427261766f3a3a5f73657450726f706f73616c546872657381526f686f6c643a2061646d696e206f6e6c7960801b602082015260400192915050565b6000613e4760298361471f565b7f476f7665726e6f72427261766f3a3a73746174653a20696e76616c69642070728152681bdc1bdcd85b081a5960ba1b602082015260400192915050565b6000613e9260308361471f565b60008051602061480d83398151915281526f1a59081d9bdd1a5b99c81c195c9a5bd960821b602082015260400192915050565b6000613ed2603b8361471f565b7f476f7665726e6f72427261766f3a3a5f736574477561726469616e3a2063616e81527f6e6f74206c69766520776974686f7574206120677561726469616e0000000000602082015260400192915050565b6000613f3160338361471f565b7f476f7665726e6f72427261766f3a3a5f736574477561726469616e3a2061646d815272696e206f7220677561726469616e206f6e6c7960681b602082015260400192915050565b6000613f8660158361471f565b747375627472616374696f6e20756e646572666c6f7760581b815260200192915050565b80516060830190613fbb84826130a9565b506020820151613fce6020850182613fe7565b506040820151613fe16040850182613ff9565b50505050565b612f248161474e565b612f248161477d565b612f2481614754565b6000611d3d82613216565b6000614018826134ad565b915061402482856130bb565b60208201915061403482846130bb565b5060200192915050565b6000611d3d8261394d565b60208101611d3d8284612f2a565b604081016140658285612f1b565b6123c160208301846130b2565b604081016140808285612f2a565b6123c16020830184612f2a565b604081016140658285612f2a565b60a081016140a98288612f2a565b6140b660208301876130b2565b81810360408301526140c881866130cc565b905081810360608301526140dc81856130cc565b90506140eb60808301846130b2565b9695505050505050565b60a081016141038288612f2a565b61411060208301876130b2565b81810360408301526141228186613104565b905081810360608301526140dc8185613104565b608080825281016141478187612f33565b9050818103602083015261415b818661305b565b9050818103604083015261416f8185612ffa565b905081810360608301526140eb8184612f8c565b60208101611d3d82846130b2565b6080810161419f82876130b2565b6141ac60208301866130b2565b6141b960408301856130b2565b611a456060830184612f2a565b606081016141d482866130b2565b6141e160208301856130b2565b612b8d6040830184613fe7565b608081016141fc82876130b2565b6142096020830186613fe7565b61421660408301856130b2565b611a4560608301846130b2565b60208101611d3d828461318e565b60208101611d3d8284613197565b602080825281016123c181846130cc565b60208082528101611d3d816131c2565b60208082528101611d3d81613260565b60208082528101611d3d816132b5565b60208082528101611d3d81613301565b60208082528101611d3d8161337e565b60208082528101611d3d816133cb565b60208082528101611d3d8161340e565b60208082528101611d3d8161345a565b60208082528101611d3d816134cb565b60208082528101611d3d81613523565b60208082528101611d3d81613576565b60208082528101611d3d816135cc565b60208082528101611d3d8161360a565b60208082528101611d3d81613660565b60208082528101611d3d816136a5565b60208082528101611d3d81613712565b60208082528101611d3d81613763565b60208082528101611d3d816137a2565b60208082528101611d3d8161380e565b60208082528101611d3d81613855565b60208082528101611d3d816138b4565b60208082528101611d3d81613920565b60208082528101611d3d816139b8565b60208082528101611d3d81613a0a565b60208082528101611d3d81613a58565b60208082528101611d3d81613aa8565b60208082528101611d3d81613af9565b60208082528101611d3d81613b34565b60208082528101611d3d81613b7e565b60208082528101611d3d81613c03565b60208082528101611d3d81613c59565b60208082528101611d3d81613ceb565b60208082528101611d3d81613d31565b60208082528101611d3d81613d90565b60208082528101611d3d81613de8565b60208082528101611d3d81613e3a565b60208082528101611d3d81613e85565b60208082528101611d3d81613ec5565b60208082528101611d3d81613f24565b60208082528101611d3d81613f79565b60608101611d3d8284613faa565b61012081016144ed828c6130b2565b6144fa602083018b612f1b565b818103604083015261450c818a612f33565b90508181036060830152614520818961305b565b905081810360808301526145348188612ffa565b905081810360a08301526145488187612f8c565b905061455760c08301866130b2565b61456460e08301856130b2565b81810361010083015261457781846130cc565b9b9a5050505050505050505050565b6101408101614595828d6130b2565b6145a2602083018c612f2a565b6145af604083018b6130b2565b6145bc606083018a6130b2565b6145c960808301896130b2565b6145d660a08301886130b2565b6145e360c08301876130b2565b6145f060e08301866130b2565b6145fe6101008301856130a9565b6145776101208301846130a9565b6040810161406582856130b2565b6080810161462882886130b2565b6146356020830187613fe7565b6146426040830186613ff0565b81810360608301526146558184866131a0565b979650505050505050565b6080810161466e82866130b2565b61467b6020830185613fe7565b6146886040830184613ff0565b8181036060830152611a4581613cde565b60405181810167ffffffffffffffff811182821017156146b857600080fd5b604052919050565b600067ffffffffffffffff8211156146d757600080fd5b5060209081020190565b600067ffffffffffffffff8211156146f857600080fd5b506020601f91909101601f19160190565b60200190565b60009081526020902090565b5190565b90815260200190565b6000611d3d82614742565b151590565b8061106c816147ca565b6001600160a01b031690565b60ff1690565b6001600160601b031690565b6000611d3d825b6000611d3d82614728565b6000611d3d82614738565b6000611d3d82614754565b82818337506000910152565b60005b838110156147af578181015183820152602001614797565b83811115613fe15750506000910152565b601f01601f191690565b600881106128a357fe5b6147dd81614728565b81146128a357600080fd5b6147dd81614733565b6147dd816121d4565b6147dd8161474e565b6147dd8161475456fe476f7665726e6f72427261766f3a3a696e697469616c697a653a20696e76616ca365627a7a7231582026cafa4b7de2aceec92cf476951d4a26a3b3e4734772626de459af7a18e8656f6c6578706572696d656e74616cf564736f6c63430005100040",
  "devdoc": {
    "methods": {
      "_acceptAdmin()": {
        "details": "Admin function for pending admin to accept role and update admin"
      },
      "_initiate(address)": {
        "details": "Admin only. Sets initial proposal id which initiates the contract, ensuring a continuous proposal id count",
        "params": {
          "governorAlpha": "The address for the Governor to continue the proposal id count from"
        }
      },
      "_setGuardian(address)": {
        "params": {
          "newGuardian": "the address of the new guardian"
        }
      },
      "_setPendingAdmin(address)": {
        "details": "Admin function to begin change of admin. The newPendingAdmin must call `_acceptAdmin` to finalize the transfer.",
        "params": {
          "newPendingAdmin": "New pending admin."
        }
      },
      "_setProposalMaxOperations(uint256)": {
        "details": "Admin only.",
        "params": {
          "proposalMaxOperations_": "Max proposal operations"
        }
      },
      "_setProposalThreshold(uint256)": {
        "details": "newProposalThreshold must be greater than the hardcoded min",
        "params": {
          "newProposalThreshold": "new proposal threshold"
        }
      },
      "_setVotingDelay(uint256)": {
        "params": {
          "newVotingDelay": "new voting delay, in blocks"
        }
      },
      "_setVotingPeriod(uint256)": {
        "params": {
          "newVotingPeriod": "new voting period, in blocks"
        }
      },
      "cancel(uint256)": {
        "params": {
          "proposalId": "The id of the proposal to cancel"
        }
      },
      "castVote(uint256,uint8)": {
        "params": {
          "proposalId": "The id of the proposal to vote on",
          "support": "The support value for the vote. 0=against, 1=for, 2=abstain"
        }
      },
      "castVoteBySig(uint256,uint8,uint8,bytes32,bytes32)": {
        "details": "External function that accepts EIP-712 signatures for voting on proposals."
      },
      "castVoteWithReason(uint256,uint8,string)": {
        "params": {
          "proposalId": "The id of the proposal to vote on",
          "reason": "The reason given for the vote by the voter",
          "support": "The support value for the vote. 0=against, 1=for, 2=abstain"
        }
      },
      "execute(uint256)": {
        "params": {
          "proposalId": "The id of the proposal to execute"
        }
      },
      "getActions(uint256)": {
        "params": {
          "proposalId": "the id of the proposal"
        },
        "return": "Targets, values, signatures, and calldatas of the proposal actions"
      },
      "getReceipt(uint256,address)": {
        "params": {
          "proposalId": "the id of proposal",
          "voter": "The address of the voter"
        },
        "return": "The voting receipt"
      },
      "initialize(address,address,uint256,uint256,uint256,address)": {
        "params": {
          "proposalThreshold_": "The initial proposal threshold",
          "timelock_": "The address of the Timelock",
          "votingDelay_": "The initial voting delay",
          "votingPeriod_": "The initial voting period",
          "xvsVault_": "The address of the XvsVault"
        }
      },
      "propose(address[],uint256[],string[],bytes[],string)": {
        "params": {
          "calldatas": "Calldatas for proposal calls",
          "description": "String description of the proposal",
          "signatures": "Function signatures for proposal calls",
          "targets": "Target addresses for proposal calls",
          "values": "Eth values for proposal calls"
        },
        "return": "Proposal id of new proposal"
      },
      "queue(uint256)": {
        "params": {
          "proposalId": "The id of the proposal to queue"
        }
      },
      "state(uint256)": {
        "params": {
          "proposalId": "The id of the proposal"
        },
        "return": "Proposal state"
      }
    }
  },
  "userdoc": {
    "methods": {
      "_acceptAdmin()": {
        "notice": "Accepts transfer of admin rights. msg.sender must be pendingAdmin"
      },
      "_initiate(address)": {
        "notice": "Initiate the GovernorBravo contract"
      },
      "_setGuardian(address)": {
        "notice": "Sets the new governance guardian"
      },
      "_setPendingAdmin(address)": {
        "notice": "Begins transfer of admin rights. The newPendingAdmin must call `_acceptAdmin` to finalize the transfer."
      },
      "_setProposalMaxOperations(uint256)": {
        "notice": "Set max proposal operations"
      },
      "_setProposalThreshold(uint256)": {
        "notice": "Admin function for setting the proposal threshold"
      },
      "_setVotingDelay(uint256)": {
        "notice": "Admin function for setting the voting delay"
      },
      "_setVotingPeriod(uint256)": {
        "notice": "Admin function for setting the voting period"
      },
      "cancel(uint256)": {
        "notice": "Cancels a proposal only if sender is the proposer, or proposer delegates dropped below proposal threshold"
      },
      "castVote(uint256,uint8)": {
        "notice": "Cast a vote for a proposal"
      },
      "castVoteBySig(uint256,uint8,uint8,bytes32,bytes32)": {
        "notice": "Cast a vote for a proposal by signature"
      },
      "castVoteWithReason(uint256,uint8,string)": {
        "notice": "Cast a vote for a proposal with a reason"
      },
      "execute(uint256)": {
        "notice": "Executes a queued proposal if eta has passed"
      },
      "getActions(uint256)": {
        "notice": "Gets actions of a proposal"
      },
      "getReceipt(uint256,address)": {
        "notice": "Gets the receipt for a voter on a given proposal"
      },
      "initialize(address,address,uint256,uint256,uint256,address)": {
        "notice": "Used to initialize the contract during delegator contructor"
      },
      "propose(address[],uint256[],string[],bytes[],string)": {
        "notice": "Function used to propose a new proposal. Sender must have delegates above the proposal threshold"
      },
      "queue(uint256)": {
        "notice": "Queues a proposal of state succeeded"
      },
      "state(uint256)": {
        "notice": "Gets the state of a proposal"
      }
    }
  },
  "storageLayout": {
    "storage": [
      {
        "astId": 1647,
        "contract": "contracts/Governance/GovernorBravoDelegate.sol:GovernorBravoDelegate",
        "label": "admin",
        "offset": 0,
        "slot": "0",
        "type": "t_address"
      },
      {
        "astId": 1649,
        "contract": "contracts/Governance/GovernorBravoDelegate.sol:GovernorBravoDelegate",
        "label": "pendingAdmin",
        "offset": 0,
        "slot": "1",
        "type": "t_address"
      },
      {
        "astId": 1651,
        "contract": "contracts/Governance/GovernorBravoDelegate.sol:GovernorBravoDelegate",
        "label": "implementation",
        "offset": 0,
        "slot": "2",
        "type": "t_address"
      },
      {
        "astId": 1656,
        "contract": "contracts/Governance/GovernorBravoDelegate.sol:GovernorBravoDelegate",
        "label": "votingDelay",
        "offset": 0,
        "slot": "3",
        "type": "t_uint256"
      },
      {
        "astId": 1658,
        "contract": "contracts/Governance/GovernorBravoDelegate.sol:GovernorBravoDelegate",
        "label": "votingPeriod",
        "offset": 0,
        "slot": "4",
        "type": "t_uint256"
      },
      {
        "astId": 1660,
        "contract": "contracts/Governance/GovernorBravoDelegate.sol:GovernorBravoDelegate",
        "label": "proposalThreshold",
        "offset": 0,
        "slot": "5",
        "type": "t_uint256"
      },
      {
        "astId": 1662,
        "contract": "contracts/Governance/GovernorBravoDelegate.sol:GovernorBravoDelegate",
        "label": "initialProposalId",
        "offset": 0,
        "slot": "6",
        "type": "t_uint256"
      },
      {
        "astId": 1664,
        "contract": "contracts/Governance/GovernorBravoDelegate.sol:GovernorBravoDelegate",
        "label": "proposalCount",
        "offset": 0,
        "slot": "7",
        "type": "t_uint256"
      },
      {
        "astId": 1666,
        "contract": "contracts/Governance/GovernorBravoDelegate.sol:GovernorBravoDelegate",
        "label": "timelock",
        "offset": 0,
        "slot": "8",
        "type": "t_contract(TimelockInterface)1798"
      },
      {
        "astId": 1668,
        "contract": "contracts/Governance/GovernorBravoDelegate.sol:GovernorBravoDelegate",
        "label": "xvsVault",
        "offset": 0,
        "slot": "9",
        "type": "t_contract(XvsVaultInterface)1808"
      },
      {
        "astId": 1672,
        "contract": "contracts/Governance/GovernorBravoDelegate.sol:GovernorBravoDelegate",
        "label": "proposals",
        "offset": 0,
        "slot": "10",
        "type": "t_mapping(t_uint256,t_struct(Proposal)1713_storage)"
      },
      {
        "astId": 1676,
        "contract": "contracts/Governance/GovernorBravoDelegate.sol:GovernorBravoDelegate",
        "label": "latestProposalIds",
        "offset": 0,
        "slot": "11",
        "type": "t_mapping(t_address,t_uint256)"
      },
      {
        "astId": 1731,
        "contract": "contracts/Governance/GovernorBravoDelegate.sol:GovernorBravoDelegate",
        "label": "proposalMaxOperations",
        "offset": 0,
        "slot": "12",
        "type": "t_uint256"
      },
      {
        "astId": 1733,
        "contract": "contracts/Governance/GovernorBravoDelegate.sol:GovernorBravoDelegate",
        "label": "guardian",
        "offset": 0,
        "slot": "13",
        "type": "t_address"
      }
    ],
    "types": {
      "t_address": {
        "encoding": "inplace",
        "label": "address",
        "numberOfBytes": "20"
      },
      "t_array(t_address)dyn_storage": {
        "base": "t_address",
        "encoding": "dynamic_array",
        "label": "address[]",
        "numberOfBytes": "32"
      },
      "t_array(t_bytes_storage)dyn_storage": {
        "base": "t_bytes_storage",
        "encoding": "dynamic_array",
        "label": "bytes[]",
        "numberOfBytes": "32"
      },
      "t_array(t_string_storage)dyn_storage": {
        "base": "t_string_storage",
        "encoding": "dynamic_array",
        "label": "string[]",
        "numberOfBytes": "32"
      },
      "t_array(t_uint256)dyn_storage": {
        "base": "t_uint256",
        "encoding": "dynamic_array",
        "label": "uint256[]",
        "numberOfBytes": "32"
      },
      "t_bool": {
        "encoding": "inplace",
        "label": "bool",
        "numberOfBytes": "1"
      },
      "t_bytes_storage": {
        "encoding": "bytes",
        "label": "bytes",
        "numberOfBytes": "32"
      },
      "t_contract(TimelockInterface)1798": {
        "encoding": "inplace",
        "label": "contract TimelockInterface",
        "numberOfBytes": "20"
      },
      "t_contract(XvsVaultInterface)1808": {
        "encoding": "inplace",
        "label": "contract XvsVaultInterface",
        "numberOfBytes": "20"
      },
      "t_mapping(t_address,t_struct(Receipt)1720_storage)": {
        "encoding": "mapping",
        "key": "t_address",
        "label": "mapping(address => struct GovernorBravoDelegateStorageV1.Receipt)",
        "numberOfBytes": "32",
        "value": "t_struct(Receipt)1720_storage"
      },
      "t_mapping(t_address,t_uint256)": {
        "encoding": "mapping",
        "key": "t_address",
        "label": "mapping(address => uint256)",
        "numberOfBytes": "32",
        "value": "t_uint256"
      },
      "t_mapping(t_uint256,t_struct(Proposal)1713_storage)": {
        "encoding": "mapping",
        "key": "t_uint256",
        "label": "mapping(uint256 => struct GovernorBravoDelegateStorageV1.Proposal)",
        "numberOfBytes": "32",
        "value": "t_struct(Proposal)1713_storage"
      },
      "t_string_storage": {
        "encoding": "bytes",
        "label": "string",
        "numberOfBytes": "32"
      },
      "t_struct(Proposal)1713_storage": {
        "encoding": "inplace",
        "label": "struct GovernorBravoDelegateStorageV1.Proposal",
        "members": [
          {
            "astId": 1678,
            "contract": "contracts/Governance/GovernorBravoDelegate.sol:GovernorBravoDelegate",
            "label": "id",
            "offset": 0,
            "slot": "0",
            "type": "t_uint256"
          },
          {
            "astId": 1680,
            "contract": "contracts/Governance/GovernorBravoDelegate.sol:GovernorBravoDelegate",
            "label": "proposer",
            "offset": 0,
            "slot": "1",
            "type": "t_address"
          },
          {
            "astId": 1682,
            "contract": "contracts/Governance/GovernorBravoDelegate.sol:GovernorBravoDelegate",
            "label": "eta",
            "offset": 0,
            "slot": "2",
            "type": "t_uint256"
          },
          {
            "astId": 1685,
            "contract": "contracts/Governance/GovernorBravoDelegate.sol:GovernorBravoDelegate",
            "label": "targets",
            "offset": 0,
            "slot": "3",
            "type": "t_array(t_address)dyn_storage"
          },
          {
            "astId": 1688,
            "contract": "contracts/Governance/GovernorBravoDelegate.sol:GovernorBravoDelegate",
            "label": "values",
            "offset": 0,
            "slot": "4",
            "type": "t_array(t_uint256)dyn_storage"
          },
          {
            "astId": 1691,
            "contract": "contracts/Governance/GovernorBravoDelegate.sol:GovernorBravoDelegate",
            "label": "signatures",
            "offset": 0,
            "slot": "5",
            "type": "t_array(t_string_storage)dyn_storage"
          },
          {
            "astId": 1694,
            "contract": "contracts/Governance/GovernorBravoDelegate.sol:GovernorBravoDelegate",
            "label": "calldatas",
            "offset": 0,
            "slot": "6",
            "type": "t_array(t_bytes_storage)dyn_storage"
          },
          {
            "astId": 1696,
            "contract": "contracts/Governance/GovernorBravoDelegate.sol:GovernorBravoDelegate",
            "label": "startBlock",
            "offset": 0,
            "slot": "7",
            "type": "t_uint256"
          },
          {
            "astId": 1698,
            "contract": "contracts/Governance/GovernorBravoDelegate.sol:GovernorBravoDelegate",
            "label": "endBlock",
            "offset": 0,
            "slot": "8",
            "type": "t_uint256"
          },
          {
            "astId": 1700,
            "contract": "contracts/Governance/GovernorBravoDelegate.sol:GovernorBravoDelegate",
            "label": "forVotes",
            "offset": 0,
            "slot": "9",
            "type": "t_uint256"
          },
          {
            "astId": 1702,
            "contract": "contracts/Governance/GovernorBravoDelegate.sol:GovernorBravoDelegate",
            "label": "againstVotes",
            "offset": 0,
            "slot": "10",
            "type": "t_uint256"
          },
          {
            "astId": 1704,
            "contract": "contracts/Governance/GovernorBravoDelegate.sol:GovernorBravoDelegate",
            "label": "abstainVotes",
            "offset": 0,
            "slot": "11",
            "type": "t_uint256"
          },
          {
            "astId": 1706,
            "contract": "contracts/Governance/GovernorBravoDelegate.sol:GovernorBravoDelegate",
            "label": "canceled",
            "offset": 0,
            "slot": "12",
            "type": "t_bool"
          },
          {
            "astId": 1708,
            "contract": "contracts/Governance/GovernorBravoDelegate.sol:GovernorBravoDelegate",
            "label": "executed",
            "offset": 1,
            "slot": "12",
            "type": "t_bool"
          },
          {
            "astId": 1712,
            "contract": "contracts/Governance/GovernorBravoDelegate.sol:GovernorBravoDelegate",
            "label": "receipts",
            "offset": 0,
            "slot": "13",
            "type": "t_mapping(t_address,t_struct(Receipt)1720_storage)"
          }
        ],
        "numberOfBytes": "448"
      },
      "t_struct(Receipt)1720_storage": {
        "encoding": "inplace",
        "label": "struct GovernorBravoDelegateStorageV1.Receipt",
        "members": [
          {
            "astId": 1715,
            "contract": "contracts/Governance/GovernorBravoDelegate.sol:GovernorBravoDelegate",
            "label": "hasVoted",
            "offset": 0,
            "slot": "0",
            "type": "t_bool"
          },
          {
            "astId": 1717,
            "contract": "contracts/Governance/GovernorBravoDelegate.sol:GovernorBravoDelegate",
            "label": "support",
            "offset": 1,
            "slot": "0",
            "type": "t_uint8"
          },
          {
            "astId": 1719,
            "contract": "contracts/Governance/GovernorBravoDelegate.sol:GovernorBravoDelegate",
            "label": "votes",
            "offset": 2,
            "slot": "0",
            "type": "t_uint96"
          }
        ],
        "numberOfBytes": "32"
      },
      "t_uint256": {
        "encoding": "inplace",
        "label": "uint256",
        "numberOfBytes": "32"
      },
      "t_uint8": {
        "encoding": "inplace",
        "label": "uint8",
        "numberOfBytes": "1"
      },
      "t_uint96": {
        "encoding": "inplace",
        "label": "uint96",
        "numberOfBytes": "12"
      }
    }
  }
}