{
  "address": "0xb29Ebd8b64C6E39C009C2D43D98b2f94D1267204",
  "abi": [
    {
      "inputs": [
        {
          "internalType": "address",
          "name": "timelock_",
          "type": "address"
        },
        {
          "internalType": "address",
          "name": "xvsVault_",
          "type": "address"
        },
        {
          "internalType": "address",
          "name": "admin_",
          "type": "address"
        },
        {
          "internalType": "address",
          "name": "implementation_",
          "type": "address"
        },
        {
          "internalType": "uint256",
          "name": "votingPeriod_",
          "type": "uint256"
        },
        {
          "internalType": "uint256",
          "name": "votingDelay_",
          "type": "uint256"
        },
        {
          "internalType": "uint256",
          "name": "proposalThreshold_",
          "type": "uint256"
        },
        {
          "internalType": "address",
          "name": "guardian_",
          "type": "address"
        }
      ],
      "payable": false,
      "stateMutability": "nonpayable",
      "type": "constructor"
    },
    {
      "anonymous": false,
      "inputs": [
        {
          "indexed": false,
          "internalType": "address",
          "name": "oldAdmin",
          "type": "address"
        },
        {
          "indexed": false,
          "internalType": "address",
          "name": "newAdmin",
          "type": "address"
        }
      ],
      "name": "NewAdmin",
      "type": "event"
    },
    {
      "anonymous": false,
      "inputs": [
        {
          "indexed": false,
          "internalType": "address",
          "name": "oldGuardian",
          "type": "address"
        },
        {
          "indexed": false,
          "internalType": "address",
          "name": "newGuardian",
          "type": "address"
        }
      ],
      "name": "NewGuardian",
      "type": "event"
    },
    {
      "anonymous": false,
      "inputs": [
        {
          "indexed": false,
          "internalType": "address",
          "name": "oldImplementation",
          "type": "address"
        },
        {
          "indexed": false,
          "internalType": "address",
          "name": "newImplementation",
          "type": "address"
        }
      ],
      "name": "NewImplementation",
      "type": "event"
    },
    {
      "anonymous": false,
      "inputs": [
        {
          "indexed": false,
          "internalType": "address",
          "name": "oldPendingAdmin",
          "type": "address"
        },
        {
          "indexed": false,
          "internalType": "address",
          "name": "newPendingAdmin",
          "type": "address"
        }
      ],
      "name": "NewPendingAdmin",
      "type": "event"
    },
    {
      "anonymous": false,
      "inputs": [
        {
          "indexed": false,
          "internalType": "uint256",
          "name": "id",
          "type": "uint256"
        }
      ],
      "name": "ProposalCanceled",
      "type": "event"
    },
    {
      "anonymous": false,
      "inputs": [
        {
          "indexed": false,
          "internalType": "uint256",
          "name": "id",
          "type": "uint256"
        },
        {
          "indexed": false,
          "internalType": "address",
          "name": "proposer",
          "type": "address"
        },
        {
          "indexed": false,
          "internalType": "address[]",
          "name": "targets",
          "type": "address[]"
        },
        {
          "indexed": false,
          "internalType": "uint256[]",
          "name": "values",
          "type": "uint256[]"
        },
        {
          "indexed": false,
          "internalType": "string[]",
          "name": "signatures",
          "type": "string[]"
        },
        {
          "indexed": false,
          "internalType": "bytes[]",
          "name": "calldatas",
          "type": "bytes[]"
        },
        {
          "indexed": false,
          "internalType": "uint256",
          "name": "startBlock",
          "type": "uint256"
        },
        {
          "indexed": false,
          "internalType": "uint256",
          "name": "endBlock",
          "type": "uint256"
        },
        {
          "indexed": false,
          "internalType": "string",
          "name": "description",
          "type": "string"
        }
      ],
      "name": "ProposalCreated",
      "type": "event"
    },
    {
      "anonymous": false,
      "inputs": [
        {
          "indexed": false,
          "internalType": "uint256",
          "name": "id",
          "type": "uint256"
        }
      ],
      "name": "ProposalExecuted",
      "type": "event"
    },
    {
      "anonymous": false,
      "inputs": [
        {
          "indexed": false,
          "internalType": "uint256",
          "name": "oldMaxOperations",
          "type": "uint256"
        },
        {
          "indexed": false,
          "internalType": "uint256",
          "name": "newMaxOperations",
          "type": "uint256"
        }
      ],
      "name": "ProposalMaxOperationsUpdated",
      "type": "event"
    },
    {
      "anonymous": false,
      "inputs": [
        {
          "indexed": false,
          "internalType": "uint256",
          "name": "id",
          "type": "uint256"
        },
        {
          "indexed": false,
          "internalType": "uint256",
          "name": "eta",
          "type": "uint256"
        }
      ],
      "name": "ProposalQueued",
      "type": "event"
    },
    {
      "anonymous": false,
      "inputs": [
        {
          "indexed": false,
          "internalType": "uint256",
          "name": "oldProposalThreshold",
          "type": "uint256"
        },
        {
          "indexed": false,
          "internalType": "uint256",
          "name": "newProposalThreshold",
          "type": "uint256"
        }
      ],
      "name": "ProposalThresholdSet",
      "type": "event"
    },
    {
      "anonymous": false,
      "inputs": [
        {
          "indexed": true,
          "internalType": "address",
          "name": "voter",
          "type": "address"
        },
        {
          "indexed": false,
          "internalType": "uint256",
          "name": "proposalId",
          "type": "uint256"
        },
        {
          "indexed": false,
          "internalType": "uint8",
          "name": "support",
          "type": "uint8"
        },
        {
          "indexed": false,
          "internalType": "uint256",
          "name": "votes",
          "type": "uint256"
        },
        {
          "indexed": false,
          "internalType": "string",
          "name": "reason",
          "type": "string"
        }
      ],
      "name": "VoteCast",
      "type": "event"
    },
    {
      "anonymous": false,
      "inputs": [
        {
          "indexed": false,
          "internalType": "uint256",
          "name": "oldVotingDelay",
          "type": "uint256"
        },
        {
          "indexed": false,
          "internalType": "uint256",
          "name": "newVotingDelay",
          "type": "uint256"
        }
      ],
      "name": "VotingDelaySet",
      "type": "event"
    },
    {
      "anonymous": false,
      "inputs": [
        {
          "indexed": false,
          "internalType": "uint256",
          "name": "oldVotingPeriod",
          "type": "uint256"
        },
        {
          "indexed": false,
          "internalType": "uint256",
          "name": "newVotingPeriod",
          "type": "uint256"
        }
      ],
      "name": "VotingPeriodSet",
      "type": "event"
    },
    {
      "payable": true,
      "stateMutability": "payable",
      "type": "fallback"
    },
    {
      "constant": false,
      "inputs": [
        {
          "internalType": "address",
          "name": "implementation_",
          "type": "address"
        }
      ],
      "name": "_setImplementation",
      "outputs": [],
      "payable": false,
      "stateMutability": "nonpayable",
      "type": "function"
    },
    {
      "constant": true,
      "inputs": [],
      "name": "admin",
      "outputs": [
        {
          "internalType": "address",
          "name": "",
          "type": "address"
        }
      ],
      "payable": false,
      "stateMutability": "view",
      "type": "function"
    },
    {
      "constant": true,
      "inputs": [],
      "name": "implementation",
      "outputs": [
        {
          "internalType": "address",
          "name": "",
          "type": "address"
        }
      ],
      "payable": false,
      "stateMutability": "view",
      "type": "function"
    },
    {
      "constant": true,
      "inputs": [],
      "name": "pendingAdmin",
      "outputs": [
        {
          "internalType": "address",
          "name": "",
          "type": "address"
        }
      ],
      "payable": false,
      "stateMutability": "view",
      "type": "function"
    }
  ],
  "transactionHash": "0x8c87e7038645272a54b84de67b782c494b7383f7703779b9e4752506dd938297",
  "args": [
    "0x591c5CaB30F67c5fb2A7dcB7889c54a87Fe3B407",
    "0x3117F1f58c22d1c40D25a798239723dBF8c6e34A",
    "0x02FE5abFC9054C9E23B47c7743eE6F55b35E8470",
    "0x9e52E46B9EA5381f36EF77240C0b9273d79794eD",
    172800,
    1,
    "150000000000000000000000",
    "0x02FE5abFC9054C9E23B47c7743eE6F55b35E8470"
  ],
  "solcInputHash": "56dc1f35cfb06e624526ce5e3cf221d6",
  "bytecode": "0x60806040523480156200001157600080fd5b50604051620009963803806200099683398101604081905262000034916200023f565b600080546001600160a01b031916331790556040516200009e9086906200006a908b908b90899089908990899060240162000438565b60408051601f198184030181529190526020810180516001600160e01b0390811663b1a5d12d60e01b17909152620000e116565b620000b2856001600160e01b036200015d16565b5050600080546001600160a01b0319166001600160a01b039590951694909417909355506200053d9350505050565b60006060836001600160a01b031683604051620000ff919062000404565b600060405180830381855af49150503d80600081146200013c576040519150601f19603f3d011682016040523d82523d6000602084013e62000141565b606091505b5091509150600082141562000157573d60208201fd5b50505050565b6000546001600160a01b03163314620001935760405162461bcd60e51b81526004016200018a90620004b0565b60405180910390fd5b6001600160a01b038116620001bc5760405162461bcd60e51b81526004016200018a906200049e565b600280546001600160a01b038381166001600160a01b031983161792839055604051918116927fd604de94d45953f9138079ec1b82d533cb2160c906d1076d1f7ed54befbca97a9262000213928592169062000419565b60405180910390a15050565b80516200022c8162000518565b92915050565b80516200022c8162000532565b600080600080600080600080610100898b0312156200025d57600080fd5b60006200026b8b8b6200021f565b98505060206200027e8b828c016200021f565b9750506040620002918b828c016200021f565b9650506060620002a48b828c016200021f565b9550506080620002b78b828c0162000232565b94505060a0620002ca8b828c0162000232565b93505060c0620002dd8b828c0162000232565b92505060e0620002f08b828c016200021f565b9150509295985092959890939650565b6200030b81620004d4565b82525050565b60006200031e82620004c2565b6200032a8185620004c6565b93506200033c818560208601620004e9565b9290920192915050565b600062000355604a83620004cb565b6000805160206200097683398151915281527f656d656e746174696f6e3a20696e76616c696420696d706c656d656e746174696020820152696f6e206164647265737360b01b604082015260600192915050565b6000620003b8603683620004cb565b6000805160206200097683398151915281527f656d656e746174696f6e3a2061646d696e206f6e6c7900000000000000000000602082015260400192915050565b6200030b81620004e6565b600062000412828462000311565b9392505050565b6040810162000429828562000300565b62000412602083018462000300565b60c0810162000448828962000300565b62000457602083018862000300565b620004666040830187620003f9565b620004756060830186620003f9565b620004846080830185620003f9565b6200049360a083018462000300565b979650505050505050565b602080825281016200022c8162000346565b602080825281016200022c81620003a9565b5190565b919050565b90815260200190565b60006001600160a01b0382166200022c565b90565b60005b8381101562000506578181015183820152602001620004ec565b83811115620001575750506000910152565b6200052381620004d4565b81146200052f57600080fd5b50565b6200052381620004e6565b610429806200054d6000396000f3fe60806040526004361061003f5760003560e01c806326782247146100ba5780635c60da1b146100e5578063bb913f41146100fa578063f851a4401461011c575b6002546040516000916001600160a01b03169061005f9083903690610347565b600060405180830381855af49150503d806000811461009a576040519150601f19603f3d011682016040523d82523d6000602084013e61009f565b606091505b505090506040513d6000823e8180156100b6573d82f35b3d82fd5b3480156100c657600080fd5b506100cf610131565b6040516100dc9190610354565b60405180910390f35b3480156100f157600080fd5b506100cf610140565b34801561010657600080fd5b5061011a610115366004610229565b61014f565b005b34801561012857600080fd5b506100cf610209565b6001546001600160a01b031681565b6002546001600160a01b031681565b6000546001600160a01b031633146101825760405162461bcd60e51b815260040161017990610394565b60405180910390fd5b6001600160a01b0381166101a85760405162461bcd60e51b815260040161017990610384565b600280546001600160a01b038381166001600160a01b031983161792839055604051918116927fd604de94d45953f9138079ec1b82d533cb2160c906d1076d1f7ed54befbca97a926101fd9285921690610362565b60405180910390a15050565b6000546001600160a01b031681565b8035610223816103cf565b92915050565b60006020828403121561023b57600080fd5b60006102478484610218565b949350505050565b610258816103b2565b82525050565b600061026a83856103a4565b93506102778385846103c3565b50500190565b600061028a604a836103a9565b7f476f7665726e6f72427261766f44656c656761746f723a3a5f736574496d706c81527f656d656e746174696f6e3a20696e76616c696420696d706c656d656e746174696020820152696f6e206164647265737360b01b604082015260600192915050565b60006102fc6036836103a9565b7f476f7665726e6f72427261766f44656c656761746f723a3a5f736574496d706c815275656d656e746174696f6e3a2061646d696e206f6e6c7960501b602082015260400192915050565b600061024782848661025e565b60208101610223828461024f565b60408101610370828561024f565b61037d602083018461024f565b9392505050565b602080825281016102238161027d565b60208082528101610223816102ef565b919050565b90815260200190565b60006001600160a01b038216610223565b82818337506000910152565b6103d8816103b2565b81146103e357600080fd5b5056fea365627a7a723158204f0032b988e5801b08bac02abc8acd92e55ec790cf1c7bae252fcddf9d42bbdc6c6578706572696d656e74616cf564736f6c63430005100040476f7665726e6f72427261766f44656c656761746f723a3a5f736574496d706c",
  "devdoc": {
    "methods": {
      "_setImplementation(address)": {
        "params": {
          "implementation_": "The address of the new implementation for delegation"
        }
      }
    }
  },
  "userdoc": {
    "methods": {
      "_setImplementation(address)": {
        "notice": "Called by the admin to update the implementation of the delegator"
      }
    }
  },
  "storageLayout": {
    "storage": [
      {
        "astId": 1647,
        "contract": "contracts/Governance/GovernorBravoDelegator.sol:GovernorBravoDelegator",
        "label": "admin",
        "offset": 0,
        "slot": "0",
        "type": "t_address"
      },
      {
        "astId": 1649,
        "contract": "contracts/Governance/GovernorBravoDelegator.sol:GovernorBravoDelegator",
        "label": "pendingAdmin",
        "offset": 0,
        "slot": "1",
        "type": "t_address"
      },
      {
        "astId": 1651,
        "contract": "contracts/Governance/GovernorBravoDelegator.sol:GovernorBravoDelegator",
        "label": "implementation",
        "offset": 0,
        "slot": "2",
        "type": "t_address"
      }
    ],
    "types": {
      "t_address": {
        "encoding": "inplace",
        "label": "address",
        "numberOfBytes": "20"
      }
    }
  }
}