{
  "address": "0x8F192467323C5a84f9647896C838E6b233CCf910",
  "abi": [
    {
      "inputs": [
        {
          "internalType": "address",
          "name": "admin_",
          "type": "address"
        },
        {
          "internalType": "address payable",
          "name": "vBnb_",
          "type": "address"
        },
        {
          "internalType": "address",
          "name": "comptroller_",
          "type": "address"
        },
        {
          "internalType": "address",
          "name": "vaiController_",
          "type": "address"
        },
        {
          "internalType": "address",
          "name": "treasury_",
          "type": "address"
        },
        {
          "internalType": "uint256",
          "name": "treasuryPercentMantissa_",
          "type": "uint256"
        }
      ],
      "payable": false,
      "stateMutability": "nonpayable",
      "type": "constructor"
    },
    {
      "anonymous": false,
      "inputs": [
        {
          "indexed": false,
          "internalType": "address",
          "name": "liquidator",
          "type": "address"
        },
        {
          "indexed": false,
          "internalType": "address",
          "name": "borrower",
          "type": "address"
        },
        {
          "indexed": false,
          "internalType": "uint256",
          "name": "repayAmount",
          "type": "uint256"
        },
        {
          "indexed": false,
          "internalType": "address",
          "name": "vTokenCollateral",
          "type": "address"
        },
        {
          "indexed": false,
          "internalType": "uint256",
          "name": "seizeTokensForTreasury",
          "type": "uint256"
        },
        {
          "indexed": false,
          "internalType": "uint256",
          "name": "seizeTokensForLiquidator",
          "type": "uint256"
        }
      ],
      "name": "LiquidateBorrowedTokens",
      "type": "event"
    },
    {
      "anonymous": false,
      "inputs": [
        {
          "indexed": false,
          "internalType": "address",
          "name": "oldAdmin",
          "type": "address"
        },
        {
          "indexed": false,
          "internalType": "address",
          "name": "newAdmin",
          "type": "address"
        }
      ],
      "name": "NewAdmin",
      "type": "event"
    },
    {
      "anonymous": false,
      "inputs": [
        {
          "indexed": false,
          "internalType": "uint256",
          "name": "oldPercent",
          "type": "uint256"
        },
        {
          "indexed": false,
          "internalType": "uint256",
          "name": "newPercent",
          "type": "uint256"
        }
      ],
      "name": "NewLiquidationTreasuryPercent",
      "type": "event"
    },
    {
      "anonymous": false,
      "inputs": [
        {
          "indexed": false,
          "internalType": "address",
          "name": "oldPendingAdmin",
          "type": "address"
        },
        {
          "indexed": false,
          "internalType": "address",
          "name": "newPendingAdmin",
          "type": "address"
        }
      ],
      "name": "NewPendingAdmin",
      "type": "event"
    },
    {
      "constant": false,
      "inputs": [],
      "name": "_acceptAdmin",
      "outputs": [],
      "payable": false,
      "stateMutability": "nonpayable",
      "type": "function"
    },
    {
      "constant": true,
      "inputs": [],
      "name": "_notEntered",
      "outputs": [
        {
          "internalType": "bool",
          "name": "",
          "type": "bool"
        }
      ],
      "payable": false,
      "stateMutability": "view",
      "type": "function"
    },
    {
      "constant": false,
      "inputs": [
        {
          "internalType": "address",
          "name": "newPendingAdmin",
          "type": "address"
        }
      ],
      "name": "_setPendingAdmin",
      "outputs": [],
      "payable": false,
      "stateMutability": "nonpayable",
      "type": "function"
    },
    {
      "constant": true,
      "inputs": [],
      "name": "admin",
      "outputs": [
        {
          "internalType": "address",
          "name": "",
          "type": "address"
        }
      ],
      "payable": false,
      "stateMutability": "view",
      "type": "function"
    },
    {
      "constant": true,
      "inputs": [],
      "name": "isNativeTokenNonERC20",
      "outputs": [
        {
          "internalType": "bool",
          "name": "",
          "type": "bool"
        }
      ],
      "payable": false,
      "stateMutability": "view",
      "type": "function"
    },
    {
      "constant": false,
      "inputs": [
        {
          "internalType": "address",
          "name": "vToken",
          "type": "address"
        },
        {
          "internalType": "address",
          "name": "borrower",
          "type": "address"
        },
        {
          "internalType": "uint256",
          "name": "repayAmount",
          "type": "uint256"
        },
        {
          "internalType": "contract VToken",
          "name": "vTokenCollateral",
          "type": "address"
        }
      ],
      "name": "liquidateBorrow",
      "outputs": [],
      "payable": true,
      "stateMutability": "payable",
      "type": "function"
    },
    {
      "constant": true,
      "inputs": [],
      "name": "pendingAdmin",
      "outputs": [
        {
          "internalType": "address",
          "name": "",
          "type": "address"
        }
      ],
      "payable": false,
      "stateMutability": "view",
      "type": "function"
    },
    {
      "constant": false,
      "inputs": [
        {
          "internalType": "uint256",
          "name": "newTreasuryPercentMantissa",
          "type": "uint256"
        }
      ],
      "name": "setTreasuryPercent",
      "outputs": [],
      "payable": false,
      "stateMutability": "nonpayable",
      "type": "function"
    },
    {
      "constant": true,
      "inputs": [],
      "name": "treasury",
      "outputs": [
        {
          "internalType": "address",
          "name": "",
          "type": "address"
        }
      ],
      "payable": false,
      "stateMutability": "view",
      "type": "function"
    },
    {
      "constant": true,
      "inputs": [],
      "name": "treasuryPercentMantissa",
      "outputs": [
        {
          "internalType": "uint256",
          "name": "",
          "type": "uint256"
        }
      ],
      "payable": false,
      "stateMutability": "view",
      "type": "function"
    },
    {
      "constant": true,
      "inputs": [],
      "name": "vBnb",
      "outputs": [
        {
          "internalType": "contract VBNB",
          "name": "",
          "type": "address"
        }
      ],
      "payable": false,
      "stateMutability": "view",
      "type": "function"
    }
  ],
  "transactionHash": "0x03ff8ad8ce371033488c96fef28bfe35f94e85f310464b73cf062c1a5159863d",
  "args": [
    "0x02FE5abFC9054C9E23B47c7743eE6F55b35E8470",
    "0x0000000000000000000000000000000000000000",
    "0x83963a90B74E165df914b53Ed9A5e8B29F5550Bf",
    "0xBbB9358791f7804E86650a8062C057b3eFdD17f5",
    "0xcBdE600c47F0F81d30b5EFe96d52D816899AEA15",
    "50000000000000000"
  ],
  "solcInputHash": "1c9d8ec594ba847af2327f507736fb54",
  "bytecode": "0x60806040526003805460ff60a01b191690553480156200001e57600080fd5b506040516200199638038062001996833981810160405260c08110156200004457600080fd5b508051602082015160408301516060840151608085015160a090950151600080546001600160a01b0387166001600160a01b0319909116179055600180546001600160a81b031916600160a01b1790559394929391929091620000b0866001600160e01b036200014416565b620000c4846001600160e01b036200014416565b620000d8836001600160e01b036200014416565b620000ec826001600160e01b036200014416565b600280546001600160a01b03199081166001600160a01b0397881617909155600380548216958716959095179094556004805485169386169390931790925560058054909316931692909217905560065550620001a3565b6001600160a01b038116620001a0576040805162461bcd60e51b815260206004820152601960248201527f616464726573732073686f756c64206265206e6f6e7a65726f00000000000000604482015290519081900360640190fd5b50565b6117e380620001b36000396000f3fe60806040526004361061009c5760003560e01c80638e3525fc116100645780638e3525fc14610164578063adf9e1581461018b578063b71d1a0c146101b4578063d8438ae8146101e7578063e9c714f2146101fc578063f851a440146102115761009c565b806326782247146100a15780635ba3792d146100d257806361d027b3146100e757806364fd7078146100fc57806389a2bc251461013a575b600080fd5b3480156100ad57600080fd5b506100b6610226565b604080516001600160a01b039092168252519081900360200190f35b3480156100de57600080fd5b506100b6610235565b3480156100f357600080fd5b506100b6610244565b6101386004803603608081101561011257600080fd5b506001600160a01b03813581169160208101358216916040820135916060013516610253565b005b34801561014657600080fd5b506101386004803603602081101561015d57600080fd5b50356105b3565b34801561017057600080fd5b50610179610722565b60408051918252519081900360200190f35b34801561019757600080fd5b506101a0610728565b604080519115158252519081900360200190f35b3480156101c057600080fd5b50610138600480360360208110156101d757600080fd5b50356001600160a01b0316610738565b3480156101f357600080fd5b506101a06107f6565b34801561020857600080fd5b50610138610806565b34801561021d57600080fd5b506100b661091f565b6001546001600160a01b031681565b6002546001600160a01b031681565b6005546001600160a01b031681565b600154600160a01b900460ff1661029e576040805162461bcd60e51b815260206004820152600a6024820152691c994b595b9d195c995960b21b604482015290519081900360640190fd5b6001805460ff60a01b191690556102b48361092e565b604080516370a0823160e01b815230600482015290516000916001600160a01b038416916370a0823191602480820192602092909190829003018186803b1580156102fe57600080fd5b505afa158015610312573d6000803e3d6000fd5b505050506040513d602081101561032857600080fd5b50516002549091506001600160a01b0386811691161480156103535750600354600160a01b900460ff165b156104125734831461039b576040805162461bcd60e51b815260206004820152600c60248201526b1ddc9bdb99c8185b5bdd5b9d60a21b604482015290519081900360640190fd5b60025460408051635572051560e11b81526001600160a01b03878116600483015285811660248301529151919092169163aae40a2a91349160448082019260009290919082900301818588803b1580156103f457600080fd5b505af1158015610408573d6000803e3d6000fd5b5050505050610497565b3415610465576040805162461bcd60e51b815260206004820152601a60248201527f796f752073686f756c646e27742070617920666f722074686973000000000000604482015290519081900360640190fd5b6004546001600160a01b038681169116141561048b5761048684848461098c565b610497565b61049785858585610b10565b604080516370a0823160e01b815230600482015290516000916001600160a01b038516916370a0823191602480820192602092909190829003018186803b1580156104e157600080fd5b505afa1580156104f5573d6000803e3d6000fd5b505050506040513d602081101561050b57600080fd5b505190506000610521828463ffffffff610c7e16565b90506000806105308684610cc9565b604080513381526001600160a01b03808d1660208301528183018c90528a1660608201526080810184905260a0810183905290519294509092507fd71542567e4876e606f2a1dc04c1b26f3cf39cb975eb0a65aef3c98842410583919081900360c00190a150506001805460ff60a01b1916600160a01b17905550505050505050565b6000546001600160a01b03163314610607576040805162461bcd60e51b81526020600482015260126024820152711bdb9b1e4818591b5a5b88185b1b1bddd95960721b604482015290519081900360640190fd5b610699670de0b6b3a7640000600360009054906101000a90046001600160a01b03166001600160a01b0316634ada90af6040518163ffffffff1660e01b815260040160206040518083038186803b15801561066157600080fd5b505afa158015610675573d6000803e3d6000fd5b505050506040513d602081101561068b57600080fd5b50519063ffffffff610c7e16565b8111156106e0576040805162461bcd60e51b815260206004820152601060248201526f617070657469746520746f6f2062696760801b604482015290519081900360640190fd5b600654604080519182526020820183905280517f0e9a1641744b21c49e4183ab9ce941d420e05a05a446c71875fb07814f362c1a9281900390910190a1600655565b60065481565b600354600160a01b900460ff1681565b6000546001600160a01b0316331461078c576040805162461bcd60e51b81526020600482015260126024820152711bdb9b1e4818591b5a5b88185b1b1bddd95960721b604482015290519081900360640190fd5b600154604080516001600160a01b039283168152918316602083015280517fca4f2f25d0898edd99413412fb94012f9e54ec8142f9b093e7720646a95b16a99281900390910190a1600180546001600160a01b0319166001600160a01b0392909216919091179055565b600154600160a01b900460ff1681565b6001546001600160a01b03163314610865576040805162461bcd60e51b815260206004820152601a60248201527f6f6e6c792070656e64696e672061646d696e20616c6c6f776564000000000000604482015290519081900360640190fd5b600154604080516001600160a01b0390921682526000602083015280517fca4f2f25d0898edd99413412fb94012f9e54ec8142f9b093e7720646a95b16a99281900390910190a1600054600154604080516001600160a01b03938416815292909116602083015280517ff9ffabca9c8276e99321725bcb43fb076a6c66a54b7f21c4e8146d8519b417dc9281900390910190a160018054600080546001600160a01b03199081166001600160a01b03841617909155169055565b6000546001600160a01b031681565b6001600160a01b038116610989576040805162461bcd60e51b815260206004820152601960248201527f616464726573732073686f756c64206265206e6f6e7a65726f00000000000000604482015290519081900360640190fd5b50565b6000600460009054906101000a90046001600160a01b03166001600160a01b031663cbeb2b286040518163ffffffff1660e01b815260040160206040518083038186803b1580156109dc57600080fd5b505afa1580156109f0573d6000803e3d6000fd5b505050506040513d6020811015610a0657600080fd5b50519050610a256001600160a01b03821633308663ffffffff610e8216565b600454610a45906001600160a01b0383811691168563ffffffff610ee216565b60048054604080516311b3d5e760e01b81526001600160a01b03888116948201949094526024810187905285841660448201528151600094909316926311b3d5e79260648084019391929182900301818787803b158015610aa557600080fd5b505af1158015610ab9573d6000803e3d6000fd5b505050506040513d6040811015610acf57600080fd5b50516040805180820190915260138152726661696c656420746f206c697175696461746560681b6020820152909150610b09908290610ffa565b5050505050565b6000846001600160a01b0316636f307dc36040518163ffffffff1660e01b815260040160206040518083038186803b158015610b4b57600080fd5b505afa158015610b5f573d6000803e3d6000fd5b505050506040513d6020811015610b7557600080fd5b505190506000610b87823330876111f0565b9050610ba46001600160a01b03831687600063ffffffff610ee216565b610bbe6001600160a01b038316878363ffffffff610ee216565b60408051637af1e23160e11b81526001600160a01b0387811660048301526024820184905285811660448301529151610c769289169163f5e3c4629160648083019260209291908290030181600087803b158015610c1b57600080fd5b505af1158015610c2f573d6000803e3d6000fd5b505050506040513d6020811015610c4557600080fd5b50516040805180820190915260138152726661696c656420746f206c697175696461746560681b6020820152610ffa565b505050505050565b6000610cc083836040518060400160405280601e81526020017f536166654d6174683a207375627472616374696f6e206f766572666c6f7700008152506112f6565b90505b92915050565b600080610cd583611350565b6040805163a9059cbb60e01b81523360048201526024810183905290519294509092506001600160a01b0386169163a9059cbb916044808201926020929091908290030181600087803b158015610d2b57600080fd5b505af1158015610d3f573d6000803e3d6000fd5b505050506040513d6020811015610d5557600080fd5b5051610da8576040805162461bcd60e51b815260206004820181905260248201527f6661696c656420746f207472616e7366657220746f206c697175696461746f72604482015290519081900360640190fd5b6005546040805163a9059cbb60e01b81526001600160a01b0392831660048201526024810185905290519186169163a9059cbb916044808201926020929091908290030181600087803b158015610dfe57600080fd5b505af1158015610e12573d6000803e3d6000fd5b505050506040513d6020811015610e2857600080fd5b5051610e7b576040805162461bcd60e51b815260206004820152601e60248201527f6661696c656420746f207472616e7366657220746f2074726561737572790000604482015290519081900360640190fd5b9250929050565b604080516001600160a01b0385811660248301528416604482015260648082018490528251808303909101815260849091019091526020810180516001600160e01b03166323b872dd60e01b179052610edc908590611439565b50505050565b801580610f68575060408051636eb1769f60e11b81523060048201526001600160a01b03848116602483015291519185169163dd62ed3e91604480820192602092909190829003018186803b158015610f3a57600080fd5b505afa158015610f4e573d6000803e3d6000fd5b505050506040513d6020811015610f6457600080fd5b5051155b610fa35760405162461bcd60e51b81526004018080602001828103825260368152602001806117796036913960400191505060405180910390fd5b604080516001600160a01b038416602482015260448082018490528251808303909101815260649091019091526020810180516001600160e01b031663095ea7b360e01b179052610ff5908490611439565b505050565b81611004576111ec565b606081516005016040519080825280601f01601f191660200182016040528015611035576020820181803883390190505b50905060005b82518110156110865782818151811061105057fe5b602001015160f81c60f81b82828151811061106757fe5b60200101906001600160f81b031916908160001a90535060010161103b565b8151600160fd1b9083908390811061109a57fe5b60200101906001600160f81b031916908160001a905350602860f81b8282600101815181106110c557fe5b60200101906001600160f81b031916908160001a905350600a840460300160f81b8282600201815181106110f557fe5b60200101906001600160f81b031916908160001a905350600a840660300160f81b82826003018151811061112557fe5b60200101906001600160f81b031916908160001a905350602960f81b82826004018151811061115057fe5b60200101906001600160f81b031916908160001a9053508160405162461bcd60e51b81526004018080602001828103825283818151815260200191508051906020019080838360005b838110156111b1578181015183820152602001611199565b50505050905090810190601f1680156111de5780820380516001836020036101000a031916815260200191505b509250505060405180910390fd5b5050565b600080856001600160a01b03166370a08231856040518263ffffffff1660e01b815260040180826001600160a01b03166001600160a01b0316815260200191505060206040518083038186803b15801561124957600080fd5b505afa15801561125d573d6000803e3d6000fd5b505050506040513d602081101561127357600080fd5b505190506112926001600160a01b03871686868663ffffffff610e8216565b6112ec81876001600160a01b03166370a08231876040518263ffffffff1660e01b815260040180826001600160a01b03166001600160a01b0316815260200191505060206040518083038186803b15801561066157600080fd5b9695505050505050565b600081848411156113485760405162461bcd60e51b81526020600482018181528351602484015283519092839260449091019190850190808383600083156111b1578181015183820152602001611199565b505050900390565b6000806000600360009054906101000a90046001600160a01b03166001600160a01b0316634ada90af6040518163ffffffff1660e01b815260040160206040518083038186803b1580156113a357600080fd5b505afa1580156113b7573d6000803e3d6000fd5b505050506040513d60208110156113cd57600080fd5b5051905060006113fb826113ef87670de0b6b3a764000063ffffffff6115f116565b9063ffffffff61164a16565b905061141e670de0b6b3a76400006113ef600654846115f190919063ffffffff16565b9350611430858563ffffffff610c7e16565b92505050915091565b61144b826001600160a01b031661168c565b61149c576040805162461bcd60e51b815260206004820152601f60248201527f5361666542455032303a2063616c6c20746f206e6f6e2d636f6e747261637400604482015290519081900360640190fd5b60006060836001600160a01b0316836040518082805190602001908083835b602083106114da5780518252601f1990920191602091820191016114bb565b6001836020036101000a0380198251168184511680821785525050505050509050019150506000604051808303816000865af19150503d806000811461153c576040519150601f19603f3d011682016040523d82523d6000602084013e611541565b606091505b509150915081611598576040805162461bcd60e51b815260206004820181905260248201527f5361666542455032303a206c6f772d6c6576656c2063616c6c206661696c6564604482015290519081900360640190fd5b805115610edc578080602001905160208110156115b457600080fd5b5051610edc5760405162461bcd60e51b815260040180806020018281038252602a81526020018061172e602a913960400191505060405180910390fd5b60008261160057506000610cc3565b8282028284828161160d57fe5b0414610cc05760405162461bcd60e51b81526004018080602001828103825260218152602001806117586021913960400191505060405180910390fd5b6000610cc083836040518060400160405280601a81526020017f536166654d6174683a206469766973696f6e206279207a65726f0000000000008152506116c8565b6000813f7fc5d2460186f7233c927e7db2dcc703c0e500b653ca82273b7bfad8045d85a4708181148015906116c057508115155b949350505050565b600081836117175760405162461bcd60e51b81526020600482018181528351602484015283519092839260449091019190850190808383600083156111b1578181015183820152602001611199565b50600083858161172357fe5b049594505050505056fe5361666542455032303a204245503230206f7065726174696f6e20646964206e6f742073756363656564536166654d6174683a206d756c7469706c69636174696f6e206f766572666c6f775361666542455032303a20617070726f76652066726f6d206e6f6e2d7a65726f20746f206e6f6e2d7a65726f20616c6c6f77616e6365a265627a7a7231582060d9f88c801bc5c9cfc9b682faf4e4a23a4711eccb7f8234f3b4d620cc7be0c364736f6c63430005100032",
  "devdoc": {
    "methods": {
      "_acceptAdmin()": {
        "details": "Admin function for pending admin to accept role and update admin"
      },
      "_setPendingAdmin(address)": {
        "details": "Admin function to begin change of admin. The newPendingAdmin must call `_acceptAdmin` to finalize the transfer.",
        "params": {
          "newPendingAdmin": "New pending admin."
        }
      },
      "liquidateBorrow(address,address,uint256,address)": {
        "details": "For BNB borrows msg.value should be equal to repayAmount; otherwise msg.value      should be zero.",
        "params": {
          "borrower": "The address of the borrower",
          "repayAmount": "The amount to repay on behalf of the borrower",
          "vToken": "Borrowed vToken",
          "vTokenCollateral": "The collateral to seize"
        }
      },
      "setTreasuryPercent(uint256)": {
        "params": {
          "newTreasuryPercentMantissa": "New treasury percent (scaled by 10^18)."
        }
      }
    }
  },
  "userdoc": {
    "methods": {
      "_acceptAdmin()": {
        "notice": "Accepts transfer of admin rights. msg.sender must be pendingAdmin"
      },
      "_setPendingAdmin(address)": {
        "notice": "Begins transfer of admin rights. The newPendingAdmin must call `_acceptAdmin` to finalize the transfer."
      },
      "liquidateBorrow(address,address,uint256,address)": {
        "notice": "Liquidates a borrow and splits the seized amount between treasury and         liquidator. The liquidators should use this interface instead of calling         vToken.liquidateBorrow(...) directly."
      },
      "setTreasuryPercent(uint256)": {
        "notice": "Sets the new percent of the seized amount that goes to treasury. Should         be less than or equal to comptroller.liquidationIncentiveMantissa().sub(1e18)."
      }
    }
  },
  "storageLayout": {
    "storage": [
      {
        "astId": 35640,
        "contract": "contracts/Liquidator.sol:Liquidator",
        "label": "admin",
        "offset": 0,
        "slot": "0",
        "type": "t_address"
      },
      {
        "astId": 35642,
        "contract": "contracts/Liquidator.sol:Liquidator",
        "label": "pendingAdmin",
        "offset": 0,
        "slot": "1",
        "type": "t_address"
      },
      {
        "astId": 35203,
        "contract": "contracts/Liquidator.sol:Liquidator",
        "label": "_notEntered",
        "offset": 20,
        "slot": "1",
        "type": "t_bool"
      },
      {
        "astId": 32551,
        "contract": "contracts/Liquidator.sol:Liquidator",
        "label": "vBnb",
        "offset": 0,
        "slot": "2",
        "type": "t_contract(VBNB)38498"
      },
      {
        "astId": 32553,
        "contract": "contracts/Liquidator.sol:Liquidator",
        "label": "comptroller",
        "offset": 0,
        "slot": "3",
        "type": "t_contract(IComptroller)24799"
      },
      {
        "astId": 32556,
        "contract": "contracts/Liquidator.sol:Liquidator",
        "label": "isNativeTokenNonERC20",
        "offset": 20,
        "slot": "3",
        "type": "t_bool"
      },
      {
        "astId": 32558,
        "contract": "contracts/Liquidator.sol:Liquidator",
        "label": "vaiController",
        "offset": 0,
        "slot": "4",
        "type": "t_contract(VAIControllerInterface)37843"
      },
      {
        "astId": 32560,
        "contract": "contracts/Liquidator.sol:Liquidator",
        "label": "treasury",
        "offset": 0,
        "slot": "5",
        "type": "t_address"
      },
      {
        "astId": 32562,
        "contract": "contracts/Liquidator.sol:Liquidator",
        "label": "treasuryPercentMantissa",
        "offset": 0,
        "slot": "6",
        "type": "t_uint256"
      }
    ],
    "types": {
      "t_address": {
        "encoding": "inplace",
        "label": "address",
        "numberOfBytes": "20"
      },
      "t_bool": {
        "encoding": "inplace",
        "label": "bool",
        "numberOfBytes": "1"
      },
      "t_contract(IComptroller)24799": {
        "encoding": "inplace",
        "label": "contract IComptroller",
        "numberOfBytes": "20"
      },
      "t_contract(VAIControllerInterface)37843": {
        "encoding": "inplace",
        "label": "contract VAIControllerInterface",
        "numberOfBytes": "20"
      },
      "t_contract(VBNB)38498": {
        "encoding": "inplace",
        "label": "contract VBNB",
        "numberOfBytes": "20"
      },
      "t_uint256": {
        "encoding": "inplace",
        "label": "uint256",
        "numberOfBytes": "32"
      }
    }
  }
}