{
  "address": "0xA9af2FE696f121fd47C1Db4464ff97912E2e49f5",
  "abi": [
    {
      "inputs": [],
      "payable": false,
      "stateMutability": "nonpayable",
      "type": "constructor"
    },
    {
      "anonymous": false,
      "inputs": [
        {
          "indexed": false,
          "internalType": "uint256",
          "name": "cashPrior",
          "type": "uint256"
        },
        {
          "indexed": false,
          "internalType": "uint256",
          "name": "interestAccumulated",
          "type": "uint256"
        },
        {
          "indexed": false,
          "internalType": "uint256",
          "name": "borrowIndex",
          "type": "uint256"
        },
        {
          "indexed": false,
          "internalType": "uint256",
          "name": "totalBorrows",
          "type": "uint256"
        }
      ],
      "name": "AccrueInterest",
      "type": "event"
    },
    {
      "anonymous": false,
      "inputs": [
        {
          "indexed": true,
          "internalType": "address",
          "name": "owner",
          "type": "address"
        },
        {
          "indexed": true,
          "internalType": "address",
          "name": "spender",
          "type": "address"
        },
        {
          "indexed": false,
          "internalType": "uint256",
          "name": "amount",
          "type": "uint256"
        }
      ],
      "name": "Approval",
      "type": "event"
    },
    {
      "anonymous": false,
      "inputs": [
        {
          "indexed": false,
          "internalType": "address",
          "name": "borrower",
          "type": "address"
        },
        {
          "indexed": false,
          "internalType": "uint256",
          "name": "borrowAmount",
          "type": "uint256"
        },
        {
          "indexed": false,
          "internalType": "uint256",
          "name": "accountBorrows",
          "type": "uint256"
        },
        {
          "indexed": false,
          "internalType": "uint256",
          "name": "totalBorrows",
          "type": "uint256"
        }
      ],
      "name": "Borrow",
      "type": "event"
    },
    {
      "anonymous": false,
      "inputs": [
        {
          "indexed": false,
          "internalType": "uint256",
          "name": "error",
          "type": "uint256"
        },
        {
          "indexed": false,
          "internalType": "uint256",
          "name": "info",
          "type": "uint256"
        },
        {
          "indexed": false,
          "internalType": "uint256",
          "name": "detail",
          "type": "uint256"
        }
      ],
      "name": "Failure",
      "type": "event"
    },
    {
      "anonymous": false,
      "inputs": [
        {
          "indexed": false,
          "internalType": "address",
          "name": "liquidator",
          "type": "address"
        },
        {
          "indexed": false,
          "internalType": "address",
          "name": "borrower",
          "type": "address"
        },
        {
          "indexed": false,
          "internalType": "uint256",
          "name": "repayAmount",
          "type": "uint256"
        },
        {
          "indexed": false,
          "internalType": "address",
          "name": "vTokenCollateral",
          "type": "address"
        },
        {
          "indexed": false,
          "internalType": "uint256",
          "name": "seizeTokens",
          "type": "uint256"
        }
      ],
      "name": "LiquidateBorrow",
      "type": "event"
    },
    {
      "anonymous": false,
      "inputs": [
        {
          "indexed": false,
          "internalType": "address",
          "name": "minter",
          "type": "address"
        },
        {
          "indexed": false,
          "internalType": "uint256",
          "name": "mintAmount",
          "type": "uint256"
        },
        {
          "indexed": false,
          "internalType": "uint256",
          "name": "mintTokens",
          "type": "uint256"
        }
      ],
      "name": "Mint",
      "type": "event"
    },
    {
      "anonymous": false,
      "inputs": [
        {
          "indexed": false,
          "internalType": "address",
          "name": "payer",
          "type": "address"
        },
        {
          "indexed": false,
          "internalType": "address",
          "name": "receiver",
          "type": "address"
        },
        {
          "indexed": false,
          "internalType": "uint256",
          "name": "mintAmount",
          "type": "uint256"
        },
        {
          "indexed": false,
          "internalType": "uint256",
          "name": "mintTokens",
          "type": "uint256"
        }
      ],
      "name": "MintBehalf",
      "type": "event"
    },
    {
      "anonymous": false,
      "inputs": [
        {
          "indexed": false,
          "internalType": "address",
          "name": "oldAdmin",
          "type": "address"
        },
        {
          "indexed": false,
          "internalType": "address",
          "name": "newAdmin",
          "type": "address"
        }
      ],
      "name": "NewAdmin",
      "type": "event"
    },
    {
      "anonymous": false,
      "inputs": [
        {
          "indexed": false,
          "internalType": "contract ComptrollerInterface",
          "name": "oldComptroller",
          "type": "address"
        },
        {
          "indexed": false,
          "internalType": "contract ComptrollerInterface",
          "name": "newComptroller",
          "type": "address"
        }
      ],
      "name": "NewComptroller",
      "type": "event"
    },
    {
      "anonymous": false,
      "inputs": [
        {
          "indexed": false,
          "internalType": "contract InterestRateModel",
          "name": "oldInterestRateModel",
          "type": "address"
        },
        {
          "indexed": false,
          "internalType": "contract InterestRateModel",
          "name": "newInterestRateModel",
          "type": "address"
        }
      ],
      "name": "NewMarketInterestRateModel",
      "type": "event"
    },
    {
      "anonymous": false,
      "inputs": [
        {
          "indexed": false,
          "internalType": "address",
          "name": "oldPendingAdmin",
          "type": "address"
        },
        {
          "indexed": false,
          "internalType": "address",
          "name": "newPendingAdmin",
          "type": "address"
        }
      ],
      "name": "NewPendingAdmin",
      "type": "event"
    },
    {
      "anonymous": false,
      "inputs": [
        {
          "indexed": false,
          "internalType": "uint256",
          "name": "oldReserveFactorMantissa",
          "type": "uint256"
        },
        {
          "indexed": false,
          "internalType": "uint256",
          "name": "newReserveFactorMantissa",
          "type": "uint256"
        }
      ],
      "name": "NewReserveFactor",
      "type": "event"
    },
    {
      "anonymous": false,
      "inputs": [
        {
          "indexed": false,
          "internalType": "address",
          "name": "redeemer",
          "type": "address"
        },
        {
          "indexed": false,
          "internalType": "uint256",
          "name": "redeemAmount",
          "type": "uint256"
        },
        {
          "indexed": false,
          "internalType": "uint256",
          "name": "redeemTokens",
          "type": "uint256"
        }
      ],
      "name": "Redeem",
      "type": "event"
    },
    {
      "anonymous": false,
      "inputs": [
        {
          "indexed": false,
          "internalType": "address",
          "name": "redeemer",
          "type": "address"
        },
        {
          "indexed": false,
          "internalType": "uint256",
          "name": "feeAmount",
          "type": "uint256"
        },
        {
          "indexed": false,
          "internalType": "uint256",
          "name": "redeemTokens",
          "type": "uint256"
        }
      ],
      "name": "RedeemFee",
      "type": "event"
    },
    {
      "anonymous": false,
      "inputs": [
        {
          "indexed": false,
          "internalType": "address",
          "name": "payer",
          "type": "address"
        },
        {
          "indexed": false,
          "internalType": "address",
          "name": "borrower",
          "type": "address"
        },
        {
          "indexed": false,
          "internalType": "uint256",
          "name": "repayAmount",
          "type": "uint256"
        },
        {
          "indexed": false,
          "internalType": "uint256",
          "name": "accountBorrows",
          "type": "uint256"
        },
        {
          "indexed": false,
          "internalType": "uint256",
          "name": "totalBorrows",
          "type": "uint256"
        }
      ],
      "name": "RepayBorrow",
      "type": "event"
    },
    {
      "anonymous": false,
      "inputs": [
        {
          "indexed": false,
          "internalType": "address",
          "name": "benefactor",
          "type": "address"
        },
        {
          "indexed": false,
          "internalType": "uint256",
          "name": "addAmount",
          "type": "uint256"
        },
        {
          "indexed": false,
          "internalType": "uint256",
          "name": "newTotalReserves",
          "type": "uint256"
        }
      ],
      "name": "ReservesAdded",
      "type": "event"
    },
    {
      "anonymous": false,
      "inputs": [
        {
          "indexed": false,
          "internalType": "address",
          "name": "admin",
          "type": "address"
        },
        {
          "indexed": false,
          "internalType": "uint256",
          "name": "reduceAmount",
          "type": "uint256"
        },
        {
          "indexed": false,
          "internalType": "uint256",
          "name": "newTotalReserves",
          "type": "uint256"
        }
      ],
      "name": "ReservesReduced",
      "type": "event"
    },
    {
      "anonymous": false,
      "inputs": [
        {
          "indexed": true,
          "internalType": "address",
          "name": "from",
          "type": "address"
        },
        {
          "indexed": true,
          "internalType": "address",
          "name": "to",
          "type": "address"
        },
        {
          "indexed": false,
          "internalType": "uint256",
          "name": "amount",
          "type": "uint256"
        }
      ],
      "name": "Transfer",
      "type": "event"
    },
    {
      "constant": false,
      "inputs": [],
      "name": "_acceptAdmin",
      "outputs": [
        {
          "internalType": "uint256",
          "name": "",
          "type": "uint256"
        }
      ],
      "payable": false,
      "stateMutability": "nonpayable",
      "type": "function"
    },
    {
      "constant": false,
      "inputs": [
        {
          "internalType": "uint256",
          "name": "addAmount",
          "type": "uint256"
        }
      ],
      "name": "_addReserves",
      "outputs": [
        {
          "internalType": "uint256",
          "name": "",
          "type": "uint256"
        }
      ],
      "payable": false,
      "stateMutability": "nonpayable",
      "type": "function"
    },
    {
      "constant": false,
      "inputs": [
        {
          "internalType": "bytes",
          "name": "data",
          "type": "bytes"
        }
      ],
      "name": "_becomeImplementation",
      "outputs": [],
      "payable": false,
      "stateMutability": "nonpayable",
      "type": "function"
    },
    {
      "constant": false,
      "inputs": [
        {
          "internalType": "uint256",
          "name": "reduceAmount",
          "type": "uint256"
        }
      ],
      "name": "_reduceReserves",
      "outputs": [
        {
          "internalType": "uint256",
          "name": "",
          "type": "uint256"
        }
      ],
      "payable": false,
      "stateMutability": "nonpayable",
      "type": "function"
    },
    {
      "constant": false,
      "inputs": [],
      "name": "_resignImplementation",
      "outputs": [],
      "payable": false,
      "stateMutability": "nonpayable",
      "type": "function"
    },
    {
      "constant": false,
      "inputs": [
        {
          "internalType": "contract ComptrollerInterface",
          "name": "newComptroller",
          "type": "address"
        }
      ],
      "name": "_setComptroller",
      "outputs": [
        {
          "internalType": "uint256",
          "name": "",
          "type": "uint256"
        }
      ],
      "payable": false,
      "stateMutability": "nonpayable",
      "type": "function"
    },
    {
      "constant": false,
      "inputs": [
        {
          "internalType": "contract InterestRateModel",
          "name": "newInterestRateModel",
          "type": "address"
        }
      ],
      "name": "_setInterestRateModel",
      "outputs": [
        {
          "internalType": "uint256",
          "name": "",
          "type": "uint256"
        }
      ],
      "payable": false,
      "stateMutability": "nonpayable",
      "type": "function"
    },
    {
      "constant": false,
      "inputs": [
        {
          "internalType": "address payable",
          "name": "newPendingAdmin",
          "type": "address"
        }
      ],
      "name": "_setPendingAdmin",
      "outputs": [
        {
          "internalType": "uint256",
          "name": "",
          "type": "uint256"
        }
      ],
      "payable": false,
      "stateMutability": "nonpayable",
      "type": "function"
    },
    {
      "constant": false,
      "inputs": [
        {
          "internalType": "uint256",
          "name": "newReserveFactorMantissa",
          "type": "uint256"
        }
      ],
      "name": "_setReserveFactor",
      "outputs": [
        {
          "internalType": "uint256",
          "name": "",
          "type": "uint256"
        }
      ],
      "payable": false,
      "stateMutability": "nonpayable",
      "type": "function"
    },
    {
      "constant": true,
      "inputs": [],
      "name": "accrualBlockNumber",
      "outputs": [
        {
          "internalType": "uint256",
          "name": "",
          "type": "uint256"
        }
      ],
      "payable": false,
      "stateMutability": "view",
      "type": "function"
    },
    {
      "constant": false,
      "inputs": [],
      "name": "accrueInterest",
      "outputs": [
        {
          "internalType": "uint256",
          "name": "",
          "type": "uint256"
        }
      ],
      "payable": false,
      "stateMutability": "nonpayable",
      "type": "function"
    },
    {
      "constant": true,
      "inputs": [],
      "name": "admin",
      "outputs": [
        {
          "internalType": "address payable",
          "name": "",
          "type": "address"
        }
      ],
      "payable": false,
      "stateMutability": "view",
      "type": "function"
    },
    {
      "constant": true,
      "inputs": [
        {
          "internalType": "address",
          "name": "owner",
          "type": "address"
        },
        {
          "internalType": "address",
          "name": "spender",
          "type": "address"
        }
      ],
      "name": "allowance",
      "outputs": [
        {
          "internalType": "uint256",
          "name": "",
          "type": "uint256"
        }
      ],
      "payable": false,
      "stateMutability": "view",
      "type": "function"
    },
    {
      "constant": false,
      "inputs": [
        {
          "internalType": "address",
          "name": "spender",
          "type": "address"
        },
        {
          "internalType": "uint256",
          "name": "amount",
          "type": "uint256"
        }
      ],
      "name": "approve",
      "outputs": [
        {
          "internalType": "bool",
          "name": "",
          "type": "bool"
        }
      ],
      "payable": false,
      "stateMutability": "nonpayable",
      "type": "function"
    },
    {
      "constant": true,
      "inputs": [
        {
          "internalType": "address",
          "name": "owner",
          "type": "address"
        }
      ],
      "name": "balanceOf",
      "outputs": [
        {
          "internalType": "uint256",
          "name": "",
          "type": "uint256"
        }
      ],
      "payable": false,
      "stateMutability": "view",
      "type": "function"
    },
    {
      "constant": false,
      "inputs": [
        {
          "internalType": "address",
          "name": "owner",
          "type": "address"
        }
      ],
      "name": "balanceOfUnderlying",
      "outputs": [
        {
          "internalType": "uint256",
          "name": "",
          "type": "uint256"
        }
      ],
      "payable": false,
      "stateMutability": "nonpayable",
      "type": "function"
    },
    {
      "constant": false,
      "inputs": [
        {
          "internalType": "uint256",
          "name": "borrowAmount",
          "type": "uint256"
        }
      ],
      "name": "borrow",
      "outputs": [
        {
          "internalType": "uint256",
          "name": "",
          "type": "uint256"
        }
      ],
      "payable": false,
      "stateMutability": "nonpayable",
      "type": "function"
    },
    {
      "constant": false,
      "inputs": [
        {
          "internalType": "address",
          "name": "account",
          "type": "address"
        }
      ],
      "name": "borrowBalanceCurrent",
      "outputs": [
        {
          "internalType": "uint256",
          "name": "",
          "type": "uint256"
        }
      ],
      "payable": false,
      "stateMutability": "nonpayable",
      "type": "function"
    },
    {
      "constant": true,
      "inputs": [
        {
          "internalType": "address",
          "name": "account",
          "type": "address"
        }
      ],
      "name": "borrowBalanceStored",
      "outputs": [
        {
          "internalType": "uint256",
          "name": "",
          "type": "uint256"
        }
      ],
      "payable": false,
      "stateMutability": "view",
      "type": "function"
    },
    {
      "constant": true,
      "inputs": [],
      "name": "borrowIndex",
      "outputs": [
        {
          "internalType": "uint256",
          "name": "",
          "type": "uint256"
        }
      ],
      "payable": false,
      "stateMutability": "view",
      "type": "function"
    },
    {
      "constant": true,
      "inputs": [],
      "name": "borrowRatePerBlock",
      "outputs": [
        {
          "internalType": "uint256",
          "name": "",
          "type": "uint256"
        }
      ],
      "payable": false,
      "stateMutability": "view",
      "type": "function"
    },
    {
      "constant": true,
      "inputs": [],
      "name": "comptroller",
      "outputs": [
        {
          "internalType": "contract ComptrollerInterface",
          "name": "",
          "type": "address"
        }
      ],
      "payable": false,
      "stateMutability": "view",
      "type": "function"
    },
    {
      "constant": true,
      "inputs": [],
      "name": "decimals",
      "outputs": [
        {
          "internalType": "uint8",
          "name": "",
          "type": "uint8"
        }
      ],
      "payable": false,
      "stateMutability": "view",
      "type": "function"
    },
    {
      "constant": false,
      "inputs": [],
      "name": "exchangeRateCurrent",
      "outputs": [
        {
          "internalType": "uint256",
          "name": "",
          "type": "uint256"
        }
      ],
      "payable": false,
      "stateMutability": "nonpayable",
      "type": "function"
    },
    {
      "constant": true,
      "inputs": [],
      "name": "exchangeRateStored",
      "outputs": [
        {
          "internalType": "uint256",
          "name": "",
          "type": "uint256"
        }
      ],
      "payable": false,
      "stateMutability": "view",
      "type": "function"
    },
    {
      "constant": true,
      "inputs": [
        {
          "internalType": "address",
          "name": "account",
          "type": "address"
        }
      ],
      "name": "getAccountSnapshot",
      "outputs": [
        {
          "internalType": "uint256",
          "name": "",
          "type": "uint256"
        },
        {
          "internalType": "uint256",
          "name": "",
          "type": "uint256"
        },
        {
          "internalType": "uint256",
          "name": "",
          "type": "uint256"
        },
        {
          "internalType": "uint256",
          "name": "",
          "type": "uint256"
        }
      ],
      "payable": false,
      "stateMutability": "view",
      "type": "function"
    },
    {
      "constant": true,
      "inputs": [],
      "name": "getCash",
      "outputs": [
        {
          "internalType": "uint256",
          "name": "",
          "type": "uint256"
        }
      ],
      "payable": false,
      "stateMutability": "view",
      "type": "function"
    },
    {
      "constant": true,
      "inputs": [],
      "name": "implementation",
      "outputs": [
        {
          "internalType": "address",
          "name": "",
          "type": "address"
        }
      ],
      "payable": false,
      "stateMutability": "view",
      "type": "function"
    },
    {
      "constant": false,
      "inputs": [
        {
          "internalType": "address",
          "name": "underlying_",
          "type": "address"
        },
        {
          "internalType": "contract ComptrollerInterface",
          "name": "comptroller_",
          "type": "address"
        },
        {
          "internalType": "contract InterestRateModel",
          "name": "interestRateModel_",
          "type": "address"
        },
        {
          "internalType": "uint256",
          "name": "initialExchangeRateMantissa_",
          "type": "uint256"
        },
        {
          "internalType": "string",
          "name": "name_",
          "type": "string"
        },
        {
          "internalType": "string",
          "name": "symbol_",
          "type": "string"
        },
        {
          "internalType": "uint8",
          "name": "decimals_",
          "type": "uint8"
        }
      ],
      "name": "initialize",
      "outputs": [],
      "payable": false,
      "stateMutability": "nonpayable",
      "type": "function"
    },
    {
      "constant": false,
      "inputs": [
        {
          "internalType": "contract ComptrollerInterface",
          "name": "comptroller_",
          "type": "address"
        },
        {
          "internalType": "contract InterestRateModel",
          "name": "interestRateModel_",
          "type": "address"
        },
        {
          "internalType": "uint256",
          "name": "initialExchangeRateMantissa_",
          "type": "uint256"
        },
        {
          "internalType": "string",
          "name": "name_",
          "type": "string"
        },
        {
          "internalType": "string",
          "name": "symbol_",
          "type": "string"
        },
        {
          "internalType": "uint8",
          "name": "decimals_",
          "type": "uint8"
        }
      ],
      "name": "initialize",
      "outputs": [],
      "payable": false,
      "stateMutability": "nonpayable",
      "type": "function"
    },
    {
      "constant": true,
      "inputs": [],
      "name": "interestRateModel",
      "outputs": [
        {
          "internalType": "contract InterestRateModel",
          "name": "",
          "type": "address"
        }
      ],
      "payable": false,
      "stateMutability": "view",
      "type": "function"
    },
    {
      "constant": true,
      "inputs": [],
      "name": "isVToken",
      "outputs": [
        {
          "internalType": "bool",
          "name": "",
          "type": "bool"
        }
      ],
      "payable": false,
      "stateMutability": "view",
      "type": "function"
    },
    {
      "constant": false,
      "inputs": [
        {
          "internalType": "address",
          "name": "borrower",
          "type": "address"
        },
        {
          "internalType": "uint256",
          "name": "repayAmount",
          "type": "uint256"
        },
        {
          "internalType": "contract VTokenInterface",
          "name": "vTokenCollateral",
          "type": "address"
        }
      ],
      "name": "liquidateBorrow",
      "outputs": [
        {
          "internalType": "uint256",
          "name": "",
          "type": "uint256"
        }
      ],
      "payable": false,
      "stateMutability": "nonpayable",
      "type": "function"
    },
    {
      "constant": false,
      "inputs": [
        {
          "internalType": "uint256",
          "name": "mintAmount",
          "type": "uint256"
        }
      ],
      "name": "mint",
      "outputs": [
        {
          "internalType": "uint256",
          "name": "",
          "type": "uint256"
        }
      ],
      "payable": false,
      "stateMutability": "nonpayable",
      "type": "function"
    },
    {
      "constant": false,
      "inputs": [
        {
          "internalType": "address",
          "name": "receiver",
          "type": "address"
        },
        {
          "internalType": "uint256",
          "name": "mintAmount",
          "type": "uint256"
        }
      ],
      "name": "mintBehalf",
      "outputs": [
        {
          "internalType": "uint256",
          "name": "",
          "type": "uint256"
        }
      ],
      "payable": false,
      "stateMutability": "nonpayable",
      "type": "function"
    },
    {
      "constant": true,
      "inputs": [],
      "name": "name",
      "outputs": [
        {
          "internalType": "string",
          "name": "",
          "type": "string"
        }
      ],
      "payable": false,
      "stateMutability": "view",
      "type": "function"
    },
    {
      "constant": true,
      "inputs": [],
      "name": "pendingAdmin",
      "outputs": [
        {
          "internalType": "address payable",
          "name": "",
          "type": "address"
        }
      ],
      "payable": false,
      "stateMutability": "view",
      "type": "function"
    },
    {
      "constant": false,
      "inputs": [
        {
          "internalType": "uint256",
          "name": "redeemTokens",
          "type": "uint256"
        }
      ],
      "name": "redeem",
      "outputs": [
        {
          "internalType": "uint256",
          "name": "",
          "type": "uint256"
        }
      ],
      "payable": false,
      "stateMutability": "nonpayable",
      "type": "function"
    },
    {
      "constant": false,
      "inputs": [
        {
          "internalType": "uint256",
          "name": "redeemAmount",
          "type": "uint256"
        }
      ],
      "name": "redeemUnderlying",
      "outputs": [
        {
          "internalType": "uint256",
          "name": "",
          "type": "uint256"
        }
      ],
      "payable": false,
      "stateMutability": "nonpayable",
      "type": "function"
    },
    {
      "constant": false,
      "inputs": [
        {
          "internalType": "uint256",
          "name": "repayAmount",
          "type": "uint256"
        }
      ],
      "name": "repayBorrow",
      "outputs": [
        {
          "internalType": "uint256",
          "name": "",
          "type": "uint256"
        }
      ],
      "payable": false,
      "stateMutability": "nonpayable",
      "type": "function"
    },
    {
      "constant": false,
      "inputs": [
        {
          "internalType": "address",
          "name": "borrower",
          "type": "address"
        },
        {
          "internalType": "uint256",
          "name": "repayAmount",
          "type": "uint256"
        }
      ],
      "name": "repayBorrowBehalf",
      "outputs": [
        {
          "internalType": "uint256",
          "name": "",
          "type": "uint256"
        }
      ],
      "payable": false,
      "stateMutability": "nonpayable",
      "type": "function"
    },
    {
      "constant": true,
      "inputs": [],
      "name": "reserveFactorMantissa",
      "outputs": [
        {
          "internalType": "uint256",
          "name": "",
          "type": "uint256"
        }
      ],
      "payable": false,
      "stateMutability": "view",
      "type": "function"
    },
    {
      "constant": false,
      "inputs": [
        {
          "internalType": "address",
          "name": "liquidator",
          "type": "address"
        },
        {
          "internalType": "address",
          "name": "borrower",
          "type": "address"
        },
        {
          "internalType": "uint256",
          "name": "seizeTokens",
          "type": "uint256"
        }
      ],
      "name": "seize",
      "outputs": [
        {
          "internalType": "uint256",
          "name": "",
          "type": "uint256"
        }
      ],
      "payable": false,
      "stateMutability": "nonpayable",
      "type": "function"
    },
    {
      "constant": true,
      "inputs": [],
      "name": "supplyRatePerBlock",
      "outputs": [
        {
          "internalType": "uint256",
          "name": "",
          "type": "uint256"
        }
      ],
      "payable": false,
      "stateMutability": "view",
      "type": "function"
    },
    {
      "constant": true,
      "inputs": [],
      "name": "symbol",
      "outputs": [
        {
          "internalType": "string",
          "name": "",
          "type": "string"
        }
      ],
      "payable": false,
      "stateMutability": "view",
      "type": "function"
    },
    {
      "constant": true,
      "inputs": [],
      "name": "totalBorrows",
      "outputs": [
        {
          "internalType": "uint256",
          "name": "",
          "type": "uint256"
        }
      ],
      "payable": false,
      "stateMutability": "view",
      "type": "function"
    },
    {
      "constant": false,
      "inputs": [],
      "name": "totalBorrowsCurrent",
      "outputs": [
        {
          "internalType": "uint256",
          "name": "",
          "type": "uint256"
        }
      ],
      "payable": false,
      "stateMutability": "nonpayable",
      "type": "function"
    },
    {
      "constant": true,
      "inputs": [],
      "name": "totalReserves",
      "outputs": [
        {
          "internalType": "uint256",
          "name": "",
          "type": "uint256"
        }
      ],
      "payable": false,
      "stateMutability": "view",
      "type": "function"
    },
    {
      "constant": true,
      "inputs": [],
      "name": "totalSupply",
      "outputs": [
        {
          "internalType": "uint256",
          "name": "",
          "type": "uint256"
        }
      ],
      "payable": false,
      "stateMutability": "view",
      "type": "function"
    },
    {
      "constant": false,
      "inputs": [
        {
          "internalType": "address",
          "name": "dst",
          "type": "address"
        },
        {
          "internalType": "uint256",
          "name": "amount",
          "type": "uint256"
        }
      ],
      "name": "transfer",
      "outputs": [
        {
          "internalType": "bool",
          "name": "",
          "type": "bool"
        }
      ],
      "payable": false,
      "stateMutability": "nonpayable",
      "type": "function"
    },
    {
      "constant": false,
      "inputs": [
        {
          "internalType": "address",
          "name": "src",
          "type": "address"
        },
        {
          "internalType": "address",
          "name": "dst",
          "type": "address"
        },
        {
          "internalType": "uint256",
          "name": "amount",
          "type": "uint256"
        }
      ],
      "name": "transferFrom",
      "outputs": [
        {
          "internalType": "bool",
          "name": "",
          "type": "bool"
        }
      ],
      "payable": false,
      "stateMutability": "nonpayable",
      "type": "function"
    },
    {
      "constant": true,
      "inputs": [],
      "name": "underlying",
      "outputs": [
        {
          "internalType": "address",
          "name": "",
          "type": "address"
        }
      ],
      "payable": false,
      "stateMutability": "view",
      "type": "function"
    }
  ],
  "transactionHash": "0x24369bd8c9339c39f56bb9c05f637e08b7f40ead7e5ddaa8243b001a56250a93",
  "args": [],
  "solcInputHash": "1bf391f5db11ccd7dbdaa4d375e9efa1",
  "bytecode": "0x608060405234801561001057600080fd5b506158c680620000216000396000f3fe608060405234801561001057600080fd5b506004361061030c5760003560e01c806370a082311161019d578063b71d1a0c116100e9578063e9c714f2116100a2578063f5e3c4621161007c578063f5e3c46214610b4b578063f851a44014610b81578063f8f9da2814610b89578063fca7820b14610b915761030c565b8063e9c714f214610b15578063f2b3abbd14610b1d578063f3fdb15a14610b435761030c565b8063b71d1a0c14610a33578063bd6d894d14610a59578063c37f68e214610a61578063c5ebeaec14610aad578063db006a7514610aca578063dd62ed3e14610ae75761030c565b806399d8c1b411610156578063a9059cbb11610130578063a9059cbb146109c1578063aa5af0fd146109ed578063ae9d70b0146109f5578063b2a02ff1146109fd5761030c565b806399d8c1b41461084e578063a0712d681461099c578063a6afed95146109b95761030c565b806370a08231146107cd57806373acee98146107f3578063852a12e3146107fb5780638f840ddd1461081857806395d89b411461082057806395dd9193146108285761030c565b8063313ce5671161025c57806347bd3718116102155780635fe3b567116101ef5780635fe3b56714610798578063601a0bf1146107a05780636c540baf146107bd5780636f307dc3146107c55761030c565b806347bd3718146106e457806356e67728146106ec5780635c60da1b146107905761030c565b8063313ce5671461064d5780633af9e6691461066b5780633b1d21a2146106915780633d9ea3a1146106995780633e941010146106a15780634576b5db146106be5761030c565b806318160ddd116102c957806323323e03116102a357806323323e031461059b57806323b872dd146105c75780632608f818146105fd57806326782247146106295761030c565b806318160ddd14610435578063182df0f51461043d5780631a31d465146104455761030c565b806306fdde0314610311578063095ea7b31461038e5780630e752702146103ce578063153ab505146103fd578063173b99041461040757806317bfdfbc1461040f575b600080fd5b610319610bae565b6040805160208082528351818301528351919283929083019185019080838360005b8381101561035357818101518382015260200161033b565b50505050905090810190601f1680156103805780820380516001836020036101000a031916815260200191505b509250505060405180910390f35b6103ba600480360360408110156103a457600080fd5b506001600160a01b038135169060200135610c3b565b604080519115158252519081900360200190f35b6103eb600480360360208110156103e457600080fd5b5035610ca8565b60408051918252519081900360200190f35b610405610cbe565b005b6103eb610d0e565b6103eb6004803603602081101561042557600080fd5b50356001600160a01b0316610d14565b6103eb610dd4565b6103eb610dda565b610405600480360360e081101561045b57600080fd5b6001600160a01b03823581169260208101358216926040820135909216916060820135919081019060a081016080820135600160201b81111561049d57600080fd5b8201836020820111156104af57600080fd5b803590602001918460018302840111600160201b831117156104d057600080fd5b91908080601f0160208091040260200160405190810160405280939291908181526020018383808284376000920191909152509295949360208101935035915050600160201b81111561052257600080fd5b82018360208201111561053457600080fd5b803590602001918460018302840111600160201b8311171561055557600080fd5b91908080601f0160208091040260200160405190810160405280939291908181526020018383808284376000920191909152509295505050903560ff169150610e3d9050565b6103eb600480360360408110156105b157600080fd5b506001600160a01b038135169060200135610edc565b6103ba600480360360608110156105dd57600080fd5b506001600160a01b03813581169160208101359091169060400135610ef2565b6103eb6004803603604081101561061357600080fd5b506001600160a01b038135169060200135610f64565b610631610f71565b604080516001600160a01b039092168252519081900360200190f35b610655610f80565b6040805160ff9092168252519081900360200190f35b6103eb6004803603602081101561068157600080fd5b50356001600160a01b0316610f89565b6103eb61103f565b6103ba61104e565b6103eb600480360360208110156106b757600080fd5b5035611053565b6103eb600480360360208110156106d457600080fd5b50356001600160a01b031661105e565b6103eb6111b3565b6104056004803603602081101561070257600080fd5b810190602081018135600160201b81111561071c57600080fd5b82018360208201111561072e57600080fd5b803590602001918460018302840111600160201b8311171561074f57600080fd5b91908080601f0160208091040260200160405190810160405280939291908181526020018383808284376000920191909152509295506111b9945050505050565b61063161120a565b610631611219565b6103eb600480360360208110156107b657600080fd5b5035611228565b6103eb6112c3565b6106316112c9565b6103eb600480360360208110156107e357600080fd5b50356001600160a01b03166112d8565b6103eb6112f3565b6103eb6004803603602081101561081157600080fd5b50356113a9565b6103eb6113b4565b6103196113ba565b6103eb6004803603602081101561083e57600080fd5b50356001600160a01b0316611412565b610405600480360360c081101561086457600080fd5b6001600160a01b03823581169260208101359091169160408201359190810190608081016060820135600160201b81111561089e57600080fd5b8201836020820111156108b057600080fd5b803590602001918460018302840111600160201b831117156108d157600080fd5b91908080601f0160208091040260200160405190810160405280939291908181526020018383808284376000920191909152509295949360208101935035915050600160201b81111561092357600080fd5b82018360208201111561093557600080fd5b803590602001918460018302840111600160201b8311171561095657600080fd5b91908080601f0160208091040260200160405190810160405280939291908181526020018383808284376000920191909152509295505050903560ff16915061146f9050565b6103eb600480360360208110156109b257600080fd5b5035611656565b6103eb611662565b6103ba600480360360408110156109d757600080fd5b506001600160a01b0381351690602001356119ba565b6103eb611a2b565b6103eb611a31565b6103eb60048036036060811015610a1357600080fd5b506001600160a01b03813581169160208101359091169060400135611ad0565b6103eb60048036036020811015610a4957600080fd5b50356001600160a01b0316611b41565b6103eb611bcd565b610a8760048036036020811015610a7757600080fd5b50356001600160a01b0316611c89565b604080519485526020850193909352838301919091526060830152519081900360800190f35b6103eb60048036036020811015610ac357600080fd5b5035611d1e565b6103eb60048036036020811015610ae057600080fd5b5035611d29565b6103eb60048036036040811015610afd57600080fd5b506001600160a01b0381358116916020013516611d34565b6103eb611d5f565b6103eb60048036036020811015610b3357600080fd5b50356001600160a01b0316611e57565b610631611e91565b6103eb60048036036060811015610b6157600080fd5b506001600160a01b03813581169160208101359160409091013516611ea0565b610631611eb8565b6103eb611ecc565b6103eb60048036036020811015610ba757600080fd5b5035611f30565b60018054604080516020600284861615610100026000190190941693909304601f81018490048402820184019092528181529291830182828015610c335780601f10610c0857610100808354040283529160200191610c33565b820191906000526020600020905b815481529060010190602001808311610c1657829003601f168201915b505050505081565b336000818152600f602090815260408083206001600160a01b03871680855290835281842086905581518681529151939493909284927f8c5be1e5ebec7d5bd14f71427d1e84f3dd0314c0f7b2291e5b200ac8c7c3b925929081900390910190a360019150505b92915050565b600080610cb483611fae565b509150505b919050565b60035461010090046001600160a01b03163314610d0c5760405162461bcd60e51b815260040180806020018281038252602d815260200180615687602d913960400191505060405180910390fd5b565b60085481565b6000805460ff16610d59576040805162461bcd60e51b815260206004820152600a6024820152691c994b595b9d195c995960b21b604482015290519081900360640190fd5b6000805460ff19168155610d6b611662565b14610db6576040805162461bcd60e51b81526020600482015260166024820152751858d8dc9d59481a5b9d195c995cdd0819985a5b195960521b604482015290519081900360640190fd5b610dbf82611412565b90505b6000805460ff19166001179055919050565b600d5481565b6000806000610de7612057565b90925090506000826003811115610dfa57fe5b14610e365760405162461bcd60e51b81526004018080602001828103825260358152602001806157d46035913960400191505060405180910390fd5b9150505b90565b610e4b86868686868661146f565b601180546001600160a01b0319166001600160a01b038981169190911791829055604080516318160ddd60e01b8152905192909116916318160ddd91600480820192602092909190829003018186803b158015610ea757600080fd5b505afa158015610ebb573d6000803e3d6000fd5b505050506040513d6020811015610ed157600080fd5b505050505050505050565b600080610ee98484612106565b50949350505050565b6000805460ff16610f37576040805162461bcd60e51b815260206004820152600a6024820152691c994b595b9d195c995960b21b604482015290519081900360640190fd5b6000805460ff19168155610f4d338686866121b1565b1490506000805460ff191660011790559392505050565b600080610ee984846124bf565b6004546001600160a01b031681565b60035460ff1681565b6000610f9361549c565b6040518060200160405280610fa6611bcd565b90526001600160a01b0384166000908152600e6020526040812054919250908190610fd2908490612541565b90925090506000826003811115610fe557fe5b14611037576040805162461bcd60e51b815260206004820152601f60248201527f62616c616e636520636f756c64206e6f742062652063616c63756c6174656400604482015290519081900360640190fd5b949350505050565b6000611049612595565b905090565b600181565b6000610ca282612615565b60035460009061010090046001600160a01b0316331461108b576110846001603f6126a9565b9050610cb9565b60055460408051623f1ee960e11b815290516001600160a01b0392831692851691627e3dd2916004808301926020929190829003018186803b1580156110d057600080fd5b505afa1580156110e4573d6000803e3d6000fd5b505050506040513d60208110156110fa57600080fd5b505161114d576040805162461bcd60e51b815260206004820152601c60248201527f6d61726b6572206d6574686f642072657475726e65642066616c736500000000604482015290519081900360640190fd5b600580546001600160a01b0319166001600160a01b03858116918217909255604080519284168352602083019190915280517f7ac369dbd14fa5ea3f473ed67cc9d598964a77501540ba6751eb0b3decf5870d9281900390910190a160005b9392505050565b600b5481565b60035461010090046001600160a01b031633146112075760405162461bcd60e51b815260040180806020018281038252602d815260200180615865602d913960400191505060405180910390fd5b50565b6012546001600160a01b031681565b6005546001600160a01b031681565b6000805460ff1661126d576040805162461bcd60e51b815260206004820152600a6024820152691c994b595b9d195c995960b21b604482015290519081900360640190fd5b6000805460ff1916815561127f611662565b905080156112a55761129d81601181111561129657fe5b60306126a9565b915050610dc2565b6112ae8361270f565b9150506000805460ff19166001179055919050565b60095481565b6011546001600160a01b031681565b6001600160a01b03166000908152600e602052604090205490565b6000805460ff16611338576040805162461bcd60e51b815260206004820152600a6024820152691c994b595b9d195c995960b21b604482015290519081900360640190fd5b6000805460ff1916815561134a611662565b14611395576040805162461bcd60e51b81526020600482015260166024820152751858d8dc9d59481a5b9d195c995cdd0819985a5b195960521b604482015290519081900360640190fd5b50600b546000805460ff1916600117905590565b6000610ca282612803565b600c5481565b6002805460408051602060018416156101000260001901909316849004601f81018490048402820184019092528181529291830182828015610c335780601f10610c0857610100808354040283529160200191610c33565b600080600061142084612884565b9092509050600082600381111561143357fe5b146111ac5760405162461bcd60e51b81526004018080602001828103825260378152602001806156df6037913960400191505060405180910390fd5b60035461010090046001600160a01b031633146114bd5760405162461bcd60e51b81526004018080602001828103825260248152602001806155ee6024913960400191505060405180910390fd5b6009541580156114cd5750600a54155b6115085760405162461bcd60e51b81526004018080602001828103825260238152602001806156126023913960400191505060405180910390fd5b6007849055836115495760405162461bcd60e51b81526004018080602001828103825260308152602001806156356030913960400191505060405180910390fd5b60006115548761105e565b905080156115a9576040805162461bcd60e51b815260206004820152601a60248201527f73657474696e6720636f6d7074726f6c6c6572206661696c6564000000000000604482015290519081900360640190fd5b6115b1612938565b600955670de0b6b3a7640000600a556115c98661293c565b905080156116085760405162461bcd60e51b81526004018080602001828103825260228152602001806156656022913960400191505060405180910390fd5b835161161b9060019060208701906154af565b50825161162f9060029060208601906154af565b50506003805460ff90921660ff199283161790556000805490911660011790555050505050565b600080610cb483612ab1565b60008061166d612938565b6009549091508082141561168657600092505050610e3a565b6000611690612595565b600b54600c54600a54600654604080516315f2405360e01b815260048101879052602481018690526044810185905290519596509394929391926000926001600160a01b03909216916315f24053916064808301926020929190829003018186803b1580156116fe57600080fd5b505afa158015611712573d6000803e3d6000fd5b505050506040513d602081101561172857600080fd5b5051905065048c27395000811115611787576040805162461bcd60e51b815260206004820152601c60248201527f626f72726f772072617465206973206162737572646c79206869676800000000604482015290519081900360640190fd5b6000806117948989612b2b565b909250905060008260038111156117a757fe5b146117f9576040805162461bcd60e51b815260206004820152601f60248201527f636f756c64206e6f742063616c63756c61746520626c6f636b2064656c746100604482015290519081900360640190fd5b61180161549c565b60008060008061181f60405180602001604052808a81525087612b4e565b9097509450600087600381111561183257fe5b146118645761184f6009600689600381111561184a57fe5b612bb6565b9e505050505050505050505050505050610e3a565b61186e858c612541565b9097509350600087600381111561188157fe5b146118995761184f6009600189600381111561184a57fe5b6118a3848c612c1c565b909750925060008760038111156118b657fe5b146118ce5761184f6009600489600381111561184a57fe5b6118e96040518060200160405280600854815250858c612c42565b909750915060008760038111156118fc57fe5b146119145761184f6009600589600381111561184a57fe5b61191f858a8b612c42565b9097509050600087600381111561193257fe5b1461194a5761184f6009600389600381111561184a57fe5b60098e9055600a819055600b839055600c829055604080518d8152602081018690528082018390526060810185905290517f4dec04e750ca11537cabcd8a9eab06494de08da3735bc8871cd41250e190bc049181900360800190a160009e50505050505050505050505050505090565b6000805460ff166119ff576040805162461bcd60e51b815260206004820152600a6024820152691c994b595b9d195c995960b21b604482015290519081900360640190fd5b6000805460ff19168155611a15333386866121b1565b1490506000805460ff1916600117905592915050565b600a5481565b6006546000906001600160a01b031663b8168816611a4d612595565b600b54600c546008546040518563ffffffff1660e01b81526004018085815260200184815260200183815260200182815260200194505050505060206040518083038186803b158015611a9f57600080fd5b505afa158015611ab3573d6000803e3d6000fd5b505050506040513d6020811015611ac957600080fd5b5051905090565b6000805460ff16611b15576040805162461bcd60e51b815260206004820152600a6024820152691c994b595b9d195c995960b21b604482015290519081900360640190fd5b6000805460ff19169055611b2b33858585612c9e565b90506000805460ff191660011790559392505050565b60035460009061010090046001600160a01b03163314611b6757611084600160456126a9565b600480546001600160a01b038481166001600160a01b0319831681179093556040805191909216808252602082019390935281517fca4f2f25d0898edd99413412fb94012f9e54ec8142f9b093e7720646a95b16a9929181900390910190a160006111ac565b6000805460ff16611c12576040805162461bcd60e51b815260206004820152600a6024820152691c994b595b9d195c995960b21b604482015290519081900360640190fd5b6000805460ff19168155611c24611662565b14611c6f576040805162461bcd60e51b81526020600482015260166024820152751858d8dc9d59481a5b9d195c995cdd0819985a5b195960521b604482015290519081900360640190fd5b611c77610dda565b90506000805460ff1916600117905590565b6001600160a01b0381166000908152600e6020526040812054819081908190818080611cb489612884565b935090506000816003811115611cc657fe5b14611ce45760095b975060009650869550859450611d179350505050565b611cec612057565b925090506000816003811115611cfe57fe5b14611d0a576009611cce565b5060009650919450925090505b9193509193565b6000610ca282612f04565b6000610ca282612f83565b6001600160a01b039182166000908152600f6020908152604080832093909416825291909152205490565b6004546000906001600160a01b03163314611d8757611d80600160006126a9565b9050610e3a565b60038054600480546001600160a01b03818116610100818102610100600160a81b0319871617968790556001600160a01b031990931690935560408051948390048216808652929095041660208401528351909391927ff9ffabca9c8276e99321725bcb43fb076a6c66a54b7f21c4e8146d8519b417dc92908290030190a1600454604080516001600160a01b038085168252909216602083015280517fca4f2f25d0898edd99413412fb94012f9e54ec8142f9b093e7720646a95b16a99281900390910190a160009250505090565b600080611e62611662565b90508015611e8857611e80816011811115611e7957fe5b60406126a9565b915050610cb9565b6111ac8361293c565b6006546001600160a01b031681565b600080611eae858585612ffd565b5095945050505050565b60035461010090046001600160a01b031681565b6006546000906001600160a01b03166315f24053611ee8612595565b600b54600c546040518463ffffffff1660e01b815260040180848152602001838152602001828152602001935050505060206040518083038186803b158015611a9f57600080fd5b6000805460ff16611f75576040805162461bcd60e51b815260206004820152600a6024820152691c994b595b9d195c995960b21b604482015290519081900360640190fd5b6000805460ff19168155611f87611662565b90508015611fa55761129d816011811115611f9e57fe5b60466126a9565b6112ae8361312f565b60008054819060ff16611ff5576040805162461bcd60e51b815260206004820152600a6024820152691c994b595b9d195c995960b21b604482015290519081900360640190fd5b6000805460ff19168155612007611662565b905080156120325761202581601181111561201e57fe5b60366126a9565b9250600091506120439050565b61203d3333866131d7565b92509250505b6000805460ff191660011790559092909150565b600d5460009081908061207257505060075460009150612102565b600061207c612595565b9050600061208861549c565b600061209984600b54600c546135bc565b9350905060008160038111156120ab57fe5b146120c0579550600094506121029350505050565b6120ca83866135fa565b9250905060008160038111156120dc57fe5b146120f1579550600094506121029350505050565b505160009550935061210292505050565b9091565b60008054819060ff1661214d576040805162461bcd60e51b815260206004820152600a6024820152691c994b595b9d195c995960b21b604482015290519081900360640190fd5b6000805460ff1916815561215f611662565b9050801561218a5761217d81601181111561217657fe5b601e6126a9565b92506000915061219b9050565b6121953386866136aa565b92509250505b6000805460ff1916600117905590939092509050565b600554604080516317b9b84b60e31b81523060048201526001600160a01b03868116602483015285811660448301526064820185905291516000938493169163bdcdc25891608480830192602092919082900301818787803b15801561221657600080fd5b505af115801561222a573d6000803e3d6000fd5b505050506040513d602081101561224057600080fd5b50519050801561225f576122576003604a83612bb6565b915050611037565b836001600160a01b0316856001600160a01b03161415612285576122576002604b6126a9565b60006001600160a01b0387811690871614156122a457506000196122cc565b506001600160a01b038086166000908152600f60209081526040808320938a16835292905220545b6000806000806122dc8589612b2b565b909450925060008460038111156122ef57fe5b1461230d576123006009604b6126a9565b9650505050505050611037565b6001600160a01b038a166000908152600e60205260409020546123309089612b2b565b9094509150600084600381111561234357fe5b14612354576123006009604c6126a9565b6001600160a01b0389166000908152600e60205260409020546123779089612c1c565b9094509050600084600381111561238a57fe5b1461239b576123006009604d6126a9565b6001600160a01b03808b166000908152600e6020526040808220859055918b1681522081905560001985146123f3576001600160a01b03808b166000908152600f60209081526040808320938f168352929052208390555b886001600160a01b03168a6001600160a01b03166000805160206157508339815191528a6040518082815260200191505060405180910390a36005546040805163352b4a3f60e11b81523060048201526001600160a01b038d811660248301528c81166044830152606482018c905291519190921691636a56947e91608480830192600092919082900301818387803b15801561248f57600080fd5b505af11580156124a3573d6000803e3d6000fd5b50600092506124b0915050565b9b9a5050505050505050505050565b60008054819060ff16612506576040805162461bcd60e51b815260206004820152600a6024820152691c994b595b9d195c995960b21b604482015290519081900360640190fd5b6000805460ff19168155612518611662565b905080156125365761217d81601181111561252f57fe5b60356126a9565b6121953386866131d7565b600080600061254e61549c565b6125588686612b4e565b9092509050600082600381111561256b57fe5b1461257c575091506000905061258e565b600061258782613b36565b9350935050505b9250929050565b601154604080516370a0823160e01b815230600482015290516000926001600160a01b03169182916370a0823191602480820192602092909190829003018186803b1580156125e357600080fd5b505afa1580156125f7573d6000803e3d6000fd5b505050506040513d602081101561260d57600080fd5b505191505090565b6000805460ff1661265a576040805162461bcd60e51b815260206004820152600a6024820152691c994b595b9d195c995960b21b604482015290519081900360640190fd5b6000805460ff1916815561266c611662565b9050801561268a5761129d81601181111561268357fe5b604e6126a9565b61269383613b45565b509150506000805460ff19166001179055919050565b60007f45b96fe442630264581b197e84bbada861235052c5a1aadfff9ea4e40a969aa08360118111156126d857fe5b8360568111156126e457fe5b604080519283526020830191909152600082820152519081900360600190a18260118111156111ac57fe5b600354600090819061010090046001600160a01b0316331461273757611e80600160316126a9565b61273f612938565b6009541461275357611e80600a60336126a9565b8261275c612595565b101561276e57611e80600e60326126a9565b600c5483111561278457611e80600260346126a9565b50600c8054839003908190556003546127ab9061010090046001600160a01b031684613c2d565b600354604080516101009092046001600160a01b0316825260208201859052818101839052517f3bad0c59cf2f06e7314077049f48a93578cd16f5ef92329f1dab1420a99c177e916060908290030190a160006111ac565b6000805460ff16612848576040805162461bcd60e51b815260206004820152600a6024820152691c994b595b9d195c995960b21b604482015290519081900360640190fd5b6000805460ff1916815561285a611662565b905080156128785761129d81601181111561287157fe5b60276126a9565b6112ae33600085613d24565b6001600160a01b0381166000908152601060205260408120805482918291829182916128bb57506000945084935061293392505050565b6128cb8160000154600a5461449f565b909450925060008460038111156128de57fe5b146128f3575091935060009250612933915050565b6129018382600101546144de565b9094509150600084600381111561291457fe5b14612929575091935060009250612933915050565b5060009450925050505b915091565b4390565b600354600090819061010090046001600160a01b0316331461296457611e80600160426126a9565b61296c612938565b6009541461298057611e80600a60416126a9565b600660009054906101000a90046001600160a01b03169050826001600160a01b0316632191f92a6040518163ffffffff1660e01b815260040160206040518083038186803b1580156129d157600080fd5b505afa1580156129e5573d6000803e3d6000fd5b505050506040513d60208110156129fb57600080fd5b5051612a4e576040805162461bcd60e51b815260206004820152601c60248201527f6d61726b6572206d6574686f642072657475726e65642066616c736500000000604482015290519081900360640190fd5b600680546001600160a01b0319166001600160a01b03858116918217909255604080519284168352602083019190915280517fedffc32e068c7c95dfd4bdfd5c4d939a084d6b11c4199eac8436ed234d72f9269281900390910190a160006111ac565b60008054819060ff16612af8576040805162461bcd60e51b815260206004820152600a6024820152691c994b595b9d195c995960b21b604482015290519081900360640190fd5b6000805460ff19168155612b0a611662565b90508015612b215761202581601181111561217657fe5b61203d3385614509565b600080838311612b4257506000905081830361258e565b5060039050600061258e565b6000612b5861549c565b600080612b6986600001518661449f565b90925090506000826003811115612b7c57fe5b14612b9b5750604080516020810190915260008152909250905061258e565b60408051602081019091529081526000969095509350505050565b60007f45b96fe442630264581b197e84bbada861235052c5a1aadfff9ea4e40a969aa0846011811115612be557fe5b846056811115612bf157fe5b604080519283526020830191909152818101859052519081900360600190a183601181111561103757fe5b600080838301848110612c345760009250905061258e565b50600291506000905061258e565b6000806000612c4f61549c565b612c598787612b4e565b90925090506000826003811115612c6c57fe5b14612c7d5750915060009050612c96565b612c8f612c8982613b36565b86612c1c565b9350935050505b935093915050565b6005546040805163d02f735160e01b81523060048201526001600160a01b038781166024830152868116604483015285811660648301526084820185905291516000938493169163d02f73519160a480830192602092919082900301818787803b158015612d0b57600080fd5b505af1158015612d1f573d6000803e3d6000fd5b505050506040513d6020811015612d3557600080fd5b505190508015612d4c576122576003601b83612bb6565b846001600160a01b0316846001600160a01b03161415612d72576122576006601c6126a9565b6001600160a01b0384166000908152600e602052604081205481908190612d999087612b2b565b90935091506000836003811115612dac57fe5b14612dcf57612dc46009601a85600381111561184a57fe5b945050505050611037565b6001600160a01b0388166000908152600e6020526040902054612df29087612c1c565b90935090506000836003811115612e0557fe5b14612e1d57612dc46009601985600381111561184a57fe5b6001600160a01b038088166000818152600e60209081526040808320879055938c168083529184902085905583518a815293519193600080516020615750833981519152929081900390910190a360055460408051636d35bf9160e01b81523060048201526001600160a01b038c811660248301528b811660448301528a81166064830152608482018a905291519190921691636d35bf919160a480830192600092919082900301818387803b158015612ed657600080fd5b505af1158015612eea573d6000803e3d6000fd5b5060009250612ef7915050565b9998505050505050505050565b6000805460ff16612f49576040805162461bcd60e51b815260206004820152600a6024820152691c994b595b9d195c995960b21b604482015290519081900360640190fd5b6000805460ff19168155612f5b611662565b90508015612f795761129d816011811115612f7257fe5b60086126a9565b6112ae3384614950565b6000805460ff16612fc8576040805162461bcd60e51b815260206004820152600a6024820152691c994b595b9d195c995960b21b604482015290519081900360640190fd5b6000805460ff19168155612fda611662565b90508015612ff15761129d81601181111561287157fe5b6112ae33846000613d24565b60008054819060ff16613044576040805162461bcd60e51b815260206004820152600a6024820152691c994b595b9d195c995960b21b604482015290519081900360640190fd5b6000805460ff19168155613056611662565b905080156130815761307481601181111561306d57fe5b600f6126a9565b9250600091506131189050565b836001600160a01b031663a6afed956040518163ffffffff1660e01b8152600401602060405180830381600087803b1580156130bc57600080fd5b505af11580156130d0573d6000803e3d6000fd5b505050506040513d60208110156130e657600080fd5b505190508015613106576130748160118111156130ff57fe5b60106126a9565b61311233878787614c5e565b92509250505b6000805460ff191660011790559094909350915050565b60035460009061010090046001600160a01b0316331461315557611084600160476126a9565b61315d612938565b6009541461317157611084600a60486126a9565b670de0b6b3a764000082111561318d57611084600260496126a9565b6008805490839055604080518281526020810185905281517faaa68312e2ea9d50e16af5068410ab56e1a1fd06037b1a35664812c30f821460929181900390910190a160006111ac565b60055460408051631200453160e11b81523060048201526001600160a01b0386811660248301528581166044830152606482018590529151600093849384939116916324008a629160848082019260209290919082900301818787803b15801561324057600080fd5b505af1158015613254573d6000803e3d6000fd5b505050506040513d602081101561326a57600080fd5b50519050801561328e576132816003603883612bb6565b925060009150612c969050565b613296612938565b600954146132aa57613281600a60396126a9565b6132b261552d565b6001600160a01b03861660009081526010602052604090206001015460608201526132dc86612884565b60808301819052602083018260038111156132f357fe5b60038111156132fe57fe5b905250600090508160200151600381111561331557fe5b1461333f57613331600960378360200151600381111561184a57fe5b935060009250612c96915050565b6000198514156133585760808101516040820152613360565b604081018590525b61336e8782604001516151e1565b60e08201819052608082015161338391612b2b565b60a083018190526020830182600381111561339a57fe5b60038111156133a557fe5b90525060009050816020015160038111156133bc57fe5b146133f85760405162461bcd60e51b815260040180806020018281038252603a815260200180615716603a913960400191505060405180910390fd5b613408600b548260e00151612b2b565b60c083018190526020830182600381111561341f57fe5b600381111561342a57fe5b905250600090508160200151600381111561344157fe5b1461347d5760405162461bcd60e51b81526004018080602001828103825260318152602001806157706031913960400191505060405180910390fd5b60a080820180516001600160a01b03808a16600081815260106020908152604091829020948555600a5460019095019490945560c0870151600b81905560e088015195518251948f16855294840192909252828101949094526060820192909252608081019190915290517f1a2a22cb034d26d1854bdc6666a5b91fe25efbbb5dcad3b0355478d6f5c362a1929181900390910190a160055460e0820151606083015160408051631ededc9160e01b81523060048201526001600160a01b038c811660248301528b8116604483015260648201949094526084810192909252519190921691631ededc919160a480830192600092919082900301818387803b15801561358857600080fd5b505af115801561359c573d6000803e3d6000fd5b50600092506135a9915050565b8160e00151935093505050935093915050565b6000806000806135cc8787612c1c565b909250905060008260038111156135df57fe5b146135f05750915060009050612c96565b612c8f8186612b2b565b600061360461549c565b60008061361986670de0b6b3a764000061449f565b9092509050600082600381111561362c57fe5b1461364b5750604080516020810190915260008152909250905061258e565b60008061365883886144de565b9092509050600082600381111561366b57fe5b1461368d5750604080516020810190915260008152909450925061258e915050565b604080516020810190915290815260009890975095505050505050565b6000806001600160a01b0384166136fe576040805162461bcd60e51b81526020600482015260136024820152721c9958d95a5d995c881a5cc81a5b9d985b1a59606a1b604482015290519081900360640190fd5b60055460408051634ef4c3e160e01b81523060048201526001600160a01b0387811660248301526044820187905291516000939290921691634ef4c3e19160648082019260209290919082900301818787803b15801561375d57600080fd5b505af1158015613771573d6000803e3d6000fd5b505050506040513d602081101561378757600080fd5b50519050801561379e576132816003601f83612bb6565b6137a6612938565b600954146137ba57613281600a60226126a9565b6137c2615573565b6137ca612057565b60208301819052828260038111156137de57fe5b60038111156137e957fe5b90525060009050815160038111156137fd57fe5b1461381957613331600960218360000151600381111561184a57fe5b61382387866151e1565b60a08201819052604080516020808201909252908301518152613846919061542b565b604083018190528282600381111561385a57fe5b600381111561386557fe5b905250600090508151600381111561387957fe5b146138cb576040805162461bcd60e51b815260206004820181905260248201527f4d494e545f45584348414e47455f43414c43554c4154494f4e5f4641494c4544604482015290519081900360640190fd5b6138db600d548260400151612c1c565b60608301819052828260038111156138ef57fe5b60038111156138fa57fe5b905250600090508151600381111561390e57fe5b1461394a5760405162461bcd60e51b81526004018080602001828103825260288152602001806158096028913960400191505060405180910390fd5b6001600160a01b0386166000908152600e60205260409081902054908201516139739190612c1c565b608083018190528282600381111561398757fe5b600381111561399257fe5b90525060009050815160038111156139a657fe5b146139e25760405162461bcd60e51b815260040180806020018281038252602b8152602001806156b4602b913960400191505060405180910390fd5b606080820151600d556080808301516001600160a01b03808a166000818152600e60209081526040918290209490945560a0870151818801518251948f16855294840192909252828101919091529381019190915291517f297989b84a5f5b82d2ee0c266504c19bd9b10b410f187dc72ca4b0f0faecb3459281900390910190a1604080820151815190815290516001600160a01b0388169130916000805160206157508339815191529181900360200190a360055460a082015160408084015181516341c728b960e01b81523060048201526001600160a01b038b8116602483015260448201949094526064810191909152905191909216916341c728b991608480830192600092919082900301818387803b158015613b0257600080fd5b505af1158015613b16573d6000803e3d6000fd5b5060009250613b23915050565b8160a00151935093505050935093915050565b51670de0b6b3a7640000900490565b600080600080613b53612938565b60095414613b7257613b67600a604f6126a9565b935091506129339050565b613b7c33866151e1565b905080600c54019150600c54821015613bdc576040805162461bcd60e51b815260206004820181905260248201527f61646420726573657276657320756e6578706563746564206f766572666c6f77604482015290519081900360640190fd5b600c829055604080513381526020810183905280820184905290517fa91e67c5ea634cd43a12c5a482724b03de01e85ca68702a53d0c2f45cb7c1dc59181900360600190a160009350915050915091565b6011546040805163a9059cbb60e01b81526001600160a01b0385811660048301526024820185905291519190921691829163a9059cbb9160448082019260009290919082900301818387803b158015613c8557600080fd5b505af1158015613c99573d6000803e3d6000fd5b5050505060003d60008114613cb55760208114613cbf57600080fd5b6000199150613ccb565b60206000803e60005191505b5080613d1e576040805162461bcd60e51b815260206004820152601960248201527f544f4b454e5f5452414e534645525f4f55545f4641494c454400000000000000604482015290519081900360640190fd5b50505050565b6000821580613d31575081155b613d6c5760405162461bcd60e51b81526004018080602001828103825260348152602001806158316034913960400191505060405180910390fd5b613d74615573565b613d7c612057565b6020830181905282826003811115613d9057fe5b6003811115613d9b57fe5b9052506000905081516003811115613daf57fe5b14613dd357613dcb6009602b8360000151600381111561184a57fe5b9150506111ac565b8315613e4f57604080820185905280516020808201909252908201518152613dfb9085612541565b6060830181905282826003811115613e0f57fe5b6003811115613e1a57fe5b9052506000905081516003811115613e2e57fe5b14613e4a57613dcb600960298360000151600381111561184a57fe5b613ec2565b613e6b836040518060200160405280846020015181525061542b565b6040830181905282826003811115613e7f57fe5b6003811115613e8a57fe5b9052506000905081516003811115613e9e57fe5b14613eba57613dcb6009602a8360000151600381111561184a57fe5b606081018390525b600554604080830151815163eabe7d9160e01b81523060048201526001600160a01b03898116602483015260448201929092529151600093919091169163eabe7d9191606480830192602092919082900301818787803b158015613f2557600080fd5b505af1158015613f39573d6000803e3d6000fd5b505050506040513d6020811015613f4f57600080fd5b505190508015613f6f57613f666003602883612bb6565b925050506111ac565b613f77612938565b60095414613f8b57613f66600a602c6126a9565b613f9b600d548360400151612b2b565b6080840181905283826003811115613faf57fe5b6003811115613fba57fe5b9052506000905082516003811115613fce57fe5b14613fea57613f666009602e8460000151600381111561184a57fe5b6001600160a01b0386166000908152600e60205260409081902054908301516140139190612b2b565b60a084018190528382600381111561402757fe5b600381111561403257fe5b905250600090508251600381111561404657fe5b1461406257613f666009602d8460000151600381111561184a57fe5b816060015161406f612595565b101561408157613f66600e602f6126a9565b600080600560009054906101000a90046001600160a01b03166001600160a01b03166304ef9d586040518163ffffffff1660e01b815260040160206040518083038186803b1580156140d257600080fd5b505afa1580156140e6573d6000803e3d6000fd5b505050506040513d60208110156140fc57600080fd5b50511561435657606084015160055460408051629df3ab60e31b8152905161417f93926001600160a01b0316916304ef9d58916004808301926020929190829003018186803b15801561414e57600080fd5b505afa158015614162573d6000803e3d6000fd5b505050506040513d602081101561417857600080fd5b505161449f565b9250828582600381111561418f57fe5b600381111561419a57fe5b90525060009050845160038111156141ae57fe5b146141d5576141ca600960568660000151600381111561184a57fe5b9450505050506111ac565b6141e782670de0b6b3a76400006144de565b925082858260038111156141f757fe5b600381111561420257fe5b905250600090508451600381111561421657fe5b14614232576141ca600960568660000151600381111561184a57fe5b614240846060015183612b2b565b9150818582600381111561425057fe5b600381111561425b57fe5b905250600090508451600381111561426f57fe5b1461428b576141ca600960568660000151600381111561184a57fe5b6005546040805163c5f956af60e01b81529051614303926001600160a01b03169163c5f956af916004808301926020929190829003018186803b1580156142d157600080fd5b505afa1580156142e5573d6000803e3d6000fd5b505050506040513d60208110156142fb57600080fd5b505183613c2d565b60408085015181516001600160a01b038b168152602081018590528083019190915290517fccf8e53b86a99b7e9ecf796342c165764d66154780f638c08e6241d711fba6d49181900360600190a161435d565b5060608301515b6143678882613c2d565b6080840151600d5560a08401516001600160a01b0389166000818152600e60209081526040918290209390935580870151815190815290513093600080516020615750833981519152928290030190a360408085015181516001600160a01b038b168152602081018490528083019190915290517fe5b754fb1abb7f01b499791d0b820ae3b6af3424ac1c59768edb53f4ec31a9299181900360600190a1600554606085015160408087015181516351dff98960e01b81523060048201526001600160a01b038d8116602483015260448201949094526064810191909152905191909216916351dff98991608480830192600092919082900301818387803b15801561447257600080fd5b505af1158015614486573d6000803e3d6000fd5b5060009250614493915050565b98975050505050505050565b600080836144b25750600090508061258e565b838302838582816144bf57fe5b04146144d35750600291506000905061258e565b60009250905061258e565b600080826144f2575060019050600061258e565b60008385816144fd57fe5b04915091509250929050565b60055460408051634ef4c3e160e01b81523060048201526001600160a01b03858116602483015260448201859052915160009384938493911691634ef4c3e19160648082019260209290919082900301818787803b15801561456a57600080fd5b505af115801561457e573d6000803e3d6000fd5b505050506040513d602081101561459457600080fd5b5051905080156145b8576145ab6003601f83612bb6565b92506000915061258e9050565b6145c0612938565b600954146145d4576145ab600a60226126a9565b6145dc615573565b6145e4612057565b60208301819052828260038111156145f857fe5b600381111561460357fe5b905250600090508151600381111561461757fe5b1461464157614633600960218360000151600381111561184a57fe5b93506000925061258e915050565b61464b86866151e1565b60a0820181905260408051602080820190925290830151815261466e919061542b565b604083018190528282600381111561468257fe5b600381111561468d57fe5b90525060009050815160038111156146a157fe5b146146f3576040805162461bcd60e51b815260206004820181905260248201527f4d494e545f45584348414e47455f43414c43554c4154494f4e5f4641494c4544604482015290519081900360640190fd5b614703600d548260400151612c1c565b606083018190528282600381111561471757fe5b600381111561472257fe5b905250600090508151600381111561473657fe5b146147725760405162461bcd60e51b81526004018080602001828103825260288152602001806158096028913960400191505060405180910390fd5b6001600160a01b0386166000908152600e602052604090819020549082015161479b9190612c1c565b60808301819052828260038111156147af57fe5b60038111156147ba57fe5b90525060009050815160038111156147ce57fe5b1461480a5760405162461bcd60e51b815260040180806020018281038252602b8152602001806156b4602b913960400191505060405180910390fd5b606080820151600d5560808201516001600160a01b0388166000818152600e60209081526040918290209390935560a0850151818601518251938452938301528181019290925290517f4c209b5fc8ad50758f13e2e1088ba56a560dff690a1c6fef26394f4c03821c4f929181900390910190a1604080820151815190815290516001600160a01b0388169130916000805160206157508339815191529181900360200190a360055460a082015160408084015181516341c728b960e01b81523060048201526001600160a01b038b8116602483015260448201949094526064810191909152905191909216916341c728b991608480830192600092919082900301818387803b15801561491d57600080fd5b505af1158015614931573d6000803e3d6000fd5b506000925061493e915050565b8160a001519350935050509250929050565b6005546040805163368f515360e21b81523060048201526001600160a01b0385811660248301526044820185905291516000938493169163da3d454c91606480830192602092919082900301818787803b1580156149ad57600080fd5b505af11580156149c1573d6000803e3d6000fd5b505050506040513d60208110156149d757600080fd5b5051905080156149f6576149ee6003600e83612bb6565b915050610ca2565b6149fe612938565b60095414614a11576149ee600a806126a9565b82614a1a612595565b1015614a2c576149ee600e60096126a9565b614a346155aa565b614a3d85612884565b6020830181905282826003811115614a5157fe5b6003811115614a5c57fe5b9052506000905081516003811115614a7057fe5b14614a9557614a8c600960078360000151600381111561184a57fe5b92505050610ca2565b614aa3816020015185612c1c565b6040830181905282826003811115614ab757fe5b6003811115614ac257fe5b9052506000905081516003811115614ad657fe5b14614af257614a8c6009600c8360000151600381111561184a57fe5b614afe600b5485612c1c565b6060830181905282826003811115614b1257fe5b6003811115614b1d57fe5b9052506000905081516003811115614b3157fe5b14614b4d57614a8c6009600b8360000151600381111561184a57fe5b614b578585613c2d565b604080820180516001600160a01b03881660008181526010602090815290859020928355600a54600190930192909255606080860151600b81905593518551928352928201899052818501929092529081019190915290517f13ed6866d4e1ee6da46f845c46d7e54120883d75c5ea9a2dacc1c4ca8984ab809181900360800190a160055460408051635c77860560e01b81523060048201526001600160a01b0388811660248301526044820188905291519190921691635c77860591606480830192600092919082900301818387803b158015614c3457600080fd5b505af1158015614c48573d6000803e3d6000fd5b5060009250614c55915050565b95945050505050565b60055460408051632fe3f38f60e11b81523060048201526001600160a01b0384811660248301528781166044830152868116606483015260848201869052915160009384938493911691635fc7e71e9160a48082019260209290919082900301818787803b158015614ccf57600080fd5b505af1158015614ce3573d6000803e3d6000fd5b505050506040513d6020811015614cf957600080fd5b505190508015614d1d57614d106003601283612bb6565b9250600091506151d89050565b614d25612938565b60095414614d3957614d10600a60166126a9565b614d41612938565b846001600160a01b0316636c540baf6040518163ffffffff1660e01b815260040160206040518083038186803b158015614d7a57600080fd5b505afa158015614d8e573d6000803e3d6000fd5b505050506040513d6020811015614da457600080fd5b505114614db757614d10600a60116126a9565b866001600160a01b0316866001600160a01b03161415614ddd57614d10600660176126a9565b84614dee57614d10600760156126a9565b600019851415614e0457614d10600760146126a9565b600080614e128989896131d7565b90925090508115614e4257614e33826011811115614e2c57fe5b60186126a9565b9450600093506151d892505050565b6005546040805163c488847b60e01b81523060048201526001600160a01b038981166024830152604482018590528251600094859492169263c488847b926064808301939192829003018186803b158015614e9c57600080fd5b505afa158015614eb0573d6000803e3d6000fd5b505050506040513d6040811015614ec657600080fd5b50805160209091015190925090508115614f115760405162461bcd60e51b81526004018080602001828103825260338152602001806157a16033913960400191505060405180910390fd5b80886001600160a01b03166370a082318c6040518263ffffffff1660e01b815260040180826001600160a01b03166001600160a01b0316815260200191505060206040518083038186803b158015614f6857600080fd5b505afa158015614f7c573d6000803e3d6000fd5b505050506040513d6020811015614f9257600080fd5b50511015614fe7576040805162461bcd60e51b815260206004820152601860248201527f4c49515549444154455f5345495a455f544f4f5f4d5543480000000000000000604482015290519081900360640190fd5b60006001600160a01b03891630141561500d57615006308d8d85612c9e565b9050615097565b6040805163b2a02ff160e01b81526001600160a01b038e811660048301528d81166024830152604482018590529151918b169163b2a02ff1916064808201926020929091908290030181600087803b15801561506857600080fd5b505af115801561507c573d6000803e3d6000fd5b505050506040513d602081101561509257600080fd5b505190505b80156150e1576040805162461bcd60e51b81526020600482015260146024820152731d1bdad95b881cd95a5e9d5c994819985a5b195960621b604482015290519081900360640190fd5b604080516001600160a01b03808f168252808e1660208301528183018790528b1660608201526080810184905290517f298637f684da70674f26509b10f07ec2fbc77a335ab1e7d6215a4b2484d8bb529181900360a00190a1600554604080516347ef3b3b60e01b81523060048201526001600160a01b038c811660248301528f811660448301528e811660648301526084820188905260a48201869052915191909216916347ef3b3b9160c480830192600092919082900301818387803b1580156151ac57600080fd5b505af11580156151c0573d6000803e3d6000fd5b50600092506151cd915050565b975092955050505050505b94509492505050565b601154604080516370a0823160e01b815230600482015290516000926001600160a01b031691839183916370a08231916024808301926020929190829003018186803b15801561523057600080fd5b505afa158015615244573d6000803e3d6000fd5b505050506040513d602081101561525a57600080fd5b5051604080516323b872dd60e01b81526001600160a01b038881166004830152306024830152604482018890529151929350908416916323b872dd9160648082019260009290919082900301818387803b1580156152b757600080fd5b505af11580156152cb573d6000803e3d6000fd5b5050505060003d600081146152e757602081146152f157600080fd5b60001991506152fd565b60206000803e60005191505b5080615350576040805162461bcd60e51b815260206004820152601860248201527f544f4b454e5f5452414e534645525f494e5f4641494c45440000000000000000604482015290519081900360640190fd5b601154604080516370a0823160e01b815230600482015290516000926001600160a01b0316916370a08231916024808301926020929190829003018186803b15801561539b57600080fd5b505afa1580156153af573d6000803e3d6000fd5b505050506040513d60208110156153c557600080fd5b505190508281101561541e576040805162461bcd60e51b815260206004820152601a60248201527f544f4b454e5f5452414e534645525f494e5f4f564552464c4f57000000000000604482015290519081900360640190fd5b9190910395945050505050565b600080600061543861549c565b6125588686600061544761549c565b60008061545c670de0b6b3a76400008761449f565b9092509050600082600381111561546f57fe5b1461548e5750604080516020810190915260008152909250905061258e565b6125878186600001516135fa565b6040518060200160405280600081525090565b828054600181600116156101000203166002900490600052602060002090601f016020900481019282601f106154f057805160ff191683800117855561551d565b8280016001018555821561551d579182015b8281111561551d578251825591602001919060010190615502565b506155299291506155d3565b5090565b6040805161010081019091528060008152602001600081526020016000815260200160008152602001600081526020016000815260200160008152602001600081525090565b6040805160c08101909152806000815260200160008152602001600081526020016000815260200160008152602001600081525090565b604080516080810190915280600081526020016000815260200160008152602001600081525090565b610e3a91905b8082111561552957600081556001016155d956fe6f6e6c792061646d696e206d617920696e697469616c697a6520746865206d61726b65746d61726b6574206d6179206f6e6c7920626520696e697469616c697a6564206f6e6365696e697469616c2065786368616e67652072617465206d7573742062652067726561746572207468616e207a65726f2e73657474696e6720696e7465726573742072617465206d6f64656c206661696c65646f6e6c79207468652061646d696e206d61792063616c6c205f72657369676e496d706c656d656e746174696f6e4d494e545f4e45575f4143434f554e545f42414c414e43455f43414c43554c4154494f4e5f4641494c4544626f72726f7742616c616e636553746f7265643a20626f72726f7742616c616e636553746f726564496e7465726e616c206661696c656452455041595f424f52524f575f4e45575f4143434f554e545f424f52524f575f42414c414e43455f43414c43554c4154494f4e5f4641494c4544ddf252ad1be2c89b69c2b068fc378daa952ba7f163c4a11628f55a4df523b3ef52455041595f424f52524f575f4e45575f544f54414c5f42414c414e43455f43414c43554c4154494f4e5f4641494c45444c49515549444154455f434f4d5054524f4c4c45525f43414c43554c4154455f414d4f554e545f5345495a455f4641494c454465786368616e67655261746553746f7265643a2065786368616e67655261746553746f726564496e7465726e616c206661696c65644d494e545f4e45575f544f54414c5f535550504c595f43414c43554c4154494f4e5f4641494c45446f6e65206f662072656465656d546f6b656e73496e206f722072656465656d416d6f756e74496e206d757374206265207a65726f6f6e6c79207468652061646d696e206d61792063616c6c205f6265636f6d65496d706c656d656e746174696f6ea265627a7a7231582044cb9906c6ccedc08de5182bfc694caf23f61ce887019b5f4ca16c971fdee8ed64736f6c63430005100032",
  "devdoc": {
    "author": "Venus",
    "methods": {
      "_acceptAdmin()": {
        "details": "Admin function for pending admin to accept role and update admin",
        "return": "uint 0=success, otherwise a failure (see ErrorReporter.sol for details)"
      },
      "_addReserves(uint256)": {
        "params": {
          "addAmount": "The amount fo underlying token to add as reserves"
        },
        "return": "uint 0=success, otherwise a failure (see ErrorReporter.sol for details)"
      },
      "_becomeImplementation(bytes)": {
        "params": {
          "data": "The encoded bytes data for any initialization"
        }
      },
      "_reduceReserves(uint256)": {
        "params": {
          "reduceAmount": "Amount of reduction to reserves"
        },
        "return": "uint 0=success, otherwise a failure (see ErrorReporter.sol for details)"
      },
      "_setComptroller(address)": {
        "details": "Admin function to set a new comptroller",
        "return": "uint 0=success, otherwise a failure (see ErrorReporter.sol for details)"
      },
      "_setInterestRateModel(address)": {
        "details": "Admin function to accrue interest and update the interest rate model",
        "params": {
          "newInterestRateModel": "the new interest rate model to use"
        },
        "return": "uint 0=success, otherwise a failure (see ErrorReporter.sol for details)"
      },
      "_setPendingAdmin(address)": {
        "details": "Admin function to begin change of admin. The newPendingAdmin must call `_acceptAdmin` to finalize the transfer.",
        "params": {
          "newPendingAdmin": "New pending admin."
        },
        "return": "uint 0=success, otherwise a failure (see ErrorReporter.sol for details)"
      },
      "_setReserveFactor(uint256)": {
        "details": "Admin function to accrue interest and set a new reserve factor",
        "return": "uint 0=success, otherwise a failure (see ErrorReporter.sol for details)"
      },
      "accrueInterest()": {
        "details": "This calculates interest accrued from the last checkpointed block  up to the current block and writes new checkpoint to storage."
      },
      "allowance(address,address)": {
        "params": {
          "owner": "The address of the account which owns the tokens to be spent",
          "spender": "The address of the account which may transfer tokens"
        },
        "return": "The number of tokens allowed to be spent (-1 means infinite)"
      },
      "approve(address,uint256)": {
        "details": "This will overwrite the approval amount for `spender` and is subject to issues noted [here](https://eips.ethereum.org/EIPS/eip-20#approve)",
        "params": {
          "amount": "The number of tokens that are approved (-1 means infinite)",
          "spender": "The address of the account which may transfer tokens"
        },
        "return": "Whether or not the approval succeeded"
      },
      "balanceOf(address)": {
        "params": {
          "owner": "The address of the account to query"
        },
        "return": "The number of tokens owned by `owner`"
      },
      "balanceOfUnderlying(address)": {
        "details": "This also accrues interest in a transaction",
        "params": {
          "owner": "The address of the account to query"
        },
        "return": "The amount of underlying owned by `owner`"
      },
      "borrow(uint256)": {
        "params": {
          "borrowAmount": "The amount of the underlying asset to borrow"
        },
        "return": "uint 0=success, otherwise a failure (see ErrorReporter.sol for details)"
      },
      "borrowBalanceCurrent(address)": {
        "params": {
          "account": "The address whose balance should be calculated after updating borrowIndex"
        },
        "return": "The calculated balance"
      },
      "borrowBalanceStored(address)": {
        "params": {
          "account": "The address whose balance should be calculated"
        },
        "return": "The calculated balance"
      },
      "borrowRatePerBlock()": {
        "return": "The borrow interest rate per block, scaled by 1e18"
      },
      "exchangeRateCurrent()": {
        "return": "Calculated exchange rate scaled by 1e18"
      },
      "exchangeRateStored()": {
        "details": "This function does not accrue interest before calculating the exchange rate",
        "return": "Calculated exchange rate scaled by 1e18"
      },
      "getAccountSnapshot(address)": {
        "details": "This is used by comptroller to more efficiently perform liquidity checks.",
        "params": {
          "account": "Address of the account to snapshot"
        },
        "return": "(possible error, token balance, borrow balance, exchange rate mantissa)"
      },
      "getCash()": {
        "return": "The quantity of underlying asset owned by this contract"
      },
      "initialize(address,address,address,uint256,string,string,uint8)": {
        "params": {
          "comptroller_": "The address of the Comptroller",
          "decimals_": "BEP-20 decimal precision of this token",
          "initialExchangeRateMantissa_": "The initial exchange rate, scaled by 1e18",
          "interestRateModel_": "The address of the interest rate model",
          "name_": "BEP-20 name of this token",
          "symbol_": "BEP-20 symbol of this token",
          "underlying_": "The address of the underlying asset"
        }
      },
      "initialize(address,address,uint256,string,string,uint8)": {
        "params": {
          "comptroller_": "The address of the Comptroller",
          "decimals_": "EIP-20 decimal precision of this token",
          "initialExchangeRateMantissa_": "The initial exchange rate, scaled by 1e18",
          "interestRateModel_": "The address of the interest rate model",
          "name_": "EIP-20 name of this token",
          "symbol_": "EIP-20 symbol of this token"
        }
      },
      "liquidateBorrow(address,uint256,address)": {
        "params": {
          "borrower": "The borrower of this vToken to be liquidated",
          "repayAmount": "The amount of the underlying borrowed asset to repay",
          "vTokenCollateral": "The market in which to seize collateral from the borrower"
        },
        "return": "uint 0=success, otherwise a failure (see ErrorReporter.sol for details)"
      },
      "mint(uint256)": {
        "details": "Accrues interest whether or not the operation succeeds, unless reverted",
        "params": {
          "mintAmount": "The amount of the underlying asset to supply"
        },
        "return": "uint 0=success, otherwise a failure (see ErrorReporter.sol for details)"
      },
      "mintBehalf(address,uint256)": {
        "details": "Accrues interest whether or not the operation succeeds, unless reverted",
        "params": {
          "mintAmount": "The amount of the underlying asset to supply",
          "receiver": "the account which is receiving the vTokens"
        },
        "return": "uint 0=success, otherwise a failure (see ErrorReporter.sol for details)"
      },
      "redeem(uint256)": {
        "details": "Accrues interest whether or not the operation succeeds, unless reverted",
        "params": {
          "redeemTokens": "The number of vTokens to redeem into underlying"
        },
        "return": "uint 0=success, otherwise a failure (see ErrorReporter.sol for details)"
      },
      "redeemUnderlying(uint256)": {
        "details": "Accrues interest whether or not the operation succeeds, unless reverted",
        "params": {
          "redeemAmount": "The amount of underlying to redeem"
        },
        "return": "uint 0=success, otherwise a failure (see ErrorReporter.sol for details)"
      },
      "repayBorrow(uint256)": {
        "params": {
          "repayAmount": "The amount to repay"
        },
        "return": "uint 0=success, otherwise a failure (see ErrorReporter.sol for details)"
      },
      "repayBorrowBehalf(address,uint256)": {
        "params": {
          "borrower": "the account with the debt being payed off",
          "repayAmount": "The amount to repay"
        },
        "return": "uint 0=success, otherwise a failure (see ErrorReporter.sol for details)"
      },
      "seize(address,address,uint256)": {
        "details": "Will fail unless called by another vToken during the process of liquidation. Its absolutely critical to use msg.sender as the borrowed vToken and not a parameter.",
        "params": {
          "borrower": "The account having collateral seized",
          "liquidator": "The account receiving seized collateral",
          "seizeTokens": "The number of vTokens to seize"
        },
        "return": "uint 0=success, otherwise a failure (see ErrorReporter.sol for details)"
      },
      "supplyRatePerBlock()": {
        "return": "The supply interest rate per block, scaled by 1e18"
      },
      "totalBorrowsCurrent()": {
        "return": "The total borrows with interest"
      },
      "transfer(address,uint256)": {
        "params": {
          "amount": "The number of tokens to transfer",
          "dst": "The address of the destination account"
        },
        "return": "Whether or not the transfer succeeded"
      },
      "transferFrom(address,address,uint256)": {
        "params": {
          "amount": "The number of tokens to transfer",
          "dst": "The address of the destination account",
          "src": "The address of the source account"
        },
        "return": "Whether or not the transfer succeeded"
      }
    },
    "title": "Venus's VBep20Delegate Contract"
  },
  "userdoc": {
    "methods": {
      "_acceptAdmin()": {
        "notice": "Accepts transfer of admin rights. msg.sender must be pendingAdmin"
      },
      "_addReserves(uint256)": {
        "notice": "The sender adds to reserves."
      },
      "_becomeImplementation(bytes)": {
        "notice": "Called by the delegator on a delegate to initialize it for duty"
      },
      "_reduceReserves(uint256)": {
        "notice": "Accrues interest and reduces reserves by transferring to admin"
      },
      "_resignImplementation()": {
        "notice": "Called by the delegator on a delegate to forfeit its responsibility"
      },
      "_setComptroller(address)": {
        "notice": "Sets a new comptroller for the market"
      },
      "_setInterestRateModel(address)": {
        "notice": "accrues interest and updates the interest rate model using _setInterestRateModelFresh"
      },
      "_setPendingAdmin(address)": {
        "notice": "Begins transfer of admin rights. The newPendingAdmin must call `_acceptAdmin` to finalize the transfer."
      },
      "_setReserveFactor(uint256)": {
        "notice": "accrues interest and sets a new reserve factor for the protocol using _setReserveFactorFresh"
      },
      "accrueInterest()": {
        "notice": "Applies accrued interest to total borrows and reserves"
      },
      "allowance(address,address)": {
        "notice": "Get the current allowance from `owner` for `spender`"
      },
      "approve(address,uint256)": {
        "notice": "Approve `spender` to transfer up to `amount` from `src`"
      },
      "balanceOf(address)": {
        "notice": "Get the token balance of the `owner`"
      },
      "balanceOfUnderlying(address)": {
        "notice": "Get the underlying balance of the `owner`"
      },
      "borrow(uint256)": {
        "notice": "Sender borrows assets from the protocol to their own address"
      },
      "borrowBalanceCurrent(address)": {
        "notice": "Accrue interest to updated borrowIndex and then calculate account's borrow balance using the updated borrowIndex"
      },
      "borrowBalanceStored(address)": {
        "notice": "Return the borrow balance of account based on stored data"
      },
      "borrowRatePerBlock()": {
        "notice": "Returns the current per-block borrow interest rate for this vToken"
      },
      "constructor": "Construct an empty delegate",
      "exchangeRateCurrent()": {
        "notice": "Accrue interest then return the up-to-date exchange rate"
      },
      "exchangeRateStored()": {
        "notice": "Calculates the exchange rate from the underlying to the VToken"
      },
      "getAccountSnapshot(address)": {
        "notice": "Get a snapshot of the account's balances, and the cached exchange rate"
      },
      "getCash()": {
        "notice": "Get cash balance of this vToken in the underlying asset"
      },
      "initialize(address,address,address,uint256,string,string,uint8)": {
        "notice": "Initialize the new money market"
      },
      "initialize(address,address,uint256,string,string,uint8)": {
        "notice": "Initialize the money market"
      },
      "liquidateBorrow(address,uint256,address)": {
        "notice": "The sender liquidates the borrowers collateral. The collateral seized is transferred to the liquidator."
      },
      "mint(uint256)": {
        "notice": "Sender supplies assets into the market and receives vTokens in exchange"
      },
      "mintBehalf(address,uint256)": {
        "notice": "Sender supplies assets into the market and receiver receives vTokens in exchange"
      },
      "redeem(uint256)": {
        "notice": "Sender redeems vTokens in exchange for the underlying asset"
      },
      "redeemUnderlying(uint256)": {
        "notice": "Sender redeems vTokens in exchange for a specified amount of underlying asset"
      },
      "repayBorrow(uint256)": {
        "notice": "Sender repays their own borrow"
      },
      "repayBorrowBehalf(address,uint256)": {
        "notice": "Sender repays a borrow belonging to borrower"
      },
      "seize(address,address,uint256)": {
        "notice": "Transfers collateral tokens (this market) to the liquidator."
      },
      "supplyRatePerBlock()": {
        "notice": "Returns the current per-block supply interest rate for this vToken"
      },
      "totalBorrowsCurrent()": {
        "notice": "Returns the current total borrows plus accrued interest"
      },
      "transfer(address,uint256)": {
        "notice": "Transfer `amount` tokens from `msg.sender` to `dst`"
      },
      "transferFrom(address,address,uint256)": {
        "notice": "Transfer `amount` tokens from `src` to `dst`"
      }
    },
    "notice": "VTokens which wrap an EIP-20 underlying and are delegated to"
  },
  "storageLayout": {
    "storage": [
      {
        "astId": 46151,
        "contract": "contracts/VBep20Delegate.sol:VBep20Delegate",
        "label": "_notEntered",
        "offset": 0,
        "slot": "0",
        "type": "t_bool"
      },
      {
        "astId": 46153,
        "contract": "contracts/VBep20Delegate.sol:VBep20Delegate",
        "label": "name",
        "offset": 0,
        "slot": "1",
        "type": "t_string_storage"
      },
      {
        "astId": 46155,
        "contract": "contracts/VBep20Delegate.sol:VBep20Delegate",
        "label": "symbol",
        "offset": 0,
        "slot": "2",
        "type": "t_string_storage"
      },
      {
        "astId": 46157,
        "contract": "contracts/VBep20Delegate.sol:VBep20Delegate",
        "label": "decimals",
        "offset": 0,
        "slot": "3",
        "type": "t_uint8"
      },
      {
        "astId": 46165,
        "contract": "contracts/VBep20Delegate.sol:VBep20Delegate",
        "label": "admin",
        "offset": 1,
        "slot": "3",
        "type": "t_address_payable"
      },
      {
        "astId": 46167,
        "contract": "contracts/VBep20Delegate.sol:VBep20Delegate",
        "label": "pendingAdmin",
        "offset": 0,
        "slot": "4",
        "type": "t_address_payable"
      },
      {
        "astId": 46169,
        "contract": "contracts/VBep20Delegate.sol:VBep20Delegate",
        "label": "comptroller",
        "offset": 0,
        "slot": "5",
        "type": "t_contract(ComptrollerInterface)24505"
      },
      {
        "astId": 46171,
        "contract": "contracts/VBep20Delegate.sol:VBep20Delegate",
        "label": "interestRateModel",
        "offset": 0,
        "slot": "6",
        "type": "t_contract(InterestRateModel)30328"
      },
      {
        "astId": 46173,
        "contract": "contracts/VBep20Delegate.sol:VBep20Delegate",
        "label": "initialExchangeRateMantissa",
        "offset": 0,
        "slot": "7",
        "type": "t_uint256"
      },
      {
        "astId": 46175,
        "contract": "contracts/VBep20Delegate.sol:VBep20Delegate",
        "label": "reserveFactorMantissa",
        "offset": 0,
        "slot": "8",
        "type": "t_uint256"
      },
      {
        "astId": 46177,
        "contract": "contracts/VBep20Delegate.sol:VBep20Delegate",
        "label": "accrualBlockNumber",
        "offset": 0,
        "slot": "9",
        "type": "t_uint256"
      },
      {
        "astId": 46179,
        "contract": "contracts/VBep20Delegate.sol:VBep20Delegate",
        "label": "borrowIndex",
        "offset": 0,
        "slot": "10",
        "type": "t_uint256"
      },
      {
        "astId": 46181,
        "contract": "contracts/VBep20Delegate.sol:VBep20Delegate",
        "label": "totalBorrows",
        "offset": 0,
        "slot": "11",
        "type": "t_uint256"
      },
      {
        "astId": 46183,
        "contract": "contracts/VBep20Delegate.sol:VBep20Delegate",
        "label": "totalReserves",
        "offset": 0,
        "slot": "12",
        "type": "t_uint256"
      },
      {
        "astId": 46185,
        "contract": "contracts/VBep20Delegate.sol:VBep20Delegate",
        "label": "totalSupply",
        "offset": 0,
        "slot": "13",
        "type": "t_uint256"
      },
      {
        "astId": 46189,
        "contract": "contracts/VBep20Delegate.sol:VBep20Delegate",
        "label": "accountTokens",
        "offset": 0,
        "slot": "14",
        "type": "t_mapping(t_address,t_uint256)"
      },
      {
        "astId": 46195,
        "contract": "contracts/VBep20Delegate.sol:VBep20Delegate",
        "label": "transferAllowances",
        "offset": 0,
        "slot": "15",
        "type": "t_mapping(t_address,t_mapping(t_address,t_uint256))"
      },
      {
        "astId": 46204,
        "contract": "contracts/VBep20Delegate.sol:VBep20Delegate",
        "label": "accountBorrows",
        "offset": 0,
        "slot": "16",
        "type": "t_mapping(t_address,t_struct(BorrowSnapshot)46200_storage)"
      },
      {
        "astId": 46526,
        "contract": "contracts/VBep20Delegate.sol:VBep20Delegate",
        "label": "underlying",
        "offset": 0,
        "slot": "17",
        "type": "t_address"
      },
      {
        "astId": 46594,
        "contract": "contracts/VBep20Delegate.sol:VBep20Delegate",
        "label": "implementation",
        "offset": 0,
        "slot": "18",
        "type": "t_address"
      }
    ],
    "types": {
      "t_address": {
        "encoding": "inplace",
        "label": "address",
        "numberOfBytes": "20"
      },
      "t_address_payable": {
        "encoding": "inplace",
        "label": "address payable",
        "numberOfBytes": "20"
      },
      "t_bool": {
        "encoding": "inplace",
        "label": "bool",
        "numberOfBytes": "1"
      },
      "t_contract(ComptrollerInterface)24505": {
        "encoding": "inplace",
        "label": "contract ComptrollerInterface",
        "numberOfBytes": "20"
      },
      "t_contract(InterestRateModel)30328": {
        "encoding": "inplace",
        "label": "contract InterestRateModel",
        "numberOfBytes": "20"
      },
      "t_mapping(t_address,t_mapping(t_address,t_uint256))": {
        "encoding": "mapping",
        "key": "t_address",
        "label": "mapping(address => mapping(address => uint256))",
        "numberOfBytes": "32",
        "value": "t_mapping(t_address,t_uint256)"
      },
      "t_mapping(t_address,t_struct(BorrowSnapshot)46200_storage)": {
        "encoding": "mapping",
        "key": "t_address",
        "label": "mapping(address => struct VTokenStorage.BorrowSnapshot)",
        "numberOfBytes": "32",
        "value": "t_struct(BorrowSnapshot)46200_storage"
      },
      "t_mapping(t_address,t_uint256)": {
        "encoding": "mapping",
        "key": "t_address",
        "label": "mapping(address => uint256)",
        "numberOfBytes": "32",
        "value": "t_uint256"
      },
      "t_string_storage": {
        "encoding": "bytes",
        "label": "string",
        "numberOfBytes": "32"
      },
      "t_struct(BorrowSnapshot)46200_storage": {
        "encoding": "inplace",
        "label": "struct VTokenStorage.BorrowSnapshot",
        "members": [
          {
            "astId": 46197,
            "contract": "contracts/VBep20Delegate.sol:VBep20Delegate",
            "label": "principal",
            "offset": 0,
            "slot": "0",
            "type": "t_uint256"
          },
          {
            "astId": 46199,
            "contract": "contracts/VBep20Delegate.sol:VBep20Delegate",
            "label": "interestIndex",
            "offset": 0,
            "slot": "1",
            "type": "t_uint256"
          }
        ],
        "numberOfBytes": "64"
      },
      "t_uint256": {
        "encoding": "inplace",
        "label": "uint256",
        "numberOfBytes": "32"
      },
      "t_uint8": {
        "encoding": "inplace",
        "label": "uint8",
        "numberOfBytes": "1"
      }
    }
  }
}