{
  "address": "0xaafCCA5f9E2FC078dBE5270C0cB89539704f2C35",
  "abi": [
    {
      "constant": true,
      "inputs": [
        {
          "internalType": "contract LensInterface",
          "name": "comptroller",
          "type": "address"
        },
        {
          "internalType": "address",
          "name": "account",
          "type": "address"
        }
      ],
      "name": "getAccountLimits",
      "outputs": [
        {
          "components": [
            {
              "internalType": "contract VToken[]",
              "name": "markets",
              "type": "address[]"
            },
            {
              "internalType": "uint256",
              "name": "liquidity",
              "type": "uint256"
            },
            {
              "internalType": "uint256",
              "name": "shortfall",
              "type": "uint256"
            }
          ],
          "internalType": "struct VenusLens.AccountLimits",
          "name": "",
          "type": "tuple"
        }
      ],
      "payable": false,
      "stateMutability": "view",
      "type": "function"
    },
    {
      "constant": true,
      "inputs": [
        {
          "internalType": "contract GovernorAlpha",
          "name": "governor",
          "type": "address"
        },
        {
          "internalType": "uint256[]",
          "name": "proposalIds",
          "type": "uint256[]"
        }
      ],
      "name": "getGovProposals",
      "outputs": [
        {
          "components": [
            {
              "internalType": "uint256",
              "name": "proposalId",
              "type": "uint256"
            },
            {
              "internalType": "address",
              "name": "proposer",
              "type": "address"
            },
            {
              "internalType": "uint256",
              "name": "eta",
              "type": "uint256"
            },
            {
              "internalType": "address[]",
              "name": "targets",
              "type": "address[]"
            },
            {
              "internalType": "uint256[]",
              "name": "values",
              "type": "uint256[]"
            },
            {
              "internalType": "string[]",
              "name": "signatures",
              "type": "string[]"
            },
            {
              "internalType": "bytes[]",
              "name": "calldatas",
              "type": "bytes[]"
            },
            {
              "internalType": "uint256",
              "name": "startBlock",
              "type": "uint256"
            },
            {
              "internalType": "uint256",
              "name": "endBlock",
              "type": "uint256"
            },
            {
              "internalType": "uint256",
              "name": "forVotes",
              "type": "uint256"
            },
            {
              "internalType": "uint256",
              "name": "againstVotes",
              "type": "uint256"
            },
            {
              "internalType": "bool",
              "name": "canceled",
              "type": "bool"
            },
            {
              "internalType": "bool",
              "name": "executed",
              "type": "bool"
            }
          ],
          "internalType": "struct VenusLens.GovProposal[]",
          "name": "",
          "type": "tuple[]"
        }
      ],
      "payable": false,
      "stateMutability": "view",
      "type": "function"
    },
    {
      "constant": true,
      "inputs": [
        {
          "internalType": "contract GovernorAlpha",
          "name": "governor",
          "type": "address"
        },
        {
          "internalType": "address",
          "name": "voter",
          "type": "address"
        },
        {
          "internalType": "uint256[]",
          "name": "proposalIds",
          "type": "uint256[]"
        }
      ],
      "name": "getGovReceipts",
      "outputs": [
        {
          "components": [
            {
              "internalType": "uint256",
              "name": "proposalId",
              "type": "uint256"
            },
            {
              "internalType": "bool",
              "name": "hasVoted",
              "type": "bool"
            },
            {
              "internalType": "bool",
              "name": "support",
              "type": "bool"
            },
            {
              "internalType": "uint96",
              "name": "votes",
              "type": "uint96"
            }
          ],
          "internalType": "struct VenusLens.GovReceipt[]",
          "name": "",
          "type": "tuple[]"
        }
      ],
      "payable": false,
      "stateMutability": "view",
      "type": "function"
    },
    {
      "constant": true,
      "inputs": [
        {
          "internalType": "contract XVS",
          "name": "xvs",
          "type": "address"
        },
        {
          "internalType": "address",
          "name": "account",
          "type": "address"
        },
        {
          "internalType": "uint32[]",
          "name": "blockNumbers",
          "type": "uint32[]"
        }
      ],
      "name": "getVenusVotes",
      "outputs": [
        {
          "components": [
            {
              "internalType": "uint256",
              "name": "blockNumber",
              "type": "uint256"
            },
            {
              "internalType": "uint256",
              "name": "votes",
              "type": "uint256"
            }
          ],
          "internalType": "struct VenusLens.VenusVotes[]",
          "name": "",
          "type": "tuple[]"
        }
      ],
      "payable": false,
      "stateMutability": "view",
      "type": "function"
    },
    {
      "constant": true,
      "inputs": [
        {
          "internalType": "contract XVS",
          "name": "xvs",
          "type": "address"
        },
        {
          "internalType": "address",
          "name": "account",
          "type": "address"
        }
      ],
      "name": "getXVSBalanceMetadata",
      "outputs": [
        {
          "components": [
            {
              "internalType": "uint256",
              "name": "balance",
              "type": "uint256"
            },
            {
              "internalType": "uint256",
              "name": "votes",
              "type": "uint256"
            },
            {
              "internalType": "address",
              "name": "delegate",
              "type": "address"
            }
          ],
          "internalType": "struct VenusLens.XVSBalanceMetadata",
          "name": "",
          "type": "tuple"
        }
      ],
      "payable": false,
      "stateMutability": "view",
      "type": "function"
    },
    {
      "constant": false,
      "inputs": [
        {
          "internalType": "contract XVS",
          "name": "xvs",
          "type": "address"
        },
        {
          "internalType": "contract LensInterface",
          "name": "comptroller",
          "type": "address"
        },
        {
          "internalType": "address",
          "name": "account",
          "type": "address"
        }
      ],
      "name": "getXVSBalanceMetadataExt",
      "outputs": [
        {
          "components": [
            {
              "internalType": "uint256",
              "name": "balance",
              "type": "uint256"
            },
            {
              "internalType": "uint256",
              "name": "votes",
              "type": "uint256"
            },
            {
              "internalType": "address",
              "name": "delegate",
              "type": "address"
            },
            {
              "internalType": "uint256",
              "name": "allocated",
              "type": "uint256"
            }
          ],
          "internalType": "struct VenusLens.XVSBalanceMetadataExt",
          "name": "",
          "type": "tuple"
        }
      ],
      "payable": false,
      "stateMutability": "nonpayable",
      "type": "function"
    },
    {
      "constant": true,
      "inputs": [
        {
          "internalType": "address",
          "name": "holder",
          "type": "address"
        },
        {
          "internalType": "contract Comptroller",
          "name": "comptroller",
          "type": "address"
        }
      ],
      "name": "pendingVenus",
      "outputs": [
        {
          "internalType": "uint256",
          "name": "",
          "type": "uint256"
        }
      ],
      "payable": false,
      "stateMutability": "view",
      "type": "function"
    },
    {
      "constant": false,
      "inputs": [
        {
          "internalType": "contract VToken",
          "name": "vToken",
          "type": "address"
        },
        {
          "internalType": "address payable",
          "name": "account",
          "type": "address"
        }
      ],
      "name": "vTokenBalances",
      "outputs": [
        {
          "components": [
            {
              "internalType": "address",
              "name": "vToken",
              "type": "address"
            },
            {
              "internalType": "uint256",
              "name": "balanceOf",
              "type": "uint256"
            },
            {
              "internalType": "uint256",
              "name": "borrowBalanceCurrent",
              "type": "uint256"
            },
            {
              "internalType": "uint256",
              "name": "balanceOfUnderlying",
              "type": "uint256"
            },
            {
              "internalType": "uint256",
              "name": "tokenBalance",
              "type": "uint256"
            },
            {
              "internalType": "uint256",
              "name": "tokenAllowance",
              "type": "uint256"
            }
          ],
          "internalType": "struct VenusLens.VTokenBalances",
          "name": "",
          "type": "tuple"
        }
      ],
      "payable": false,
      "stateMutability": "nonpayable",
      "type": "function"
    },
    {
      "constant": false,
      "inputs": [
        {
          "internalType": "contract VToken[]",
          "name": "vTokens",
          "type": "address[]"
        },
        {
          "internalType": "address payable",
          "name": "account",
          "type": "address"
        }
      ],
      "name": "vTokenBalancesAll",
      "outputs": [
        {
          "components": [
            {
              "internalType": "address",
              "name": "vToken",
              "type": "address"
            },
            {
              "internalType": "uint256",
              "name": "balanceOf",
              "type": "uint256"
            },
            {
              "internalType": "uint256",
              "name": "borrowBalanceCurrent",
              "type": "uint256"
            },
            {
              "internalType": "uint256",
              "name": "balanceOfUnderlying",
              "type": "uint256"
            },
            {
              "internalType": "uint256",
              "name": "tokenBalance",
              "type": "uint256"
            },
            {
              "internalType": "uint256",
              "name": "tokenAllowance",
              "type": "uint256"
            }
          ],
          "internalType": "struct VenusLens.VTokenBalances[]",
          "name": "",
          "type": "tuple[]"
        }
      ],
      "payable": false,
      "stateMutability": "nonpayable",
      "type": "function"
    },
    {
      "constant": false,
      "inputs": [
        {
          "internalType": "contract VToken",
          "name": "vToken",
          "type": "address"
        }
      ],
      "name": "vTokenMetadata",
      "outputs": [
        {
          "components": [
            {
              "internalType": "address",
              "name": "vToken",
              "type": "address"
            },
            {
              "internalType": "uint256",
              "name": "exchangeRateCurrent",
              "type": "uint256"
            },
            {
              "internalType": "uint256",
              "name": "supplyRatePerBlock",
              "type": "uint256"
            },
            {
              "internalType": "uint256",
              "name": "borrowRatePerBlock",
              "type": "uint256"
            },
            {
              "internalType": "uint256",
              "name": "reserveFactorMantissa",
              "type": "uint256"
            },
            {
              "internalType": "uint256",
              "name": "totalBorrows",
              "type": "uint256"
            },
            {
              "internalType": "uint256",
              "name": "totalReserves",
              "type": "uint256"
            },
            {
              "internalType": "uint256",
              "name": "totalSupply",
              "type": "uint256"
            },
            {
              "internalType": "uint256",
              "name": "totalCash",
              "type": "uint256"
            },
            {
              "internalType": "bool",
              "name": "isListed",
              "type": "bool"
            },
            {
              "internalType": "uint256",
              "name": "collateralFactorMantissa",
              "type": "uint256"
            },
            {
              "internalType": "address",
              "name": "underlyingAssetAddress",
              "type": "address"
            },
            {
              "internalType": "uint256",
              "name": "vTokenDecimals",
              "type": "uint256"
            },
            {
              "internalType": "uint256",
              "name": "underlyingDecimals",
              "type": "uint256"
            }
          ],
          "internalType": "struct VenusLens.VTokenMetadata",
          "name": "",
          "type": "tuple"
        }
      ],
      "payable": false,
      "stateMutability": "nonpayable",
      "type": "function"
    },
    {
      "constant": false,
      "inputs": [
        {
          "internalType": "contract VToken[]",
          "name": "vTokens",
          "type": "address[]"
        }
      ],
      "name": "vTokenMetadataAll",
      "outputs": [
        {
          "components": [
            {
              "internalType": "address",
              "name": "vToken",
              "type": "address"
            },
            {
              "internalType": "uint256",
              "name": "exchangeRateCurrent",
              "type": "uint256"
            },
            {
              "internalType": "uint256",
              "name": "supplyRatePerBlock",
              "type": "uint256"
            },
            {
              "internalType": "uint256",
              "name": "borrowRatePerBlock",
              "type": "uint256"
            },
            {
              "internalType": "uint256",
              "name": "reserveFactorMantissa",
              "type": "uint256"
            },
            {
              "internalType": "uint256",
              "name": "totalBorrows",
              "type": "uint256"
            },
            {
              "internalType": "uint256",
              "name": "totalReserves",
              "type": "uint256"
            },
            {
              "internalType": "uint256",
              "name": "totalSupply",
              "type": "uint256"
            },
            {
              "internalType": "uint256",
              "name": "totalCash",
              "type": "uint256"
            },
            {
              "internalType": "bool",
              "name": "isListed",
              "type": "bool"
            },
            {
              "internalType": "uint256",
              "name": "collateralFactorMantissa",
              "type": "uint256"
            },
            {
              "internalType": "address",
              "name": "underlyingAssetAddress",
              "type": "address"
            },
            {
              "internalType": "uint256",
              "name": "vTokenDecimals",
              "type": "uint256"
            },
            {
              "internalType": "uint256",
              "name": "underlyingDecimals",
              "type": "uint256"
            }
          ],
          "internalType": "struct VenusLens.VTokenMetadata[]",
          "name": "",
          "type": "tuple[]"
        }
      ],
      "payable": false,
      "stateMutability": "nonpayable",
      "type": "function"
    },
    {
      "constant": true,
      "inputs": [
        {
          "internalType": "contract VToken",
          "name": "vToken",
          "type": "address"
        }
      ],
      "name": "vTokenUnderlyingPrice",
      "outputs": [
        {
          "components": [
            {
              "internalType": "address",
              "name": "vToken",
              "type": "address"
            },
            {
              "internalType": "uint256",
              "name": "underlyingPrice",
              "type": "uint256"
            }
          ],
          "internalType": "struct VenusLens.VTokenUnderlyingPrice",
          "name": "",
          "type": "tuple"
        }
      ],
      "payable": false,
      "stateMutability": "view",
      "type": "function"
    },
    {
      "constant": true,
      "inputs": [
        {
          "internalType": "contract VToken[]",
          "name": "vTokens",
          "type": "address[]"
        }
      ],
      "name": "vTokenUnderlyingPriceAll",
      "outputs": [
        {
          "components": [
            {
              "internalType": "address",
              "name": "vToken",
              "type": "address"
            },
            {
              "internalType": "uint256",
              "name": "underlyingPrice",
              "type": "uint256"
            }
          ],
          "internalType": "struct VenusLens.VTokenUnderlyingPrice[]",
          "name": "",
          "type": "tuple[]"
        }
      ],
      "payable": false,
      "stateMutability": "view",
      "type": "function"
    }
  ],
  "transactionHash": "0x8522c5a70507005e731040d70a5889d382666341b4547338e47070b3afc30204",
  "args": [],
  "solcInputHash": "0e99640d4d68368a8bacc1b00b1ae63d",
  "bytecode": "0x608060405234801561001057600080fd5b506145a1806100206000396000f3fe608060405234801561001057600080fd5b50600436106100cf5760003560e01c8063995ed99f1161008c578063e09744c611610066578063e09744c6146101fd578063e0a67f111461021d578063f40c27771461023d578063fbd88b461461025d576100cf565b8063995ed99f1461019d578063aa5dbd23146101bd578063b3124239146101dd576100cf565b80631f884fdf146100d4578063603fdeee146100fd5780637c51b6421461011d5780637c84e3b31461013d5780637dd8f6d91461015d578063969948691461017d575b600080fd5b6100e76100e2366004613471565b61027d565b6040516100f49190614321565b60405180910390f35b61011061010b36600461337b565b610319565b6040516100f491906143ca565b61013061012b3660046134b2565b610742565b6040516100f491906142ff565b61015061014b366004613667565b6107e5565b6040516100f491906143a0565b61017061016b366004613637565b610977565b6040516100f49190614372565b61019061018b3660046135e2565b610acf565b6040516100f491906142dd565b6101b06101ab366004613588565b610c8b565b6040516100f491906142ee565b6101d06101cb366004613667565b610de5565b6040516100f49190614391565b6101f06101eb366004613637565b611569565b6040516100f49190614383565b61021061020b3660046136ec565b611909565b6040516100f491906143ae565b61023061022b366004613471565b611c8f565b6040516100f49190614310565b61025061024b366004613637565b611d20565b6040516100f491906143bc565b61027061026b366004613685565b611ec9565b6040516100f49190614332565b604080518281526020808402820101909152606090829082908280156102bd57816020015b6102aa612cea565b8152602001906001900390816102a25790505b50905060005b8281101561030e576102ef8686838181106102da57fe5b905060200201602061014b9190810190613667565b8282815181106102fb57fe5b60209081029190910101526001016102c3565b509150505b92915050565b60006060826001600160a01b031663b0772d0b6040518163ffffffff1660e01b815260040160006040518083038186803b15801561035657600080fd5b505afa15801561036a573d6000803e3d6000fd5b505050506040513d6000823e601f3d908101601f191682016040526103929190810190613506565b905061039c612d01565b60005b82518110156106b157846001600160a01b031663e37d4b798483815181106103c357fe5b60200260200101516040518263ffffffff1660e01b81526004016103e7919061427d565b604080518083038186803b1580156103fe57600080fd5b505afa158015610412573d6000803e3d6000fd5b505050506040513d601f19601f82011682018060405250610436919081019061379f565b63ffffffff1660408401526001600160e01b03166020830152610457612cea565b604051806040016040528084602001516001600160e01b03168152602001846040015163ffffffff168152509050856001600160a01b031663b8324c7c8584815181106104a057fe5b60200260200101516040518263ffffffff1660e01b81526004016104c4919061427d565b604080518083038186803b1580156104db57600080fd5b505afa1580156104ef573d6000803e3d6000fd5b505050506040513d601f19601f82011682018060405250610513919081019061379f565b63ffffffff1660808501526001600160e01b03166060840152610534612cea565b506040805180820190915260608401516001600160e01b03168152608084015163ffffffff166020820152610567612d2f565b604051806020016040528087868151811061057e57fe5b60200260200101516001600160a01b031663aa5af0fd6040518163ffffffff1660e01b815260040160206040518083038186803b1580156105be57600080fd5b505afa1580156105d2573d6000803e3d6000fd5b505050506040513d601f19601f820116820180604052506105f691908101906137cf565b815250905061061a8387868151811061060b57fe5b6020026020010151838b612021565b600061063c8488878151811061062c57fe5b60200260200101518c858d6122a1565b905061064c866000015182612421565b8652865161067090849089908890811061066257fe5b60200260200101518b612457565b61068f8388878151811061068057fe5b60200260200101518c8c6126cd565b905061069f866000015182612421565b865250506001909201915061039f9050565b50604051638a7dc16560e01b8152610739906001600160a01b03861690638a7dc165906106e290899060040161427d565b60206040518083038186803b1580156106fa57600080fd5b505afa15801561070e573d6000803e3d6000fd5b505050506040513d601f19601f8201168201806040525061073291908101906137cf565b8251612421565b95945050505050565b6040805183815260208085028201019091526060908390829082801561078257816020015b61076f612d42565b8152602001906001900390816107675790505b50905060005b828110156107d9576107ba87878381811061079f57fe5b90506020020160206107b49190810190613667565b86611569565b8282815181106107c657fe5b6020908102919091010152600101610788565b509150505b9392505050565b6107ed612cea565b6000826001600160a01b0316635fe3b5676040518163ffffffff1660e01b815260040160206040518083038186803b15801561082857600080fd5b505afa15801561083c573d6000803e3d6000fd5b505050506040513d601f19601f82011682018060405250610860919081019061356a565b90506000816001600160a01b0316637dc0d1d06040518163ffffffff1660e01b815260040160206040518083038186803b15801561089d57600080fd5b505afa1580156108b1573d6000803e3d6000fd5b505050506040513d601f19601f820116820180604052506108d5919081019061356a565b90506040518060400160405280856001600160a01b03168152602001826001600160a01b031663fc57d4df876040518263ffffffff1660e01b815260040161091d9190614343565b60206040518083038186803b15801561093557600080fd5b505afa158015610949573d6000803e3d6000fd5b505050506040513d601f19601f8201168201806040525061096d91908101906137cf565b9052949350505050565b61097f612d81565b6000806000856001600160a01b0316635ec88c79866040518263ffffffff1660e01b81526004016109b0919061427d565b60606040518083038186803b1580156109c857600080fd5b505afa1580156109dc573d6000803e3d6000fd5b505050506040513d601f19601f82011682018060405250610a0091908101906138b1565b92509250925082600014610a2f5760405162461bcd60e51b8152600401610a2690614362565b60405180910390fd5b604080516060810191829052632aff3bff60e21b909152806001600160a01b03881663abfceffc610a63896064850161427d565b60006040518083038186803b158015610a7b57600080fd5b505afa158015610a8f573d6000803e3d6000fd5b505050506040513d6000823e601f3d908101601f19168201604052610ab79190810190613506565b81526020810193909352604090920152949350505050565b60608083839050604051908082528060200260200182016040528015610b0f57816020015b610afc612da2565b815260200190600190039081610af45790505b50905060005b83811015610c8257606080606080896001600160a01b031663328dd9828a8a88818110610b3e57fe5b905060200201356040518263ffffffff1660e01b8152600401610b6191906143ca565b60006040518083038186803b158015610b7957600080fd5b505afa158015610b8d573d6000803e3d6000fd5b505050506040513d6000823e601f3d908101601f19168201604052610bb591908101906133b5565b9350935093509350604051806101a001604052806000815260200160006001600160a01b03168152602001600081526020018581526020018481526020018381526020018281526020016000815260200160008152602001600081526020016000815260200160001515815260200160001515815250868681518110610c3757fe5b6020026020010181905250610c72868681518110610c5157fe5b60200260200101518b8b8b89818110610c6657fe5b905060200201356128c1565b505060019092019150610b159050565b50949350505050565b6060600082519050606081604051908082528060200260200182016040528015610ccf57816020015b610cbc612e17565b815260200190600190039081610cb45790505b50905060005b828110156107d957610ce5612e3e565b876001600160a01b031663e23a9a52878481518110610d0057fe5b6020026020010151896040518363ffffffff1660e01b8152600401610d269291906143d8565b60606040518083038186803b158015610d3e57600080fd5b505afa158015610d52573d6000803e3d6000fd5b505050506040513d601f19601f82011682018060405250610d769190810190613763565b90506040518060800160405280878481518110610d8f57fe5b6020026020010151815260200182600001511515815260200182602001511515815260200182604001516001600160601b0316815250838381518110610dd157fe5b602090810291909101015250600101610cd5565b610ded612e5e565b6000826001600160a01b031663bd6d894d6040518163ffffffff1660e01b8152600401602060405180830381600087803b158015610e2a57600080fd5b505af1158015610e3e573d6000803e3d6000fd5b505050506040513d601f19601f82011682018060405250610e6291908101906137cf565b90506000836001600160a01b0316635fe3b5676040518163ffffffff1660e01b815260040160206040518083038186803b158015610e9f57600080fd5b505afa158015610eb3573d6000803e3d6000fd5b505050506040513d601f19601f82011682018060405250610ed7919081019061356a565b9050600080826001600160a01b0316638e8f294b876040518263ffffffff1660e01b8152600401610f08919061427d565b604080518083038186803b158015610f1f57600080fd5b505afa158015610f33573d6000803e3d6000fd5b505050506040513d601f19601f82011682018060405250610f57919081019061353a565b91509150600080610ff8886001600160a01b03166395d89b416040518163ffffffff1660e01b815260040160006040518083038186803b158015610f9a57600080fd5b505afa158015610fae573d6000803e3d6000fd5b505050506040513d6000823e601f3d908101601f19168201604052610fd6919081019061372f565b604051806040016040528060048152602001633b21272160e11b8152506129e7565b156110095750600090506012611169565b6000889050806001600160a01b0316636f307dc36040518163ffffffff1660e01b815260040160206040518083038186803b15801561104757600080fd5b505afa15801561105b573d6000803e3d6000fd5b505050506040513d601f19601f8201168201806040525061107f9190810190613355565b9250806001600160a01b0316636f307dc36040518163ffffffff1660e01b815260040160206040518083038186803b1580156110ba57600080fd5b505afa1580156110ce573d6000803e3d6000fd5b505050506040513d601f19601f820116820180604052506110f29190810190613355565b6001600160a01b031663313ce5676040518163ffffffff1660e01b815260040160206040518083038186803b15801561112a57600080fd5b505afa15801561113e573d6000803e3d6000fd5b505050506040513d601f19601f820116820180604052506111629190810190613912565b60ff169150505b604051806101c00160405280896001600160a01b03168152602001878152602001896001600160a01b031663ae9d70b06040518163ffffffff1660e01b815260040160206040518083038186803b1580156111c357600080fd5b505afa1580156111d7573d6000803e3d6000fd5b505050506040513d601f19601f820116820180604052506111fb91908101906137cf565b8152602001896001600160a01b031663f8f9da286040518163ffffffff1660e01b815260040160206040518083038186803b15801561123957600080fd5b505afa15801561124d573d6000803e3d6000fd5b505050506040513d601f19601f8201168201806040525061127191908101906137cf565b8152602001896001600160a01b031663173b99046040518163ffffffff1660e01b815260040160206040518083038186803b1580156112af57600080fd5b505afa1580156112c3573d6000803e3d6000fd5b505050506040513d601f19601f820116820180604052506112e791908101906137cf565b8152602001896001600160a01b03166347bd37186040518163ffffffff1660e01b815260040160206040518083038186803b15801561132557600080fd5b505afa158015611339573d6000803e3d6000fd5b505050506040513d601f19601f8201168201806040525061135d91908101906137cf565b8152602001896001600160a01b0316638f840ddd6040518163ffffffff1660e01b815260040160206040518083038186803b15801561139b57600080fd5b505afa1580156113af573d6000803e3d6000fd5b505050506040513d601f19601f820116820180604052506113d391908101906137cf565b8152602001896001600160a01b03166318160ddd6040518163ffffffff1660e01b815260040160206040518083038186803b15801561141157600080fd5b505afa158015611425573d6000803e3d6000fd5b505050506040513d601f19601f8201168201806040525061144991908101906137cf565b8152602001896001600160a01b0316633b1d21a26040518163ffffffff1660e01b815260040160206040518083038186803b15801561148757600080fd5b505afa15801561149b573d6000803e3d6000fd5b505050506040513d601f19601f820116820180604052506114bf91908101906137cf565b81526020018515158152602001848152602001836001600160a01b03168152602001896001600160a01b031663313ce5676040518163ffffffff1660e01b815260040160206040518083038186803b15801561151a57600080fd5b505afa15801561152e573d6000803e3d6000fd5b505050506040513d601f19601f820116820180604052506115529190810190613912565b60ff16815260200191909152979650505050505050565b611571612d42565b6040516370a0823160e01b81526000906001600160a01b038516906370a08231906115a090869060040161428b565b60206040518083038186803b1580156115b857600080fd5b505afa1580156115cc573d6000803e3d6000fd5b505050506040513d601f19601f820116820180604052506115f091908101906137cf565b90506000846001600160a01b03166317bfdfbc856040518263ffffffff1660e01b8152600401611620919061428b565b602060405180830381600087803b15801561163a57600080fd5b505af115801561164e573d6000803e3d6000fd5b505050506040513d601f19601f8201168201806040525061167291908101906137cf565b90506000856001600160a01b0316633af9e669866040518263ffffffff1660e01b81526004016116a2919061428b565b602060405180830381600087803b1580156116bc57600080fd5b505af11580156116d0573d6000803e3d6000fd5b505050506040513d601f19601f820116820180604052506116f491908101906137cf565b9050600080611735886001600160a01b03166395d89b416040518163ffffffff1660e01b815260040160006040518083038186803b158015610f9a57600080fd5b1561174f5750506001600160a01b038516803190316118cc565b60008890506000816001600160a01b0316636f307dc36040518163ffffffff1660e01b815260040160206040518083038186803b15801561178f57600080fd5b505afa1580156117a3573d6000803e3d6000fd5b505050506040513d601f19601f820116820180604052506117c79190810190613355565b6040516370a0823160e01b81529091506001600160a01b038216906370a08231906117f6908c9060040161428b565b60206040518083038186803b15801561180e57600080fd5b505afa158015611822573d6000803e3d6000fd5b505050506040513d601f19601f8201168201806040525061184691908101906137cf565b604051636eb1769f60e11b81529094506001600160a01b0382169063dd62ed3e90611877908c908e90600401614299565b60206040518083038186803b15801561188f57600080fd5b505afa1580156118a3573d6000803e3d6000fd5b505050506040513d601f19601f820116820180604052506118c791908101906137cf565b925050505b6040805160c0810182526001600160a01b039990991689526020890195909552938701929092526060860152608085015260a08401525090919050565b611911612ee1565b6040516370a0823160e01b81526000906001600160a01b038616906370a082319061194090869060040161427d565b60206040518083038186803b15801561195857600080fd5b505afa15801561196c573d6000803e3d6000fd5b505050506040513d601f19601f8201168201806040525061199091908101906137cf565b60405163adcd5fb960e01b81529091506001600160a01b0385169063adcd5fb9906119bf90869060040161427d565b600060405180830381600087803b1580156119d957600080fd5b505af11580156119ed573d6000803e3d6000fd5b50506040516370a0823160e01b8152600092506001600160a01b03881691506370a0823190611a2090879060040161427d565b60206040518083038186803b158015611a3857600080fd5b505afa158015611a4c573d6000803e3d6000fd5b505050506040513d601f19601f82011682018060405250611a7091908101906137cf565b90506000856001600160a01b0316638a7dc165866040518263ffffffff1660e01b8152600401611aa0919061427d565b60206040518083038186803b158015611ab857600080fd5b505afa158015611acc573d6000803e3d6000fd5b505050506040513d601f19601f82011682018060405250611af091908101906137cf565b90506000611b2482846040518060400160405280600d81526020016c1cdd5b481e1d9cc81d1bdd185b609a1b815250612a40565b90506000611b5882866040518060400160405280600d81526020016c1cdd5888185b1b1bd8d85d1959609a1b815250612a67565b905060405180608001604052808681526020018a6001600160a01b031663b4b5ea578a6040518263ffffffff1660e01b8152600401611b97919061427d565b60206040518083038186803b158015611baf57600080fd5b505afa158015611bc3573d6000803e3d6000fd5b505050506040513d601f19601f82011682018060405250611be79190810190613930565b6001600160601b031681526020018a6001600160a01b031663587cde1e8a6040518263ffffffff1660e01b8152600401611c21919061427d565b60206040518083038186803b158015611c3957600080fd5b505afa158015611c4d573d6000803e3d6000fd5b505050506040513d601f19601f82011682018060405250611c719190810190613355565b6001600160a01b031681526020019190915298975050505050505050565b60408051828152602080840282010190915260609082908290828015611ccf57816020015b611cbc612e5e565b815260200190600190039081611cb45790505b50905060005b8281101561030e57611d01868683818110611cec57fe5b90506020020160206101cb9190810190613667565b828281518110611d0d57fe5b6020908102919091010152600101611cd5565b611d28612f12565b6040805160608101918290526370a0823160e01b909152806001600160a01b0385166370a08231611d5c866064850161427d565b60206040518083038186803b158015611d7457600080fd5b505afa158015611d88573d6000803e3d6000fd5b505050506040513d601f19601f82011682018060405250611dac91908101906137cf565b8152602001846001600160a01b031663b4b5ea57856040518263ffffffff1660e01b8152600401611ddd919061427d565b60206040518083038186803b158015611df557600080fd5b505afa158015611e09573d6000803e3d6000fd5b505050506040513d601f19601f82011682018060405250611e2d9190810190613930565b6001600160601b03168152602001846001600160a01b031663587cde1e856040518263ffffffff1660e01b8152600401611e67919061427d565b60206040518083038186803b158015611e7f57600080fd5b505afa158015611e93573d6000803e3d6000fd5b505050506040513d601f19601f82011682018060405250611eb79190810190613355565b6001600160a01b031690529392505050565b60608083839050604051908082528060200260200182016040528015611f0957816020015b611ef6612f3c565b815260200190600190039081611eee5790505b50905060005b83811015612017576040518060400160405280868684818110611f2e57fe5b9050602002016020611f4391908101906138f4565b63ffffffff168152602001886001600160a01b031663782d6fe189898987818110611f6a57fe5b9050602002016020611f7f91908101906138f4565b6040518363ffffffff1660e01b8152600401611f9c9291906142c2565b60206040518083038186803b158015611fb457600080fd5b505afa158015611fc8573d6000803e3d6000fd5b505050506040513d601f19601f82011682018060405250611fec9190810190613930565b6001600160601b031681525082828151811061200457fe5b6020908102919091010152600101611f0f565b5095945050505050565b604051631abcaa7760e01b81526000906001600160a01b03831690631abcaa779061205090879060040161427d565b60206040518083038186803b15801561206857600080fd5b505afa15801561207c573d6000803e3d6000fd5b505050506040513d601f19601f820116820180604052506120a091908101906137cf565b9050600043905060006120bd82886020015163ffffffff16612a93565b90506000811180156120cf5750600083115b1561224e576000612150876001600160a01b03166347bd37186040518163ffffffff1660e01b815260040160206040518083038186803b15801561211257600080fd5b505afa158015612126573d6000803e3d6000fd5b505050506040513d601f19601f8201168201806040525061214a91908101906137cf565b87612acd565b9050600061215e8386612aeb565b9050612168612d2f565b60008311612185576040518060200160405280600081525061218f565b61218f8284612b2d565b9050612199612d2f565b60408051602081019091528b516001600160e01b031681526121bb9083612b6b565b90506121f68160000151604051806040016040528060138152602001726e657720696e646578206f766572666c6f777360681b815250612b90565b6001600160e01b03168b52604080518082019091526016815275626c6f636b206e756d626572206f766572666c6f777360501b6020820152612239908790612bbf565b63ffffffff1660208c01525061229892505050565b80156122985761228c8260405180604001604052806016815260200175626c6f636b206e756d626572206f766572666c6f777360501b815250612bbf565b63ffffffff1660208801525b50505050505050565b60006122ab612d2f565b50604080516020810190915286516001600160e01b031681526122cc612d2f565b604080516020810191829052630238089760e21b909152806001600160a01b0386166308e0225c6123018b8b602486016142b4565b60206040518083038186803b15801561231957600080fd5b505afa15801561232d573d6000803e3d6000fd5b505050506040513d601f19601f8201168201806040525061235191908101906137cf565b905280519091501561241357612365612d2f565b61236f8383612be7565b905060006123f8896001600160a01b03166395dd91938a6040518263ffffffff1660e01b81526004016123a2919061427d565b60206040518083038186803b1580156123ba57600080fd5b505afa1580156123ce573d6000803e3d6000fd5b505050506040513d601f19601f820116820180604052506123f291908101906137cf565b88612acd565b905060006124068284612c0c565b9550610739945050505050565b506000979650505050505050565b60006107de8383604051806040016040528060118152602001706164646974696f6e206f766572666c6f7760781b815250612a40565b604051631abcaa7760e01b81526000906001600160a01b03831690631abcaa779061248690869060040161427d565b60206040518083038186803b15801561249e57600080fd5b505afa1580156124b2573d6000803e3d6000fd5b505050506040513d601f19601f820116820180604052506124d691908101906137cf565b9050600043905060006124f382876020015163ffffffff16612a93565b90506000811180156125055750600083115b1561267b576000856001600160a01b03166318160ddd6040518163ffffffff1660e01b815260040160206040518083038186803b15801561254557600080fd5b505afa158015612559573d6000803e3d6000fd5b505050506040513d601f19601f8201168201806040525061257d91908101906137cf565b9050600061258b8386612aeb565b9050612595612d2f565b600083116125b257604051806020016040528060008152506125bc565b6125bc8284612b2d565b90506125c6612d2f565b60408051602081019091528a516001600160e01b031681526125e89083612b6b565b90506126238160000151604051806040016040528060138152602001726e657720696e646578206f766572666c6f777360681b815250612b90565b6001600160e01b03168a52604080518082019091526016815275626c6f636b206e756d626572206f766572666c6f777360501b6020820152612666908790612bbf565b63ffffffff1660208b0152506126c592505050565b80156126c5576126b98260405180604001604052806016815260200175626c6f636b206e756d626572206f766572666c6f777360501b815250612bbf565b63ffffffff1660208701525b505050505050565b60006126d7612d2f565b50604080516020810190915285516001600160e01b031681526126f8612d2f565b604080516020810191829052631068634b60e21b909152806001600160a01b0386166341a18d2c61272d8a8a602486016142b4565b60206040518083038186803b15801561274557600080fd5b505afa158015612759573d6000803e3d6000fd5b505050506040513d601f19601f8201168201806040525061277d91908101906137cf565b905280519091501580156127915750815115155b1561281357836001600160a01b031663c5b4db556040518163ffffffff1660e01b815260040160206040518083038186803b1580156127cf57600080fd5b505afa1580156127e3573d6000803e3d6000fd5b505050506040513d601f19601f820116820180604052506128079190810190613781565b6001600160e01b031681525b61281b612d2f565b6128258383612be7565b90506000876001600160a01b03166370a08231886040518263ffffffff1660e01b8152600401612855919061427d565b60206040518083038186803b15801561286d57600080fd5b505afa158015612881573d6000803e3d6000fd5b505050506040513d601f19601f820116820180604052506128a591908101906137cf565b905060006128b38284612c0c565b9a9950505050505050505050565b600080600080600080600080896001600160a01b031663013cf08b8a6040518263ffffffff1660e01b81526004016128f991906143ca565b6101206040518083038186803b15801561291257600080fd5b505afa158015612926573d6000803e3d6000fd5b505050506040513d601f19601f8201168201806040525061294a91908101906137ed565b9850985098509850985098509850985050888b6000018181525050878b602001906001600160a01b031690816001600160a01b031681525050868b6040018181525050858b60e0018181525050848b610100018181525050838b610120018181525050828b610140018181525050818b610160019015159081151581525050808b6101800190151590811515815250505050505050505050505050565b6000816040516020016129fa9190614271565b6040516020818303038152906040528051906020012083604051602001612a219190614271565b6040516020818303038152906040528051906020012014905092915050565b60008383018285821015610c825760405162461bcd60e51b8152600401610a269190614351565b60008184841115612a8b5760405162461bcd60e51b8152600401610a269190614351565b505050900390565b60006107de8383604051806040016040528060158152602001747375627472616374696f6e20756e646572666c6f7760581b815250612a67565b60006107de612ae484670de0b6b3a7640000612aeb565b8351612c3b565b60006107de83836040518060400160405280601781526020017f6d756c7469706c69636174696f6e206f766572666c6f77000000000000000000815250612c6e565b612b35612d2f565b6040518060200160405280612b62612b5c866ec097ce7bc90715b34b9f1000000000612aeb565b85612c3b565b90529392505050565b612b73612d2f565b6040518060200160405280612b6285600001518560000151612421565b600081600160e01b8410612bb75760405162461bcd60e51b8152600401610a269190614351565b509192915050565b6000816401000000008410612bb75760405162461bcd60e51b8152600401610a269190614351565b612bef612d2f565b6040518060200160405280612b6285600001518560000151612a93565b60006ec097ce7bc90715b34b9f1000000000612c2c848460000151612aeb565b81612c3357fe5b049392505050565b60006107de83836040518060400160405280600e81526020016d646976696465206279207a65726f60901b815250612cb6565b6000831580612c7b575082155b15612c88575060006107de565b83830283858281612c9557fe5b04148390610c825760405162461bcd60e51b8152600401610a269190614351565b60008183612cd75760405162461bcd60e51b8152600401610a269190614351565b50828481612ce157fe5b04949350505050565b604080518082019091526000808252602082015290565b6040805160a08101825260008082526020820181905291810182905260608101829052608081019190915290565b6040518060200160405280600081525090565b6040518060c0016040528060006001600160a01b0316815260200160008152602001600081526020016000815260200160008152602001600081525090565b60405180606001604052806060815260200160008152602001600081525090565b604051806101a001604052806000815260200160006001600160a01b031681526020016000815260200160608152602001606081526020016060815260200160608152602001600081526020016000815260200160008152602001600081526020016000151581526020016000151581525090565b60408051608081018252600080825260208201819052918101829052606081019190915290565b604080516060810182526000808252602082018190529181019190915290565b604051806101c0016040528060006001600160a01b0316815260200160008152602001600081526020016000815260200160008152602001600081526020016000815260200160008152602001600081526020016000151581526020016000815260200160006001600160a01b0316815260200160008152602001600081525090565b6040518060800160405280600081526020016000815260200160006001600160a01b03168152602001600081525090565b6040518060600160405280600081526020016000815260200160006001600160a01b031681525090565b604051806040016040528060008152602001600081525090565b803561031381614508565b805161031381614508565b600082601f830112612f7d57600080fd5b8151612f90612f8b8261440c565b6143e6565b91508181835260208401935060208101905083856020840282011115612fb557600080fd5b60005b83811015612fe15781612fcb8882612f61565b8452506020928301929190910190600101612fb8565b5050505092915050565b600082601f830112612ffc57600080fd5b815161300a612f8b8261440c565b81815260209384019390925082018360005b83811015612fe157815186016130328882613248565b845250602092830192919091019060010161301c565b60008083601f84011261305a57600080fd5b5081356001600160401b0381111561307157600080fd5b60208301915083602082028301111561308957600080fd5b9250929050565b600082601f8301126130a157600080fd5b81516130af612f8b8261440c565b915081818352602084019350602081019050838560208402820111156130d457600080fd5b60005b83811015612fe157816130ea8882613297565b84525060209283019291909101906001016130d7565b600082601f83011261311157600080fd5b815161311f612f8b8261440c565b81815260209384019390925082018360005b83811015612fe157815186016131478882613248565b8452506020928301929190910190600101613131565b600082601f83011261316e57600080fd5b813561317c612f8b8261440c565b915081818352602084019350602081019050838560208402820111156131a157600080fd5b60005b83811015612fe157816131b78882613313565b84525060209283019291909101906001016131a4565b600082601f8301126131de57600080fd5b81516131ec612f8b8261440c565b9150818183526020840193506020810190508385602084028201111561321157600080fd5b60005b83811015612fe15781613227888261331e565b8452506020928301929190910190600101613214565b80516103138161451f565b600082601f83011261325957600080fd5b8151613267612f8b8261442c565b9150808252602083016020830185838301111561328357600080fd5b61328e8382846144d2565b50505092915050565b805161031381614528565b803561031381614528565b6000606082840312156132bf57600080fd5b6132c960606143e6565b905060006132d7848461323d565b82525060206132e88484830161323d565b60208301525060406132fc8482850161334a565b60408301525092915050565b805161031381614531565b80356103138161453a565b80516103138161453a565b803561031381614543565b805161031381614543565b80516103138161454c565b805161031381614555565b60006020828403121561336757600080fd5b60006133738484612f61565b949350505050565b6000806040838503121561338e57600080fd5b600061339a8585612f56565b92505060206133ab858286016132a2565b9150509250929050565b600080600080608085870312156133cb57600080fd5b84516001600160401b038111156133e157600080fd5b6133ed87828801612f6c565b94505060208501516001600160401b0381111561340957600080fd5b613415878288016131cd565b93505060408501516001600160401b0381111561343157600080fd5b61343d87828801613100565b92505060608501516001600160401b0381111561345957600080fd5b61346587828801612feb565b91505092959194509250565b6000806020838503121561348457600080fd5b82356001600160401b0381111561349a57600080fd5b6134a685828601613048565b92509250509250929050565b6000806000604084860312156134c757600080fd5b83356001600160401b038111156134dd57600080fd5b6134e986828701613048565b935093505060206134fc86828701612f56565b9150509250925092565b60006020828403121561351857600080fd5b81516001600160401b0381111561352e57600080fd5b61337384828501613090565b6000806040838503121561354d57600080fd5b6000613559858561323d565b92505060206133ab8582860161331e565b60006020828403121561357c57600080fd5b60006133738484613297565b60008060006060848603121561359d57600080fd5b60006135a986866132a2565b93505060206135ba86828701612f56565b92505060408401356001600160401b038111156135d657600080fd5b6134fc8682870161315d565b6000806000604084860312156135f757600080fd5b600061360386866132a2565b93505060208401356001600160401b0381111561361f57600080fd5b61362b86828701613048565b92509250509250925092565b6000806040838503121561364a57600080fd5b600061365685856132a2565b92505060206133ab85828601612f56565b60006020828403121561367957600080fd5b600061337384846132a2565b6000806000806060858703121561369b57600080fd5b60006136a787876132a2565b94505060206136b887828801612f56565b93505060408501356001600160401b038111156136d457600080fd5b6136e087828801613048565b95989497509550505050565b60008060006060848603121561370157600080fd5b600061370d86866132a2565b935050602061371e868287016132a2565b92505060406134fc86828701612f56565b60006020828403121561374157600080fd5b81516001600160401b0381111561375757600080fd5b61337384828501613248565b60006060828403121561377557600080fd5b600061337384846132ad565b60006020828403121561379357600080fd5b60006133738484613308565b600080604083850312156137b257600080fd5b60006137be8585613308565b92505060206133ab85828601613334565b6000602082840312156137e157600080fd5b6000613373848461331e565b60008060008060008060008060006101208a8c03121561380c57600080fd5b60006138188c8c61331e565b99505060206138298c828d01612f61565b985050604061383a8c828d0161331e565b975050606061384b8c828d0161331e565b965050608061385c8c828d0161331e565b95505060a061386d8c828d0161331e565b94505060c061387e8c828d0161331e565b93505060e061388f8c828d0161323d565b9250506101006138a18c828d0161323d565b9150509295985092959850929598565b6000806000606084860312156138c657600080fd5b60006138d2868661331e565b93505060206138e38682870161331e565b92505060406134fc8682870161331e565b60006020828403121561390657600080fd5b60006133738484613329565b60006020828403121561392457600080fd5b6000613373848461333f565b60006020828403121561394257600080fd5b6000613373848461334a565b600061395a83836139fe565b505060200190565b60006107de8383613dbb565b600061395a8383613df3565b60006107de8383613eac565b60006139928383613fcb565b505060800190565b60006139a6838361401b565b505060c00190565b60006139ba838361408b565b50506101c00190565b60006139cf83836141a0565b505060400190565b60006139cf83836141c4565b600061395a8383614256565b6139f8816144bc565b82525050565b6139f88161446b565b6000613a1282614459565b613a1c818561445d565b9350613a2783614453565b8060005b83811015613a55578151613a3f888261394e565b9750613a4a83614453565b925050600101613a2b565b509495945050505050565b6000613a6b82614459565b613a75818561445d565b935083602082028501613a8785614453565b8060005b85811015613ac15784840389528151613aa48582613962565b9450613aaf83614453565b60209a909a0199925050600101613a8b565b5091979650505050505050565b6000613ad982614459565b613ae3818561445d565b9350613aee83614453565b8060005b83811015613a55578151613b06888261396e565b9750613b1183614453565b925050600101613af2565b6000613b2782614459565b613b31818561445d565b935083602082028501613b4385614453565b8060005b85811015613ac15784840389528151613b608582613962565b9450613b6b83614453565b60209a909a0199925050600101613b47565b6000613b8882614459565b613b92818561445d565b935083602082028501613ba485614453565b8060005b85811015613ac15784840389528151613bc1858261397a565b9450613bcc83614453565b60209a909a0199925050600101613ba8565b6000613be982614459565b613bf3818561445d565b9350613bfe83614453565b8060005b83811015613a55578151613c168882613986565b9750613c2183614453565b925050600101613c02565b6000613c3782614459565b613c41818561445d565b9350613c4c83614453565b8060005b83811015613a55578151613c64888261399a565b9750613c6f83614453565b925050600101613c50565b6000613c8582614459565b613c8f818561445d565b9350613c9a83614453565b8060005b83811015613a55578151613cb288826139ae565b9750613cbd83614453565b925050600101613c9e565b6000613cd382614459565b613cdd818561445d565b9350613ce883614453565b8060005b83811015613a55578151613d0088826139c3565b9750613d0b83614453565b925050600101613cec565b6000613d2182614459565b613d2b818561445d565b9350613d3683614453565b8060005b83811015613a55578151613d4e88826139d7565b9750613d5983614453565b925050600101613d3a565b6000613d6f82614459565b613d79818561445d565b9350613d8483614453565b8060005b83811015613a55578151613d9c88826139e3565b9750613da783614453565b925050600101613d88565b6139f881614476565b6000613dc682614459565b613dd0818561445d565b9350613de08185602086016144d2565b613de9816144fe565b9093019392505050565b6139f88161447b565b6000613e0782614459565b613e118185614466565b9350613e218185602086016144d2565b9290920192915050565b6000613e3860178361445d565b7f6163636f756e74206c6971756964697479206572726f72000000000000000000815260200192915050565b8051606080845260009190840190613e7c8282613ace565b9150506020830151613e916020860182614256565b506040830151613ea46040860182614256565b509392505050565b80516000906101a0840190613ec18582614256565b506020830151613ed460208601826139fe565b506040830151613ee76040860182614256565b5060608301518482036060860152613eff8282613a07565b91505060808301518482036080860152613f198282613d64565b91505060a083015184820360a0860152613f338282613b1c565b91505060c083015184820360c0860152613f4d8282613a60565b91505060e0830151613f6260e0860182614256565b50610100830151613f77610100860182614256565b50610120830151613f8c610120860182614256565b50610140830151613fa1610140860182614256565b50610160830151613fb6610160860182613db2565b50610180830151613ea4610180860182613db2565b80516080830190613fdc8482614256565b506020820151613fef6020850182613db2565b5060408201516140026040850182613db2565b5060608201516140156060850182614268565b50505050565b805160c083019061402c84826139fe565b50602082015161403f6020850182614256565b5060408201516140526040850182614256565b5060608201516140656060850182614256565b5060808201516140786080850182614256565b5060a082015161401560a0850182614256565b80516101c083019061409d84826139fe565b5060208201516140b06020850182614256565b5060408201516140c36040850182614256565b5060608201516140d66060850182614256565b5060808201516140e96080850182614256565b5060a08201516140fc60a0850182614256565b5060c082015161410f60c0850182614256565b5060e082015161412260e0850182614256565b50610100820151614137610100850182614256565b5061012082015161414c610120850182613db2565b50610140820151614161610140850182614256565b506101608201516141766101608501826139fe565b5061018082015161418b610180850182614256565b506101a08201516140156101a0850182614256565b805160408301906141b184826139fe565b5060208201516140156020850182614256565b805160408301906141b18482614256565b805160808301906141e68482614256565b5060208201516141f96020850182614256565b50604082015161420c60408501826139fe565b5060608201516140156060850182614256565b805160608301906142308482614256565b5060208201516142436020850182614256565b50604082015161401560408501826139fe565b6139f88161449e565b6139f8816144c7565b6139f8816144b0565b60006107de8284613dfc565b6020810161031382846139fe565b6020810161031382846139ef565b604081016142a782856139ef565b6107de60208301846139fe565b604081016142a782856139fe565b604081016142d082856139fe565b6107de602083018461425f565b602080825281016107de8184613b7d565b602080825281016107de8184613bde565b602080825281016107de8184613c2c565b602080825281016107de8184613c7a565b602080825281016107de8184613cc8565b602080825281016107de8184613d16565b602081016103138284613df3565b602080825281016107de8184613dbb565b6020808252810161031381613e2b565b602080825281016107de8184613e64565b60c08101610313828461401b565b6101c08101610313828461408b565b6040810161031382846141a0565b6080810161031382846141d5565b60608101610313828461421f565b602081016103138284614256565b604081016142a78285614256565b6040518181016001600160401b038111828210171561440457600080fd5b604052919050565b60006001600160401b0382111561442257600080fd5b5060209081020190565b60006001600160401b0382111561444257600080fd5b506020601f91909101601f19160190565b60200190565b5190565b90815260200190565b919050565b600061031382614486565b151590565b60006103138261446b565b6001600160a01b031690565b6001600160e01b031690565b90565b63ffffffff1690565b60ff1690565b6001600160601b031690565b60006103138261447b565b6000610313826144a1565b60005b838110156144ed5781810151838201526020016144d5565b838111156140155750506000910152565b601f01601f191690565b6145118161446b565b811461451c57600080fd5b50565b61451181614476565b6145118161447b565b61451181614492565b6145118161449e565b614511816144a1565b614511816144aa565b614511816144b056fea365627a7a72315820b8be5c7c424bd7a4bbfd8aa840be9aaeba9e2c4f3e52aa8638e612725edba5696c6578706572696d656e74616cf564736f6c63430005100040",
  "devdoc": {
    "methods": {}
  },
  "userdoc": {
    "methods": {}
  },
  "storageLayout": {
    "storage": [],
    "types": null
  }
}