{
  "address": "0xaE130295357D4dF95b72bddd1f3D410dd647D39f",
  "abi": [
    {
      "constant": true,
      "inputs": [],
      "name": "BLOCKS_PER_DAY",
      "outputs": [
        {
          "internalType": "uint256",
          "name": "",
          "type": "uint256"
        }
      ],
      "payable": false,
      "stateMutability": "view",
      "type": "function"
    },
    {
      "constant": true,
      "inputs": [
        {
          "internalType": "contract ComptrollerInterface",
          "name": "comptroller",
          "type": "address"
        },
        {
          "internalType": "address",
          "name": "account",
          "type": "address"
        }
      ],
      "name": "getAccountLimits",
      "outputs": [
        {
          "components": [
            {
              "internalType": "contract VToken[]",
              "name": "markets",
              "type": "address[]"
            },
            {
              "internalType": "uint256",
              "name": "liquidity",
              "type": "uint256"
            },
            {
              "internalType": "uint256",
              "name": "shortfall",
              "type": "uint256"
            }
          ],
          "internalType": "struct VenusLens.AccountLimits",
          "name": "",
          "type": "tuple"
        }
      ],
      "payable": false,
      "stateMutability": "view",
      "type": "function"
    },
    {
      "constant": false,
      "inputs": [
        {
          "internalType": "address payable",
          "name": "account",
          "type": "address"
        },
        {
          "internalType": "address",
          "name": "comptrollerAddress",
          "type": "address"
        },
        {
          "internalType": "contract VToken[]",
          "name": "_vTokens",
          "type": "address[]"
        }
      ],
      "name": "getDailyXVS",
      "outputs": [
        {
          "internalType": "uint256",
          "name": "",
          "type": "uint256"
        }
      ],
      "payable": false,
      "stateMutability": "nonpayable",
      "type": "function"
    },
    {
      "constant": true,
      "inputs": [
        {
          "internalType": "contract GovernorAlpha",
          "name": "governor",
          "type": "address"
        },
        {
          "internalType": "uint256[]",
          "name": "proposalIds",
          "type": "uint256[]"
        }
      ],
      "name": "getGovProposals",
      "outputs": [
        {
          "components": [
            {
              "internalType": "uint256",
              "name": "proposalId",
              "type": "uint256"
            },
            {
              "internalType": "address",
              "name": "proposer",
              "type": "address"
            },
            {
              "internalType": "uint256",
              "name": "eta",
              "type": "uint256"
            },
            {
              "internalType": "address[]",
              "name": "targets",
              "type": "address[]"
            },
            {
              "internalType": "uint256[]",
              "name": "values",
              "type": "uint256[]"
            },
            {
              "internalType": "string[]",
              "name": "signatures",
              "type": "string[]"
            },
            {
              "internalType": "bytes[]",
              "name": "calldatas",
              "type": "bytes[]"
            },
            {
              "internalType": "uint256",
              "name": "startBlock",
              "type": "uint256"
            },
            {
              "internalType": "uint256",
              "name": "endBlock",
              "type": "uint256"
            },
            {
              "internalType": "uint256",
              "name": "forVotes",
              "type": "uint256"
            },
            {
              "internalType": "uint256",
              "name": "againstVotes",
              "type": "uint256"
            },
            {
              "internalType": "bool",
              "name": "canceled",
              "type": "bool"
            },
            {
              "internalType": "bool",
              "name": "executed",
              "type": "bool"
            }
          ],
          "internalType": "struct VenusLens.GovProposal[]",
          "name": "",
          "type": "tuple[]"
        }
      ],
      "payable": false,
      "stateMutability": "view",
      "type": "function"
    },
    {
      "constant": true,
      "inputs": [
        {
          "internalType": "contract GovernorAlpha",
          "name": "governor",
          "type": "address"
        },
        {
          "internalType": "address",
          "name": "voter",
          "type": "address"
        },
        {
          "internalType": "uint256[]",
          "name": "proposalIds",
          "type": "uint256[]"
        }
      ],
      "name": "getGovReceipts",
      "outputs": [
        {
          "components": [
            {
              "internalType": "uint256",
              "name": "proposalId",
              "type": "uint256"
            },
            {
              "internalType": "bool",
              "name": "hasVoted",
              "type": "bool"
            },
            {
              "internalType": "bool",
              "name": "support",
              "type": "bool"
            },
            {
              "internalType": "uint96",
              "name": "votes",
              "type": "uint96"
            }
          ],
          "internalType": "struct VenusLens.GovReceipt[]",
          "name": "",
          "type": "tuple[]"
        }
      ],
      "payable": false,
      "stateMutability": "view",
      "type": "function"
    },
    {
      "constant": true,
      "inputs": [
        {
          "internalType": "contract XVS",
          "name": "xvs",
          "type": "address"
        },
        {
          "internalType": "address",
          "name": "account",
          "type": "address"
        },
        {
          "internalType": "uint32[]",
          "name": "blockNumbers",
          "type": "uint32[]"
        }
      ],
      "name": "getVenusVotes",
      "outputs": [
        {
          "components": [
            {
              "internalType": "uint256",
              "name": "blockNumber",
              "type": "uint256"
            },
            {
              "internalType": "uint256",
              "name": "votes",
              "type": "uint256"
            }
          ],
          "internalType": "struct VenusLens.VenusVotes[]",
          "name": "",
          "type": "tuple[]"
        }
      ],
      "payable": false,
      "stateMutability": "view",
      "type": "function"
    },
    {
      "constant": true,
      "inputs": [
        {
          "internalType": "contract XVS",
          "name": "xvs",
          "type": "address"
        },
        {
          "internalType": "address",
          "name": "account",
          "type": "address"
        }
      ],
      "name": "getXVSBalanceMetadata",
      "outputs": [
        {
          "components": [
            {
              "internalType": "uint256",
              "name": "balance",
              "type": "uint256"
            },
            {
              "internalType": "uint256",
              "name": "votes",
              "type": "uint256"
            },
            {
              "internalType": "address",
              "name": "delegate",
              "type": "address"
            }
          ],
          "internalType": "struct VenusLens.XVSBalanceMetadata",
          "name": "",
          "type": "tuple"
        }
      ],
      "payable": false,
      "stateMutability": "view",
      "type": "function"
    },
    {
      "constant": false,
      "inputs": [
        {
          "internalType": "contract XVS",
          "name": "xvs",
          "type": "address"
        },
        {
          "internalType": "contract ComptrollerInterface",
          "name": "comptroller",
          "type": "address"
        },
        {
          "internalType": "address",
          "name": "account",
          "type": "address"
        }
      ],
      "name": "getXVSBalanceMetadataExt",
      "outputs": [
        {
          "components": [
            {
              "internalType": "uint256",
              "name": "balance",
              "type": "uint256"
            },
            {
              "internalType": "uint256",
              "name": "votes",
              "type": "uint256"
            },
            {
              "internalType": "address",
              "name": "delegate",
              "type": "address"
            },
            {
              "internalType": "uint256",
              "name": "allocated",
              "type": "uint256"
            }
          ],
          "internalType": "struct VenusLens.XVSBalanceMetadataExt",
          "name": "",
          "type": "tuple"
        }
      ],
      "payable": false,
      "stateMutability": "nonpayable",
      "type": "function"
    },
    {
      "constant": false,
      "inputs": [
        {
          "internalType": "address",
          "name": "holder",
          "type": "address"
        },
        {
          "internalType": "contract ComptrollerInterface",
          "name": "comptroller",
          "type": "address"
        },
        {
          "internalType": "contract VToken[]",
          "name": "_vTokens",
          "type": "address[]"
        }
      ],
      "name": "pendingVenus",
      "outputs": [
        {
          "internalType": "uint256",
          "name": "",
          "type": "uint256"
        }
      ],
      "payable": false,
      "stateMutability": "nonpayable",
      "type": "function"
    },
    {
      "constant": false,
      "inputs": [
        {
          "internalType": "contract VToken",
          "name": "vToken",
          "type": "address"
        },
        {
          "internalType": "address payable",
          "name": "account",
          "type": "address"
        }
      ],
      "name": "vTokenBalances",
      "outputs": [
        {
          "components": [
            {
              "internalType": "address",
              "name": "vToken",
              "type": "address"
            },
            {
              "internalType": "uint256",
              "name": "balanceOf",
              "type": "uint256"
            },
            {
              "internalType": "uint256",
              "name": "borrowBalanceCurrent",
              "type": "uint256"
            },
            {
              "internalType": "uint256",
              "name": "balanceOfUnderlying",
              "type": "uint256"
            },
            {
              "internalType": "uint256",
              "name": "tokenBalance",
              "type": "uint256"
            },
            {
              "internalType": "uint256",
              "name": "tokenAllowance",
              "type": "uint256"
            }
          ],
          "internalType": "struct VenusLens.VTokenBalances",
          "name": "",
          "type": "tuple"
        }
      ],
      "payable": false,
      "stateMutability": "nonpayable",
      "type": "function"
    },
    {
      "constant": false,
      "inputs": [
        {
          "internalType": "contract VToken[]",
          "name": "vTokens",
          "type": "address[]"
        },
        {
          "internalType": "address payable",
          "name": "account",
          "type": "address"
        }
      ],
      "name": "vTokenBalancesAll",
      "outputs": [
        {
          "components": [
            {
              "internalType": "address",
              "name": "vToken",
              "type": "address"
            },
            {
              "internalType": "uint256",
              "name": "balanceOf",
              "type": "uint256"
            },
            {
              "internalType": "uint256",
              "name": "borrowBalanceCurrent",
              "type": "uint256"
            },
            {
              "internalType": "uint256",
              "name": "balanceOfUnderlying",
              "type": "uint256"
            },
            {
              "internalType": "uint256",
              "name": "tokenBalance",
              "type": "uint256"
            },
            {
              "internalType": "uint256",
              "name": "tokenAllowance",
              "type": "uint256"
            }
          ],
          "internalType": "struct VenusLens.VTokenBalances[]",
          "name": "",
          "type": "tuple[]"
        }
      ],
      "payable": false,
      "stateMutability": "nonpayable",
      "type": "function"
    },
    {
      "constant": false,
      "inputs": [
        {
          "internalType": "contract VToken",
          "name": "vToken",
          "type": "address"
        }
      ],
      "name": "vTokenMetadata",
      "outputs": [
        {
          "components": [
            {
              "internalType": "address",
              "name": "vToken",
              "type": "address"
            },
            {
              "internalType": "uint256",
              "name": "exchangeRateCurrent",
              "type": "uint256"
            },
            {
              "internalType": "uint256",
              "name": "supplyRatePerBlock",
              "type": "uint256"
            },
            {
              "internalType": "uint256",
              "name": "borrowRatePerBlock",
              "type": "uint256"
            },
            {
              "internalType": "uint256",
              "name": "reserveFactorMantissa",
              "type": "uint256"
            },
            {
              "internalType": "uint256",
              "name": "totalBorrows",
              "type": "uint256"
            },
            {
              "internalType": "uint256",
              "name": "totalReserves",
              "type": "uint256"
            },
            {
              "internalType": "uint256",
              "name": "totalSupply",
              "type": "uint256"
            },
            {
              "internalType": "uint256",
              "name": "totalCash",
              "type": "uint256"
            },
            {
              "internalType": "bool",
              "name": "isListed",
              "type": "bool"
            },
            {
              "internalType": "uint256",
              "name": "collateralFactorMantissa",
              "type": "uint256"
            },
            {
              "internalType": "address",
              "name": "underlyingAssetAddress",
              "type": "address"
            },
            {
              "internalType": "uint256",
              "name": "vTokenDecimals",
              "type": "uint256"
            },
            {
              "internalType": "uint256",
              "name": "underlyingDecimals",
              "type": "uint256"
            },
            {
              "internalType": "uint256",
              "name": "venusSupplySpeed",
              "type": "uint256"
            },
            {
              "internalType": "uint256",
              "name": "venusBorrowSpeed",
              "type": "uint256"
            },
            {
              "internalType": "uint256",
              "name": "dailySupplyXvs",
              "type": "uint256"
            },
            {
              "internalType": "uint256",
              "name": "dailyBorrowXvs",
              "type": "uint256"
            }
          ],
          "internalType": "struct VenusLens.VTokenMetadata",
          "name": "",
          "type": "tuple"
        }
      ],
      "payable": false,
      "stateMutability": "nonpayable",
      "type": "function"
    },
    {
      "constant": false,
      "inputs": [
        {
          "internalType": "contract VToken[]",
          "name": "vTokens",
          "type": "address[]"
        }
      ],
      "name": "vTokenMetadataAll",
      "outputs": [
        {
          "components": [
            {
              "internalType": "address",
              "name": "vToken",
              "type": "address"
            },
            {
              "internalType": "uint256",
              "name": "exchangeRateCurrent",
              "type": "uint256"
            },
            {
              "internalType": "uint256",
              "name": "supplyRatePerBlock",
              "type": "uint256"
            },
            {
              "internalType": "uint256",
              "name": "borrowRatePerBlock",
              "type": "uint256"
            },
            {
              "internalType": "uint256",
              "name": "reserveFactorMantissa",
              "type": "uint256"
            },
            {
              "internalType": "uint256",
              "name": "totalBorrows",
              "type": "uint256"
            },
            {
              "internalType": "uint256",
              "name": "totalReserves",
              "type": "uint256"
            },
            {
              "internalType": "uint256",
              "name": "totalSupply",
              "type": "uint256"
            },
            {
              "internalType": "uint256",
              "name": "totalCash",
              "type": "uint256"
            },
            {
              "internalType": "bool",
              "name": "isListed",
              "type": "bool"
            },
            {
              "internalType": "uint256",
              "name": "collateralFactorMantissa",
              "type": "uint256"
            },
            {
              "internalType": "address",
              "name": "underlyingAssetAddress",
              "type": "address"
            },
            {
              "internalType": "uint256",
              "name": "vTokenDecimals",
              "type": "uint256"
            },
            {
              "internalType": "uint256",
              "name": "underlyingDecimals",
              "type": "uint256"
            },
            {
              "internalType": "uint256",
              "name": "venusSupplySpeed",
              "type": "uint256"
            },
            {
              "internalType": "uint256",
              "name": "venusBorrowSpeed",
              "type": "uint256"
            },
            {
              "internalType": "uint256",
              "name": "dailySupplyXvs",
              "type": "uint256"
            },
            {
              "internalType": "uint256",
              "name": "dailyBorrowXvs",
              "type": "uint256"
            }
          ],
          "internalType": "struct VenusLens.VTokenMetadata[]",
          "name": "",
          "type": "tuple[]"
        }
      ],
      "payable": false,
      "stateMutability": "nonpayable",
      "type": "function"
    },
    {
      "constant": true,
      "inputs": [
        {
          "internalType": "contract VToken",
          "name": "vToken",
          "type": "address"
        }
      ],
      "name": "vTokenUnderlyingPrice",
      "outputs": [
        {
          "components": [
            {
              "internalType": "address",
              "name": "vToken",
              "type": "address"
            },
            {
              "internalType": "uint256",
              "name": "underlyingPrice",
              "type": "uint256"
            }
          ],
          "internalType": "struct VenusLens.VTokenUnderlyingPrice",
          "name": "",
          "type": "tuple"
        }
      ],
      "payable": false,
      "stateMutability": "view",
      "type": "function"
    },
    {
      "constant": true,
      "inputs": [
        {
          "internalType": "contract VToken[]",
          "name": "vTokens",
          "type": "address[]"
        }
      ],
      "name": "vTokenUnderlyingPriceAll",
      "outputs": [
        {
          "components": [
            {
              "internalType": "address",
              "name": "vToken",
              "type": "address"
            },
            {
              "internalType": "uint256",
              "name": "underlyingPrice",
              "type": "uint256"
            }
          ],
          "internalType": "struct VenusLens.VTokenUnderlyingPrice[]",
          "name": "",
          "type": "tuple[]"
        }
      ],
      "payable": false,
      "stateMutability": "view",
      "type": "function"
    }
  ],
  "transactionHash": "0x70579226c38486d99a8685389b2b77ace32ec8fefc64a9766fbe677a493042c2",
  "args": [],
  "solcInputHash": "6e30b87f96ca90bfe0d23ef80ccdb9ca",
  "bytecode": "0x608060405234801561001057600080fd5b5061498a806100206000396000f3fe608060405234801561001057600080fd5b50600436106100f55760003560e01c8063995ed99f11610097578063e09744c611610066578063e09744c61461023e578063e0a67f111461025e578063f40c27771461027e578063fbd88b461461029e576100f5565b8063995ed99f146101cb578063aa5dbd23146101eb578063ab43d70f1461020b578063b31242391461021e576100f5565b80637c51b642116100d35780637c51b6421461014b5780637c84e3b31461016b5780637dd8f6d91461018b57806396994869146101ab576100f5565b80631f884fdf146100fa578063623e7eb4146101235780636bb987fe14610143575b600080fd5b61010d6101083660046137ee565b6102be565b60405161011a91906146fa565b60405180910390f35b6101366101313660046136ff565b61035a565b60405161011a91906147b3565b6101366106bf565b61015e61015936600461382f565b6106c5565b60405161011a91906146d8565b61017e6101793660046139ee565b610768565b60405161011a9190614789565b61019e61019936600461390f565b6108fa565b60405161011a919061475b565b6101be6101b9366004613999565b610a52565b60405161011a91906146b6565b6101de6101d936600461393f565b610c0e565b60405161011a91906146c7565b6101fe6101f93660046139ee565b610d68565b60405161011a919061477a565b610136610219366004613698565b6115b1565b61023161022c36600461390f565b611766565b60405161011a919061476c565b61025161024c366004613a2e565b611b06565b60405161011a9190614797565b61027161026c3660046137ee565b611e8c565b60405161011a91906146e9565b61029161028c36600461390f565b611f1d565b60405161011a91906147a5565b6102b16102ac366004613a0c565b6120c6565b60405161011a919061470b565b604080518281526020808402820101909152606090829082908280156102fe57816020015b6102eb612ff3565b8152602001906001900390816102e35790505b50905060005b8281101561034f5761033086868381811061031b57fe5b905060200201602061017991908101906139ee565b82828151811061033c57fe5b6020908102919091010152600101610304565b509150505b92915050565b6000606083838080602002602001604051908101604052809392919081815260200183836020028082843760009201919091525092935061039e925061300a915050565b60005b82518110156106b357866001600160a01b031663e37d4b798483815181106103c557fe5b60200260200101516040518263ffffffff1660e01b81526004016103e99190614656565b604080518083038186803b15801561040057600080fd5b505afa158015610414573d6000803e3d6000fd5b505050506040513d601f19601f820116820180604052506104389190810190613ae1565b63ffffffff1660408401526001600160e01b03166020830152610459612ff3565b604051806040016040528084602001516001600160e01b03168152602001846040015163ffffffff168152509050876001600160a01b031663b8324c7c8584815181106104a257fe5b60200260200101516040518263ffffffff1660e01b81526004016104c69190614656565b604080518083038186803b1580156104dd57600080fd5b505afa1580156104f1573d6000803e3d6000fd5b505050506040513d601f19601f820116820180604052506105159190810190613ae1565b63ffffffff1660808501526001600160e01b03166060840152610536612ff3565b506040805180820190915260608401516001600160e01b03168152608084015163ffffffff166020820152610569613038565b604051806020016040528087868151811061058057fe5b60200260200101516001600160a01b031663aa5af0fd6040518163ffffffff1660e01b815260040160206040518083038186803b1580156105c057600080fd5b505afa1580156105d4573d6000803e3d6000fd5b505050506040513d601f19601f820116820180604052506105f89190810190613b11565b815250905061061c8387868151811061060d57fe5b6020026020010151838d61221e565b600061063e8488878151811061062e57fe5b60200260200101518e858f61249e565b905061064e866000015182612620565b8652865161067290849089908890811061066457fe5b60200260200101518d612656565b6106918388878151811061068257fe5b60200260200101518e8e6128cc565b90506106a1866000015182612620565b86525050600190920191506103a19050565b50519695505050505050565b61708081565b6040805183815260208085028201019091526060908390829082801561070557816020015b6106f261304b565b8152602001906001900390816106ea5790505b50905060005b8281101561075c5761073d87878381811061072257fe5b905060200201602061073791908101906139ee565b86611766565b82828151811061074957fe5b602090810291909101015260010161070b565b509150505b9392505050565b610770612ff3565b6000826001600160a01b0316635fe3b5676040518163ffffffff1660e01b815260040160206040518083038186803b1580156107ab57600080fd5b505afa1580156107bf573d6000803e3d6000fd5b505050506040513d601f19601f820116820180604052506107e391908101906138f1565b90506000816001600160a01b0316637dc0d1d06040518163ffffffff1660e01b815260040160206040518083038186803b15801561082057600080fd5b505afa158015610834573d6000803e3d6000fd5b505050506040513d601f19601f8201168201806040525061085891908101906138f1565b90506040518060400160405280856001600160a01b03168152602001826001600160a01b031663fc57d4df876040518263ffffffff1660e01b81526004016108a0919061471c565b60206040518083038186803b1580156108b857600080fd5b505afa1580156108cc573d6000803e3d6000fd5b505050506040513d601f19601f820116820180604052506108f09190810190613b11565b9052949350505050565b61090261308a565b6000806000856001600160a01b0316635ec88c79866040518263ffffffff1660e01b81526004016109339190614656565b60606040518083038186803b15801561094b57600080fd5b505afa15801561095f573d6000803e3d6000fd5b505050506040513d601f19601f820116820180604052506109839190810190613bf3565b925092509250826000146109b25760405162461bcd60e51b81526004016109a99061473b565b60405180910390fd5b604080516060810191829052632aff3bff60e21b909152806001600160a01b03881663abfceffc6109e68960648501614656565b60006040518083038186803b1580156109fe57600080fd5b505afa158015610a12573d6000803e3d6000fd5b505050506040513d6000823e601f3d908101601f19168201604052610a3a9190810190613883565b81526020810193909352604090920152949350505050565b60608083839050604051908082528060200260200182016040528015610a9257816020015b610a7f6130ab565b815260200190600190039081610a775790505b50905060005b83811015610c0557606080606080896001600160a01b031663328dd9828a8a88818110610ac157fe5b905060200201356040518263ffffffff1660e01b8152600401610ae491906147b3565b60006040518083038186803b158015610afc57600080fd5b505afa158015610b10573d6000803e3d6000fd5b505050506040513d6000823e601f3d908101601f19168201604052610b389190810190613732565b9350935093509350604051806101a001604052806000815260200160006001600160a01b03168152602001600081526020018581526020018481526020018381526020018281526020016000815260200160008152602001600081526020016000815260200160001515815260200160001515815250868681518110610bba57fe5b6020026020010181905250610bf5868681518110610bd457fe5b60200260200101518b8b8b89818110610be957fe5b90506020020135612ac0565b505060019092019150610a989050565b50949350505050565b6060600082519050606081604051908082528060200260200182016040528015610c5257816020015b610c3f613120565b815260200190600190039081610c375790505b50905060005b8281101561075c57610c68613147565b876001600160a01b031663e23a9a52878481518110610c8357fe5b6020026020010151896040518363ffffffff1660e01b8152600401610ca99291906147c1565b60606040518083038186803b158015610cc157600080fd5b505afa158015610cd5573d6000803e3d6000fd5b505050506040513d601f19601f82011682018060405250610cf99190810190613aa5565b90506040518060800160405280878481518110610d1257fe5b6020026020010151815260200182600001511515815260200182602001511515815260200182604001516001600160601b0316815250838381518110610d5457fe5b602090810291909101015250600101610c58565b610d70613167565b6000826001600160a01b031663bd6d894d6040518163ffffffff1660e01b8152600401602060405180830381600087803b158015610dad57600080fd5b505af1158015610dc1573d6000803e3d6000fd5b505050506040513d601f19601f82011682018060405250610de59190810190613b11565b90506000836001600160a01b0316635fe3b5676040518163ffffffff1660e01b815260040160206040518083038186803b158015610e2257600080fd5b505afa158015610e36573d6000803e3d6000fd5b505050506040513d601f19601f82011682018060405250610e5a91908101906138f1565b604051638e8f294b60e01b8152909150819060009081906001600160a01b03841690638e8f294b90610e90908a90600401614656565b604080518083038186803b158015610ea757600080fd5b505afa158015610ebb573d6000803e3d6000fd5b505050506040513d601f19601f82011682018060405250610edf91908101906138b7565b91509150600080610f80896001600160a01b03166395d89b416040518163ffffffff1660e01b815260040160006040518083038186803b158015610f2257600080fd5b505afa158015610f36573d6000803e3d6000fd5b505050506040513d6000823e601f3d908101601f19168201604052610f5e9190810190613a71565b604051806040016040528060048152602001633b21272160e11b815250612be6565b15610f9157506000905060126110f1565b6000899050806001600160a01b0316636f307dc36040518163ffffffff1660e01b815260040160206040518083038186803b158015610fcf57600080fd5b505afa158015610fe3573d6000803e3d6000fd5b505050506040513d601f19601f82011682018060405250611007919081019061367a565b9250806001600160a01b0316636f307dc36040518163ffffffff1660e01b815260040160206040518083038186803b15801561104257600080fd5b505afa158015611056573d6000803e3d6000fd5b505050506040513d601f19601f8201168201806040525061107a919081019061367a565b6001600160a01b031663313ce5676040518163ffffffff1660e01b815260040160206040518083038186803b1580156110b257600080fd5b505afa1580156110c6573d6000803e3d6000fd5b505050506040513d601f19601f820116820180604052506110ea9190810190613c54565b60ff169150505b604051631abcaa7760e01b81526000906001600160a01b03871690631abcaa7790611120908d90600401614656565b60206040518083038186803b15801561113857600080fd5b505afa15801561114c573d6000803e3d6000fd5b505050506040513d601f19601f820116820180604052506111709190810190613b11565b90506040518061024001604052808b6001600160a01b031681526020018981526020018b6001600160a01b031663ae9d70b06040518163ffffffff1660e01b815260040160206040518083038186803b1580156111cc57600080fd5b505afa1580156111e0573d6000803e3d6000fd5b505050506040513d601f19601f820116820180604052506112049190810190613b11565b81526020018b6001600160a01b031663f8f9da286040518163ffffffff1660e01b815260040160206040518083038186803b15801561124257600080fd5b505afa158015611256573d6000803e3d6000fd5b505050506040513d601f19601f8201168201806040525061127a9190810190613b11565b81526020018b6001600160a01b031663173b99046040518163ffffffff1660e01b815260040160206040518083038186803b1580156112b857600080fd5b505afa1580156112cc573d6000803e3d6000fd5b505050506040513d601f19601f820116820180604052506112f09190810190613b11565b81526020018b6001600160a01b03166347bd37186040518163ffffffff1660e01b815260040160206040518083038186803b15801561132e57600080fd5b505afa158015611342573d6000803e3d6000fd5b505050506040513d601f19601f820116820180604052506113669190810190613b11565b81526020018b6001600160a01b0316638f840ddd6040518163ffffffff1660e01b815260040160206040518083038186803b1580156113a457600080fd5b505afa1580156113b8573d6000803e3d6000fd5b505050506040513d601f19601f820116820180604052506113dc9190810190613b11565b81526020018b6001600160a01b03166318160ddd6040518163ffffffff1660e01b815260040160206040518083038186803b15801561141a57600080fd5b505afa15801561142e573d6000803e3d6000fd5b505050506040513d601f19601f820116820180604052506114529190810190613b11565b81526020018b6001600160a01b0316633b1d21a26040518163ffffffff1660e01b815260040160206040518083038186803b15801561149057600080fd5b505afa1580156114a4573d6000803e3d6000fd5b505050506040513d601f19601f820116820180604052506114c89190810190613b11565b81526020018615158152602001858152602001846001600160a01b031681526020018b6001600160a01b031663313ce5676040518163ffffffff1660e01b815260040160206040518083038186803b15801561152357600080fd5b505afa158015611537573d6000803e3d6000fd5b505050506040513d601f19601f8201168201806040525061155b9190810190613c54565b60ff16815260200183815260200182815260200182815260200161158a61708084612c3f90919063ffffffff16565b81526020016115a18361708063ffffffff612c3f16565b90529a9950505050505050505050565b6000808490506060848480806020026020016040519081016040528093929190818152602001838360200280828437600092018290525093945083925050505b825181101561175a57600083828151811061160857fe5b6020026020010151905061161a613167565b61162382610d68565b905061162d61304b565b611637838d611766565b9050611641612ff3565b61164a84610768565b602081015190915061165a613038565b604051806020016040528083815250905060008090506000611680838760600151612c79565b905060006116b7670de0b6b3a76400006116ab8a602001518b60e00151612c3f90919063ffffffff16565b9063ffffffff612ca016565b905060006116c58583612c79565b905080156116ec576116e9816116ab858c6102000151612c3f90919063ffffffff16565b93505b60008090506000611701878b60400151612c79565b90506000611713888d60a00151612c79565b9050801561173a57611737816116ab848f6102200151612c3f90919063ffffffff16565b92505b5050939093019a909a01995050600190970196506115f195505050505050565b50979650505050505050565b61176e61304b565b6040516370a0823160e01b81526000906001600160a01b038516906370a082319061179d908690600401614664565b60206040518083038186803b1580156117b557600080fd5b505afa1580156117c9573d6000803e3d6000fd5b505050506040513d601f19601f820116820180604052506117ed9190810190613b11565b90506000846001600160a01b03166317bfdfbc856040518263ffffffff1660e01b815260040161181d9190614664565b602060405180830381600087803b15801561183757600080fd5b505af115801561184b573d6000803e3d6000fd5b505050506040513d601f19601f8201168201806040525061186f9190810190613b11565b90506000856001600160a01b0316633af9e669866040518263ffffffff1660e01b815260040161189f9190614664565b602060405180830381600087803b1580156118b957600080fd5b505af11580156118cd573d6000803e3d6000fd5b505050506040513d601f19601f820116820180604052506118f19190810190613b11565b9050600080611932886001600160a01b03166395d89b416040518163ffffffff1660e01b815260040160006040518083038186803b158015610f2257600080fd5b1561194c5750506001600160a01b03851680319031611ac9565b60008890506000816001600160a01b0316636f307dc36040518163ffffffff1660e01b815260040160206040518083038186803b15801561198c57600080fd5b505afa1580156119a0573d6000803e3d6000fd5b505050506040513d601f19601f820116820180604052506119c4919081019061367a565b6040516370a0823160e01b81529091506001600160a01b038216906370a08231906119f3908c90600401614664565b60206040518083038186803b158015611a0b57600080fd5b505afa158015611a1f573d6000803e3d6000fd5b505050506040513d601f19601f82011682018060405250611a439190810190613b11565b604051636eb1769f60e11b81529094506001600160a01b0382169063dd62ed3e90611a74908c908e90600401614672565b60206040518083038186803b158015611a8c57600080fd5b505afa158015611aa0573d6000803e3d6000fd5b505050506040513d601f19601f82011682018060405250611ac49190810190613b11565b925050505b6040805160c0810182526001600160a01b039990991689526020890195909552938701929092526060860152608085015260a08401525090919050565b611b0e613206565b6040516370a0823160e01b81526000906001600160a01b038616906370a0823190611b3d908690600401614656565b60206040518083038186803b158015611b5557600080fd5b505afa158015611b69573d6000803e3d6000fd5b505050506040513d601f19601f82011682018060405250611b8d9190810190613b11565b60405163adcd5fb960e01b81529091506001600160a01b0385169063adcd5fb990611bbc908690600401614656565b600060405180830381600087803b158015611bd657600080fd5b505af1158015611bea573d6000803e3d6000fd5b50506040516370a0823160e01b8152600092506001600160a01b03881691506370a0823190611c1d908790600401614656565b60206040518083038186803b158015611c3557600080fd5b505afa158015611c49573d6000803e3d6000fd5b505050506040513d601f19601f82011682018060405250611c6d9190810190613b11565b90506000856001600160a01b0316638a7dc165866040518263ffffffff1660e01b8152600401611c9d9190614656565b60206040518083038186803b158015611cb557600080fd5b505afa158015611cc9573d6000803e3d6000fd5b505050506040513d601f19601f82011682018060405250611ced9190810190613b11565b90506000611d2182846040518060400160405280600d81526020016c1cdd5b481e1d9cc81d1bdd185b609a1b815250612ce2565b90506000611d5582866040518060400160405280600d81526020016c1cdd5888185b1b1bd8d85d1959609a1b815250612d09565b905060405180608001604052808681526020018a6001600160a01b031663b4b5ea578a6040518263ffffffff1660e01b8152600401611d949190614656565b60206040518083038186803b158015611dac57600080fd5b505afa158015611dc0573d6000803e3d6000fd5b505050506040513d601f19601f82011682018060405250611de49190810190613c72565b6001600160601b031681526020018a6001600160a01b031663587cde1e8a6040518263ffffffff1660e01b8152600401611e1e9190614656565b60206040518083038186803b158015611e3657600080fd5b505afa158015611e4a573d6000803e3d6000fd5b505050506040513d601f19601f82011682018060405250611e6e919081019061367a565b6001600160a01b031681526020019190915298975050505050505050565b60408051828152602080840282010190915260609082908290828015611ecc57816020015b611eb9613167565b815260200190600190039081611eb15790505b50905060005b8281101561034f57611efe868683818110611ee957fe5b90506020020160206101f991908101906139ee565b828281518110611f0a57fe5b6020908102919091010152600101611ed2565b611f25613237565b6040805160608101918290526370a0823160e01b909152806001600160a01b0385166370a08231611f598660648501614656565b60206040518083038186803b158015611f7157600080fd5b505afa158015611f85573d6000803e3d6000fd5b505050506040513d601f19601f82011682018060405250611fa99190810190613b11565b8152602001846001600160a01b031663b4b5ea57856040518263ffffffff1660e01b8152600401611fda9190614656565b60206040518083038186803b158015611ff257600080fd5b505afa158015612006573d6000803e3d6000fd5b505050506040513d601f19601f8201168201806040525061202a9190810190613c72565b6001600160601b03168152602001846001600160a01b031663587cde1e856040518263ffffffff1660e01b81526004016120649190614656565b60206040518083038186803b15801561207c57600080fd5b505afa158015612090573d6000803e3d6000fd5b505050506040513d601f19601f820116820180604052506120b4919081019061367a565b6001600160a01b031690529392505050565b6060808383905060405190808252806020026020018201604052801561210657816020015b6120f3613261565b8152602001906001900390816120eb5790505b50905060005b8381101561221457604051806040016040528086868481811061212b57fe5b90506020020160206121409190810190613c36565b63ffffffff168152602001886001600160a01b031663782d6fe18989898781811061216757fe5b905060200201602061217c9190810190613c36565b6040518363ffffffff1660e01b815260040161219992919061469b565b60206040518083038186803b1580156121b157600080fd5b505afa1580156121c5573d6000803e3d6000fd5b505050506040513d601f19601f820116820180604052506121e99190810190613c72565b6001600160601b031681525082828151811061220157fe5b602090810291909101015260010161210c565b5095945050505050565b604051631abcaa7760e01b81526000906001600160a01b03831690631abcaa779061224d908790600401614656565b60206040518083038186803b15801561226557600080fd5b505afa158015612279573d6000803e3d6000fd5b505050506040513d601f19601f8201168201806040525061229d9190810190613b11565b9050600043905060006122ba82886020015163ffffffff16612d35565b90506000811180156122cc5750600083115b1561244b57600061234d876001600160a01b03166347bd37186040518163ffffffff1660e01b815260040160206040518083038186803b15801561230f57600080fd5b505afa158015612323573d6000803e3d6000fd5b505050506040513d601f19601f820116820180604052506123479190810190613b11565b87612d6f565b9050600061235b8386612d8d565b9050612365613038565b60008311612382576040518060200160405280600081525061238c565b61238c8284612dcf565b9050612396613038565b60408051602081019091528b516001600160e01b031681526123b89083612e0d565b90506123f38160000151604051806040016040528060138152602001726e657720696e646578206f766572666c6f777360681b815250612e32565b6001600160e01b03168b52604080518082019091526016815275626c6f636b206e756d626572206f766572666c6f777360501b6020820152612436908790612e61565b63ffffffff1660208c01525061249592505050565b8015612495576124898260405180604001604052806016815260200175626c6f636b206e756d626572206f766572666c6f777360501b815250612e61565b63ffffffff1660208801525b50505050505050565b60006124a8613038565b50604080516020810190915286516001600160e01b031681526124c9613038565b604080516020810191829052630238089760e21b909152806001600160a01b0386166308e0225c6124fe8b8b6024860161468d565b60206040518083038186803b15801561251657600080fd5b505afa15801561252a573d6000803e3d6000fd5b505050506040513d601f19601f8201168201806040525061254e9190810190613b11565b905280519091501561261057612562613038565b61256c8383612e89565b905060006125f5896001600160a01b03166395dd91938a6040518263ffffffff1660e01b815260040161259f9190614656565b60206040518083038186803b1580156125b757600080fd5b505afa1580156125cb573d6000803e3d6000fd5b505050506040513d601f19601f820116820180604052506125ef9190810190613b11565b88612d6f565b905060006126038284612eae565b9550612617945050505050565b6000925050505b95945050505050565b60006107618383604051806040016040528060118152602001706164646974696f6e206f766572666c6f7760781b815250612ce2565b604051631abcaa7760e01b81526000906001600160a01b03831690631abcaa7790612685908690600401614656565b60206040518083038186803b15801561269d57600080fd5b505afa1580156126b1573d6000803e3d6000fd5b505050506040513d601f19601f820116820180604052506126d59190810190613b11565b9050600043905060006126f282876020015163ffffffff16612d35565b90506000811180156127045750600083115b1561287a576000856001600160a01b03166318160ddd6040518163ffffffff1660e01b815260040160206040518083038186803b15801561274457600080fd5b505afa158015612758573d6000803e3d6000fd5b505050506040513d601f19601f8201168201806040525061277c9190810190613b11565b9050600061278a8386612d8d565b9050612794613038565b600083116127b157604051806020016040528060008152506127bb565b6127bb8284612dcf565b90506127c5613038565b60408051602081019091528a516001600160e01b031681526127e79083612e0d565b90506128228160000151604051806040016040528060138152602001726e657720696e646578206f766572666c6f777360681b815250612e32565b6001600160e01b03168a52604080518082019091526016815275626c6f636b206e756d626572206f766572666c6f777360501b6020820152612865908790612e61565b63ffffffff1660208b0152506128c492505050565b80156128c4576128b88260405180604001604052806016815260200175626c6f636b206e756d626572206f766572666c6f777360501b815250612e61565b63ffffffff1660208701525b505050505050565b60006128d6613038565b50604080516020810190915285516001600160e01b031681526128f7613038565b604080516020810191829052631068634b60e21b909152806001600160a01b0386166341a18d2c61292c8a8a6024860161468d565b60206040518083038186803b15801561294457600080fd5b505afa158015612958573d6000803e3d6000fd5b505050506040513d601f19601f8201168201806040525061297c9190810190613b11565b905280519091501580156129905750815115155b15612a1257836001600160a01b031663c5b4db556040518163ffffffff1660e01b815260040160206040518083038186803b1580156129ce57600080fd5b505afa1580156129e2573d6000803e3d6000fd5b505050506040513d601f19601f82011682018060405250612a069190810190613ac3565b6001600160e01b031681525b612a1a613038565b612a248383612e89565b90506000876001600160a01b03166370a08231886040518263ffffffff1660e01b8152600401612a549190614656565b60206040518083038186803b158015612a6c57600080fd5b505afa158015612a80573d6000803e3d6000fd5b505050506040513d601f19601f82011682018060405250612aa49190810190613b11565b90506000612ab28284612eae565b9a9950505050505050505050565b600080600080600080600080896001600160a01b031663013cf08b8a6040518263ffffffff1660e01b8152600401612af891906147b3565b6101206040518083038186803b158015612b1157600080fd5b505afa158015612b25573d6000803e3d6000fd5b505050506040513d601f19601f82011682018060405250612b499190810190613b2f565b9850985098509850985098509850985050888b6000018181525050878b602001906001600160a01b031690816001600160a01b031681525050868b6040018181525050858b60e0018181525050848b610100018181525050838b610120018181525050828b610140018181525050818b610160019015159081151581525050808b6101800190151590811515815250505050505050505050505050565b600081604051602001612bf9919061464a565b6040516020818303038152906040528051906020012083604051602001612c20919061464a565b6040516020818303038152906040528051906020012014905092915050565b600082612c4e57506000610354565b82820282848281612c5b57fe5b04146107615760405162461bcd60e51b81526004016109a99061474b565b6000612c83613038565b612c8d8484612edd565b9050612c9881612efe565b949350505050565b600061076183836040518060400160405280601a81526020017f536166654d6174683a206469766973696f6e206279207a65726f000000000000815250612f0d565b60008383018285821015610c055760405162461bcd60e51b81526004016109a9919061472a565b60008184841115612d2d5760405162461bcd60e51b81526004016109a9919061472a565b505050900390565b60006107618383604051806040016040528060158152602001747375627472616374696f6e20756e646572666c6f7760581b815250612d09565b6000610761612d8684670de0b6b3a7640000612d8d565b8351612f44565b600061076183836040518060400160405280601781526020017f6d756c7469706c69636174696f6e206f766572666c6f77000000000000000000815250612f77565b612dd7613038565b6040518060200160405280612e04612dfe866ec097ce7bc90715b34b9f1000000000612d8d565b85612f44565b90529392505050565b612e15613038565b6040518060200160405280612e0485600001518560000151612620565b600081600160e01b8410612e595760405162461bcd60e51b81526004016109a9919061472a565b509192915050565b6000816401000000008410612e595760405162461bcd60e51b81526004016109a9919061472a565b612e91613038565b6040518060200160405280612e0485600001518560000151612d35565b60006ec097ce7bc90715b34b9f1000000000612ece848460000151612d8d565b81612ed557fe5b049392505050565b612ee5613038565b6040518060200160405280612e04856000015185612d8d565b51670de0b6b3a7640000900490565b60008183612f2e5760405162461bcd60e51b81526004016109a9919061472a565b506000838581612f3a57fe5b0495945050505050565b600061076183836040518060400160405280600e81526020016d646976696465206279207a65726f60901b815250612fbf565b6000831580612f84575082155b15612f9157506000610761565b83830283858281612f9e57fe5b04148390610c055760405162461bcd60e51b81526004016109a9919061472a565b60008183612fe05760405162461bcd60e51b81526004016109a9919061472a565b50828481612fea57fe5b04949350505050565b604080518082019091526000808252602082015290565b6040805160a08101825260008082526020820181905291810182905260608101829052608081019190915290565b6040518060200160405280600081525090565b6040518060c0016040528060006001600160a01b0316815260200160008152602001600081526020016000815260200160008152602001600081525090565b60405180606001604052806060815260200160008152602001600081525090565b604051806101a001604052806000815260200160006001600160a01b031681526020016000815260200160608152602001606081526020016060815260200160608152602001600081526020016000815260200160008152602001600081526020016000151581526020016000151581525090565b60408051608081018252600080825260208201819052918101829052606081019190915290565b604080516060810182526000808252602082018190529181019190915290565b60405180610240016040528060006001600160a01b0316815260200160008152602001600081526020016000815260200160008152602001600081526020016000815260200160008152602001600081526020016000151581526020016000815260200160006001600160a01b031681526020016000815260200160008152602001600081526020016000815260200160008152602001600081525090565b6040518060800160405280600081526020016000815260200160006001600160a01b03168152602001600081525090565b6040518060600160405280600081526020016000815260200160006001600160a01b031681525090565b604051806040016040528060008152602001600081525090565b8035610354816148f1565b8051610354816148f1565b600082601f8301126132a257600080fd5b81516132b56132b0826147f5565b6147cf565b915081818352602084019350602081019050838560208402820111156132da57600080fd5b60005b8381101561330657816132f08882613286565b84525060209283019291909101906001016132dd565b5050505092915050565b600082601f83011261332157600080fd5b815161332f6132b0826147f5565b81815260209384019390925082018360005b838110156133065781518601613357888261356d565b8452506020928301929190910190600101613341565b60008083601f84011261337f57600080fd5b5081356001600160401b0381111561339657600080fd5b6020830191508360208202830111156133ae57600080fd5b9250929050565b600082601f8301126133c657600080fd5b81516133d46132b0826147f5565b915081818352602084019350602081019050838560208402820111156133f957600080fd5b60005b83811015613306578161340f88826135c7565b84525060209283019291909101906001016133fc565b600082601f83011261343657600080fd5b81516134446132b0826147f5565b81815260209384019390925082018360005b83811015613306578151860161346c888261356d565b8452506020928301929190910190600101613456565b600082601f83011261349357600080fd5b81356134a16132b0826147f5565b915081818352602084019350602081019050838560208402820111156134c657600080fd5b60005b8381101561330657816134dc8882613638565b84525060209283019291909101906001016134c9565b600082601f83011261350357600080fd5b81516135116132b0826147f5565b9150818183526020840193506020810190508385602084028201111561353657600080fd5b60005b83811015613306578161354c8882613643565b8452506020928301929190910190600101613539565b805161035481614908565b600082601f83011261357e57600080fd5b815161358c6132b082614815565b915080825260208301602083018583830111156135a857600080fd5b6135b38382846148bb565b50505092915050565b803561035481614911565b805161035481614911565b6000606082840312156135e457600080fd5b6135ee60606147cf565b905060006135fc8484613562565b825250602061360d84848301613562565b60208301525060406136218482850161366f565b60408301525092915050565b80516103548161491a565b803561035481614923565b805161035481614923565b80356103548161492c565b80516103548161492c565b805161035481614935565b80516103548161493e565b60006020828403121561368c57600080fd5b6000612c988484613286565b600080600080606085870312156136ae57600080fd5b60006136ba878761327b565b94505060206136cb8782880161327b565b93505060408501356001600160401b038111156136e757600080fd5b6136f38782880161336d565b95989497509550505050565b6000806000806060858703121561371557600080fd5b6000613721878761327b565b94505060206136cb878288016135bc565b6000806000806080858703121561374857600080fd5b84516001600160401b0381111561375e57600080fd5b61376a87828801613291565b94505060208501516001600160401b0381111561378657600080fd5b613792878288016134f2565b93505060408501516001600160401b038111156137ae57600080fd5b6137ba87828801613425565b92505060608501516001600160401b038111156137d657600080fd5b6137e287828801613310565b91505092959194509250565b6000806020838503121561380157600080fd5b82356001600160401b0381111561381757600080fd5b6138238582860161336d565b92509250509250929050565b60008060006040848603121561384457600080fd5b83356001600160401b0381111561385a57600080fd5b6138668682870161336d565b935093505060206138798682870161327b565b9150509250925092565b60006020828403121561389557600080fd5b81516001600160401b038111156138ab57600080fd5b612c98848285016133b5565b600080604083850312156138ca57600080fd5b60006138d68585613562565b92505060206138e785828601613643565b9150509250929050565b60006020828403121561390357600080fd5b6000612c9884846135c7565b6000806040838503121561392257600080fd5b600061392e85856135bc565b92505060206138e78582860161327b565b60008060006060848603121561395457600080fd5b600061396086866135bc565b93505060206139718682870161327b565b92505060408401356001600160401b0381111561398d57600080fd5b61387986828701613482565b6000806000604084860312156139ae57600080fd5b60006139ba86866135bc565b93505060208401356001600160401b038111156139d657600080fd5b6139e28682870161336d565b92509250509250925092565b600060208284031215613a0057600080fd5b6000612c9884846135bc565b60008060008060608587031215613a2257600080fd5b60006136ba87876135bc565b600080600060608486031215613a4357600080fd5b6000613a4f86866135bc565b9350506020613a60868287016135bc565b92505060406138798682870161327b565b600060208284031215613a8357600080fd5b81516001600160401b03811115613a9957600080fd5b612c988482850161356d565b600060608284031215613ab757600080fd5b6000612c9884846135d2565b600060208284031215613ad557600080fd5b6000612c98848461362d565b60008060408385031215613af457600080fd5b6000613b00858561362d565b92505060206138e785828601613659565b600060208284031215613b2357600080fd5b6000612c988484613643565b60008060008060008060008060006101208a8c031215613b4e57600080fd5b6000613b5a8c8c613643565b9950506020613b6b8c828d01613286565b9850506040613b7c8c828d01613643565b9750506060613b8d8c828d01613643565b9650506080613b9e8c828d01613643565b95505060a0613baf8c828d01613643565b94505060c0613bc08c828d01613643565b93505060e0613bd18c828d01613562565b925050610100613be38c828d01613562565b9150509295985092959850929598565b600080600060608486031215613c0857600080fd5b6000613c148686613643565b9350506020613c2586828701613643565b925050604061387986828701613643565b600060208284031215613c4857600080fd5b6000612c98848461364e565b600060208284031215613c6657600080fd5b6000612c988484613664565b600060208284031215613c8457600080fd5b6000612c98848461366f565b6000613c9c8383613d40565b505060200190565b600061076183836140fd565b6000613c9c8383614135565b60006107618383614231565b6000613cd48383614350565b505060800190565b6000613ce883836143a0565b505060c00190565b6000613cfc8383614410565b50506102400190565b6000613d118383614579565b505060400190565b6000613d11838361459d565b6000613c9c838361462f565b613d3a816148a5565b82525050565b613d3a81614854565b6000613d5482614842565b613d5e8185614846565b9350613d698361483c565b8060005b83811015613d97578151613d818882613c90565b9750613d8c8361483c565b925050600101613d6d565b509495945050505050565b6000613dad82614842565b613db78185614846565b935083602082028501613dc98561483c565b8060005b85811015613e035784840389528151613de68582613ca4565b9450613df18361483c565b60209a909a0199925050600101613dcd565b5091979650505050505050565b6000613e1b82614842565b613e258185614846565b9350613e308361483c565b8060005b83811015613d97578151613e488882613cb0565b9750613e538361483c565b925050600101613e34565b6000613e6982614842565b613e738185614846565b935083602082028501613e858561483c565b8060005b85811015613e035784840389528151613ea28582613ca4565b9450613ead8361483c565b60209a909a0199925050600101613e89565b6000613eca82614842565b613ed48185614846565b935083602082028501613ee68561483c565b8060005b85811015613e035784840389528151613f038582613cbc565b9450613f0e8361483c565b60209a909a0199925050600101613eea565b6000613f2b82614842565b613f358185614846565b9350613f408361483c565b8060005b83811015613d97578151613f588882613cc8565b9750613f638361483c565b925050600101613f44565b6000613f7982614842565b613f838185614846565b9350613f8e8361483c565b8060005b83811015613d97578151613fa68882613cdc565b9750613fb18361483c565b925050600101613f92565b6000613fc782614842565b613fd18185614846565b9350613fdc8361483c565b8060005b83811015613d97578151613ff48882613cf0565b9750613fff8361483c565b925050600101613fe0565b600061401582614842565b61401f8185614846565b935061402a8361483c565b8060005b83811015613d975781516140428882613d05565b975061404d8361483c565b92505060010161402e565b600061406382614842565b61406d8185614846565b93506140788361483c565b8060005b83811015613d975781516140908882613d19565b975061409b8361483c565b92505060010161407c565b60006140b182614842565b6140bb8185614846565b93506140c68361483c565b8060005b83811015613d975781516140de8882613d25565b97506140e98361483c565b9250506001016140ca565b613d3a8161485f565b600061410882614842565b6141128185614846565b93506141228185602086016148bb565b61412b816148e7565b9093019392505050565b613d3a81614864565b600061414982614842565b614153818561484f565b93506141638185602086016148bb565b9290920192915050565b600061417a601783614846565b7f6163636f756e74206c6971756964697479206572726f72000000000000000000815260200192915050565b60006141b3602183614846565b7f536166654d6174683a206d756c7469706c69636174696f6e206f766572666c6f8152607760f81b602082015260400192915050565b80516060808452600091908401906142018282613e10565b9150506020830151614216602086018261462f565b506040830151614229604086018261462f565b509392505050565b80516000906101a0840190614246858261462f565b5060208301516142596020860182613d40565b50604083015161426c604086018261462f565b50606083015184820360608601526142848282613d49565b9150506080830151848203608086015261429e82826140a6565b91505060a083015184820360a08601526142b88282613e5e565b91505060c083015184820360c08601526142d28282613da2565b91505060e08301516142e760e086018261462f565b506101008301516142fc61010086018261462f565b5061012083015161431161012086018261462f565b5061014083015161432661014086018261462f565b5061016083015161433b6101608601826140f4565b506101808301516142296101808601826140f4565b80516080830190614361848261462f565b50602082015161437460208501826140f4565b50604082015161438760408501826140f4565b50606082015161439a6060850182614641565b50505050565b805160c08301906143b18482613d40565b5060208201516143c4602085018261462f565b5060408201516143d7604085018261462f565b5060608201516143ea606085018261462f565b5060808201516143fd608085018261462f565b5060a082015161439a60a085018261462f565b80516102408301906144228482613d40565b506020820151614435602085018261462f565b506040820151614448604085018261462f565b50606082015161445b606085018261462f565b50608082015161446e608085018261462f565b5060a082015161448160a085018261462f565b5060c082015161449460c085018261462f565b5060e08201516144a760e085018261462f565b506101008201516144bc61010085018261462f565b506101208201516144d16101208501826140f4565b506101408201516144e661014085018261462f565b506101608201516144fb610160850182613d40565b5061018082015161451061018085018261462f565b506101a08201516145256101a085018261462f565b506101c082015161453a6101c085018261462f565b506101e082015161454f6101e085018261462f565b5061020082015161456461020085018261462f565b5061022082015161439a61022085018261462f565b8051604083019061458a8482613d40565b50602082015161439a602085018261462f565b8051604083019061458a848261462f565b805160808301906145bf848261462f565b5060208201516145d2602085018261462f565b5060408201516145e56040850182613d40565b50606082015161439a606085018261462f565b80516060830190614609848261462f565b50602082015161461c602085018261462f565b50604082015161439a6040850182613d40565b613d3a81614887565b613d3a816148b0565b613d3a81614899565b6000610761828461413e565b602081016103548284613d40565b602081016103548284613d31565b604081016146808285613d31565b6107616020830184613d40565b604081016146808285613d40565b604081016146a98285613d40565b6107616020830184614638565b602080825281016107618184613ebf565b602080825281016107618184613f20565b602080825281016107618184613f6e565b602080825281016107618184613fbc565b60208082528101610761818461400a565b602080825281016107618184614058565b602081016103548284614135565b6020808252810161076181846140fd565b602080825281016103548161416d565b60208082528101610354816141a6565b6020808252810161076181846141e9565b60c0810161035482846143a0565b61024081016103548284614410565b604081016103548284614579565b6080810161035482846145ae565b6060810161035482846145f8565b60208101610354828461462f565b60408101614680828561462f565b6040518181016001600160401b03811182821017156147ed57600080fd5b604052919050565b60006001600160401b0382111561480b57600080fd5b5060209081020190565b60006001600160401b0382111561482b57600080fd5b506020601f91909101601f19160190565b60200190565b5190565b90815260200190565b919050565b60006103548261486f565b151590565b600061035482614854565b6001600160a01b031690565b6001600160e01b031690565b90565b63ffffffff1690565b60ff1690565b6001600160601b031690565b600061035482614864565b60006103548261488a565b60005b838110156148d65781810151838201526020016148be565b8381111561439a5750506000910152565b601f01601f191690565b6148fa81614854565b811461490557600080fd5b50565b6148fa8161485f565b6148fa81614864565b6148fa8161487b565b6148fa81614887565b6148fa8161488a565b6148fa81614893565b6148fa8161489956fea365627a7a7231582063c9f2ea7820f9d7b8b14b93db7c61e5d36047e103446dd7d3590e85473faa1b6c6578706572696d656e74616cf564736f6c63430005100040",
  "devdoc": {
    "methods": {}
  },
  "userdoc": {
    "methods": {}
  },
  "storageLayout": {
    "storage": [],
    "types": null
  }
}