{
  "address": "0xBcE8BcB9792EcfBA0aE65CA741f455Ff50aA3842",
  "abi": [
    {
      "inputs": [],
      "payable": false,
      "stateMutability": "nonpayable",
      "type": "constructor"
    },
    {
      "anonymous": false,
      "inputs": [
        {
          "indexed": true,
          "internalType": "address",
          "name": "oldAdmin",
          "type": "address"
        },
        {
          "indexed": true,
          "internalType": "address",
          "name": "newAdmin",
          "type": "address"
        }
      ],
      "name": "AdminTransfered",
      "type": "event"
    },
    {
      "anonymous": false,
      "inputs": [
        {
          "indexed": true,
          "internalType": "address",
          "name": "user",
          "type": "address"
        },
        {
          "indexed": false,
          "internalType": "uint256",
          "name": "interestAmount",
          "type": "uint256"
        }
      ],
      "name": "Claim",
      "type": "event"
    },
    {
      "anonymous": false,
      "inputs": [
        {
          "indexed": true,
          "internalType": "address",
          "name": "user",
          "type": "address"
        },
        {
          "indexed": false,
          "internalType": "uint256",
          "name": "amount",
          "type": "uint256"
        }
      ],
      "name": "Deposit",
      "type": "event"
    },
    {
      "anonymous": false,
      "inputs": [
        {
          "indexed": true,
          "internalType": "address",
          "name": "admin",
          "type": "address"
        }
      ],
      "name": "VaultPaused",
      "type": "event"
    },
    {
      "anonymous": false,
      "inputs": [
        {
          "indexed": true,
          "internalType": "address",
          "name": "admin",
          "type": "address"
        }
      ],
      "name": "VaultResumed",
      "type": "event"
    },
    {
      "anonymous": false,
      "inputs": [
        {
          "indexed": true,
          "internalType": "address",
          "name": "user",
          "type": "address"
        },
        {
          "indexed": false,
          "internalType": "uint256",
          "name": "withdrawnAmount",
          "type": "uint256"
        },
        {
          "indexed": false,
          "internalType": "uint256",
          "name": "totalPrincipalAmount",
          "type": "uint256"
        },
        {
          "indexed": false,
          "internalType": "uint256",
          "name": "accruedInterest",
          "type": "uint256"
        }
      ],
      "name": "Withdraw",
      "type": "event"
    },
    {
      "anonymous": false,
      "inputs": [
        {
          "indexed": true,
          "internalType": "address",
          "name": "tokenAddress",
          "type": "address"
        },
        {
          "indexed": true,
          "internalType": "address",
          "name": "receiver",
          "type": "address"
        },
        {
          "indexed": false,
          "internalType": "uint256",
          "name": "amount",
          "type": "uint256"
        }
      ],
      "name": "WithdrawToken",
      "type": "event"
    },
    {
      "constant": false,
      "inputs": [
        {
          "internalType": "contract VRTVaultProxy",
          "name": "vrtVaultProxy",
          "type": "address"
        }
      ],
      "name": "_become",
      "outputs": [],
      "payable": false,
      "stateMutability": "nonpayable",
      "type": "function"
    },
    {
      "constant": true,
      "inputs": [],
      "name": "_notEntered",
      "outputs": [
        {
          "internalType": "bool",
          "name": "",
          "type": "bool"
        }
      ],
      "payable": false,
      "stateMutability": "view",
      "type": "function"
    },
    {
      "constant": true,
      "inputs": [],
      "name": "admin",
      "outputs": [
        {
          "internalType": "address",
          "name": "",
          "type": "address"
        }
      ],
      "payable": false,
      "stateMutability": "view",
      "type": "function"
    },
    {
      "constant": false,
      "inputs": [],
      "name": "claim",
      "outputs": [],
      "payable": false,
      "stateMutability": "nonpayable",
      "type": "function"
    },
    {
      "constant": false,
      "inputs": [
        {
          "internalType": "uint256",
          "name": "depositAmount",
          "type": "uint256"
        }
      ],
      "name": "deposit",
      "outputs": [],
      "payable": false,
      "stateMutability": "nonpayable",
      "type": "function"
    },
    {
      "constant": true,
      "inputs": [
        {
          "internalType": "address",
          "name": "userAddress",
          "type": "address"
        }
      ],
      "name": "getAccruedInterest",
      "outputs": [
        {
          "internalType": "uint256",
          "name": "",
          "type": "uint256"
        }
      ],
      "payable": false,
      "stateMutability": "view",
      "type": "function"
    },
    {
      "constant": true,
      "inputs": [],
      "name": "getBlockNumber",
      "outputs": [
        {
          "internalType": "uint256",
          "name": "",
          "type": "uint256"
        }
      ],
      "payable": false,
      "stateMutability": "view",
      "type": "function"
    },
    {
      "constant": true,
      "inputs": [],
      "name": "implementation",
      "outputs": [
        {
          "internalType": "address",
          "name": "",
          "type": "address"
        }
      ],
      "payable": false,
      "stateMutability": "view",
      "type": "function"
    },
    {
      "constant": false,
      "inputs": [
        {
          "internalType": "address",
          "name": "_vrtAddress",
          "type": "address"
        },
        {
          "internalType": "uint256",
          "name": "_interestRatePerBlock",
          "type": "uint256"
        }
      ],
      "name": "initialize",
      "outputs": [],
      "payable": false,
      "stateMutability": "nonpayable",
      "type": "function"
    },
    {
      "constant": true,
      "inputs": [],
      "name": "interestRatePerBlock",
      "outputs": [
        {
          "internalType": "uint256",
          "name": "",
          "type": "uint256"
        }
      ],
      "payable": false,
      "stateMutability": "view",
      "type": "function"
    },
    {
      "constant": false,
      "inputs": [],
      "name": "pause",
      "outputs": [],
      "payable": false,
      "stateMutability": "nonpayable",
      "type": "function"
    },
    {
      "constant": true,
      "inputs": [],
      "name": "pendingAdmin",
      "outputs": [
        {
          "internalType": "address",
          "name": "",
          "type": "address"
        }
      ],
      "payable": false,
      "stateMutability": "view",
      "type": "function"
    },
    {
      "constant": true,
      "inputs": [],
      "name": "pendingImplementation",
      "outputs": [
        {
          "internalType": "address",
          "name": "",
          "type": "address"
        }
      ],
      "payable": false,
      "stateMutability": "view",
      "type": "function"
    },
    {
      "constant": false,
      "inputs": [],
      "name": "resume",
      "outputs": [],
      "payable": false,
      "stateMutability": "nonpayable",
      "type": "function"
    },
    {
      "constant": true,
      "inputs": [
        {
          "internalType": "address",
          "name": "",
          "type": "address"
        }
      ],
      "name": "userInfo",
      "outputs": [
        {
          "internalType": "address",
          "name": "userAddress",
          "type": "address"
        },
        {
          "internalType": "uint256",
          "name": "accrualStartBlockNumber",
          "type": "uint256"
        },
        {
          "internalType": "uint256",
          "name": "totalPrincipalAmount",
          "type": "uint256"
        },
        {
          "internalType": "uint256",
          "name": "lastWithdrawnBlockNumber",
          "type": "uint256"
        }
      ],
      "payable": false,
      "stateMutability": "view",
      "type": "function"
    },
    {
      "constant": true,
      "inputs": [],
      "name": "vaultPaused",
      "outputs": [
        {
          "internalType": "bool",
          "name": "",
          "type": "bool"
        }
      ],
      "payable": false,
      "stateMutability": "view",
      "type": "function"
    },
    {
      "constant": true,
      "inputs": [],
      "name": "vrt",
      "outputs": [
        {
          "internalType": "contract IBEP20",
          "name": "",
          "type": "address"
        }
      ],
      "payable": false,
      "stateMutability": "view",
      "type": "function"
    },
    {
      "constant": false,
      "inputs": [],
      "name": "withdraw",
      "outputs": [],
      "payable": false,
      "stateMutability": "nonpayable",
      "type": "function"
    },
    {
      "constant": false,
      "inputs": [
        {
          "internalType": "address",
          "name": "tokenAddress",
          "type": "address"
        },
        {
          "internalType": "address",
          "name": "receiver",
          "type": "address"
        },
        {
          "internalType": "uint256",
          "name": "amount",
          "type": "uint256"
        }
      ],
      "name": "withdrawBep20",
      "outputs": [],
      "payable": false,
      "stateMutability": "nonpayable",
      "type": "function"
    }
  ],
  "transactionHash": "0x21d46075b22e4961dfad995122e58e9639139f64032ad343c3cb695472205308",
  "args": [],
  "solcInputHash": "1bf391f5db11ccd7dbdaa4d375e9efa1",
  "bytecode": "0x608060405234801561001057600080fd5b50600080546001600160a01b03191633179055611bd8806100326000396000f3fe608060405234801561001057600080fd5b50600436106101215760003560e01c80634e71d92d116100ad578063b6b55f2511610071578063b6b55f2514610274578063bbf14e7414610291578063cd6dc687146102b7578063d8438ae8146102e3578063f851a440146102eb57610121565b80634e71d92d146102385780635c60da1b1461024057806373d025d6146102485780638456cb5914610264578063a9ffd6b21461026c57610121565b80632ff7709e116100f45780632ff7709e146101d0578063396f7b23146101ea5780633ccfd60b146101f257806342cbb15c146101fa57806347ec6db01461020257610121565b8063046f7da2146101265780631959a002146101305780631d504dc61461018657806326782247146101ac575b600080fd5b61012e6102f3565b005b6101566004803603602081101561014657600080fd5b50356001600160a01b03166103da565b604080516001600160a01b0390951685526020850193909352838301919091526060830152519081900360800190f35b61012e6004803603602081101561019c57600080fd5b50356001600160a01b031661040b565b6101b461050c565b604080516001600160a01b039092168252519081900360200190f35b6101d861051b565b60408051918252519081900360200190f35b6101b4610521565b61012e610530565b6101d861080b565b61012e6004803603606081101561021857600080fd5b506001600160a01b0381358116916020810135909116906040013561080f565b61012e610ad1565b6101b4610d7a565b610250610d89565b604080519115158252519081900360200190f35b61012e610d99565b6101b4610e8c565b61012e6004803603602081101561028a57600080fd5b5035610e9b565b6101d8600480360360208110156102a757600080fd5b50356001600160a01b03166111f8565b61012e600480360360408110156102cd57600080fd5b506001600160a01b0381351690602001356112db565b610250611436565b6101b4611446565b6000546001600160a01b03163314610347576040805162461bcd60e51b81526020600482015260126024820152711bdb9b1e4818591b5a5b88185b1b1bddd95960721b604482015290519081900360640190fd5b600354600160a81b900460ff1615156001146103a0576040805162461bcd60e51b815260206004820152601360248201527215985d5b1d081a5cc81b9bdd081c185d5cd959606a1b604482015290519081900360640190fd5b6003805460ff60a81b1916905560405133907fd2619572a1464e0df0bb351d834fd47f3350984d7bfdb1ab69cfcb0b8e42141590600090a2565b60066020526000908152604090208054600182015460028301546003909301546001600160a01b0390921692909184565b806001600160a01b031663f851a4406040518163ffffffff1660e01b815260040160206040518083038186803b15801561044457600080fd5b505afa158015610458573d6000803e3d6000fd5b505050506040513d602081101561046e57600080fd5b50516001600160a01b031633146104b65760405162461bcd60e51b8152600401808060200182810382526022815260200180611b566022913960400191505060405180910390fd5b806001600160a01b031663c1e803346040518163ffffffff1660e01b8152600401600060405180830381600087803b1580156104f157600080fd5b505af1158015610505573d6000803e3d6000fd5b5050505050565b6001546001600160a01b031681565b60055481565b6003546001600160a01b031681565b600354600160a01b900460ff1661057b576040805162461bcd60e51b815260206004820152600a6024820152691c994b595b9d195c995960b21b604482015290519081900360640190fd5b6003805460ff60a01b191690556005546105ca576040805162461bcd60e51b81526020600482015260186024820152600080516020611af8833981519152604482015290519081900360640190fd5b33600081815260066020526040902080546001600160a01b031661061f5760405162461bcd60e51b815260040180806020018281038252602c815260200180611b78602c913960400191505060405180910390fd5b600354600160a81b900460ff1615610670576040805162461bcd60e51b815260206004820152600f60248201526e15985d5b1d081a5cc81c185d5cd959608a1b604482015290519081900360640190fd5b33600061067c826111f8565b6001600160a01b0383166000908152600660205260408120600281015492935091906106ae848363ffffffff61145516565b6000600285015590506106bf61080b565b600184015560048054604080516370a0823160e01b81523093810193909352516000926001600160a01b03909216916370a08231916024808301926020929190829003018186803b15801561071357600080fd5b505afa158015610727573d6000803e3d6000fd5b505050506040513d602081101561073d57600080fd5b50519050818110156107805760405162461bcd60e51b8152600401808060200182810382526032815260200180611a2f6032913960400191505060405180910390fd5b604080518381526020810185905280820187905290516001600160a01b038816917f02f25270a4d87bea75db541cdfe559334a275b4a233520ed6c0a2429667cca94919081900360600190a283546004546107ee916001600160a01b0391821691168463ffffffff6114b816565b50506003805460ff60a01b1916600160a01b179055505050505050565b4390565b6000546001600160a01b03163314610863576040805162461bcd60e51b81526020600482015260126024820152711bdb9b1e4818591b5a5b88185b1b1bddd95960721b604482015290519081900360640190fd5b6000600554116108a8576040805162461bcd60e51b81526020600482015260186024820152600080516020611af8833981519152604482015290519081900360640190fd5b826001600160a01b0381166108fd576040805162461bcd60e51b8152602060048201526016602482015275416464726573732063616e6e6f74206265205a65726f60501b604482015290519081900360640190fd5b826001600160a01b038116610952576040805162461bcd60e51b8152602060048201526016602482015275416464726573732063616e6e6f74206265205a65726f60501b604482015290519081900360640190fd5b6000831161099b576040805162461bcd60e51b8152602060048201526011602482015270185b5bdd5b9d081a5cc81a5b9d985b1a59607a1b604482015290519081900360640190fd5b604080516370a0823160e01b8152306004820152905186916001600160a01b038316916370a0823191602480820192602092909190829003018186803b1580156109e457600080fd5b505afa1580156109f8573d6000803e3d6000fd5b505050506040513d6020811015610a0e57600080fd5b5051841115610a64576040805162461bcd60e51b815260206004820152601c60248201527f496e73756666696369656e7420616d6f756e7420696e205661756c7400000000604482015290519081900360640190fd5b846001600160a01b0316866001600160a01b03167f037238854fe57fbf51f09946f854fc3916fe83938d6521f09bd05463839f1304866040518082815260200191505060405180910390a3610ac96001600160a01b038216868663ffffffff6114b816565b505050505050565b600354600160a01b900460ff16610b1c576040805162461bcd60e51b815260206004820152600a6024820152691c994b595b9d195c995960b21b604482015290519081900360640190fd5b6003805460ff60a01b19169055600554610b6b576040805162461bcd60e51b81526020600482015260186024820152600080516020611af8833981519152604482015290519081900360640190fd5b33600081815260066020526040902080546001600160a01b0316610bc05760405162461bcd60e51b815260040180806020018281038252602c815260200180611b78602c913960400191505060405180910390fd5b600354600160a81b900460ff1615610c11576040805162461bcd60e51b815260206004820152600f60248201526e15985d5b1d081a5cc81c185d5cd959608a1b604482015290519081900360640190fd5b336000610c1d826111f8565b90508015610d61576001600160a01b0380831660009081526006602090815260408083206004805483516370a0823160e01b815230928101929092529251919592909216926370a082319260248082019391829003018186803b158015610c8357600080fd5b505afa158015610c97573d6000803e3d6000fd5b505050506040513d6020811015610cad57600080fd5b5051905082811015610cf05760405162461bcd60e51b8152600401808060200182810382526032815260200180611a2f6032913960400191505060405180910390fd5b6040805184815290516001600160a01b038616917f47cee97cb7acd717b3c0aa1435d004cd5b3c8c57d70dbceb4e4458bbd60e39d4919081900360200190a2610d3761080b565b60018301558154600454610d5e916001600160a01b0391821691168563ffffffff6114b816565b50505b50506003805460ff60a01b1916600160a01b1790555050565b6002546001600160a01b031681565b600354600160a81b900460ff1681565b6000546001600160a01b03163314610ded576040805162461bcd60e51b81526020600482015260126024820152711bdb9b1e4818591b5a5b88185b1b1bddd95960721b604482015290519081900360640190fd5b600354600160a81b900460ff1615610e4c576040805162461bcd60e51b815260206004820152601760248201527f5661756c7420697320616c726561647920706175736564000000000000000000604482015290519081900360640190fd5b6003805460ff60a81b1916600160a81b17905560405133907fdffada2889ebfab9224c24069d833f3de835d8cf99872d49e7b7ba5fccb7a46f90600090a2565b6004546001600160a01b031681565b600354600160a01b900460ff16610ee6576040805162461bcd60e51b815260206004820152600a6024820152691c994b595b9d195c995960b21b604482015290519081900360640190fd5b6003805460ff60a01b19169055600554610f35576040805162461bcd60e51b81526020600482015260186024820152600080516020611af8833981519152604482015290519081900360640190fd5b600354600160a81b900460ff1615610f86576040805162461bcd60e51b815260206004820152600f60248201526e15985d5b1d081a5cc81c185d5cd959608a1b604482015290519081900360640190fd5b60008111610fdb576040805162461bcd60e51b815260206004820152601f60248201527f4465706f73697420616d6f756e74206d757374206265206e6f6e2d7a65726f00604482015290519081900360640190fd5b33600081815260066020526040902080546001600160a01b031661101e5780546001600160a01b0319166001600160a01b03831617815560028101839055611176565b60006110328260020154836001015461150f565b600283015490915061104a908563ffffffff61145516565b600283015580156111745760048054604080516370a0823160e01b81523093810193909352516000926001600160a01b03909216916370a08231916024808301926020929190829003018186803b1580156110a457600080fd5b505afa1580156110b8573d6000803e3d6000fd5b505050506040513d60208110156110ce57600080fd5b50519050818110156111115760405162461bcd60e51b815260040180806020018281038252603e815260200180611b18603e913960400191505060405180910390fd5b6040805183815290516001600160a01b038616917f47cee97cb7acd717b3c0aa1435d004cd5b3c8c57d70dbceb4e4458bbd60e39d4919081900360200190a28254600454611172916001600160a01b0391821691168463ffffffff6114b816565b505b505b61117e61080b565b60018201556040805184815290516001600160a01b038416917fe1fffcc4923d04b559f4d29a8bfc6cda04eb5b0d3c460751c2402c5c5cc9109c919081900360200190a26004546111e0906001600160a01b031683308663ffffffff6115da16565b50506003805460ff60a01b1916600160a01b17905550565b6000816001600160a01b03811661124f576040805162461bcd60e51b8152602060048201526016602482015275416464726573732063616e6e6f74206265205a65726f60501b604482015290519081900360640190fd5b600060055411611294576040805162461bcd60e51b81526020600482015260186024820152600080516020611af8833981519152604482015290519081900360640190fd5b6001600160a01b038316600090815260066020526040902060018101546112bf5760009250506112d5565b6112d18160020154826001015461150f565b9250505b50919050565b6000546001600160a01b031633146113245760405162461bcd60e51b8152600401808060200182810382526023815260200180611ab46023913960400191505060405180910390fd5b6001600160a01b03821661137f576040805162461bcd60e51b815260206004820152601960248201527f767274416464726573732063616e6e6f74206265205a65726f00000000000000604482015290519081900360640190fd5b600554156113be5760405162461bcd60e51b8152600401808060200182810382526022815260200180611a616022913960400191505060405180910390fd5b6005819055806113ff5760405162461bcd60e51b8152600401808060200182810382526031815260200180611a836031913960400191505060405180910390fd5b50600480546001600160a01b039092166001600160a01b03199092169190911790556003805460ff60a01b1916600160a01b179055565b600354600160a01b900460ff1681565b6000546001600160a01b031681565b6000828201838110156114af576040805162461bcd60e51b815260206004820152601b60248201527f536166654d6174683a206164646974696f6e206f766572666c6f770000000000604482015290519081900360640190fd5b90505b92915050565b604080516001600160a01b038416602482015260448082018490528251808303909101815260649091019091526020810180516001600160e01b031663a9059cbb60e01b17905261150a90849061163a565b505050565b60008060055411611555576040805162461bcd60e51b81526020600482015260186024820152600080516020611af8833981519152604482015290519081900360640190fd5b600061155f61080b565b905082158061156e5750808310155b1561157d5760009150506114b2565b600061158f828563ffffffff6117f216565b905060006115d0670de0b6b3a76400006115c4846115b86005548b61183490919063ffffffff16565b9063ffffffff61183416565b9063ffffffff61188d16565b9695505050505050565b604080516001600160a01b0385811660248301528416604482015260648082018490528251808303909101815260849091019091526020810180516001600160e01b03166323b872dd60e01b17905261163490859061163a565b50505050565b61164c826001600160a01b03166118cf565b61169d576040805162461bcd60e51b815260206004820152601f60248201527f5361666542455032303a2063616c6c20746f206e6f6e2d636f6e747261637400604482015290519081900360640190fd5b60006060836001600160a01b0316836040518082805190602001908083835b602083106116db5780518252601f1990920191602091820191016116bc565b6001836020036101000a0380198251168184511680821785525050505050509050019150506000604051808303816000865af19150503d806000811461173d576040519150601f19603f3d011682016040523d82523d6000602084013e611742565b606091505b509150915081611799576040805162461bcd60e51b815260206004820181905260248201527f5361666542455032303a206c6f772d6c6576656c2063616c6c206661696c6564604482015290519081900360640190fd5b805115611634578080602001905160208110156117b557600080fd5b50516116345760405162461bcd60e51b815260040180806020018281038252602a815260200180611a05602a913960400191505060405180910390fd5b60006114af83836040518060400160405280601e81526020017f536166654d6174683a207375627472616374696f6e206f766572666c6f770000815250611908565b600082611843575060006114b2565b8282028284828161185057fe5b04146114af5760405162461bcd60e51b8152600401808060200182810382526021815260200180611ad76021913960400191505060405180910390fd5b60006114af83836040518060400160405280601a81526020017f536166654d6174683a206469766973696f6e206279207a65726f00000000000081525061199f565b6000813f7fc5d2460186f7233c927e7db2dcc703c0e500b653ca82273b7bfad8045d85a4708181148015906112d1575050151592915050565b600081848411156119975760405162461bcd60e51b81526004018080602001828103825283818151815260200191508051906020019080838360005b8381101561195c578181015183820152602001611944565b50505050905090810190601f1680156119895780820380516001836020036101000a031916815260200191505b509250505060405180910390fd5b505050900390565b600081836119ee5760405162461bcd60e51b815260206004820181815283516024840152835190928392604490910191908501908083836000831561195c578181015183820152602001611944565b5060008385816119fa57fe5b049594505050505056fe5361666542455032303a204245503230206f7065726174696f6e20646964206e6f7420737563636565644661696c656420746f207472616e73666572205652542c20496e73756666696369656e742056525420696e205661756c742e5661756c74206d6179206f6e6c7920626520696e697469616c697a6564206f6e6365696e746572657374526174652050657220426c6f636b206d7573742062652067726561746572207468616e207a65726f2e6f6e6c792061646d696e206d617920696e697469616c697a6520746865205661756c74536166654d6174683a206d756c7469706c69636174696f6e206f766572666c6f775661756c74206973206e6f7420696e697469616c697a656400000000000000004661696c656420746f207472616e736665722061636372756564496e7465726573742c20496e73756666696369656e742056525420696e205661756c742e6f6e6c792070726f78792061646d696e2063616e206368616e676520627261696e735573657220646f65736e6f74206861766520616e7920706f736974696f6e20696e20746865205661756c742ea265627a7a72315820fcc9cf982959213912e3e03bce986da31f5b41615900e540fa31e947f4a2409e64736f6c63430005100032",
  "devdoc": {
    "methods": {
      "deposit(uint256)": {
        "params": {
          "depositAmount": "The amount to deposit to vault"
        }
      },
      "getAccruedInterest(address)": {
        "params": {
          "userAddress": "Address of User in the the Vault"
        }
      },
      "withdrawBep20(address,address,uint256)": {
        "params": {
          "amount": "tokenAmount",
          "receiver": "recipient of the BEP20 token",
          "tokenAddress": "address of the BEP20 token"
        }
      }
    }
  },
  "userdoc": {
    "methods": {
      "_become(address)": {
        "notice": "* Admin Functions **"
      },
      "claim()": {
        "notice": "claim the accruedInterest of the user's VRTDeposits in the Vault"
      },
      "deposit(uint256)": {
        "notice": "Deposit VRT to VRTVault for a fixed-interest-rate"
      },
      "getAccruedInterest(address)": {
        "notice": "get accruedInterest of the user's VRTDeposits in the Vault"
      },
      "withdraw()": {
        "notice": "withdraw accruedInterest and totalPrincipalAmount of the user's VRTDeposit in the Vault"
      },
      "withdrawBep20(address,address,uint256)": {
        "notice": "withdraw BEP20 tokens from the contract to a recipient address."
      }
    }
  },
  "storageLayout": {
    "storage": [
      {
        "astId": 42217,
        "contract": "contracts/VRTVault/VRTVault.sol:VRTVault",
        "label": "admin",
        "offset": 0,
        "slot": "0",
        "type": "t_address"
      },
      {
        "astId": 42219,
        "contract": "contracts/VRTVault/VRTVault.sol:VRTVault",
        "label": "pendingAdmin",
        "offset": 0,
        "slot": "1",
        "type": "t_address"
      },
      {
        "astId": 42221,
        "contract": "contracts/VRTVault/VRTVault.sol:VRTVault",
        "label": "implementation",
        "offset": 0,
        "slot": "2",
        "type": "t_address"
      },
      {
        "astId": 42223,
        "contract": "contracts/VRTVault/VRTVault.sol:VRTVault",
        "label": "pendingImplementation",
        "offset": 0,
        "slot": "3",
        "type": "t_address"
      },
      {
        "astId": 42228,
        "contract": "contracts/VRTVault/VRTVault.sol:VRTVault",
        "label": "_notEntered",
        "offset": 20,
        "slot": "3",
        "type": "t_bool"
      },
      {
        "astId": 42230,
        "contract": "contracts/VRTVault/VRTVault.sol:VRTVault",
        "label": "vaultPaused",
        "offset": 21,
        "slot": "3",
        "type": "t_bool"
      },
      {
        "astId": 42232,
        "contract": "contracts/VRTVault/VRTVault.sol:VRTVault",
        "label": "vrt",
        "offset": 0,
        "slot": "4",
        "type": "t_contract(IBEP20)34287"
      },
      {
        "astId": 42234,
        "contract": "contracts/VRTVault/VRTVault.sol:VRTVault",
        "label": "interestRatePerBlock",
        "offset": 0,
        "slot": "5",
        "type": "t_uint256"
      },
      {
        "astId": 42247,
        "contract": "contracts/VRTVault/VRTVault.sol:VRTVault",
        "label": "userInfo",
        "offset": 0,
        "slot": "6",
        "type": "t_mapping(t_address,t_struct(UserInfo)42243_storage)"
      }
    ],
    "types": {
      "t_address": {
        "encoding": "inplace",
        "label": "address",
        "numberOfBytes": "20"
      },
      "t_bool": {
        "encoding": "inplace",
        "label": "bool",
        "numberOfBytes": "1"
      },
      "t_contract(IBEP20)34287": {
        "encoding": "inplace",
        "label": "contract IBEP20",
        "numberOfBytes": "20"
      },
      "t_mapping(t_address,t_struct(UserInfo)42243_storage)": {
        "encoding": "mapping",
        "key": "t_address",
        "label": "mapping(address => struct VRTVaultStorage.UserInfo)",
        "numberOfBytes": "32",
        "value": "t_struct(UserInfo)42243_storage"
      },
      "t_struct(UserInfo)42243_storage": {
        "encoding": "inplace",
        "label": "struct VRTVaultStorage.UserInfo",
        "members": [
          {
            "astId": 42236,
            "contract": "contracts/VRTVault/VRTVault.sol:VRTVault",
            "label": "userAddress",
            "offset": 0,
            "slot": "0",
            "type": "t_address"
          },
          {
            "astId": 42238,
            "contract": "contracts/VRTVault/VRTVault.sol:VRTVault",
            "label": "accrualStartBlockNumber",
            "offset": 0,
            "slot": "1",
            "type": "t_uint256"
          },
          {
            "astId": 42240,
            "contract": "contracts/VRTVault/VRTVault.sol:VRTVault",
            "label": "totalPrincipalAmount",
            "offset": 0,
            "slot": "2",
            "type": "t_uint256"
          },
          {
            "astId": 42242,
            "contract": "contracts/VRTVault/VRTVault.sol:VRTVault",
            "label": "lastWithdrawnBlockNumber",
            "offset": 0,
            "slot": "3",
            "type": "t_uint256"
          }
        ],
        "numberOfBytes": "128"
      },
      "t_uint256": {
        "encoding": "inplace",
        "label": "uint256",
        "numberOfBytes": "32"
      }
    }
  }
}