{
  "address": "0xcBdE600c47F0F81d30b5EFe96d52D816899AEA15",
  "abi": [
    {
      "anonymous": false,
      "inputs": [
        {
          "indexed": true,
          "internalType": "address",
          "name": "previousOwner",
          "type": "address"
        },
        {
          "indexed": true,
          "internalType": "address",
          "name": "newOwner",
          "type": "address"
        }
      ],
      "name": "OwnershipTransferred",
      "type": "event"
    },
    {
      "anonymous": false,
      "inputs": [
        {
          "indexed": false,
          "internalType": "address",
          "name": "tokenAddress",
          "type": "address"
        },
        {
          "indexed": false,
          "internalType": "uint256",
          "name": "withdrawAmount",
          "type": "uint256"
        },
        {
          "indexed": false,
          "internalType": "address",
          "name": "withdrawAddress",
          "type": "address"
        }
      ],
      "name": "WithdrawTreasuryBEP20",
      "type": "event"
    },
    {
      "anonymous": false,
      "inputs": [
        {
          "indexed": false,
          "internalType": "uint256",
          "name": "withdrawAmount",
          "type": "uint256"
        },
        {
          "indexed": false,
          "internalType": "address",
          "name": "withdrawAddress",
          "type": "address"
        }
      ],
      "name": "WithdrawTreasuryBNB",
      "type": "event"
    },
    {
      "payable": true,
      "stateMutability": "payable",
      "type": "fallback"
    },
    {
      "constant": true,
      "inputs": [],
      "name": "owner",
      "outputs": [
        {
          "internalType": "address",
          "name": "",
          "type": "address"
        }
      ],
      "payable": false,
      "stateMutability": "view",
      "type": "function"
    },
    {
      "constant": false,
      "inputs": [],
      "name": "renounceOwnership",
      "outputs": [],
      "payable": false,
      "stateMutability": "nonpayable",
      "type": "function"
    },
    {
      "constant": false,
      "inputs": [
        {
          "internalType": "address",
          "name": "newOwner",
          "type": "address"
        }
      ],
      "name": "transferOwnership",
      "outputs": [],
      "payable": false,
      "stateMutability": "nonpayable",
      "type": "function"
    },
    {
      "constant": false,
      "inputs": [
        {
          "internalType": "address",
          "name": "tokenAddress",
          "type": "address"
        },
        {
          "internalType": "uint256",
          "name": "withdrawAmount",
          "type": "uint256"
        },
        {
          "internalType": "address",
          "name": "withdrawAddress",
          "type": "address"
        }
      ],
      "name": "withdrawTreasuryBEP20",
      "outputs": [],
      "payable": false,
      "stateMutability": "nonpayable",
      "type": "function"
    },
    {
      "constant": false,
      "inputs": [
        {
          "internalType": "uint256",
          "name": "withdrawAmount",
          "type": "uint256"
        },
        {
          "internalType": "address payable",
          "name": "withdrawAddress",
          "type": "address"
        }
      ],
      "name": "withdrawTreasuryBNB",
      "outputs": [],
      "payable": true,
      "stateMutability": "payable",
      "type": "function"
    }
  ],
  "transactionHash": "0x5ebd07e673594e3cc6cc1c20c76a9d7c4cf3710e86186ab86139c748d61a22dc",
  "args": [],
  "solcInputHash": "1c9d8ec594ba847af2327f507736fb54",
  "bytecode": "0x608060405260006100176001600160e01b0361006616565b600080546001600160a01b0319166001600160a01b0383169081178255604051929350917f8be0079c531659141344cd1fd0a4f28419497f9722a3daafe3b4186f6b6457e0908290a35061006a565b3390565b610811806100796000396000f3fe60806040526004361061004a5760003560e01c8063715018a61461004c5780638da5cb5b14610061578063b38d5d8b14610092578063f2fde38b146100d5578063fb9e6b8e14610108575b005b34801561005857600080fd5b5061004a610134565b34801561006d57600080fd5b506100766101d6565b604080516001600160a01b039092168252519081900360200190f35b34801561009e57600080fd5b5061004a600480360360608110156100b557600080fd5b506001600160a01b038135811691602081013591604090910135166101e5565b3480156100e157600080fd5b5061004a600480360360208110156100f857600080fd5b50356001600160a01b031661032d565b61004a6004803603604081101561011e57600080fd5b50803590602001356001600160a01b0316610391565b61013c610477565b6000546001600160a01b0390811691161461018c576040805162461bcd60e51b815260206004820181905260248201526000805160206107bd833981519152604482015290519081900360640190fd5b600080546040516001600160a01b03909116907f8be0079c531659141344cd1fd0a4f28419497f9722a3daafe3b4186f6b6457e0908390a3600080546001600160a01b0319169055565b6000546001600160a01b031690565b6101ed610477565b6000546001600160a01b0390811691161461023d576040805162461bcd60e51b815260206004820181905260248201526000805160206107bd833981519152604482015290519081900360640190fd5b604080516370a0823160e01b8152306004820152905183916000916001600160a01b038716916370a08231916024808301926020929190829003018186803b15801561028857600080fd5b505afa15801561029c573d6000803e3d6000fd5b505050506040513d60208110156102b257600080fd5b50519050808411156102c2578091505b6102dc6001600160a01b038616848463ffffffff61047b16565b604080516001600160a01b0380881682526020820185905285168183015290517fbaa29435fcbb0a4fbf05d1a0c62e83956a0652d287540f94f1f8188352e4722a9181900360600190a15050505050565b610335610477565b6000546001600160a01b03908116911614610385576040805162461bcd60e51b815260206004820181905260248201526000805160206107bd833981519152604482015290519081900360640190fd5b61038e816104d2565b50565b610399610477565b6000546001600160a01b039081169116146103e9576040805162461bcd60e51b815260206004820181905260248201526000805160206107bd833981519152604482015290519081900360640190fd5b8147808211156103f7578091505b6040516001600160a01b0384169083156108fc029084906000818181858888f1935050505015801561042d573d6000803e3d6000fd5b50604080518381526001600160a01b038516602082015281517f0d2b7d10254463c7f440553256de09db44772bbaa752720e51f018d33b910252929181900390910190a150505050565b3390565b604080516001600160a01b038416602482015260448082018490528251808303909101815260649091019091526020810180516001600160e01b031663a9059cbb60e01b1790526104cd908490610572565b505050565b6001600160a01b0381166105175760405162461bcd60e51b81526004018080602001828103825260268152602001806107976026913960400191505060405180910390fd5b600080546040516001600160a01b03808516939216917f8be0079c531659141344cd1fd0a4f28419497f9722a3daafe3b4186f6b6457e091a3600080546001600160a01b0319166001600160a01b0392909216919091179055565b610584826001600160a01b0316610730565b6105d5576040805162461bcd60e51b815260206004820152601f60248201527f5361666542455032303a2063616c6c20746f206e6f6e2d636f6e747261637400604482015290519081900360640190fd5b60006060836001600160a01b0316836040518082805190602001908083835b602083106106135780518252601f1990920191602091820191016105f4565b6001836020036101000a0380198251168184511680821785525050505050509050019150506000604051808303816000865af19150503d8060008114610675576040519150601f19603f3d011682016040523d82523d6000602084013e61067a565b606091505b5091509150816106d1576040805162461bcd60e51b815260206004820181905260248201527f5361666542455032303a206c6f772d6c6576656c2063616c6c206661696c6564604482015290519081900360640190fd5b80511561072a578080602001905160208110156106ed57600080fd5b505161072a5760405162461bcd60e51b815260040180806020018281038252602a81526020018061076d602a913960400191505060405180910390fd5b50505050565b6000813f7fc5d2460186f7233c927e7db2dcc703c0e500b653ca82273b7bfad8045d85a47081811480159061076457508115155b94935050505056fe5361666542455032303a204245503230206f7065726174696f6e20646964206e6f7420737563636565644f776e61626c653a206e6577206f776e657220697320746865207a65726f20616464726573734f776e61626c653a2063616c6c6572206973206e6f7420746865206f776e6572a265627a7a7231582038f5d2057eeec5981956e335aa0d42679716f843da8c91c2dc1db3951948b77264736f6c63430005100032",
  "devdoc": {
    "details": "Contract for treasury all tokens as fee and transfer to governance",
    "methods": {
      "owner()": {
        "details": "Returns the address of the current owner."
      },
      "renounceOwnership()": {
        "details": "Leaves the contract without owner. It will not be possible to call `onlyOwner` functions anymore. Can only be called by the current owner.    * NOTE: Renouncing ownership will leave the contract without an owner, thereby removing any functionality that is only available to the owner."
      },
      "transferOwnership(address)": {
        "details": "Transfers ownership of the contract to a new account (`newOwner`). Can only be called by the current owner."
      },
      "withdrawTreasuryBEP20(address,uint256,address)": {
        "params": {
          "tokenAddress": "The address of treasury token",
          "withdrawAddress": "The withdraw address",
          "withdrawAmount": "The withdraw amount to owner"
        }
      },
      "withdrawTreasuryBNB(uint256,address)": {
        "params": {
          "withdrawAddress": "The withdraw address",
          "withdrawAmount": "The withdraw amount to owner"
        }
      }
    }
  },
  "userdoc": {
    "methods": {
      "withdrawTreasuryBEP20(address,uint256,address)": {
        "notice": "Withdraw Treasury BEP20 Tokens, Only owner call it"
      },
      "withdrawTreasuryBNB(uint256,address)": {
        "notice": "Withdraw Treasury BNB, Only owner call it"
      }
    }
  },
  "storageLayout": {
    "storage": [
      {
        "astId": 33282,
        "contract": "contracts/VTreasury.sol:VTreasury",
        "label": "_owner",
        "offset": 0,
        "slot": "0",
        "type": "t_address"
      }
    ],
    "types": {
      "t_address": {
        "encoding": "inplace",
        "label": "address",
        "numberOfBytes": "20"
      }
    }
  }
}